:020000040800F2
:1000000060050020F1010008531F0008BB1900081B
:10001000511F000829030008993000080000000063
:100020000000000000000000000000006B2200083B
:100030002B03000800000000551F00086D22000877
:100040000B0200080B0200080B0200080B0200085C
:100050000B0200080B0200080B0200080B0200084C
:100060000B0200080B0200080B0200080B0200083C
:100070000B0200080B0200080B0200080B0200082C
:100080000B020008000000000B0200080B02000831
:100090000B0200080B0200080B0200080B0200080C
:1000A0000B0200080B0200080B0200080B020008FC
:1000B0000B0200080B0200080B0200080B020008EC
:1000C0000B0200080B0200080B0200080B020008DC
:1000D0000B020008293000080B0200080B02000880
:1000E0000B0200080B0200080B0200080B020008BC
:1000F0000B0200080B0200080B02000800000000C1
:10010000000000000B020008000000000B020008C5
:100110000B020008000000000B0200080B020008A0
:100120000B0200080B0200080B0200080B0200087B
:100130000B02000800000000000000000B02000895
:100140000B0200080B020008000000000000000085
:10015000000000000000000000000000000000009F
:100160000000000000000000000000000B0200087A
:100170000B0200080000000000000000000000006A
:10018000000000000B02000800000000000000005A
:10019000000000000000000000000000000000005F
:1001A00000000000000000000B0200080B02000825
:1001B0000B0200080B0200080B0200080000000000
:1001C000000000000B02000800000000000000001A
:1001D0000B0200080B020008DFF810D000F092F8C4
:1001E0000048004711360008AFF30080600500208A
:1001F0000648804706480047FEE7FEE7FEE7FEE7C1
:10020000FEE7FEE7FEE7FEE7FEE7FEE7F522000871
:10021000D90100082DE9F05F0546002092469B4673
:1002200088460646814640241BE02846414647460C
:10023000224600F057F853465A46C01A914110D34F
:1002400011461846224600F03EF82D1A67EB0108C9
:100250004F4622460120002100F035F817EB000937
:100260004E41201EA4F10104DFDC484631462A46F7
:100270004346BDE8F09FD2B201E000F8012B491ED1
:10028000FBD270470022F6E710B513460A46044633
:100290001946FFF7F0FF204610BD30B50B4601466A
:1002A00000202022012409E021FA02F59D4205D315
:1002B00003FA02F5491B04FA02F52844151EA2F1BF
:1002C0000102F1DC30BD202A04DB203A00FA02F101
:1002D000002070479140C2F1200320FA03F3194334
:1002E00090407047202A04DB203A21FA02F00021D6
:1002F000704721FA02F3D040C2F120029140084336
:1003000019467047064C074D06E0E06840F00103CF
:1003100094E8070098471034AC42F6D3FFF760FF2B
:1003200088480008A8480008FEE77047002240F609
:10033000B83306E00021491C89B29942FBD3521C14
:1003400092B28242F6D3704772B6FEE710B590F8CB
:10035000253000210122022B03D00421C163012199
:1003600022E003681C6824F00E041C60836C1C6887
:1003700024F480741C6003681C6824F001041C6071
:1003800090F84430046C03F01F0302FA03F3636037
:10039000D0E913345C60436D33B11C6824F480747D
:1003A0001C60D0E916345C6080F82520002280F8BB
:1003B0002420084610BD70B590F8252000240121A6
:1003C0002346022A07D00422C26380F8251080F851
:1003D0002430012429E00268156825F00E05156017
:1003E0000268156825F001051560826C156825F412
:1003F0008075156090F84420056C02F01F0201FA28
:1004000002F26A60D0E913255560426D32B1156879
:1004100025F480751560D0E91625556080F8251003
:1004200080F82430816B01B18847204670BD000000
:1004300070B5044600F0FCF80546601C02D0044884
:100440004068044400F0F4F8401BA042FAD370BDA9
:100450003C0000202DE9FC4FDFF8A0A1002301257E
:100460000AF1040B03244FF00F0C0BF1040EBDE056
:1004700005FA03F632406FD04F68012F05D0022FE6
:1004800003D0112F01D0122F17D1D0F808905F00A0
:1004900004FA07F829EA08090097D1F80C8008FA4D
:1004A00007F848EA0908C0F808804768B7430E799A
:1004B000C6F300169E403E434660C6684FEA4308B6
:1004C00004FA08F7BE4301978F6807FA08F7374325
:1004D000C7604E68022E01D0122E13D1DE0800EB49
:1004E00086060096366A5F07FF0E0CFA07F926EAC1
:1004F0000906D1F8109009FA07F949EA0609009EA1
:10050000C6F820900668019FBE430F7907F00307E5
:1005100007FA08F7374307604E68F60065D5384E8E
:10052000376E47F001073766366E23F0030706F093
:1005300001060096334E3E44B146B6689F074FEA27
:1005400017780CFA08F7BE43B0F1904F05D02E4F44
:10055000B84204D1012717E047E0002714E02B4FF1
:10056000B84201D102270FE0294FB84201D1032739
:100570000AE0284FB84201D1042705E0264FB842CF
:1005800001D1052700E0062707FA08F73743C9F825
:100590000870DAF800605746D1F8048096435FEAA5
:1005A000C83800D516433E60DBF800605F46D1F8DE
:1005B000048096435FEA883800D516433E60DEF833
:1005C00000607746D1F8048096435FEAC82800D5DA
:1005D00016433E60094F0C373E68D1F804809643BD
:1005E0005FEA882800D516433E605B1C0A6832FA31
:1005F00003F67FF43DAFBDE8FC8F0000000401402E
:1006000000100240000001400004004800080048BB
:10061000000C004800100048001400480069084021
:1006200000D0012070470AB1816170478162704734
:1006300001488068704700003C0000200248816843
:1006400042681144816070473C00002010B50024CE
:10065000032000F073F8002000F008F808B101242E
:1006600001E000F025F8204610BD000070B50E4EE8
:1006700005460024706898B14FF47A71B1FBF0F030
:100680000A490968B1FBF0F000F064FD40B9102D93
:1006900006D200222946501E00F030F8356000E0F6
:1006A0000124204670BD00003C00002048000020CE
:1006B0000A4882B0016E41F001010166016E01F04D
:1006C00001010091816D41F080518165806D00F0E4
:1006D0008050009002B000F0A1B80000001002406D
:1006E000002809DB00F01F02012191404009800031
:1006F00000F1E020C0F8001170470000F0B40E4B8C
:100700001B680C46C3F30223C3F10705042D00D96F
:100710000425191D072901D2002300E0DB1E012654
:1007200006FA05F1491E214099409E40761E16406A
:100730003143F0BC02F0C6BC0CED00E0064900F00D
:10074000070208684FF6FF03184040EA0220034AF8
:1007500010430860704700000CED00E00000FA054F
:100760002B492C4B0A6832214A432B4940B1B0F542
:10077000007F086829D020F4C06040F480602CE03D
:100780000868C0F34120022804D051F8800F20F4FB
:10079000807022E0D1F8800020F48070C1F88000E1
:1007A000086820F4C06040F400700860B2FBF3F009
:1007B000401C00E0401E4A69520501D50028F9D1CD
:1007C000486940050AD503207047C0F3412002283C
:1007D00006D051F8800F40F4807008600020704708
:1007E000D1F8800040F48070C1F88000086820F4DF
:1007F000C06040F400700860B2FBF3F0401C00E001
:10080000401E4A695205DBD50028F9D1D8E700001F
:100810004800002040420F000070004002488168FC
:1008200041F4804181607047007000402DE9F84339
:100830000446006800269D4D00035ED5A86D002784
:10084000C00008D4A86D40F08050A865A86D0127AD
:1008500000F080500090DFF85892D9F8001041F471
:100860008071C9F80010FFF7E3FE804606E000BF84
:10087000FFF7DEFEA0EB080002282BD8D9F8000015
:10088000C005F5D5D5F8900010F4407014D0216C57
:10089000814211D0D5F89000D5F8901020F4407026
:1008A00041F48031C5F89010D5F8901021F48031D2
:1008B000C5F89010C5F89000C00711D0FFF7B8FE3A
:1008C000804641F2883907E0FFF7B2FEA0EB08014D
:1008D000494501D903260BE0D5F890008007F3D5F0
:1008E000D5F89000216C20F440700843C5F89000C2
:1008F0001FB1A86D20F08050A8652078C00707D0F0
:10090000D5F88800616820F003000843C5F8880026
:100910002078800707D5D5F88800A16820F00C0062
:100920000843C5F888002078400707D5D5F8880027
:10093000E16820F030000843C5F8880020780007FF
:1009400007D5D5F88800216920F0C0000843C5F814
:1009500088002078800607D5D5F88800616920F4E2
:1009600040600843C5F888002078400607D5D5F8D0
:100970008800A16920F440500843C5F88800207819
:10098000000607D5D5F88800E16920F44040084307
:10099000C5F888002088C00507D5D5F88800216AE9
:1009A00020F440300843C5F888002088800507D52A
:1009B000D5F88800616A20F440200843C5F8880013
:1009C000208840050FD5D5F88800A16A20F4401092
:1009D0000843C5F88800A06AB0F5801F03D1E86815
:1009E00040F48010E860208800050FD5D5F8880015
:1009F000E16A20F440000843C5F88800E06AB0F5D9
:100A0000800F03D1E86840F48010E8602088C004BB
:100A10000FD5D5F88800216B20F040700843C5F849
:100A20008800206BB0F1807F03D1E86840F480102B
:100A3000E86020884FF0006180040ED5D5F888006A
:100A4000626B20F040601043C5F88800606B8842FC
:100A500003D1E86840F48010E860208840040ED597
:100A6000D5F88800A26B20F040601043C5F88800DC
:100A7000A06B884203D1E86840F48010E8602088C9
:100A800000040FD5D5F88800E16B20F040500843F2
:100A9000C5F88800E06BB0F1805F03D1E86840F4EE
:100AA0008030E8603046BDE8F88300000010024066
:100AB000007000402DE9F0470E4605004FF000079A
:100AC00025D0DFF8AC81D8F8000000F00F00B0426C
:100AD0000CD2D8F8001021F00F013143C8F80010F3
:100AE000D8F8000000F00F00B04210D12968614C26
:100AF000C80741F2883A5AD06868DFF87C91032829
:100B000008D0022820682DD0400500282CDB0120C9
:100B1000BDE8F08720688001F9D5E06800F00302A5
:100B2000E068C0F30310401C032A19D0534A00BFE9
:100B3000B2FBF0F0E268C2F306225043E268C2F36F
:100B40004162521C5200B0FBF2F0484517D9A06830
:100B500010F0F00F0CD0880711D5A86840B10EE056
:100B6000474AE5E78003D0E700F0B6F8484506D9E4
:100B7000A06820F0F00040F08000A0608027A0680E
:100B8000696820F003000843A060FFF751FD81462B
:100B900006E000BFFFF74CFDA0EB090151453AD834
:100BA000A068696800F00C00B0EB810FF2D12868F2
:100BB000810714D5400703D5A06840F4E060A06029
:100BC0002878000705D5A06820F4605040F4E06064
:100BD000A060A068A96820F0F000084304E0802F1E
:100BE00003D1A06820F0F000A060D8F800104046C3
:100BF00001F00F01B14216D9016821F00F01314314
:100C00000160FFF715FD074607E000BFFFF710FD85
:100C1000C11B514501D903207AE7D8F8000000F044
:100C20000F00B042F2D12878400705D5A068E968E6
:100C300020F4E0600843A0602878000706D5A0688B
:100C4000296920F4605040EAC100A06000F044F837
:100C5000A1680C4AC1F30311515C01F01F01C840A7
:100C60000949086009480068BDE8F047FFF7FEBC85
:100C7000002002400010024000B4C4040024F4002C
:100C800000366E0170480008480000203C0000203B
:100C90000548064900688968054AC1F30221515C8C
:100CA00001F01F01C84070474800002000100240BA
:100CB000804800080548064900688968054AC1F36C
:100CC000C221515C01F01F01C8407047480000205C
:100CD0000010024080480008184910B58868C0F329
:100CE00081021748012A0BD08A68164BC2F3810291
:100CF000022A06D08A68C2F38102032A03D00020A8
:100D000010BD184610BDCA6802F00304CA68C2F3D9
:100D10000312521C032C02D0B0FBF2F001E0B3FB33
:100D2000F2F0CA68C968C2F306225043C1F34161B8
:100D3000491C4900B0FBF1F010BD0000001002405A
:100D40000024F40000366E012DE9F84304007AD047
:100D50002078FA4DC00747D0A868E96800F00C0079
:100D600001F003010C2802D0082817D001E0032964
:100D700014D06068B0F5803F17D0B0F5A02F286878
:100D800017D020F480302860286820F48020286064
:100D90006068E0B1FFF74CFC064614E02868800369
:100DA00022D560680028D2D01EE0286840F4803048
:100DB000EDE740F480202860F7E700BFFFF738FC3C
:100DC000801B642870D828688003F7D50CE0FFF7F3
:100DD0002FFC064605E000BFFFF72AFC801B6428B5
:100DE000F0D828688003F7D4207880074CD5A8680D
:100DF000E96800F00C0001F003010C2802D004287F
:100E00000DD001E002290AD0E068002828682BD024
:100E100040F480702860FFF70BFC064619E0286854
:100E2000400502D5E068002891D06868217C20F058
:100E3000FE4040EA01606860C1480068FFF716FCA8
:100E4000002800D120E076E1FFF7F2FB801B0228AA
:100E5000B8D828684005F7D56868217C20F0FE40A6
:100E600040EA016068600FE020F480702860FFF7BE
:100E7000DFFB064605E000BFFFF7DAFB801B022818
:100E8000A0D828684005F7D42078000729D56069E4
:100E90000028D5F8940013D040F00100C5F8940064
:100EA000FFF7C6FB064606E090E000BFFFF7C0FB79
:100EB000801B022886D8D5F894008007F6D510E06C
:100EC00020F00100C5F89400FFF7B2FB064604E0ED
:100ED000FFF7AEFB801B022878D8D5F89400800776
:100EE000F6D42078400761D5A86D0026C00008D44C
:100EF000A86D40F08050A865A86D012600F08050D4
:100F0000009090480168C90511D40168804641F4F9
:100F100080710160FFF78CFB074604E0FFF788FB58
:100F2000C01B022852D8D8F80000C005F6D5A0682A
:100F3000012815D00528D5F8900016D020F0010022
:100F4000C5F89000D5F8900020F00400C5F8900096
:100F5000A06841F28838B8B1FFF76AFB07460EE097
:100F6000D5F8900040F00100F0E740F00400C5F82B
:100F70009000F5E7FFF75CFBC11B414526D8D5F88B
:100F800090008007F6D50CE0FFF752FB074604E01F
:100F9000FFF74EFBC11B414518D8D5F890008007DC
:100FA000F6D41EB1A86D20F08050A8652078800688
:100FB00029D5A0690028D5F8980013D040F0010089
:100FC000C5F89800FFF734FB064606E077E000BF5F
:100FD000FFF72EFB801B022877D8D5F898008007F2
:100FE000F6D510E020F00100C5F89800FFF720FBCF
:100FF000064604E0FFF71CFB801B022865D8D5F8E5
:1010000098008007F6D4E069F0B3A968C1F38101C4
:10101000032961D00228286820F0807028600BD056
:10102000E86820F00300E860E86847490840E860A5
:10103000FFF7FEFA04464BE0FFF7FAFA064604E033
:10104000FFF7F6FA801B02283FD828688001F7D402
:10105000F4E908016FF00F0202EB01110843218A45
:101060005204490802EB4151A26841EA02210843B7
:10107000217D4FF07E42490802EB41610843217B0C
:1010800040EAC160E96800E062E0304A114008438C
:10109000E860286840F080702860E86840F0807060
:1010A000E860FFF7C5FA044605E000BFFFF7C0FAA5
:1010B000001B022809D828688001F7D548E004E021
:1010C000FFF7B6FA001B022802D90320BDE8F88317
:1010D00028688001F4D43BE00128F7D0E868226A50
:1010E00000F00301914226D1616A00F0F00209018B
:1010F000103991421FD1A26A00F4FE41B1EB022FD8
:1011000019D194F82C2000F07841B1EBC26F12D1C4
:10111000218E00F4C00249084905A1F50011914251
:1011200009D194F8341000F0C06049084906A1F1D3
:10113000007181420CD00120C8E70000001002407D
:101140003C00002000700040FFFFEEFE0C809F017D
:101150000020BBE710B5401EB0F1807F01D3012015
:1011600010BD4FF0E02460610F21601701F0AAFF6D
:101170000020A06107202061002010BDF0B590F88C
:101180003C20012A3AD0012580F83C50022280F808
:101190003D2003685A689C68194E1A4FB34201D02B
:1011A000BB4204D122F4700C4A6842EA0C02DFF818
:1011B00058C002EA0C02D1F800C04CEA020CC3F895
:1011C00004C00268B2420DD0B2F1804F0AD00F4B7A
:1011D0009A4207D00E4B9A4204D0BA4202D00D4B2D
:1011E0009A4204D1896824F080031943916080F801
:1011F0003D50002180F83C100846F0BD0220F0BDB3
:10120000002C0140003401408FFFFFFD000400402E
:10121000000800400040014010B586B0044614218B
:101220006846FFF72FF82068B0F1804F15D10C48C1
:10123000C16C41F00101C164C06C694600F001005D
:101240000590022000900190002002900390012060
:1012500004904FF09040FFF7FDF806B010BD00007D
:101260000010024070B5044690F83C000D4601287D
:101270000BD0012084F83C000C2A45D007DC5AB181
:10128000042A1BD0082A78D12CE0022070BD102A35
:101290004ED0142A71D15DE0206801F09FF82068DB
:1012A000816941F0080181612068816921F00401B0
:1012B0008161206881692A69114311E0206801F089
:1012C000DBF82068816941F40061816120688169EF
:1012D00021F480618161206881692A6941EA0221E3
:1012E00081614AE0206801F00FF92068C16941F08E
:1012F0000801C1612068C16921F00401C161206851
:10130000C1692A69114311E0206801F045F920689C
:10131000C16941F40061C1612068C16921F4806143
:10132000C1612068C1692A6941EA0221C16124E0E2
:10133000206801F079F92068016D41F0080101652C
:101340002068016D21F0040101652068016D2A69A2
:10135000114311E0206801F09FF92068016D41F40C
:10136000006101652068016D21F4806101652068DC
:10137000016D2A6941EA02210165002084F83C00E0
:1013800070BD10B5040003D094F83D0010B107E023
:10139000012010BD002084F83C00204600F022F817
:1013A000022084F83D00211D206800F0B1FF0120DB
:1013B00084F8480084F83E0084F83F0084F8400038
:1013C00084F8410084F8420084F8430084F8440023
:1013D00084F8450084F8460084F8470084F83D000E
:1013E000002010BD08B50068B0F1804F08D1054855
:1013F000816D41F001018165806D00F00100009078
:1014000008BD00000010024030B50446022269B158
:10141000042912D0082917D00C291CD0102921D05A
:1014200094F84300012824D0012030BD94F83E00F8
:101430000128F9D184F83E201DE094F83F000128EE
:10144000F2D184F83F2016E094F840000128EBD157
:1014500084F840200FE094F841000128E4D184F89A
:10146000412008E094F842000128DDD184F84220B0
:1014700001E084F843200122206800F0A1FF194B0D
:1014800020681949194A984209D0884207D09042E9
:1014900005D0174DA84202D0164DA84203D1456C85
:1014A00045F400454564206898420CD0B0F1804F67
:1014B00009D0114B984206D0104B984203D0884275
:1014C00001D0904207D181680D4A1140062906D00B
:1014D000B1F5803F03D0016841F0010101600020B7
:1014E00030BD0000002C01400034014000400140AC
:1014F0000044014000480140000400400008004052
:101500000700010090F88010012918D0012180F80F
:1015100080102421C0F8841050F8641B0A680B68FE
:1015200023F001030B6022F000510022026050F80A
:10153000643C196020210162027710467047022046
:1015400070477047704770B5044690F880000128D6
:101550001DD0012084F880002420C4F88400206875
:101560000568026822F0010202602068826822F0A9
:1015700060620A438260204601F0C6F82068056078
:101580002020C4F88400002084F8800070BD022070
:1015900070BD70B5044690F8800001281DD0012070
:1015A00084F880002420C4F884002068056802685C
:1015B00022F0010202602068826822F060420A4341
:1015C0008260204601F0A0F8206805602020C4F861
:1015D0008400002084F8800070BD022070BD704738
:1015E000704770472DE9F04103680446D8691968CF
:1015F0009A6840F60F0528424FF0000509D186068B
:101600007ED501F0200602F080573E4378D0216F4E
:10161000FFE0924E924F16400F40374370D0C707FD
:1016200009D0CF0507D501271F62D4F88C3043F0CD
:101630000103C4F88C3083070AD5D30708D0276884
:1016400002233B62D4F88C3043F00403C4F88C309E
:1016500043070AD5D30708D0276804233B62D4F890
:101660008C3043F00203C4F88C3003070CD501F032
:101670002003334308D0266808233362D4F88C3023
:1016800043F00803C4F88C3003050BD54B0109D592
:1016900026684FF400633362D4F88C3043F02003A3
:1016A000C4F88C30D4F88C30002B34D0800609D5A7
:1016B00001F0200002F08051084303D0216F09B1EE
:1016C00020468847D4F88C0021688968490602D4EE
:1016D00010F0280F21D0204601F0D6F8206881684C
:1016E000490615D5816821F040018160E06F78B12D
:1016F0005C498163E06FFEF75EFE00280BD000E0DE
:1017000011E0E06F816B00E02046BDE8F041084742
:101710002046FFF766FFBDE8F0812046FFF761FF36
:10172000C4F88C50F7E7E76E2026012F5CD1C7067E
:101730005AD5CF0658D5102018622068816849060E
:101740002FD5E26F116849680904090CE3D0B4F899
:101750005C308B42DFD9A4F85E10116809688906F5
:1017600018D4016821F4807101602068816821F03B
:10177000010181602068816821F040018160C4F826
:101780008860E5662068016821F010010160E06F63
:10179000FEF7DCFDB4F85C00B4F85E10401A81B2CC
:1017A0001EE0B4F85C10B4F85E20891AB4F85E202C
:1017B00089B2002AAFD00029ADD0026822F490721D
:1017C000026020688268254BDB431A408260C4F8BF
:1017D0008860E56625672068026822F010020260D2
:1017E0002046FFF7AEFE96E7C70209D5570207D598
:1017F0004FF4801018622046BDE8F041FFF7F0BEBC
:1018000007060AD501F0800702F40002174304D04E
:10181000616F00297FF478AF7DE742060CD54A0658
:101820000AD51968204621F040011960C4F8846087
:10183000656700F0C1F86EE7020206D54A0004D5DC
:101840002046BDE8F041FFF7CABEC001CBD5002954
:10185000C9DA2046BDE8F041FFF774BE0100001070
:10186000200100047528000810B5040003D0D4F846
:10187000840010B107E0012010BD002084F8800032
:10188000204600F027F82420C4F88400206801686E
:1018900021F001010160204601F0CEF90128EBD0D2
:1018A000A06A10B1204600F051FF2068416821F481
:1018B000904141602068816821F02A0181602068A0
:1018C000016841F0010101602046BDE8104000F0D0
:1018D000A1BF000010B586B0044614216846FEF78B
:1018E000D1FC17492068884227D11648016E41F47F
:1018F00080410166016E01F480410591C16C41F0A7
:101900000101C164C06C694600F0010005904FF40C
:10191000C0600090022001900020029003900720F8
:1019200004904FF09040FEF795FD002211462520CF
:10193000FEF7E4FE2520FEF7D3FE06B010BD000042
:10194000003801400010024010B4D0F88830202B3D
:101950001BD1B9B1B2B190F88030012B15D0012361
:1019600080F880300023C366094C0368A34206D088
:101970005C68240203D51C6844F080641C6010BCC1
:1019800001F094BA012010BC70470220FBE7000070
:10199000008000400549064BC8798A791A54401CDA
:1019A000C8710122891D0348FFF7CEBF080000203F
:1019B0006A000020CC0000207047FEE700B585B02B
:1019C00014216846FEF75EFCC020009001200190C3
:1019D00002900220039069460248FEF73BFD05B0E5
:1019E00000BD00000004004800B585B01421684621
:1019F000FEF748FC4FF6FF70009000200321CDE970
:101A00000201019069460248FEF724FD05B000BDC1
:101A10000008004800B585B014216846FEF732FC86
:101A20004FF6FF70009001200190032003900020EA
:101A3000029069460248FEF70DFD05B000BD0000AA
:101A40000008004870B5002406462146204600F0F4
:101A500003F900F041F94FF49635304600F010F9E3
:101A6000641CAC42F9D370BD30B587B01421684610
:101A7000FEF708FC1E48C16C41F00401C164C16C52
:101A800001F004010591C16C41F00101C164C16C18
:101A900001F001010591C16C41F00201C164C06C0B
:101AA000012500F0020005904FF44870CDE90005D3
:101AB00000240394694602940E48FEF7CBFC2802EA
:101AC00003940090CDE901544FF0904469462046BC
:101AD000FEF7C0FCFFF79EFFA06940F48070A06194
:101AE00004481830016841F40871016007B030BD46
:101AF0000010024000040048203AD2B2034B02EB2F
:101B0000420203EB021200F019B800007836000818
:101B1000F0B50E460746002540F23F1407E0214687
:101B20003846FFF7E9FF103C6D1CA4B2761C3278F2
:101B3000002A01D0142DF2D3F0BD00002DE9F047AA
:101B400091468A460026044600F086F8DFF8408079
:101B5000012700BF00F0C0F85FF0000539F816005B
:101B600007FA05F10842404601D1408800E00088AC
:101B700000F086F86D1C102DF0D3641CE4B25146C1
:101B8000204600F069F8761C182EE3D3BDE8F087F4
:101B90000000002010B5FFF767FF002000F014F8E8
:101BA000084CA080A088A0F50241303906D000F092
:101BB0005BFA002000F008F8A08010BD00F0CBF91F
:101BC000F7E700000000002070B51D490A6842F4E4
:101BD00000720A600A6842F480720A60184C103C75
:101BE000226842F020022260164A1060086840F025
:101BF0002000086000BF00BF00BF206840F0200048
:101C00002060206840F480702060FFF7EDFE4FF008
:101C10009041886A40F48070886200BF00BF00BFB6
:101C20000848001F006885B2886940F480708861A8
:101C3000FFF7F0FE206840F400702060284670BD79
:101C4000280400481408004801B5BDF80000014907
:101C5000488008BD0000002010B50C460146202039
:101C600000F068F82146BDE81040212000F062B87D
:101C700001B5BDF800000149088008BD0000002042
:101C8000134A116841F400711160114910390B6851
:101C900043F480730B600B6843F020030B600D4B23
:101CA0001860106840F02000106000BF00BF00BF47
:101CB000086840F020000860086840F48070086000
:101CC00000BF00BF00BF086840F4007008607047A4
:101CD00028040048140800481449086840F40070BB
:101CE0000860086840F48070086010481038026886
:101CF00042F0200202600E4B22221A600A6842F073
:101D000020020A6000BF00BF00BF016841F020014F
:101D10000160016841F48071016000BF00BF00BF35
:101D2000016841F400710160704700002804004818
:101D300014080048184B10B51A6842F400721A6073
:101D40001A6842F480721A60134A103A146844F018
:101D500020041460114C2060186840F020001860C6
:101D600000BF00BF00BF106840F020001060106886
:101D700040F4807010602160186840F02000186006
:101D800000BF00BF00BF106840F020001060106866
:101D900040F48070106010BD28040048140800480A
:101DA000F0B587B014216846FEF76CFA2D48C16C77
:101DB00041F00401C164C16C01F004010591C16CE2
:101DC00041F02001C164C16C01F020010591C16C9A
:101DD00041F00101C164C16C01F001010591C16CC8
:101DE00041F00201C164C16C01F002010591C16CB6
:101DF00041F00801C164C06C1B4E00F008004FF4B4
:101E00007F440590002221463046FEF70CFC174F18
:101E1000002204213846FEF706FC0125CDE90045E5
:101E200000240294694630460394FEF713FBCDE983
:101E3000005469464FF090400294FEF70BFB0720D8
:101E4000CDE9000469460A480294FEF703FB04202A
:101E50000090CDE90154694638460394FEF7FAFA3A
:101E600007B0F0BD0010024000080048000C004818
:101E70000004004810B58AB00024079408941C217F
:101E800068460994FEF7FEF916484FF0804101605C
:101E90004F21C0E9011440F2E731C0E90314846125
:101EA000FFF76FFA08B1FEF74FFA079407A90D483C
:101EB0000994FFF763F908B1FEF746FA6020009035
:101EC0004FF4FA70CDE901040422694605480494F0
:101ED000FFF7C8F908B1FEF737FA0248FFF79CF997
:101EE0000AB010BD80000020184810B516490160E6
:101EF0004FF416514160002181600C22C160C0E99D
:101F000004128161C161016241628162FFF7ACFC30
:101F100008B1FEF719FA00210C48FFF73AFB08B1A7
:101F2000FEF712FA00210948FFF70DFB08B1FEF792
:101F30000BFA0648FFF7E6FA002803D0BDE8104088
:101F4000FEF702BA10BD000000380140CC000020AE
:101F5000FEE7FEE7704730B501210020FFF7EAFEFB
:101F60004FF47A70FEF7E2F900210120FFF7E2FE5C
:101F700041F290711020FFF7DDFE4FF41C516020FC
:101F8000FFF7D8FE01216120FFF7D4FE0221462091
:101F9000FFF7D0FE48F210011320FFF7CBFE48F206
:101FA000FE011220FFF7C6FE4FF4A0610220FFF7EA
:101FB000C1FE41F230010320FFF7BCFE40F20334C2
:101FC00021463020FFF7B6FE21463120FFF7B2FE52
:101FD00021463220FFF7AEFEE51E29463320FFF7EB
:101FE000A9FE03213420FFF7A5FE21463520FFF787
:101FF000A1FE14213620FFF79DFE21463720FFF772
:1020000099FE21463820FFF795FE21463920FFF73B
:1020100091FE29463A20FFF78DFE03213B20FFF772
:1020200089FE21463C20FFF785FE4FF4A0513D205C
:10203000FFF780FE4FF400719220FFF77BFE2146F0
:102040009320FFF777FE40F60D019020FFF772FE18
:1020500041F218010320FFF76DFEBDE8304040F269
:1020600073110720FFF766BE10B543F20801E320A5
:10207000FFF760FE1221E720FFF75CFE41F23121FD
:10208000EF20FFF757FE00210120FFF753FE4FF42A
:10209000E0610220FFF74EFE41F230010320FFF71E
:1020A00049FE00210420FFF745FE40F207210820E9
:1020B000FFF740FE00210920FFF73CFE00210A2027
:1020C000FFF738FE00210C20FFF734FE00210D2021
:1020D000FFF730FE00210F20FFF72CFE002110201B
:1020E000FFF728FE07211120FFF724FE0021122010
:1020F000FFF720FE00211320FFF71CFEC820FEF78B
:1021000097F941F290611020FFF714FE40F2272169
:102110001120FFF70FFE3220FEF78AF91D21122051
:10212000FFF708FE3220FEF783F94FF40061132019
:10213000FFF700FE14212920FFF7FCFD0B212B20C7
:10214000FFF7F8FD3220FEF773F900212020FFF79A
:10215000F1FD00212120FFF7EDFD07213020FFF7E1
:10216000E9FD40F207713120FFF7E4FD062132203E
:10217000FFF7E0FD40F204713520FFF7DBFD41F68B
:1021800004713620FFF7D6FD04213720FFF7D2FD7A
:1021900000213820FFF7CEFD40F206713920FFF70D
:1021A000C9FD40F201713C20FFF7C4FD0F213D2025
:1021B000FFF7C0FD00215020FFF7BCFDEF215120AB
:1021C000FFF7B8FD00215220FFF7B4FD40F23F11A8
:1021D0005320FFF7AFFD4FF41C516020FFF7AAFD1D
:1021E00001216120FFF7A6FD00216A20FFF7A2FD73
:1021F00000218020FFF79EFD00218120FFF79AFD3E
:1022000000218220FFF796FD00218320FFF792FD39
:1022100000218420FFF78EFD00218520FFF78AFD35
:1022200010219020FFF786FD00219220FFF782FD0C
:1022300003219320FFF77EFD4FF488719520FFF76F
:1022400079FD00219720FFF775FD00219820FFF709
:1022500071FD41F218010320FFF76CFDBDE810404D
:1022600040F273110720FFF765BD7047FEF7E6B92E
:1022700030B5A5B038216846FEF704F814211FA830
:10228000FEF700F844210EA8FDF7FCFF4FF40070A4
:10229000FEF766FA0220C101039140210491012555
:1022A00000900A21CDE90805CDE90A1007900C90AD
:1022B0000D906846FEF748FD08B172B6FEE70F20A4
:1022C00000241F900320CDE92004229402211FA89E
:1022D0002394FEF7EFFB08B172B6FEE7CDE90E548A
:1022E0000EA8FEF7A3FA002801D072B6FEE725B0CB
:1022F00030BD00000548016841F4700101600349E8
:102300004FF00060803908607047000088ED00E001
:102310002DE9F0430268234B234D244E244C4FF00B
:102320008049984207D0484505D0A84203D0B04222
:1023300001D0A04203D122F070074A683A431D4FF2
:10234000DFF874C0DFF8748098420DD048450BD098
:10235000A84209D0B04207D0A04205D0B84203D06D
:10236000604501D0404503D122F44075CA682A4334
:102370004D6922F080022A4302608A68C2620A68BC
:102380008262984207D0A04205D0B84203D060458F
:1023900001D0404501D10969016301214161BDE8D6
:1023A000F0830000002C01400004004000080040C1
:1023B0000034014000400140004401400048014019
:1023C00010B501F01F030121046A99408C43046297
:1023D000016A9A401143016210BD00002DE9F043EB
:1023E000026A22F001020262056A436882691C4C9B
:1023F00025F0020522400C6822F0030214438A688B
:10240000194E2A43174D194FDFF864C0DFF8649066
:10241000A84207D0B04205D0B84203D0604501D0F1
:10242000484506D122F00808CA6842EA080222F0AC
:102430000402A84207D0B04205D0B84203D060459C
:1024400001D0484505D14D6923F440731D438B6984
:102450002B4343608461496841630262BDE8F083B5
:102460008FFFFEFF002C014000340140004001407E
:102470000044014000480140F0B5026A22F0100219
:102480000262056A42688369194C1B4E23400C683E
:1024900023F4407343EA042425F020038D6843EAC3
:1024A0000513144DA84201D0B04206D1CF6823F0E5
:1024B000800343EA071323F04003A8420AD0B04246
:1024C00008D00E4DA84205D00D4DA84202D00D4DAA
:1024D000A84207D14D6922F4406242EA85028D6923
:1024E00042EA850242608461496881630362F0BD0B
:1024F000FF8FFFFE002C01400034014000400140EE
:102500000044014000480140F0B5026A22F48072A4
:102510000262056A4368C269194C1B4E22400C686E
:1025200022F00302144325F400728D6842EA05226A
:10253000144DA84201D0B04206D1CF6822F4006207
:1025400042EA072222F48062A8420AD0B04208D0B0
:102550000E4DA84205D00E4DA84202D00D4DA84206
:1025600007D14D6923F4405343EA05138D6943EACB
:1025700005134360C4614968C1630262F0BD000095
:102580008FFFFEFF002C014000340140004001405D
:102590000044014000480140F0B5026A22F4805234
:1025A0000262056A4268C369194C1B4E23400C68DD
:1025B00023F4407343EA042425F400538D6843EA6E
:1025C0000533144DA84201D0B04206D1CF6823F4A0
:1025D000004343EA073323F48043A8420AD0B042C1
:1025E00008D00E4DA84205D00D4DA84202D00D4D89
:1025F000A84207D14D6922F4404242EA85128D6912
:1026000042EA85124260C461496801640362F0BD18
:10261000FF8FFFFE002C01400034014000400140CC
:10262000004401400048014030B5026A22F4803283
:102630000262046A4268036D114D2B400D681D4310
:1026400024F400330C8943EA04430E4CA0420BD01F
:102650000D4CA04208D00D4CA04205D00C4CA0421D
:1026600002D00C4CA04204D14C6922F4803242EAE0
:1026700004224260056549688164036230BD000040
:102680008FFFFEFF002C014000340140004001405C
:10269000004401400048014030B5026A22F4801233
:1026A0000262046A4268036D114D24F400142B4049
:1026B0000D6843EA05230D8944EA05540D4DA842EF
:1026C0000BD00D4DA84208D00C4DA84205D00C4DA2
:1026D000A84202D00B4DA84204D14D6922F48022B9
:1026E00042EA8522426003654968C164046230BDE4
:1026F000FF8FFFFE002C01400034014000400140EC
:10270000004401400048014030B5416EB9B1026853
:1027100091689268C1F342610B4B520F9C5CE500DB
:1027200003F10804A25CB5FBF2F2A0F86A205A5C3F
:10273000615CD200B2FBF1F1A0F8681030BD01215C
:10274000A0F86A10F8E700006048000890F8281028
:10275000C90706D001684A68C36A22F400321A43E6
:102760004A6090F82810890706D501684A68036B0B
:1027700022F480321A434A6090F82810490706D59F
:1027800001684A68436B22F480221A434A6090F839
:102790002810090706D501684A68836B22F40042B5
:1027A0001A434A6090F82810C90606D501688A685D
:1027B000C36B22F480521A438A6090F8281089066D
:1027C00006D501688A68036C22F400521A438A60B5
:1027D00090F82810490611D501684A68436C22F424
:1027E00080121A434A60416CB1F5801F06D101681E
:1027F0004A68836C22F4C0021A434A6090F8281099
:10280000090606D501684A68C06C22F4002202431A
:102810004A607047F8B500260446C0F88C60FDF7A2
:1028200007FF0546206800686FF07E47000708D55F
:102830002B4600224FF400112046009700F0A2FB27
:1028400060B92068006840070AD52B4600224FF483
:1028500080012046009700F095FB08B10320F8BDE9
:102860002020C4F88400C4F8880044F86C6F00206D
:102870002675F8BD10B5806A0021A0F85E10A0F89A
:102880005610FEF7AEFE10BD01680A6822F4907281
:102890000A6001688A68094B1A408A60C16E012982
:1028A00004D101680A6822F010020A602021C0F8F1
:1028B00088100021C166016770470000FEFFFFEF2E
:1028C00070B5B0F86010D0F8882004460068222A5D
:1028D00004D0816941F00801816170BD406AA26D38
:1028E00008401080A06D801CA065B4F85E00401EFA
:1028F000A4F85E00B4F85E000028EED120680168FC
:1029000021F4907101602068816821F001018160EB
:102910002020C4F8880000252567E06E012804D037
:102920002046FFF737F8E56670BD2068016821F0A2
:1029300010010160B4F85C102046FEF702FEF2E7D9
:102940002DE9F0470446B0F860600068C569D0F82A
:1029500000A0D0F80880D4F88810222905D0816919
:1029600041F008018161BDE8F087B4F868704FF06C
:1029700000095BE02068406AA16D30400880A06DCE
:10298000801CA065B4F85E00401EA4F85E002068BC
:10299000C569690730D0E9070AD05FEACA5107D58F
:1029A00001210162D4F88C0040F00100C4F88C00D1
:1029B000A8070BD55FEAC87008D02168022008621A
:1029C000D4F88C0040F00400C4F88C0068070BD5E4
:1029D0005FEAC87008D0216804200862D4F88C002F
:1029E00040F00200C4F88C00D4F88C0020B12046DE
:1029F000FEF7F7FDC4F88C90B4F85E00B0B920681B
:102A0000016821F48071016020688168194A1140D1
:102A100081602020C4F88800C4F87090E06E01281E
:102A20001CD02046FEF7B6FFC4F86C900FB1A80684
:102A3000A0D4B4F85E00002895D0B4F868108142A4
:102A400091D92068816821F0805181600A4820670F
:102A50002068016841F02001016084E72068016876
:102A600021F010010160B4F85C102046FEF769FD0A
:102A7000DAE70000FEFFFFEFC128000870B5B0F8EC
:102A80006010D0F8882004460068222A04D08169AA
:102A900041F00801816170BD406A0840A16D087075
:102AA000A06D401CA065B4F85E00401EA4F85E0056
:102AB000B4F85E000028EED12068016821F490711E
:102AC00001602068816821F0010181602020C4F844
:102AD000880000252567E06E012804D02046FEF717
:102AE00059FFE56670BD2068016821F010010160A2
:102AF000B4F85C102046FEF724FDF2E72DE9F0471C
:102B00000446B0F860600068C569D0F800A0D0F84D
:102B10000880D4F88810222905D0816941F0080185
:102B20008161BDE8F087B4F868704FF000095BE0A0
:102B30002068406AA16D30400870A06D401CA065FF
:102B4000B4F85E00401EA4F85E002068C5696907FD
:102B500030D0E9070AD05FEACA5107D501210162E6
:102B6000D4F88C0040F00100C4F88C00A8070BD505
:102B70005FEAC87008D0216802200862D4F88C008F
:102B800040F00400C4F88C0068070BD55FEAC870F9
:102B900008D0216804200862D4F88C0040F00200BC
:102BA000C4F88C00D4F88C0020B12046FEF719FD43
:102BB000C4F88C90B4F85E00B0B92068016821F4C4
:102BC0008071016020688168194A1140816020206D
:102BD000C4F88800C4F87090E06E01281CD020462C
:102BE000FEF7D8FEC4F86C900FB1A806A0D4B4F8D4
:102BF0005E00002895D0B4F86810814291D9206811
:102C0000816821F0805181600A482067206801684E
:102C100041F02001016084E72068016821F0100183
:102C20000160B4F85C102046FEF78BFCDAE7000088
:102C3000FEFFFFEF7D2A00082DE9F0410446016800
:102C400080682269E3691043626900251A431043D2
:102C5000DFF82CC20A688B4B1A4002430A602068D6
:102C60004168E26821F44051114341602168A06944
:102C7000614501D0226A10438A68834B1A4002439F
:102C80008A602068C16A626A21F00F011143C16243
:102C90007E4923687E488B420DD1D0F8880010F021
:102CA000030006D0012855D0022842D003283FD186
:102CB00052E001203DE077498B420BD1D0F88800EB
:102CC00010F00C0035D0042833D0082840D00C2850
:102CD0002ED141E070498B420BD1D0F8880010F022
:102CE000300026D0102835D0202831D030281FD1F0
:102CF00032E06A498B420BD1D0F8880010F0C00056
:102D000017D0402826D0802822D0C02810D123E018
:102D100063450DD1D0F8880010F4406009D0B0F5BB
:102D2000806F17D0B0F5006F12D0B0F5406F13D0A0
:102D300010205B4A5B4F00264FF40041634539D1B8
:102D400060B102280DD004280DD0082831D10EE042
:102D50000220EEE70420ECE70820EAE7FDF798FF01
:102D600003E0114603E0FDF7B7FF01007DD0606A84
:102D700037F810206768B1FBF2F007EB4703834296
:102D80006CD8B0EB073F69D8002308461946FDF719
:102D900041FA090241EA10610202780810187141F3
:102DA0003A460023FDF736FA3F4AA0F540719142BA
:102DB00059D953E0E3694FF6EF788B422DD10928BA
:102DC0004CD2DFE800F005080D4B274B4B4B0E00B3
:102DD000FDF75EFF01E0FDF76DFF010001D144E06A
:102DE0001146606A37F81000B1FBF0F041006068EE
:102DF00001EB5001B1FBF0F080B2A0F110014145B0
:102E00002CD84FF6F0710140C0F342000143206816
:102E1000C1602AE0FDF760FFDFE709281ED2DFE886
:102E200000F005080D1D1F1D1D1D0E00FDF730FFD4
:102E300001E0FDF73FFF010001D116E01146606A95
:102E400037F81000B1FBF0F1606801EB5001B1FB05
:102E5000F0F080B2A0F11001414504D9012504E051
:102E6000FDF73AFFE7E72168C8600120A4F86A008F
:102E700024F8680F2846A660E660BDE8F0810000EF
:102E800000800040F369FFCFFFF4FF1100380140DC
:102E9000001002400044004000480040004C004048
:102EA0000024F40048480008FFFC0F0070B581655D
:102EB000A0F85C20A0F85E200021016783684FF431
:102EC0008056FF24B34204D10369D3B940F2FF1303
:102ED0001DE07F259BB1B3F1805F15D0A0F8601095
:102EE000C0F88C102223C0F8883003689C6844F036
:102EF00001049C60436EB3F1005F0ED027E00369CC
:102F000043B9A0F86040EBE703691BB13F23A0F889
:102F10006030E5E7A0F86050E2E7B0F8683093422F
:102F200015D88268B24201D1026972B1114A0267B2
:102F300080F8801001680A6842F480720A600068B4
:102F4000816841F0805181600FE00B4AEFE78268B1
:102F5000B24201D1026952B1084A026780F880107A
:102F60000068016841F490710160002070BD044A5E
:102F7000F3E70000FD2A0008412900087D2A000827
:102F8000C12800082DE9F0479A4617460E46044628
:102F90004FF000094FF02008089D39E0681C37D039
:102FA000FDF746FBA0EB0A00A84222D80DB320682B
:102FB000016849072CD5C069C043000528D42168A1
:102FC0004FF4006008622068016821F4D07101604C
:102FD0002068816821F001018160C4F88480C4F810
:102FE0008880C4F88C8000BF84F880900320BDE8FE
:102FF000F0872068016821F4D07101602068816841
:1030000021F001018160C4F88480C4F88880EBE776
:103010002068C06936EA000004D00020B842BDD064
:103020000020E4E70120F9E70148FEF7DBBA0000E1
:10303000CC000020154810B50168154A9369C91ADB
:10304000322921D30068906100F00CF9D0B110480A
:1030500010490E300B780478303B9C4212D14B78EB
:103060004478303B9C420DD18B788478303B9C4235
:1030700008D10B79303B03704B79303B4370897931
:10308000303981700020D07110BD00004400002054
:10309000080000206A000020FEE700000FB4084B83
:1030A00010B504A902AA039800F02CF8044602A95E
:1030B000002000F0D1F8204610BC5DF814FB0000A1
:1030C000593200080907090E002804DB00F1E0204E
:1030D00080F80014704700F00F0000F1E02080F845
:1030E000141D704702E008C8121F08C1002AFAD157
:1030F00070477047002001E001C1121F002AFBD178
:10310000704700002DE9FF4F89B09B46044600251B
:1031100006E025280BD05A460B999047641C6D1C7D
:1031200020780028F5D10DB02846BDE8F08F0027A3
:10313000B8460122474900E0074314F8013F203B0D
:1031400002FA03F00842F7D120782E2819D114F89A
:10315000010F47F004072A280ED06FF02F022078C5
:10316000A0F1300109290CD808EB880102EB4101DC
:1031700000EB0108641CF2E70A98641C50F8048B09
:103180000A9020780028CED0642808D0692806D07C
:1031900075281ED05A460B9990476D1C58E00A9925
:1031A0004FF00A0901C90A91002802DA40422D2194
:1031B00002E0390504D52B218DF82010012103E010
:1031C000F90704D02021F7E78A4608AE0DE0002178
:1031D000FAE70A994FF00A0901C90A91F7E7494647
:1031E000FDF75BF8303106F8011D0028F7D1ADEB93
:1031F000060000F12009780701D44FF00108C84506
:1032000002DDA8EB090000E000208046002706E070
:1032100008A85A46C05D0B9990476D1C7F1C574506
:10322000F6DB04E030205A460B9990476D1CB8F14C
:103230000001A8F10108F5DC05E016F8010B5A467B
:103240000B9990476D1CB9F10001A9F10109F4DC5B
:10325000641C65E7092801000A68531C0B601070A4
:10326000704700000548C079072803D10448C0789A
:103270002D2801D000207047012070470800002051
:103280006A00002070B5394D2868394C6169401AD0
:10329000322840D32868606100F06EF860702179B0
:1032A00020EA0102A27080EA01028243E2702071EA
:1032B000002104F12800012A24D0022A2CD0032A5C
:1032C00034D0042A27D1A0F11A0103680E78012214
:1032D000B34235D14E784368B34231D1897883689F
:1032E0008B422DD162712868E06122494FF4FA6067
:1032F0000A68D062C8600968C8228A63A0810A206F
:1033000020702DE06279002A05D10268521C02600B
:103310000A2A00D1016070BD6279002AFBD142689F
:10332000521C42600A2AF6D1416070BD6279002ABF
:10333000FBD18268521C82600A2AF6D1816070BD7E
:103340004FF0FF31016041608160607A401CC0B283
:103350006072022804D9A27228682062286860621C
:10336000BDE870400020FEF76DBB00004400002067
:10337000080000208000002070B51C4C0121204670
:10338000FDF74CF94FF0904570B102212046FDF752
:1033900045F948B104212046FDF740F920B101214B
:1033A0002846FDF73BF9B0B90A20FDF741F80121A5
:1033B0002046FDF733F980B102212046FDF72EF9B2
:1033C00068B104212046FDF729F950B101212846B2
:1033D000FDF724F938B1002070BD012070BD022036
:1033E00070BD032070BD042070BD000000040048C3
:1033F00010B52C4C6079C0B12BA12E48FFF74EFEC2
:103400002C491820FEF784FBA2892BA12948FFF73D
:1034100045FE28494820FEF77BFB227829A1254854
:10342000FFF73CFE2349602028E029A12148FFF74F
:1034300035FE20491820FEF76BFB1A4C2834226811
:10344000501C1FD025A11B48FFF728FE1949482012
:10345000FEF75EFB6268501C19D023A11548FFF7E8
:103460001DFE14496020FEF753FBA268501C13D0C8
:1034700020A11048FFF712FE0E497820BDE8104049
:10348000FEF746BB1EA10B48FFF708FEDEE71FA1B3
:103490000848FFF703FEE4E71FA10648FFF7FEFD1B
:1034A000EAE70000080000202020202020202053F0
:1034B000544100004C00002020202020463A256482
:1034C000487A000020202020443A25642525000069
:1034D00020202020202020505344000020202020A5
:1034E00042313A25640000002020202042323A2553
:1034F000640000002020202042333A2564000000B0
:103500002020202042313A400000000020202020CE
:1035100042323A40000000002020202042333A404E
:103520000000000070B5224C224821466379097AD8
:1035300041F2883213B30068E369C01A904202D2A4
:1035400041F001002EE021F001001B4920724FF4F0
:103550007A700A68D062C860096842108A63A081E4
:10356000322020701249002060712831401E08600E
:10357000486088600020FEF765FA14E0A37A93B1F2
:103580000368256A5B1B93420AD20268636AD21AF7
:10359000642A08D981F0020121720068606202E0A9
:1035A00021F002002072207ABDE8704000F006B8D9
:1035B00008000020440000208000002070B5124D5B
:1035C000044601224FF47F412846FDF72CF80F4EA8
:1035D000012204213046FDF726F80022042130465E
:1035E000FDF721F8210200222846FDF71CF80122F0
:1035F00004213046FDF717F83046BDE87040002240
:103600000421FDF710B8000000080048000C004835
:10361000FDF71CF8FEF72CFEFEF7C2FBFEF764FC7C
:10362000FEF728FCFEF7CAF9FEF7B4FA0020FEF711
:103630000BFB4FF6FF70FEF71BFB0020FEF702FAB4
:103640000020FFF7BBFF04210848FDF7DDFE012243
:1036500007490848FEF778F9FFF714FEFFF7C8FEA0
:10366000FFF760FFFFF7E6FCF6E7000080000020B0
:103670000E000020CC000020000000000000000030
:10368000000000000000000000000000000000003A
:10369000000000000000000000000000000000002A
:1036A0000000000000000000000080018001800197
:1036B0008001800180018001800180018001800102
:1036C00080018001000000008001800100000000F6
:1036D000000000000000000000000000CC00CC0052
:1036E000CC00CC00CC00CC000000000000000000AA
:1036F00000000000000000000000000000000000CA
:1037000000000000000000000000000000000000B9
:1037100000000000600C600C600C30063006FE1FDC
:10372000FE1F300638071803FE1FFE1F180318037C
:103730008C018C018C01000000008000E003F80F78
:103740009C0E8C1C8C188C009800F801E007800EF1
:10375000801C8C188C189C18B80CF00FE0038000AB
:1037600080000000000000000000000000000E18B3
:103770001B0C110C11061106110311039B018E0184
:10378000C038C06C60446044304430441844186C05
:103790000C380000000000000000E001F0033807D2
:1037A000180618063003F001F000F8009C310E33C3
:1037B000061E061C061C063FFC73F02100000000DC
:1037C0000000000000000000000000000C000C00E1
:1037D0000C000C000C000C000000000000000000B9
:1037E00000000000000000000000000000000000D9
:1037F0000000000000000000000000020003800143
:10380000C000C000600060003000300030003000B8
:10381000300030003000300060006000C000C000A8
:103820008001000300020000000020006000C000D2
:103830008001800100030003000600060006000668
:103840000006000600060006000300038001800158
:10385000C000600020000000000000000000000028
:1038600000000000C000C000D806F807E0013003E7
:103870003807000000000000000000000000000009
:103880000000000000000000000000000000000038
:103890000000000080018001800180018001FC3F68
:1038A000FC3F800180018001800180010000000058
:1038B0000000000000000000000000000000000008
:1038C00000000000000000000000000000000000F8
:1038D00000000000000000000000800180010001E5
:1038E0000001800000000000000000000000000057
:1038F00000000000000000000000000000000000C8
:10390000E007E007000000000000000000000000E9
:1039100000000000000000000000000000000000A7
:103920000000000000000000000000000000000097
:1039300000000000000000000000C000C000000007
:1039400000000000000000000000000C000C000659
:1039500000060006000300030003800380018001CD
:103960008001C000C000C0006000600000000000D6
:1039700000000000000000000000E003F007380E27
:10398000180C0C180C180C180C180C180C180C1817
:103990000C180C18180C380EF007E003000000009B
:1039A0000000000000000000000000018001C001D4
:1039B000F00198018801800180018001800180016F
:1039C00080018001800180018001800100000000F1
:1039D00000000000000000000000E003F80F180CD9
:1039E0000C180C1800180018000C000600038001C9
:1039F000C000600030001800FC1FFC1F0000000029
:103A000000000000000000000000E001F807180EB0
:103A10000C0C0C0C000C0006C003C007000C0018B6
:103A200000180C180C18180CF807E0030000000030
:103A300000000000000000000000000C000E000F5D
:103A4000000F800DC00C600C600C300C180C0C0CBE
:103A5000FC3FFC3F000C000C000C000C00000000C0
:103A600000000000000000000000F80FF80F180030
:103A700018000C00EC03FC071C0E001C00180018BA
:103A800000180C181C0C180EF807E00300000000CA
:103A900000000000000000000000C007F00F381C0C
:103AA000181818000C00CC03EC0F3C0E1C1C0C1852
:103AB0000C180C18181C380EF007E003000000006A
:103AC00000000000000000000000FC1FFC1F000CB4
:103AD00000060006000380038001C001C000E00072
:103AE0006000600070003000300030000000000016
:103AF00000000000000000000000E003F007380EA6
:103B0000180C180C180C3806F007F007180C0C18D5
:103B10000C180C180C18380CF80FE003000000000B
:103B200000000000000000000000E003F007380E75
:103B30001C0C0C180C180C181C1C381EF81BE01957
:103B40000018000C000C1C0EF807F001000000002B
:103B50000000000000000000000000000000000065
:103B60000000000080018001000000000000000053
:103B70000000000000000000800180010000000043
:103B80000000000000000000000000000000000035
:103B90000000000080018001000000000000000023
:103BA0000000000000000000800180010001000111
:103BB0008000000000000000000000000000000085
:103BC00000000000000000000010001C800FE00357
:103BD000F8001800F800E003800F001C001000003F
:103BE00000000000000000000000000000000000D5
:103BF0000000000000000000F81F000000000000AE
:103C0000F81F00000000000000000000000000009D
:103C100000000000000000000000000000000000A4
:103C2000000000000000000008003800F001C0079C
:103C3000001F0018001FC007F00138000800000036
:103C400000000000000000000000E003F80F180C66
:103C50000C180C180018000C000600038001C000AE
:103C6000C000C00000000000C000C0000000000054
:103C7000000000000000000000000000E00718182D
:103C80000420C229224A1144094409440944092252
:103C90001113E20C024004201818E0070000000095
:103CA0000000000000000000000080038003C00648
:103CB000C006C006600C600C301830183018F83F91
:103CC000F83F1C700C600C6006C006C000000000CD
:103CD00000000000000000000000FC03FC0F0C0CC2
:103CE0000C180C180C180C0CFC07FC0F0C180C30E2
:103CF0000C300C300C300C18FC1FFC0700000000CE
:103D000000000000000000000000C007F01F38386D
:103D10001C300C7006600600060006000600060057
:103D2000060006600C701C30F01FE0070000000069
:103D300000000000000000000000FE03FE0F060E61
:103D400006180618063006300630063006300630F3
:103D5000063006180618060EFE0FFE0300000000CF
:103D600000000000000000000000FC3FFC3F0C00D1
:103D70000C000C000C000C00FC1FFC1F0C000C00C5
:103D80000C000C000C000C00FC3FFC3F000000008D
:103D900000000000000000000000F83FF83F18009D
:103DA0001800180018001800F81FF81F1800180055
:103DB0001800180018001800180018000000000073
:103DC00000000000000000000000E00FF83F3C7819
:103DD0000E6006E007C00300030003FE03FE03C0FD
:103DE00007C006C00EC03CF0F83FE00F0000000026
:103DF000000000000000000000000C300C300C300F
:103E00000C300C300C300C30FC3FFC3F0C300C30D4
:103E10000C300C300C300C300C300C30000000003A
:103E2000000000000000000000008001800180010F
:103E3000800180018001800180018001800180017A
:103E4000800180018001800180018001000000006C
:103E50000000000000000000000000060006000650
:103E60000006000600060006000600060006000622
:103E70000006180618063807F003E00100000000ED
:103E80000000000000000000000006300618060CCC
:103E9000060606038601C60066007600DE008E0177
:103EA00006030606060C0618063006600000000031
:103EB00000000000000000000000180018001800BA
:103EC0001800180018001800180018001800180032
:103ED0001800180018001800F81FF81F0000000054
:103EE000000000000000000000000EE01EF01EF0C8
:103EF0001EF036D836D836D836D866CC66CC66CCE6
:103F0000C6C6C6C6C6C6C6C686C386C300000000EF
:103F1000000000000000000000000C301C303C30AD
:103F20003C306C306C30CC30CC308C310C330C33BA
:103F30000C360C360C3C0C3C0C380C3000000000ED
:103F400000000000000000000000E007F81F1C381F
:103F50000E70066003C003C003C003C003C003C0EB
:103F600003C006600E701C38F81FE0070000000058
:103F700000000000000000000000FC0FFC1F0C38D7
:103F80000C300C300C300C300C18FC1FFC070C00F3
:103F90000C000C000C000C000C000C0000000000D9
:103FA00000000000000000000000E007F81F1C38BF
:103FB0000E70066003E003C003C003C003C003C06B
:103FC00007E006630E3F1C3CF83FE0F700C000002E
:103FD00000000000000000000000FE0FFE1F063879
:103FE0000630063006300638FE1FFE0706030606BA
:103FF000060C0618061806300630066000000000A1
:1040000000000000000000000000E003F80F1C0C9E
:104010000C180C180C001C00F803E00F001E0038F0
:10402000063006300E301C1CF80FE00700000000C0
:1040300000000000000000000000FE7FFE7F800105
:104040008001800180018001800180018001800168
:10405000800180018001800180018001000000005A
:10406000000000000000000000000C300C300C309C
:104070000C300C300C300C300C300C300C300C3060
:104080000C300C300C301818F81FE007000000004E
:104090000000000000000000000003600630063051
:1040A00006300C180C180C18180C180C380E3006AA
:1040B0003006700760036003C001C001000000000B
:1040C000000000000000000000000360C361C36145
:1040D000C3616633663366336633663366336C1B9F
:1040E0006C1B6C1B2C1A3C1E380E380E0000000096
:1040F000000000000000000000000FE00C7018300D
:104100003018700C600EC00780038003C003E00607
:10411000700C301C18180C300E6007E00000000016
:104120000000000000000000000003C006600C302A
:104130001C383818300C6006E007C003800180018D
:104140008001800180018001800180010000000069
:1041500000000000000000000000FC7FFC7F006009
:1041600000300018000C000600038001C000600051
:10417000300018000C000600FE7FFE7F00000000EB
:1041800000000000000000000000E003E003600009
:10419000600060006000600060006000600060001F
:1041A000600060006000600060006000600060000F
:1041B0006000E003E0030000000030003000600019
:1041C00060006000C000C000C000C001800180012C
:1041D0008001000300030003000600060000000049
:1041E00000000000000000000000E003E003000306
:1041F00000030003000300030003000300030003A7
:104200000003000300030003000300030003000396
:104210000003E003E003000000000000C001C00153
:1042200060036003600330063006180C180C0000B1
:10423000000000000000000000000000000000007E
:10424000000000000000000000000000000000006E
:10425000000000000000000000000000000000005E
:1042600000000000000000000000FFFFFFFF000052
:10427000000000000000000000000C000C000C001A
:104280000C000C000C00000000000000000000000A
:10429000000000000000000000000000000000001E
:1042A000000000000000000000000000000000000E
:1042B00000000000F003F8071C0C0C0C000FF00FBE
:1042C000F80C0C0C0C0C1C0FF80FF0180000000080
:1042D0000000000000000000000018001800180096
:1042E00018001800D803F80F380C181818181818E8
:1042F000181818181818380CF80FD8030000000008
:1043000000000000000000000000000000000000AD
:1043100000000000C003F007300E180C1800180051
:1043200018001800180C300EF007C0030000000041
:104330000000000000000000000000180018001835
:1043400000180018C01BF01F301C18181818181877
:10435000181818181818301CF01FC01B0000000097
:10436000000000000000000000000000000000004D
:1043700000000000C003F00F300C1818F81FF81FE1
:10438000180018003818301CF00FC007000000009B
:1043900000000000000000000000800FC00FC000FF
:1043A000C000C000F007F007C000C000C000C0009F
:1043B000C000C000C000C000C000C000000000007D
:1043C00000000000000000000000000000000000ED
:1043D00000000000E00DF80F180E0C0C0C0C0C0C7B
:1043E0000C0C0C0C0C0C180EF80FE00D000C0C0C47
:1043F0001C06F807F0010000000018001800180063
:1044000018001800D807F80F381C181818181818B2
:10441000181818181818181818181818000000007C
:1044200000000000000000000000C000C00000000C
:1044300000000000C000C000C000C000C000C000FC
:10444000C000C000C000C000C000C00000000000EC
:1044500000000000000000000000C000C0000000DC
:1044600000000000C000C000C000C000C000C000CC
:10447000C000C000C000C000C000C000C000C0003C
:10448000C000F8007800000000000C000C000C00D8
:104490000C000C000C0C0C060C038C01CC006C0006
:1044A000FC009C018C030C030C060C0C00000000AB
:1044B00000000000000000000000C000C000C000BC
:1044C000C000C000C000C000C000C000C000C000EC
:1044D000C000C000C000C000C000C000000000005C
:1044E00000000000000000000000000000000000CC
:1044F000000000007C3CFF7EC7E383C183C183C111
:1045000083C183C183C183C183C183C10000000013
:10451000000000000000000000000000000000009B
:10452000000000009807F80F381C18181818181801
:10453000181818181818181818181818000000005B
:10454000000000000000000000000000000000006B
:1045500000000000C003F00F300C181818181818CD
:10456000181818181818300CF00FC00300000000BD
:10457000000000000000000000000000000000003B
:1045800000000000D803F80F380C18181818181875
:10459000181818181818380CF80FD8031800180035
:1045A00018001800180000000000000000000000C3
:1045B00000000000C01BF01F301C18181818181835
:1045C000181818181818301CF01FC01B00180018F5
:1045D0000018001800180000000000000000000093
:1045E00000000000B007F003700030003000300021
:1045F000300030003000300030003000000000009B
:1046000000000000000000000000000000000000AA
:1046100000000000E003F003380E180C3800F0032F
:10462000C007000C180C380EF007E0030000000073
:104630000000000000000000000000008000C0003A
:10464000C000C000F007F007C000C000C000C000FC
:10465000C000C000C000C000C0078007000000000C
:10466000000000000000000000000000000000004A
:10467000000000001818181818181818181818181A
:10468000181818181818381CF01FE019000000003E
:10469000000000000000000000000000000000001A
:1046A000000000000C18180C180C180C300630060E
:1046B0003006600360036003C001C0010000000019
:1046C00000000000000000000000000000000000EA
:1046D00000000000C141C141C36163636363636360
:1046E0003636363636361C1C1C1C1C1C00000000DE
:1046F00000000000000000000000000000000000BA
:10470000000000001C38381C300C60066003600399
:10471000600360036006300C381C1C380000000089
:104720000000000000000000000000000000000089
:10473000000000001830301830187018600C600C41
:10474000E00CC006C0068003800380038001800166
:10475000C001F00070000000000000000000000038
:1047600000000000FC1FFC1F000C0006000380017D
:10477000C000600030001800FC1FFC1F000000009B
:104780000000000000000000000000038001C000E5
:10479000C000C000C000C000C00060006000300069
:1047A00060004000C000C000C000C000C000C000E9
:1047B00080010003000000000000800180018001F2
:1047C00080018001800180018001800180018001E1
:1047D00080018001800180018001800180018001D1
:1047E000800180018001000000006000C000C00165
:1047F0008001800180018001800100030003000628
:10480000000300018001800180018001800180019E
:10481000C000600000000000000000000000000078
:104820000000000000000000F010F81F080F00005A
:104830000000000000000000000000000000000078
:10484000000000000000000001000200040006005B
:1048500008000A000C001000200040008000000149
:10486000010101030701000008040204080101011D
:104870000000000000000000010203040607080910
:104880000000000001020304A84800080000002006
:104890004C000000E4300008F44800084C00002000
:1048A00014050000F43000080000FFFF00000000C5
:1048B000320000000000000000000000D0070102EC
:1048C00003000000000000000000000000000000E5
:1048D0000000000000000000FFFFFFFFFFFFFFFFE0
:1048E000FFFFFFFF100000000100000000000000BB
:0448F0000024F400AC
:04000005080001D915
:00000001FF
