:020000040800F2
:100000000009002099020008F3420008BB3B0008E9
:10001000F142000819160008D15500080000000040
:100020000000000000000000000000000B46000877
:100030001B16000800000000F54200080D460008ED
:10004000B3020008B3020008B3020008B3020008BC
:10005000B3020008B3020008B3020008B3020008AC
:10006000B3020008B3020008B3020008B30200089C
:10007000B3020008B3020008B3020008B30200088C
:10008000B302000800000000B3020008B302000839
:10009000B3020008B3020008B3020008B30200086C
:1000A000B3020008B3020008B3020008B30200085C
:1000B000AD460008B3020008B3020008B30200080E
:1000C000B3020008B3020008B3020008B30200083C
:1000D000B3020008E5540008B3020008B3020008A8
:1000E000B3020008B3020008B3020008B30200081C
:1000F000B3020008B3020008B302000800000000C9
:1001000000000000B302000800000000B302000875
:10011000B302000800000000B3020008B3020008A8
:10012000B3020008B3020008B3020008B3020008DB
:10013000B30200080000000000000000B302000845
:10014000B3020008B3020008000000000000000035
:10015000000000000000000000000000000000009F
:10016000000000000000000000000000B3020008D2
:10017000B3020008000000000000000000000000C2
:1001800000000000B30200080000000000000000B2
:10019000000000000000000000000000000000005F
:1001A0000000000000000000B3020008B3020008D5
:1001B000B3020008B3020008B30200080000000008
:1001C00000000000B3020008000000000000000072
:1001D000B3020008B302000800F002F800F04CF887
:1001E0000AA090E8000C82448344AAF10107DA4592
:1001F00001D100F041F8AFF2090EBAE80F0013F098
:10020000010F18BFFB1A43F001031847747900006F
:1002100094790000103A24BF78C878C1FAD8520700
:1002200024BF30C830C144BF04680C607047000070
:100230000023002400250026103A28BF78C1FBD8EF
:10024000520728BF30C148BF0B607047662906F0CF
:100250004283642900F0CC80002070471FB506F06F
:1002600035FB00F061FC04000020002105F01EFEBB
:10027000E0601FBD10B510BD00F056FD1146FFF740
:10028000EDFF05F0C5FD00F074FD03B4FFF7F2FFCC
:1002900003BC00F0B7FD000009488047094800474B
:1002A000FEE7FEE7FEE7FEE7FEE7FEE7FEE7FEE726
:1002B000FEE7FEE704480549054A064B7047000083
:1002C0009D460008D9010008000300200009002015
:1002D000000500200005002053EA020C00F06980B0
:1002E0002DE9F04B4FF00006002B1FBFB3FA83F54A
:1002F00003FA05F424FA05F65E4012BF1643B2FA7B
:1003000082F502FA05F4C5F120051EBF22FA05FCAC
:1003100044EA0C04203556EA044C4FEA144418BF52
:10032000641C4FF000084FF00009904271EB030C81
:1003300039D3002919BFB1FA81F701FA07F6B0FAEB
:1003400080F700FA07F6C7F120071EBF20FA07FC66
:1003500046EA0C062037B6FBF4FCA7EB0507103F76
:1003600007F01F0BCBF120060CFA0BFB2CFA06F65C
:1003700044BFB3460026202FA4BF5E464FF0000BBB
:100380005BEA060C08BF4FF0010B19EB0B09ABFB46
:10039000027C48EB0608C01B06FB02CC0BFB03CC1F
:1003A00071EB0C01C1E70B46024641464846BDE8E9
:1003B000F08B13B54FF000004FF00001AFF3008059
:1003C000BDE81C40704700000FB41CB5074B06AADF
:1003D0007B4469460090059800F08DFB002069463B
:1003E00000F09CFB1CBC5DF814FB000049070000FA
:1003F0002DE9F0410646002410687529314616A5FE
:1004000010D0AFF30080002802DA404213A507E0C5
:1004100031688A0701D512A502E0490704D511A564
:10042000012401E0AFF3008000210A2206F1240735
:1004300009E0B0FBF2FCB0FBF2F302FB1C00303031
:1004400078541846491C0028F3D123462A463046E2
:10045000BDE8F04100F0E2B8000000002D0000000F
:100460002B000000200000002DE9F0474FF0000AAB
:1004700089460446C0F820A02046E1688847002845
:1004800076D0252806D0D4E901219047206A401C67
:100490002062F1E7E168204600268847C4F81CA0E6
:1004A00005460027C4F818A02A2D09D0284605F0D3
:1004B000B8F838B304EB8708303DC8F8185019E095
:1004C00059F8041B204604EB87029161E1688847D4
:1004D000012F054618D1E069002820DA26F0200611
:1004E0001DE0D8F8180000EB800005EB4000303824
:1004F000C8F818002046E1688847054605F091F8DD
:100500000028EED1012F0AD02E2D08D12046E16817
:1005100088477F1C0546022F46F02006C4DBA069F1
:10052000002803DA404246F00106A061F00701D03E
:1005300026F010066C2D0AD0682D08D04C2D39D02D
:100540006A2D35D0742D35D07A2D33D016E0E16880
:100550002F4620468847B84205460AD16C2F27D03F
:100560004FF48060E168064320468847054605E071
:1005700027E06C2F1AD04FF4807006430DB3A5F11D
:100580004100192802D8203546F400664A4629461B
:10059000204626604E46FFF759FE80B101280BD059
:1005A000F61D26F0070000F1080965E74020E4E7A2
:1005B0008020D7E70020D5E706F104095CE728464C
:1005C00061E7206ABDE8F0874FF0000200B51346EE
:1005D00094469646203922BFA0E80C50A0E80C5063
:1005E000B1F12001BFF4F7AF090728BFA0E80C5014
:1005F00048BF0CC05DF804EB890028BF40F8042B0D
:1006000008BF704748BF20F8022B11F0804F18BF79
:1006100000F8012B70477047704770472DE9F0478D
:100620000D4699469246044600F124080168880662
:1006300004D5E06921F01001216000E00120A8420A
:1006400001DD471B00E00027A1697A1902EB0900D0
:10065000081AA0612078C00602D42046AFF30080BB
:10066000002608E0D4E901211AF806009047206A24
:10067000401C761C20624E45F4DB2078C0060AD56B
:100680002046AFF3008006E0D4E9012130209047F6
:10069000206A401C2062381EA7F10107F4DC07E045
:1006A000D4E9012118F805009047206A401C206217
:1006B000281EA5F10105F3DC2046AFF30080207869
:1006C000000602D50220BDE8F0870120FBE7704755
:1006D0002DE9FF4F0C461E464FF0FF378BB0D2E995
:1006E0000001DDF860800A908A46C1F30A5505B919
:1006F0003D46002108464FF00000BAF1000F00F41B
:10070000400005DA00EB80004FF4400101EA5000A0
:100710004FEA9059B9F1010F00DDB9460A9850EA45
:100720004A000ED044F61050A5F2FF3545432F1471
:10073000B8F1000F1ED07542291E1EDDC9F100025E
:100740001CE0B8F1010F4FF0000001D0302103E0B0
:10075000F24305E02154401CB042FBDB304600224E
:10076000002121540B99C1F80880C1E900200FB085
:10077000BDE8F08FBD1B6D1CDEE74A4600DA69421A
:1007800006A800F05BFA06AB93E8070003AB83E82A
:10079000070050460A9900F03CFB8DE80700A0F5E1
:1007A00000501F3800900398002D0ADD42F21F010F
:1007B0004A460844002303A90390684600F0A5FDBB
:1007C00009E0A0F500504A461F38002303A9039012
:1007D000684600F0AFFD8DE807000004000C03D070
:1007E0004FF0FF30410800E01046B8F1000F03D091
:1007F0000022009215461EE0751E05D400F098F9FF
:10080000303262556D1EF9D5B3460122084302D03D
:1008100000227F1C04E02078302801D100227F1EB6
:10082000002A099784D01DE0112D07DA00F080F925
:10083000303262556D1C50EA0102F5D1084302D0F6
:100840000098C8B10EE00021681E05E0235C625CE0
:1008500063542254401E491C8142F7DBAB46A81B5F
:10086000401E0990002004F80B000B98099AC0F86C
:100870000880C0E9002B7AE711264FF0000857E7FF
:100880002DE9F04F88460446D21D22F0070191B0B1
:10089000D1E90001CDE90A0104F09BFE02460B9864
:1008A000C00F01D02D2007E02068810701D52B2043
:1008B00002E0202101EAC000032A099001D0072AA2
:1008C00005DB03464146204600F078F90BE120782D
:1008D000800601D5E06900E00620B8F1650F814689
:1008E00006D0B8F1660F18D0B8F1670F70D131E0BB
:1008F0000020B9F1110F009001DB112301E009F193
:1009000001030AAA01A90CA8FFF7E2FEDDE90C70B9
:10091000002609F10105834647E001204B4600907F
:100920004FF000470AAA01A90CA8FFF7D1FEDDE9A4
:100930000DB00C995D46002610B909F101000D18A3
:10094000B9EB050003D4C0F1FF3609F10105A5EBB1
:1009500009002BE0B9F1010F01DA4FF00109002085
:10096000B9F1110F0090484601DD112300E0034664
:100970000AAA01A90CA8FFF7ABFEDDE90C704D46F1
:1009800000268346207800070AD4AB4500DA5D468E
:1009900001A8012D04DD411911F8011C302907D0EF
:1009A0004F4502DA17F1040F04DA012082460FE006
:1009B0006D1EEEE7002F02DCED1B3E4403E0781CC9
:1009C000A84200DD7D1CB81B00F1010A4FF0004772
:1009D0002078000703D4AA4501DB4FF0FF3A00213D
:1009E000B7F1004F0DF143088DF8431024D00220D9
:1009F0002B23002F01DA7F422D230A21021EA0F1B2
:100A0000010000DC5FB197FBF1FC97FBF1F201FB09
:100A10001C7C17460CF1300C08F801CDEEE7A8F16C
:100A2000010003702188090501D5452100E06521F9
:100A3000A0F1010800F8011C09980FA9A1EB080713
:100A4000FF1D00B10120411901EBEA70A169384492
:100A5000081A401EA0612078C00602D42046AFF3D9
:100A60000080099828B1D4E901219047206A401CF0
:100A700020622078C00622D52046AFF300801EE019
:100A8000002E04DBB34502DD01A8805D00E03020CC
:100A9000D4E901219047206A401C2062761CAAF10B
:100AA00001005FEA000A0AD100F03EF8C068016860
:100AB000405CD4E901219047206A401C2062281E36
:100AC000A5F10105DCDC07E0D4E9012118F8010BF0
:100AD0009047206A401C2062381EA7F10107F3DC12
:100AE0002046AFF30080032011B041E601694A1CA3
:100AF00002610878704700B58FB0CDE9013100215F
:100B0000059105497944CDE9031011466846FFF780
:100B1000ABFC0FB000BD0000E5FFFFFF0A6802F864
:100B2000010B0A607047000000487047BC020020BB
:100B300030B5B0F10A024FEA900E71F100034EEAAF
:100B4000817EB0EB0E0061EB91014FEA101E4EEA80
:100B5000017E10EB0E0041EB11114FEA102E4EEA10
:100B6000016E10EB0E0041EB11214FEA104E4EEAE0
:100B7000014E10EB0E0041EB1141401841F1000114
:100B80004FEAD00040EA41704FEAD10110EB8005F6
:100B90004FEA810444EA907444EB01046D1944EB7C
:100BA0000404521BA3414FF0000348BF0A3200D592
:100BB00030BD401C41F1000130BD00002DE9F04185
:100BC0001F46044603260168072A01F4006004DB7F
:100BD00008B116A505E016A503E008B115A500E0CB
:100BE00015A521F010002060A069C01EA0610FB102
:100BF000401EA0612046AFF300804FB1D4E901212F
:100C000038469047206A401C2062C01C206206E0E3
:100C1000206AFAE7D4E9012115F8010B9047761E06
:100C2000F8D22046AFF30080BDE8F0814E414E007F
:100C30006E616E00494E4600696E66002DE9F04710
:100C4000814616468AB0354878440DC88DE80D00B7
:100C500032487844801C03AC0DC884E80D0041F68E
:100C60009B300844372190FBF1F290FBF1F5A5F1A0
:100C7000800501FB12041B3C02D56442012000E008
:100C80000020DFF898A080460027FA44AAF1BE0AA7
:100C90000EE0E0070AD03246684607EB4701012321
:100CA0000AEB810100F046FB8DE8070064107F1C11
:100CB000002CEED1194F7F44AE3F19E0E80715D064
:100CC00007EB04100DF1180A90E80E008AE80E00F8
:100CD000C068F04201D1981908903246012306A954
:100CE00003A800F027FB03AB83E807006D10641C2A
:100CF000002DE3D14FF0010332466946B8F1000FF1
:100D000003A802D000F001FB01E000F013FBC9E9E9
:100D10000001C9F808200AB0BDE8F0871C6F000088
:100D2000004870479C0200207546FFF7F9FFAE4669
:100D300005006946534620F00700854618B020B5E7
:100D4000FFF7B8FABDE820404FF000064FF000076B
:100D50004FF000084FF0000B21F00701AC46ACE863
:100D6000C009ACE8C009ACE8C009ACE8C0098D46D0
:100D7000704710B50446AFF300802046BDE8104030
:100D8000FFF783BA4FF0013C50F8042B51F8043BB5
:100D90009A4221D1A2EB0C03934313EACC1317D14F
:100DA00050F8042B51F8043B9A4215D1A2EB0C03E6
:100DB000934313EACC130BD150F8042B51F8043BA6
:100DC0009A4209D1A2EB0C03934313EACC13DBD074
:100DD0004FF00000704700BFD01A01BAB1FA81F19C
:100DE00001F0180122FA01F0CB40C1F12001DBB281
:100DF000C0B2C01A2CFA01F3D11A914311EAC311FF
:100E0000E6D1704701491820ABBEFEE7260002007C
:100E100070475FEA400C08BF91F0000F4FEA8C2347
:100E20004FEAC12243EA51514FEA1C5018BF00F566
:100E3000F0404FEA300018BF41F000415FEA6C5CBF
:100E400000F02980BCF1FF3F08BF40F080407047B0
:100E5000130C06BF12044FF0100C4FF0000C130ED1
:100E600004BF12020CF1080C130F04BF12010CF1A5
:100E7000040C930F04BF92000CF1020CD30F04BFBB
:100E800052000CF1010C11464FF00002A0F11F00BE
:100E9000A0EB0C00704711F0004F08BF704731F015
:100EA00000413FF4D5AF0B0C06BF09044FF0100C06
:100EB0004FF0000C0B0E04BF09020CF1080C0B0FD5
:100EC00004BF09010CF1040C8B0F04BF89000CF165
:100ED000020CCB0F04BF49000CF1010CCCF1200334
:100EE000A0EB0C0022FA03F302FA0CF241EA030130
:100EF00000F10100704720F07F4C80EA030023F0EE
:100F00007F47ACEB070303F57C5300F0004003F18F
:100F1000FF032DE980494FEA154B09B44FEA14430A
:100F200025EA0B4E24EA03480FF2042606EB1327AA
:100F300049083E785FEA320203FB0667C7F50007FF
:100F400007FB06F64FEA54374FEAD64606F102068B
:100F500007FB066CCCF1005C4FEA1C472CEA074CFF
:100F600007FB06F40CFB06F504EB15464FEA961654
:100F700034BF00204FF000404FEAD13706FB07FC9A
:100F80004FEA1C4C0CFB0BF7D21B03FB0CF761EB7D
:100F900007010CFB0EF7B0EB074072EB17420CFB9E
:100FA00008F734BFA2EB0742B2EB074261EB1741EF
:100FB0004FEA0C444FEA910706FB07FC4FEA1C4C32
:100FC0000CFB0BF7B0EBC74072EB573203FB0CF78F
:100FD00034BFA2EBC742B2EBC74261EB57310CFB07
:100FE0000EF7B0EBC70072EB57720CFB08F734BF7B
:100FF000A2EBC702B2EBC70261EB5771039F4FEA46
:10100000816141EA921104EBCC044FEAD1374FEAF7
:10101000826206FB07FC42EA90124FEA80604FEAC8
:101020001C4C0CFB0BF7D21B03FB0CF761EB07010D
:101030000CFB0EF7B0EB074072EB17420CFB08F706
:1010400034BFA2EB0742B2EB074261EB17414FEA14
:101050008C554FEA910704EB9C2406FB07FC4FEAF2
:101060001C4C0CFB0BF7B0EBC74072EB573203FB89
:101070000CF734BFA2EBC742B2EBC74261EB57316A
:101080000CFB0EF7B0EBC70072EB57720CFB08F7C6
:1010900034BFA2EBC702B2EBC70261EB577115EB8D
:1010A0004C254FEA816141EA92114FEA82624FEA90
:1010B000D13742EA901206FB07FC44F100044FEAE4
:1010C00080604FEA1C4C0CFB0BF7D21B03FB0CF7A8
:1010D00061EB07010CFB0EF7B0EB074072EB174218
:1010E0000CFB08F734BFA2EB0742B2EB074261EBFF
:1010F000174115EB1C154FEA813141EA92414FEA45
:10110000823242EA90424FEA80304FEA0C7644F154
:10111000000448EA03434EEA0B484FF0000EB2EBDE
:10112000080C71EB030724BF624639464EEB0E0EE6
:101130004FF0000B0018524149414BEB0B0BB2EB47
:10114000080C71EB03077BF1000B24BF62463946A4
:101150004EEB0E0E4FF0000B0018524149414BEB85
:101160000B0BB2EB080C71EB03077BF1000B24BFF8
:10117000624639464EEB0E0E51EA020718BF46F0A2
:10118000010616EB0E7655F1000254F1000103D56D
:10119000BDE88901BDE80088BDE88901BDE80048D7
:1011A000B619524141EB0101A3F101037047808060
:1011B0007F7E7D7C7B7A79787776767574737271B1
:1011C00071706F6E6E6D6C6C6B6A6A696868676669
:1011D00066656464636362616160605F5F5E5E5DFB
:1011E0005D5C5C5B5B5A5A5959585857575656556F
:1011F00055555454535352525251515050504F4FD1
:101200004F4E4E4D4D4D4C4C4C4B4B4B4A4A4A4920
:101210004949484848474747474646464545454463
:101220004444444343434342424242414141002BF0
:101230009C4630D477002BD01CB54FEA370703B457
:101240004FF010004FF01001BAF1000F06D0BCF1C2
:10125000000FDCBF40F0080040F008014FF0000034
:101260000FBCBDE810400BF1010BBBF1010F08BF33
:101270005FEA170722BF12F1010211F101014FF0DD
:10128000004143F1000300F0004043EA00007047D2
:10129000F9D35708D0E746EA064613F1400F4FEA64
:1012A00016461FDD13F1200FDFBF16430A4600214B
:1012B00020335B42BED0C3F1200746EA064602FA5D
:1012C00007F74FEA164646EA0706C3F1200722FA57
:1012D00003F201FA07F721FA03F14FF0000342EAA3
:1012E0000702A7E746EA020646EA06464FEA16461E
:1012F00046EA0106BCBF46EA0646360C4FF000033C
:101300004FF000024FF0000194E72DE9804C9A461F
:10131000934670B491E8380007C831EA400C48BFE2
:1013200034EA430C03D5FFF7E6FDFFF780FFF0BC7E
:10133000BDE8008C2DE9804C9A46934670B491E844
:10134000380007C810F0804F08BF13F0804F03D15A
:1013500000F005F8FFF76BFFF0BCBDE8008C20F053
:101360007F4780EA030023F07F4C07EB0C03A3F5D3
:101370007C5300F00040A3F1FE0392F0000F00F058
:10138000B38095F0000F00F077802DE901494FEA16
:1013900011404FEA144621EA004800FB06FC24EA0B
:1013A000064708FB06F607FB08F800FB07F718EBF3
:1013B00006484CEB164C4FEA124B18EB07484FEA25
:1013C00015464CEB174022EA0B4E0BFB06FC25EAB8
:1013D00006470EFB06F607FB0EFE0BFB07F71EEBA0
:1013E000064E4CEB164C4FF000061EEB074E4CEB36
:1013F000174B18EB0B0840F1000018EB0E0B58EBE5
:10140000000840F100008F1A4FF000013CBFC943B3
:10141000661B14BFB5EB040C00213CBFC943F61B8F
:101420004FEA17444EEA8E0E27EA04454FEA1C475E
:1014300004FB07622CEA074C05FB07F70CFB05F6DB
:1014400004FB0CFC16EB074642EB174216EB0C466E
:1014500042EB1C421BEB060658EB0202414146EAF6
:101460009E0601D5BDE80189B619524141EB010143
:10147000A3F10103BDE801894FEA14454FEA114782
:1014800024EA054621EA074C05FB07F406FB07F7AB
:101490000CFB06F105FB0CFC11EB074144EB174478
:1014A0004FEA124711EB0C4144EB1C4422EA074C73
:1014B00005FB07F206FB07F70CFB06F605FB0CFC29
:1014C00016EB074642EB174216EB0C4642EB1C4567
:1014D0006A1854F1000148BF7047B619524141EBF8
:1014E0000101A3F10103704795F0000F37D04FEAD7
:1014F00011424FEA144721EA024624EA074C02FB54
:1015000007F106FB07F70CFB06F402FB0CFC14EBDF
:10151000074441EB17414FEA154714EB0C4441EBEC
:101520001C4125EA074C02FB07F506FB07F70CFBFD
:1015300006F602FB0CFC16EB074645EB174516EBCF
:101540000C4645EB1C42121951F1000148BF70478F
:10155000B619524141EB0101A3F1010370474FEA73
:1015600014454FEA114724EA054621EA074C05FBDA
:1015700007F106FB07F70CFB06F24FF0000605FB30
:101580000CFC12EB074241EB174112EB0C4251EB02
:101590001C4148BF7047921841EB0101A3F10103C0
:1015A0007047000070B504460068816811F0010FB3
:1015B0002DD18168174A11421AD18168D54329403B
:1015C000491C816000F068FD06461BE0816811F04F
:1015D000010F03D181682940491C816000F05CFD46
:1015E000801B02280ED920680068C043C00709D0BC
:1015F000E06D40F01000E065206E40F001002066D4
:10160000012070BD20680168C943C907DED10020F0
:1016100070BD00003F000080FEE77047002240F6EA
:10162000B83306E00021491C89B29942FBD3521C11
:1016300092B28242F6D3704772B6FEE72DE9F84FB8
:1016400000270446009790F85800DFF8E0930D4615
:10165000B846012811D0012684F85860206802F0AD
:10166000A9FC60B1E06D40F02000E0655FF001078B
:1016700084F858803846BDE8F88F0220FBE7D5E9AA
:1016800000210C23206803EA91131844036B01F036
:101690001F014FF01F0C0CFA01FCC2F3846223EA15
:1016A0000C038A4013430363206802F083FC8246E4
:1016B000206802F07BFC5AEA00003CD1AA68296845
:1016C0002068B2F1004F37D002F078FC2068416901
:1016D00021F00041416120686969C268C2F3C1021A
:1016E000520091402A69042A31D000EB82002B6815
:1016F000026EDFF83CC303F0F84302EA0C020B432E
:101700001A4342F00041016620682A69A96900EB8A
:101710008200026E22F080720A430266297F2268EC
:101720002869012910D0002102EB8000026E22F00E
:1017300000720A4302667DE0002202F03FFC20684E
:10174000416941F00041C5E74FF00071ECE700212D
:1017500002F026FC400320684FF0000172D002F036
:101760001FFC90FAA0F0B0FA80F1286842036ED016
:1017700090FAA0F0B0FA80F0814204D10022114624
:10178000206802F02AFC0121206802F009FC4003D5
:1017900020684FF001015DD002F002FC90FAA0F049
:1017A000B0FA80F12868420359D090FAA0F0B0FA5C
:1017B00080F0814204D100220121206802F00DFC5A
:1017C0000221206802F0ECFB400320684FF0020188
:1017D00048D002F0E5FB90FAA0F0B0FA80F128685A
:1017E000420344D090FAA0F0B0FA80F0814204D1D4
:1017F00000220221206802F0F0FB0321206802F0A1
:10180000CFFB400320684FF0030133D002F0C8FB48
:1018100090FAA0F0B0FA80F1286842032FD090FA35
:10182000A0F0B0FA80F0814204D1002203212068A8
:1018300002F0D3FB2068816811F0010F22D0ACE0E8
:1018400000E004E002F0ACFBC0F384618DE7C0F37C
:10185000846091E702F0A4FBC0F38461A2E7C0F3C7
:101860008460A6E702F09CFBC0F38461B7E7C0F395
:101870008460BBE702F094FBC0F38461CCE7C0F363
:101880008460D0E72A7B296850F8B03FC1F3120C7E
:1018900023EA0C0302F0180C664A22FA0CF20A4002
:1018A00013430360E968494577D1286841031CD098
:1018B00090FAA0F1B1FA81F1491C01F01F01092948
:1018C0004FEA403132D8002912D000BF90FAA0F17F
:1018D000B1FA81F101F1010101F01F0106FA01F6EF
:1018E00009D100BFC0F3846109E0C0F38461E3E77C
:1018F000C0F38461EEE790FAA0F1B1FA81F101F151
:10190000010101F01F0146EA816102D1C0F3846048
:1019100003E090FAA0F0B0FA80F000F1010000F0CE
:101920001F0000EB400041EA005132E000290ED0D8
:1019300090FAA0F1B1FA81F101F1010101F01F016A
:1019400006FA01F606D100BFC0F3846106E0C0F3D9
:101950008461F1E790FAA0F1B1FA81F101F101019E
:1019600001F01F0146EA816102D1C0F3846003E007
:1019700090FAA0F0B0FA80F000F1010000F01F0032
:101980002D4A00EB400002EB005041EA000141F01B
:101990000071AA68206802F011FB28482A680242F8
:1019A0003FF466AE26488168264B01F0E0719A420A
:1019B00002D0254B9A421CD10B021AD42268B2F1F4
:1019C000A04F7FF455AE826841F4000122F0E0722E
:1019D0000A4382601D481E490068B0FBF1F0401CBC
:1019E00000EB4000800000E0401E00900028FBD18A
:1019F0003EE6184D184BAA4207D1CD0105D4226806
:101A00009A42F5D041F0807109E0144DAA42EFD11D
:101A10004A02EDD422689A42EAD041F480018268F9
:101A200022F0E0720A43826022E6000000007F405C
:101A300000F0FF03FFFF0700000020FE0000088009
:101A400000030050000021C31000C0904C00002093
:101A5000400D0300000052C700010050000084CB7D
:101A60000068006C70470000F8B54FF000050400F6
:101A70002E46009502D0E06D10B107E00120F8BDC0
:101A8000204600F0EFF8266684F8586020688168E8
:101A9000C1F3407119B181686A4A114081602068C0
:101AA0008168C1F3007189B98168674A114041F0CA
:101AB00080518160654866490068B0FBF1F04000E4
:101AC000801C00E0401E00900028FBD12068816847
:101AD000C1F3007141B9E16D41F01001E165216E82
:101AE00041F001012166012502F064FAE16DC906A9
:101AF00000D430B1E06D40F01000E06501252846CB
:101B0000F8BDE06D20F4807040F00200E0652068D0
:101B1000806810F0010F11D14FF0A04080684D494E
:101B200000F00100896801F00101084306D14A482C
:101B30006168826822F47C120A438260E168E06B8B
:101B4000627F0843A16841EA4231084394F82410B7
:101B500040EA0140012904D1218D404A02EB414174
:101B60000843E16A29B101F47871226B014342EA2A
:101B700001002168CA683A4B1A400243CA602068D3
:101B80000169626B21F0406111430161206802F03C
:101B900011FA0646206802F009FA30432ED1207F60
:101BA00094F83810800340EA41022068C16844F28A
:101BB000020399431143C16020690028206801692C
:101BC0000AD041F480310161206850F8C01F2269B9
:101BD0006FF30D01114307E021F4803101612068AA
:101BE00050F8C01F6FF30D01016094F84000012808
:101BF0000CD02068016921F00101016160690128B0
:101C00002068016B21F00F0111D013E0D4E911011C
:101C10000843D4E913121143084321680A6940F2CA
:101C2000FC739A43104340F001000861E6E7226A22
:101C3000521E11430163E06D20F0020040F00100EC
:101C4000E0655CE7C0FFFF5FC0FFFF7F4C00002046
:101C5000400D030000010050000300500000FEFF93
:101C60000740F0FF10B586B0044614216846FEF721
:101C7000ABFC1149206888421BD11048C16C41F46B
:101C80000051C164C16C01F400510591C16C41F077
:101C90000101C164C06C694600F00100059030206C
:101CA000009003200190002002904FF0904000F03F
:101CB00005F906B010BD0000000100500010024000
:101CC0002DE9F04104463848806800F01F0520687F
:101CD00002F070F918B102210846BDE8F08194F8CD
:101CE000580001280CD0012084F858002046FFF746
:101CF00059FC01004FF0000304D084F85830EBE7A2
:101D00000220EAE7E06D40F60162904340F4807003
:101D1000E065264A20684FF0A046904201D1374640
:101D200000E00746874200D01DB9E76D27F4801711
:101D3000E765E76DFF0404D5276E27F006072766E1
:101D400000E023661C27076084F858302068904222
:101D500001D1334600E00346834215D0A5B1052DDD
:101D600012D0092D10D0E36D43F48013E365904247
:101D700000D13046C0688001AED5E06D20F400503F
:101D800040F48050E065A7E7C268920105D5E26D96
:101D900022F4005242F48052E2658268044B1A40F9
:101DA000121D826098E700000003005000010050FF
:101DB000C0FFFF7F10B590F8253000210122022BD3
:101DC00003D00421C163012122E003681C6824F0D0
:101DD0000E041C60836C1C6824F480741C6003680F
:101DE0001C6824F001041C6090F84430046C03F07B
:101DF0001F0302FA03F36360D0E913345C60436DA0
:101E000033B11C6824F480741C60D0E916345C6023
:101E100080F82520002280F82420084610BD70B5E7
:101E200090F82520002401212346022A07D004220D
:101E3000C26380F8251080F82430012429E002686C
:101E4000156825F00E0515600268156825F0010576
:101E50001560826C156825F48075156090F8442033
:101E6000056C02F01F0201FA02F26A60D0E9132544
:101E70005560426D32B1156825F480751560D0E962
:101E80001625556080F8251080F82430816B01B14B
:101E90008847204670BD000070B5044600F0FCF88D
:101EA0000546601C02D004484068044400F0F4F881
:101EB000401BA042FAD370BD400000202DE9FC4F2A
:101EC000DFF8A0A1002301250AF1040B03244FF041
:101ED0000F0C0BF1040EBDE005FA03F632406FD093
:101EE0004F68012F05D0022F03D0112F01D0122FE0
:101EF00017D1D0F808905F0004FA07F829EA08091A
:101F00000097D1F80C8008FA07F848EA0908C0F8E9
:101F100008804768B7430E79C6F300169E403E43DB
:101F20004660C6684FEA430804FA08F7BE430197C3
:101F30008F6807FA08F73743C7604E68022E01D052
:101F4000122E13D1DE0800EB86060096366A5F0774
:101F5000FF0E0CFA07F926EA0906D1F8109009FAE3
:101F600007F949EA0609009EC6F820900668019F15
:101F7000BE430F7907F0030707FA08F737430760F6
:101F80004E68F60065D5384E376E47F00107376664
:101F9000366E23F0030706F001060096334E3E44EA
:101FA000B146B6689F074FEA17780CFA08F7BE43A8
:101FB000B0F1904F05D02E4FB84204D1012717E061
:101FC00047E0002714E02B4FB84201D102270FE071
:101FD000294FB84201D103270AE0284FB84201D166
:101FE000042705E0264FB84201D1052700E0062767
:101FF00007FA08F73743C9F80870DAF8006057465F
:10200000D1F8048096435FEAC83800D516433E6095
:10201000DBF800605F46D1F8048096435FEA8838B9
:1020200000D516433E60DEF800607746D1F80480A4
:1020300096435FEAC82800D516433E60094F0C3727
:102040003E68D1F8048096435FEA882800D516439D
:102050003E605B1C0A6832FA03F67FF43DAFBDE8D0
:10206000FC8F00000004014000100240000001400D
:102070000004004800080048000C00480010004818
:10208000001400480069084000D0012070470AB1E0
:102090008161704781627047014880687047000025
:1020A0004000002002488168426811448160704706
:1020B0004000002010B50024032000F073F80F202A
:1020C00000F008F808B1012401E000F025F82046EE
:1020D00010BD000070B50E4E05460024706898B122
:1020E0004FF47A71B1FBF0F00A490968B1FBF0F0E6
:1020F00000F064FD40B9102D06D200222946501E82
:1021000000F030F8356000E00124204670BD00008A
:10211000400000204C0000200A4882B0016E41F0CF
:1021200001010166016E01F001010091816D41F034
:1021300080518165806D00F08050009002B000F009
:10214000A1B8000000100240002809DB00F01F02C7
:10215000012191404009800000F1E020C0F8001109
:1021600070470000F0B40E4B1B680C46C3F302230B
:10217000C3F10705042D00D90425191D072901D233
:10218000002300E0DB1E012606FA05F1491E21406E
:1021900099409E40761E16403143F0BC03F031BAA0
:1021A0000CED00E0064900F0070208684FF6FF0357
:1021B000184040EA0220034A1043086070470000BC
:1021C0000CED00E00000FA052B492C4B0A68322187
:1021D0004A432B4940B1B0F5007F086829D020F46C
:1021E000C06040F480602CE00868C0F34120022801
:1021F00004D051F8800F20F4807022E0D1F88000E4
:1022000020F48070C1F88000086820F4C06040F4B9
:1022100000700860B2FBF3F0401C00E0401E4A6909
:10222000520501D50028F9D1486940050AD5032097
:102230007047C0F34120022806D051F8800F40F4C7
:102240008070086000207047D1F8800040F48070F2
:10225000C1F88000086820F4C06040F40070086095
:10226000B2FBF3F0401C00E0401E4A695205DBD58A
:102270000028F9D1D8E700004C00002040420F00B0
:10228000007000400248816841F4804181607047DD
:10229000007000402DE9F8430446006800269D4D7B
:1022A00000035ED5A86D0027C00008D4A86D40F0DB
:1022B0008050A865A86D012700F080500090DFF8DD
:1022C0005892D9F8001041F48071C9F80010FFF756
:1022D000E3FE804606E000BFFFF7DEFEA0EB08004D
:1022E00002282BD8D9F80000C005F5D5D5F8900004
:1022F00010F4407014D0216C814211D0D5F89000B8
:10230000D5F8901020F4407041F48031C5F8901059
:10231000D5F8901021F48031C5F89010C5F89000E0
:10232000C00711D0FFF7B8FE804641F2883907E0B8
:10233000FFF7B2FEA0EB0801494501D903260BE0E7
:10234000D5F890008007F3D5D5F89000216C20F4E3
:1023500040700843C5F890001FB1A86D20F0805070
:10236000A8652078C00707D0D5F88800616820F0FC
:1023700003000843C5F888002078800707D5D5F802
:102380008800A16820F00C000843C5F88800207878
:10239000400707D5D5F88800E16820F030000843F1
:1023A000C5F888002078000707D5D5F8880021698E
:1023B00020F0C0000843C5F888002078800607D5C3
:1023C000D5F88800616920F440600843C5F88800AA
:1023D0002078400607D5D5F88800A16920F4405040
:1023E0000843C5F888002078000607D5D5F888008E
:1023F000E16920F440400843C5F888002088C00502
:1024000007D5D5F88800216A20F440300843C5F884
:1024100088002088800507D5D5F88800616A20F4F7
:1024200040200843C5F88800208840050FD5D5F81E
:102430008800A16A20F440100843C5F88800A06A0B
:10244000B0F5801F03D1E86840F48010E860208870
:1024500000050FD5D5F88800E16A20F44000084354
:10246000C5F88800E06AB0F5800F03D1E86840F451
:102470008010E8602088C0040FD5D5F88800216B53
:1024800020F040700843C5F88800206BB0F1807FD1
:1024900003D1E86840F48010E86020884FF00061C4
:1024A00080040ED5D5F88800626B20F040601043A0
:1024B000C5F88800606B884203D1E86840F480105A
:1024C000E860208840040ED5D5F88800A26B20F083
:1024D00040601043C5F88800A06B884203D1E868CB
:1024E00040F48010E860208800040FD5D5F88800FB
:1024F000E16B20F040500843C5F88800E06BB0F174
:10250000805F03D1E86840F48030E8603046BDE881
:10251000F883000000100240007000402DE9F047F1
:102520000E4605004FF0000725D0DFF8AC81D8F843
:10253000000000F00F00B0420CD2D8F8001021F0DB
:102540000F013143C8F80010D8F8000000F00F0068
:10255000B04210D12968614CC80741F2883A5AD07C
:102560006868DFF87C91032808D0022820682DD005
:10257000400500282CDB0120BDE8F08720688001A1
:10258000F9D5E06800F00302E068C0F30310401CD6
:10259000032A19D0534A00BFB2FBF0F0E268C2F33D
:1025A00006225043E268C2F34162521C5200B0FB63
:1025B000F2F0484517D9A06810F0F00F0CD088074A
:1025C00011D5A86840B10EE0474AE5E78003D0E79F
:1025D00000F0B6F8484506D9A06820F0F00040F0B9
:1025E0008000A0608027A068696820F0030008438D
:1025F000A060FFF751FD814606E000BFFFF74CFDEC
:10260000A0EB090151453AD8A068696800F00C00B8
:10261000B0EB810FF2D12868810714D5400703D5AC
:10262000A06840F4E060A0602878000705D5A068A5
:1026300020F4605040F4E060A060A068A96820F039
:10264000F000084304E0802F03D1A06820F0F000E0
:10265000A060D8F80010404601F00F01B14216D931
:10266000016821F00F0131430160FFF715FD0746B6
:1026700007E000BFFFF710FDC11B514501D9032042
:102680007AE7D8F8000000F00F00B042F2D12878C5
:10269000400705D5A068E96820F4E0600843A06021
:1026A0002878000706D5A068296920F4605040EA20
:1026B000C100A06000F044F8A1680C4AC1F3031106
:1026C000515C01F01F01C8400949086009480068D1
:1026D000BDE8F047FFF7FEBC0020024000100240BA
:1026E00000B4C4040024F40000366E01D27A00085D
:1026F0004C00002040000020054806490068896819
:10270000054AC1F30221515C01F01F01C840704726
:102710004C00002000100240E27A000805480649FB
:1027200000688968054AC1F3C221515C01F01F01AC
:10273000C84070474C00002000100240E27A0008B8
:10274000184910B58868C0F381021748012A0BD0D8
:102750008A68164BC2F38102022A06D08A68C2F345
:102760008102032A03D0002010BD184610BDCA689C
:1027700002F00304CA68C2F30312521C032C02D0F5
:10278000B0FBF2F001E0B3FBF2F0CA68C968C2F333
:1027900006225043C1F34161491C4900B0FBF1F0EE
:1027A00010BD0000001002400024F40000366E014D
:1027B0002DE9F84304007AD02078FA4DC00747D0BD
:1027C000A868E96800F00C0001F003010C2802D0B1
:1027D000082817D001E0032914D06068B0F5803FC5
:1027E00017D0B0F5A02F286817D020F480302860CB
:1027F000286820F4802028606068E0B1FFF74CFC76
:10280000064614E02868800322D560680028D2D0EC
:102810001EE0286840F48030EDE740F48020286016
:10282000F7E700BFFFF738FC801B642870D82868E2
:102830008003F7D50CE0FFF72FFC064605E000BF4C
:10284000FFF72AFC801B6428F0D828688003F7D49F
:10285000207880074CD5A868E96800F00C0001F0EA
:1028600003010C2802D004280DD001E002290AD06F
:10287000E068002828682BD040F480702860FFF7BB
:102880000BFC064619E02868400502D5E0680028E0
:1028900091D06868217C20F0FE4040EA01606860C9
:1028A000C1480068FFF716FC002800D120E076E15F
:1028B000FFF7F2FB801B0228B8D828684005F7D53F
:1028C0006868217C20F0FE4040EA016068600FE00B
:1028D00020F480702860FFF7DFFB064605E000BFAC
:1028E000FFF7DAFB801B0228A0D828684005F7D440
:1028F0002078000729D560690028D5F8940013D006
:1029000040F00100C5F89400FFF7C6FB064606E05C
:1029100090E000BFFFF7C0FB801B022886D8D5F8E7
:1029200094008007F6D510E020F00100C5F894006F
:10293000FFF7B2FB064604E0FFF7AEFB801B022860
:1029400078D8D5F894008007F6D42078400761D570
:10295000A86D0026C00008D4A86D40F08050A8657E
:10296000A86D012600F08050009090480168C905CC
:1029700011D40168804641F480710160FFF78CFB3F
:10298000074604E0FFF788FBC01B022852D8D8F89E
:102990000000C005F6D5A068012815D00528D5F897
:1029A000900016D020F00100C5F89000D5F89000F6
:1029B00020F00400C5F89000A06841F28838B8B152
:1029C000FFF76AFB07460EE0D5F8900040F00100E3
:1029D000F0E740F00400C5F89000F5E7FFF75CFB76
:1029E000C11B414526D8D5F890008007F6D50CE0EC
:1029F000FFF752FB074604E0FFF74EFBC11B4145C2
:102A000018D8D5F890008007F6D41EB1A86D20F034
:102A10008050A8652078800629D5A0690028D5F8BF
:102A2000980013D040F00100C5F89800FFF734FB80
:102A3000064606E077E000BFFFF72EFB801B02286A
:102A400077D8D5F898008007F6D510E020F001007F
:102A5000C5F89800FFF720FB064604E0FFF71CFBD3
:102A6000801B022865D8D5F898008007F6D4E06965
:102A7000F0B3A968C1F38101032961D00228286855
:102A800020F0807028600BD0E86820F00300E86038
:102A9000E86847490840E860FFF7FEFA04464BE063
:102AA000FFF7FAFA064604E0FFF7F6FA801B022861
:102AB0003FD828688001F7D4F4E908016FF00F02CD
:102AC00002EB01110843218A5204490802EB4151EB
:102AD000A26841EA02210843217D4FF07E42490865
:102AE00002EB41610843217B40EAC160E96800E0F4
:102AF00062E0304A11400843E860286840F0807086
:102B00002860E86840F08070E860FFF7C5FA044686
:102B100005E000BFFFF7C0FA001B022809D82868AB
:102B20008001F7D548E004E0FFF7B6FA001B022861
:102B300002D90320BDE8F88328688001F4D43BE083
:102B40000128F7D0E868226A00F00301914226D1FB
:102B5000616A00F0F0020901103991421FD1A26AA6
:102B600000F4FE41B1EB022F19D194F82C2000F0B3
:102B70007841B1EBC26F12D1218E00F4C002490836
:102B80004905A1F50011914209D194F8341000F0E3
:102B9000C06049084906A1F1007181420CD00120B2
:102BA000C8E7000000100240400000200070004014
:102BB000FFFFEEFE0C809F010020BBE710B5401E1A
:102BC000B0F1807F01D3012010BD4FF0E02460619F
:102BD0000F21601702F015FD0020A0610720206181
:102BE000002010BD704770477047704770477047AE
:102BF000F0B590F83C20012A3AD0012580F83C50ED
:102C0000022280F83D2003685A689C68194E1A4FCA
:102C1000B34201D0BB4204D122F4700C4A6842EAAC
:102C20000C02DFF858C002EA0C02D1F800C04CEAEE
:102C3000020CC3F804C00268B2420DD0B2F1804F5A
:102C40000AD00F4B9A4207D00E4B9A4204D0BA4298
:102C500002D00D4B9A4204D1896824F080031943B5
:102C6000916080F83D50002180F83C100846F0BD8E
:102C70000220F0BD002C0140003401408FFFFFFD19
:102C8000000400400008004000400140704710B5BB
:102C9000040003D094F83D0010B107E0012010BDFE
:102CA000002084F83C00204600F022F8022084F83E
:102CB0003D00211D206801F0FFFC012084F8480040
:102CC00084F83E0084F83F0084F8400084F8410016
:102CD00084F8420084F8430084F8440084F84500F6
:102CE00084F8460084F8470084F83D00002010BDB9
:102CF00010B586B0044614216846FDF765FC2168CE
:102D00001C48B1F1804F0CD01B4A914207D1816D14
:102D100041F002018165806D00F00200059006B06F
:102D200010BD816D41F001018165816D01F00101EE
:102D30000591C16C41F00101C164C06C694600F0AD
:102D4000010005904FF40040009002200190002007
:102D500002900390012004904FF09040FFF7AEF8EE
:102D6000002201211C20FFF7FDF91C20FFF7ECF9E0
:102D7000D5E70000001002400004004070B5044692
:102D800090F83C00012814D0012584F83C50022022
:102D900084F83D0022689068344B184020F47F404E
:102DA00090600868702827D010DC10F00F0F03D057
:102DB0004AE04FF0020070BD4FEA2012072A43D2CA
:102DC000DFE802F05050505048313900284BC21A09
:102DD000984247D009DCB0F5805F35D0B0F5005F90
:102DE00015D0B0F1101F2FD13CE0102A3AD0202A84
:102DF00038D0502A28D135E0CB68D1E901212068AC
:102E000001F0BFFC2068816841F0770109E0CB68E0
:102E1000D1E90121206801F0B4FC2068816841F407
:102E20008041816010E0CA684968206801F054FE62
:102E30005021206806E0CA684968206801F094FEC5
:102E40006021206801F0A8FC84F83D50002084F83F
:102E50003C0070BDCA684968206801F03DFE402111
:102E60002068EFE7226801461046EBE788FFCEFFB7
:102E70002000100010B50446002100F0CEFB2268AF
:102E80000021516206498C4204D10649B1FBF0F0A1
:102E900005490862BDE810400021014800F0C0B8B3
:102EA0007401002040420F00080000202DE9F0418D
:102EB000054690F83C000C46012836D0012085F8E4
:102EC0003C008AB3042A42D02868082A51D0D4E9A9
:102ED0000023E168066A26F480560662C669076A1E
:102EE00026F4407646EA03234FF6FF7606EA0131E0
:102EF00023F4704319434FF4204627F4204306EA95
:102F000002321A43C16102622868C16921F440613A
:102F1000C1612868C169A26841EA0221C16100203B
:102F200085F83C00BDE8F08101E00220FAE7D4E931
:102F30000012E368286801F0E1FD2868816921F04A
:102F40000C01816128688169A26811430FE0D4E90E
:102F50000012E368286801F019FE2868816921F4ED
:102F60004061816128688169A26841EA022181612A
:102F7000D5E7D4E90027267B016A21F4807101623C
:102F8000C169036A21F00301394321F0F0073107D9
:102F90004FF4206647EA116123F4206306EA022217
:102FA0001A43C16102622868C16921F00C01C16144
:102FB0002868C169A2681143B0E710B5040003D0C6
:102FC00094F83D0010B107E0012010BD002084F806
:102FD0003C00204600F022F8022084F83D00211D2C
:102FE000206801F069FB012084F8480084F83E0065
:102FF00084F83F0084F8400084F8410084F84200DF
:1030000084F8430084F8440084F8450084F84600BE
:1030100084F8470084F83D00002010BD7047000090
:1030200010B5044679B1042912D0082915D00C290D
:1030300018D0102919D094F8430000BF94F8472005
:10304000012817D114E094F83E0094F84420F7E7E3
:1030500094F83F0094F84520F2E794F8400094F883
:103060004620EDE794F84100E8E794F84200E5E7F0
:10307000012A01D0012010BD022071B1042915D010
:1030800008291CD00C2948D0102949D084F84300C5
:1030900084F847000C291BD145E084F83E0084F8F1
:1030A00044002068C26842F0020210E084F83F0049
:1030B00084F845002068C26842F0040207E084F802
:1030C000400084F846002068C26842F00802C260EE
:1030D0000122206801F048FB1549206888420ED083
:1030E000B0F1804F0BD01349884208D01249884272
:1030F00005D01249884202D01149884207D181681F
:10310000104A1140062906D0B1F5803F03D001686E
:1031100041F001010160002010BD84F84100B7E7D3
:1031200084F84200B4E72068C26842F01002CEE79B
:10313000002C014000040040000800400034014021
:10314000004001400700010070B5044600680169B5
:103150004FF00005C943890715D4C168C9438907E1
:1031600011D4E91E01610120207720688069800761
:10317000204602D0FFF77EFE04E000F00BF9204667
:1031800000F0CAF9257720680169C943490717D4B7
:10319000C168C943490713D46FF0040101610220DB
:1031A00020772068806910F4407F204602D0FFF726
:1031B00061FE04E000F0EEF8204600F0ADF925775E
:1031C00020680169C943090716D4C168C9430907C2
:1031D00012D46FF008010161042020772068C069D3
:1031E0008007204602D0FFF745FE04E000F0D2F849
:1031F000204600F091F9257720680169C943C90686
:1032000017D4C168C943C90613D46FF01001016116
:10321000082020772068C06910F4407F204602D043
:10322000FFF728FE04E000F0B5F8204600F074F93E
:10323000257720680169C943C90708D1C168C94316
:10324000C90704D1891E0161204600F0E5F9206814
:103250000169C943090609D4C168C943090605D4EF
:103260006FF0800101612046FFF7BDFC2068016915
:10327000C943C90509D4C168C943090605D46FF417
:10328000807101612046FFF7ADFC20680169C943E8
:10329000490609D4C168C943490605D46FF0400105
:1032A0000161204600F0CEF920680169C943890612
:1032B00009D4C168C943890605D46FF020010161B2
:1032C0002046FFF791FC20680169C943C90209D46F
:1032D000C168C943C90205D46FF480110161204659
:1032E000FFF784FC20680169C943890209D4C168D9
:1032F000C943890205D46FF4001101612046FFF72C
:1033000074FC20680169C943490209D4C168C943F2
:10331000490205D46FF4800101612046FFF767FC84
:1033200020680169C94309020BD4C168C943090275
:1033300007D46FF4000101612046BDE87040FFF73B
:10334000A5BC70BD10B586B0044614216846FDF7D3
:103350003BF90E492068884215D10D48C16C41F0F7
:103360000101C164C06C002100F0010005908020C3
:1033700000900220CDE90101CDE9031069464FF02C
:103380009040FEF79BFD06B010BD00000004004019
:1033900000100240704770B5044690F83C000D469E
:1033A00001280BD0012084F83C000C2A45D007DC12
:1033B0005AB1042A1BD0082A78D12CE0022070BD13
:1033C000102A4ED0142A71D15DE0206801F0EEF988
:1033D0002068816941F0080181612068816921F0DC
:1033E00004018161206881692A69114311E0206824
:1033F00001F02AFA2068816941F400618161206846
:10340000816921F480618161206881692A6941EACA
:10341000022181614AE0206801F05EFA2068C169FA
:1034200041F00801C1612068C16921F00401C16156
:103430002068C1692A69114311E0206801F094FAFB
:103440002068C16941F40061C1612068C16921F44B
:103450008061C1612068C1692A6941EA0221C161B4
:1034600024E0206801F0C8FA2068016D41F00801ED
:1034700001652068016D21F0040101652068016D7E
:103480002A69114311E0206801F0EEFA2068016D0D
:1034900041F4006101652068016D21F480610165DE
:1034A0002068016D2A6941EA02210165002084F843
:1034B0003C0070BD10B5040003D094F83D0010B17D
:1034C00007E0012010BD002084F83C00204600F0F9
:1034D00022F8022084F83D00211D206801F0ECF85C
:1034E000012084F8480084F83E0084F83F0084F806
:1034F000400084F8410084F8420084F8430084F8D6
:10350000440084F8450084F8460084F8470084F8B5
:103510003D00002010BD70477047000030B50446E4
:10352000022269B1042912D0082917D00C291CD015
:10353000102921D094F84300012824D0012030BD67
:1035400094F83E000128F9D184F83E201DE094F85B
:103550003F000128F2D184F83F2016E094F84000A3
:103560000128EBD184F840200FE094F841000128B5
:10357000E4D184F8412008E094F842000128DDD12C
:1035800084F8422001E084F843200122206801F001
:10359000EBF8194B20681949194A984209D088421A
:1035A00007D0904205D0174DA84202D0164DA84230
:1035B00003D1456C45F400454564206898420CD021
:1035C000B0F1804F09D0114B984206D0104B984271
:1035D00003D0884201D0904207D181680D4A114042
:1035E000062906D0B1F5803F03D0016841F0010102
:1035F0000160002030BD0000002C0140003401407B
:1036000000400140004401400048014000040040E7
:10361000000800400700010070470246002041B149
:10362000042909D008290AD00C2901D11068006C9E
:1036300070471068406B70471068806B7047106867
:10364000C06B7047704790F88010012918D0012195
:1036500080F880102421C0F8841050F8641B0A6898
:103660000B6823F001030B6022F00051002202607E
:1036700050F8643C196020210162027710467047BF
:10368000022070477047704770B5044690F880007C
:1036900001281DD0012084F880002420C4F8840073
:1036A00020680568026822F00102026020688268D2
:1036B00022F060620A438260204601F083FA2068AB
:1036C00005602020C4F88400002084F8800070BDCC
:1036D000022070BD70B5044690F8800001281DD00E
:1036E000012084F880002420C4F884002068056844
:1036F000026822F0010202602068826822F06042C3
:103700000A438260204601F05DFA206805602020AF
:10371000C4F88400002084F8800070BD022070BDD1
:1037200070477047704700002DE9F0410368044678
:10373000D86919689A6840F60F0528424FF00005CD
:1037400009D186067ED501F0200602F080573E435F
:1037500078D0216FFFE0924E924F16400F403743D2
:1037600070D0C70709D0CF0507D501271F62D4F84D
:103770008C3043F00103C4F88C3083070AD5D3079B
:1037800008D0276802233B62D4F88C3043F004034E
:10379000C4F88C3043070AD5D30708D02768042320
:1037A0003B62D4F88C3043F00203C4F88C3003073A
:1037B0000CD501F02003334308D026680823336278
:1037C000D4F88C3043F00803C4F88C3003050BD5D3
:1037D0004B0109D526684FF400633362D4F88C306E
:1037E00043F02003C4F88C30D4F88C30002B34D054
:1037F000800609D501F0200002F08051084303D073
:10380000216F09B120468847D4F88C002168896867
:10381000490602D410F0280F21D0204601F092FA78
:1038200020688168490615D5816821F040018160D2
:10383000E06F78B15C498163E06FFEF7F0FA002831
:103840000BD000E011E0E06F816B00E02046BDE8A6
:10385000F04108472046FFF765FFBDE8F0812046AC
:10386000FFF760FFC4F88C50F7E7E76E2026012FC2
:103870005CD1C7065AD5CF0658D5102018622068EB
:10388000816849062FD5E26F116849680904090C5F
:10389000E3D0B4F85C308B42DFD9A4F85E10116835
:1038A0000968890618D4016821F4807101602068D4
:1038B000816821F0010181602068816821F0400168
:1038C0008160C4F88860E5662068016821F0100115
:1038D0000160E06FFEF76EFAB4F85C00B4F85E10B9
:1038E000401A81B21EE0B4F85C10B4F85E20891A68
:1038F000B4F85E2089B2002AAFD00029ADD00268AA
:1039000022F49072026020688268254BDB431A40E3
:103910008260C4F88860E56625672068026822F046
:10392000100202602046FFF7ADFE96E7C70209D5F8
:10393000570207D54FF4801018622046BDE8F041C9
:10394000FFF7EFBE07060AD501F0800702F4000278
:10395000174304D0616F00297FF478AF7DE74206FA
:103960000CD54A060AD51968204621F04001196095
:10397000C4F88460656700F01FF96EE7020206D59F
:103980004A0004D52046BDE8F041FFF7C9BEC0019A
:10399000CBD50029C9DA2046BDE8F041FFF773BE58
:1039A0000100001020010004314D000810B5040092
:1039B00003D0D4F8840010B107E0012010BD00202E
:1039C00084F88000204600F027F82420C4F8840002
:1039D0002068016821F001010160204601F08AFBA6
:1039E0000128EBD0A06A10B1204601F00DF9206843
:1039F000416821F4904141602068816821F02A01EA
:103A000081602068016841F0010101602046BDE845
:103A1000104001F05DB9000010B586B004461421D5
:103A20006846FCF7D1FD17492068884227D116481F
:103A3000016E41F480410166016E01F480410591FF
:103A4000C16C41F00101C164C06C694600F0010025
:103A500005904FF4C0600090022001900020029079
:103A60000390072004904FF09040FEF727FA0022C1
:103A700001212520FEF776FB2520FEF765FB06B029
:103A800010BD0000003801400010024010B4D0F812
:103A90008830202B1BD1B9B1B2B190F88030012B06
:103AA00015D0012380F880300023C366094C0368D9
:103AB000A34206D05C68240203D51C6844F08064ED
:103AC0001C6010BC01F050BC012010BC70470220EB
:103AD000FBE70000008000400549064B087ACA79E0
:103AE0001A54401C08720122C91D0348FFF7CEBFBB
:103AF00008000020830000200C0200202DE9F8437C
:103B00000446D0F884001F4616460D46202851D1A1
:103B1000DDB1D6B194F8800001284BD0012084F8A3
:103B200080004FF00008C4F88C802120C4F8840085
:103B30001834FEF7B1FAA6878146E68754F8100CD0
:103B4000183CB0F5805F03D004E00120BDE8F883A5
:103B5000206920B12E46002584F8808010E00026E0
:103B6000FAE78021204601F06BFCB8B9C6B116F81F
:103B7000010B21688862B4F85600401EA4F8560074
:103B8000B4F856004B464FF0000200970028E8D1E9
:103B90004FF04001204601F053FC30B10320D5E73F
:103BA00035F8020BC0F30800E3E72020C4F88400D6
:103BB0000020CBE70220C9E77047FEE700B585B0DB
:103BC00014216846FCF700FDC02000900120019000
:103BD00002900220039069460248FEF76FF905B093
:103BE00000BD00000004004800B585B014216846FF
:103BF000FCF7EAFC4FF6FF70009000200321CDE9AE
:103C00000201019069460248FEF758F905B000BD6F
:103C10000008004800B585B014216846FCF7D4FCC4
:103C20004FF6FF70009001200190032003900020C8
:103C3000029069460248FEF741F905B000BD000058
:103C40000008004870B5002406462146204600F0D2
:103C500003F900F041F94FF49635304600F010F9C1
:103C6000641CAC42F9D370BD30B587B014216846EE
:103C7000FCF7AAFC1E48C16C41F00401C164C16C90
:103C800001F004010591C16C41F00101C164C16CF6
:103C900001F001010591C16C41F00201C164C06CE9
:103CA000012500F0020005904FF44870CDE90005B1
:103CB00000240394694602940E48FEF7FFF8280298
:103CC00003940090CDE901544FF09044694620469A
:103CD000FEF7F4F8FFF79EFFA06940F48070A06142
:103CE00004481830016841F40871016007B030BD24
:103CF0000010024000040048203AD2B2034B02EB0D
:103D0000420203EB021200F019B80000DA68000862
:103D1000F0B50E460746002540F23F1407E0214665
:103D20003846FFF7E9FF103C6D1CA4B2761C3278D0
:103D3000002A01D0142DF2D3F0BD00002DE9F04788
:103D400091468A460026044600F086F8DFF8408057
:103D5000012700BF00F0C0F85FF0000539F8160039
:103D600007FA05F10842404601D1408800E000888A
:103D700000F086F86D1C102DF0D3641CE4B251469F
:103D8000204600F069F8761C182EE3D3BDE8F087D2
:103D90000000002010B5FFF767FF002000F014F8C6
:103DA000084CA080A088A0F50241303906D000F070
:103DB0002BFB002000F008F8A08010BD00F09BFA5B
:103DC000F7E700000000002070B51D490A6842F4C2
:103DD00000720A600A6842F480720A60184C103C53
:103DE000226842F020022260164A1060086840F003
:103DF0002000086000BF00BF00BF206840F0200026
:103E00002060206840F480702060FFF7EDFE4FF0E6
:103E10009041886A40F48070886200BF00BF00BF94
:103E20000848001F006885B2886940F48070886186
:103E3000FFF7F0FE206840F400702060284670BD57
:103E4000280400481408004801B5BDF800000149E5
:103E5000488008BD0000002010B50C460146202017
:103E600000F068F82146BDE81040212000F062B85B
:103E700001B5BDF800000149088008BD0000002020
:103E8000134A116841F400711160114910390B682F
:103E900043F480730B600B6843F020030B600D4B01
:103EA0001860106840F02000106000BF00BF00BF25
:103EB000086840F020000860086840F480700860DE
:103EC00000BF00BF00BF086840F400700860704782
:103ED00028040048140800481449086840F4007099
:103EE0000860086840F48070086010481038026864
:103EF00042F0200202600E4B22221A600A6842F051
:103F000020020A6000BF00BF00BF016841F020012D
:103F10000160016841F48071016000BF00BF00BF13
:103F2000016841F4007101607047000028040048F6
:103F300014080048184B10B51A6842F400721A6051
:103F40001A6842F480721A60134A103A146844F0F6
:103F500020041460114C2060186840F020001860A4
:103F600000BF00BF00BF106840F020001060106864
:103F700040F4807010602160186840F020001860E4
:103F800000BF00BF00BF106840F020001060106844
:103F900040F48070106010BD2804004814080048E8
:103FA00000EB8100006E00F0F84070478068C0F3BD
:103FB000C00070478068C0F380007047042303EAA4
:103FC000D15310B518444369C1F3045107248C4000
:103FD000A3438A401343436110BD00EB8100016E8F
:103FE00021F00041114301667047000030B589B0EF
:103FF00020216846FCF7E8FA1F481E4900240160AA
:104000004902C0E90114042585610121C460C0E9A9
:104010000441047744770221016280F82440C4629D
:10402000046380F83840C46380F84040FDF71CFD0D
:1040300008B1FDF701FB1148009006200190072010
:1040400002907F200594CDE9030569460A48FDF7F3
:10405000F5FA08B1FDF7F0FA094800900C2001903C
:1040600069460548FDF7EAFA002801D0FDF7E4FAB1
:1040700009B030BD00010050080100200000524787
:1040800000209036F0B587B014216846FCF79CFA02
:104090002D48C16C41F00401C164C16C01F0040100
:1040A0000591C16C41F02001C164C16C01F0200197
:1040B0000591C16C41F00101C164C16C01F00101C5
:1040C0000591C16C41F00201C164C16C01F00201B3
:1040D0000591C16C41F00801C164C06C1B4E00F039
:1040E00008004FF47F440590002221463046FDF73A
:1040F000CEFF174F002204213846FDF7C8FF0125E7
:10410000CDE9004500240294694630460394FDF74A
:10411000D5FECDE9005469464FF090400294FDF77A
:10412000CDFE0720CDE9000469460A480294FDF758
:10413000C5FE04200090CDE9015469463846039439
:10414000FDF7BCFE07B0F0BD0010024000080048BB
:10415000000C00480004004810B58CB00024059401
:10416000214804940694079408940A9409940094AE
:10417000019402944FF08041039401604F21C0E903
:10418000011442F20F71C0E903148461FEF77FFD50
:1041900008B1FDF751FA4FF48050049004A9124879
:1041A000FEF7ECFD08B1FDF747FA0F48FEF705FFF3
:1041B00008B1FDF741FA089408A90B480A94FEF7E4
:1041C00017FD08B1FDF738FA0120CDE9004002944F
:1041D0000022694604480394FEF768FE002801D0D7
:1041E000FDF72AFA0CB010BD7401002010B58EB096
:1041F00000240794089409940A940B940C941C21AD
:1042000068460D94FCF7E0F91E481D49016041F62F
:104210003F71C0E901146321C0E903148021816169
:10422000FEF735FD08B1FDF707FA4FF4805007900F
:1042300007A91448FEF7A2FD08B1FDF7FDF91148E2
:10424000FFF738F908B1FDF7F7F90B940BA90D4802
:104250000D94FEF7CDFC08B1FDF7EEF96020CDE935
:10426000000402940422694606480494FFF793F878
:1042700008B1FDF7E1F90348FFF764F80EB010BD8F
:1042800000040040C0010020184810B51649016024
:104290004FF416514160002181600C22C160C0E9D9
:1042A00004128161C161016241628162FFF77EFB9C
:1042B00008B1FDF7C1F900210C48FFF70BFA08B16E
:1042C000FDF7BAF900210948FFF7DEF908B1FDF75B
:1042D000B3F90648FFF7B7F9002803D0BDE810404E
:1042E000FDF7AAB910BD0000003801400C02002003
:1042F000FEE7FEE7704730B501210020FFF71AFE08
:104300004FF47A70FDF78AF900210120FFF712FEC1
:1043100041F290711020FFF70DFE4FF41C51602008
:10432000FFF708FE01216120FFF704FE022146206D
:10433000FFF700FE48F210011320FFF7FBFD48F2E3
:10434000FE011220FFF7F6FD4FF4A0610220FFF7F7
:10435000F1FD41F230010320FFF7ECFD40F20334A0
:1043600021463020FFF7E6FD21463120FFF7E2FD30
:1043700021463220FFF7DEFDE51E29463320FFF7F8
:10438000D9FD03213420FFF7D5FD21463520FFF765
:10439000D1FD14213620FFF7CDFD21463720FFF750
:1043A000C9FD21463820FFF7C5FD21463920FFF71A
:1043B000C1FD29463A20FFF7BDFD03213B20FFF751
:1043C000B9FD21463C20FFF7B5FD4FF4A0513D203B
:1043D000FFF7B0FD4FF400719220FFF7ABFD2146CF
:1043E0009320FFF7A7FD40F60D019020FFF7A2FDF7
:1043F00041F218010320FFF79DFDBDE8304040F277
:1044000073110720FFF796BD10B543F20801E320B2
:10441000FFF790FD1221E720FFF78CFD41F23121DB
:10442000EF20FFF787FD00210120FFF783FD4FF408
:10443000E0610220FFF77EFD41F230010320FFF72B
:1044400079FD00210420FFF775FD40F207210820C7
:10445000FFF770FD00210920FFF76CFD00210A2005
:10446000FFF768FD00210C20FFF764FD00210D20FF
:10447000FFF760FD00210F20FFF75CFD00211020F9
:10448000FFF758FD07211120FFF754FD00211220EE
:10449000FFF750FD00211320FFF74CFDC820FDF76A
:1044A000FBFC41F290611020FFF744FD40F2272110
:1044B0001120FFF73FFD3220FDF7EEFC1D211220F9
:1044C000FFF738FD3220FDF7E7FC4FF400611320C1
:1044D000FFF730FD14212920FFF72CFD0B212B20A5
:1044E000FFF728FD3220FDF7D7FC00212020FFF741
:1044F00021FD00212120FFF71DFD07213020FFF7BE
:1045000019FD40F207713120FFF714FD062132201A
:10451000FFF710FD40F204713520FFF70BFD41F667
:1045200004713620FFF706FD04213720FFF702FD56
:1045300000213820FFF7FEFC40F206713920FFF71A
:10454000F9FC40F201713C20FFF7F4FC0F213D2003
:10455000FFF7F0FC00215020FFF7ECFCEF21512089
:10456000FFF7E8FC00215220FFF7E4FC40F23F1186
:104570005320FFF7DFFC4FF41C516020FFF7DAFCFB
:1045800001216120FFF7D6FC00216A20FFF7D2FC51
:1045900000218020FFF7CEFC00218120FFF7CAFC1C
:1045A00000218220FFF7C6FC00218320FFF7C2FC18
:1045B00000218420FFF7BEFC00218520FFF7BAFC14
:1045C00010219020FFF7B6FC00219220FFF7B2FCEB
:1045D00003219320FFF7AEFC4FF488719520FFF77D
:1045E000A9FC00219720FFF7A5FC00219820FFF7E8
:1045F000A1FC41F218010320FFF79CFCBDE810402C
:1046000040F273110720FFF795BC7047FDF74ABDD4
:1046100010B5A4B038216846FBF7D6FF14211FA8B7
:10462000FBF7D2FF44210EA8FBF7CEFF4FF400703A
:10463000FDF7CAFD0220C10103914021049101212F
:10464000CDE9080100900A21CDE90A1007900C90ED
:104650000D906846FEF7ACF808B172B6FEE70F2081
:1046600000241F900320CDE92004229402211FA8DA
:104670002394FDF753FF08B172B6FEE748F201003C
:10468000CDE90E0440071D900EA8FDF703FE00289B
:1046900001D072B6FEE724B010BD000002480168E8
:1046A00041F470010160704788ED00E00148FEF7B9
:1046B0004BBD0000740100202DE9F0430268234B3C
:1046C000234D244E244C4FF08049984207D0484552
:1046D00005D0A84203D0B04201D0A04203D122F0BD
:1046E00070074A683A431D4FDFF874C0DFF87480E2
:1046F00098420DD048450BD0A84209D0B04207D00F
:10470000A04205D0B84203D0604501D0404503D156
:1047100022F44075CA682A434D6922F080022A4378
:1047200002608A68C2620A688262984207D0A04228
:1047300005D0B84203D0604501D0404501D1096998
:10474000016301214161BDE8F0830000002C0140BC
:1047500000040040000800400034014000400140D7
:10476000004401400048014010B501F01F03012141
:10477000046A99408C430462016A9A4011430162C1
:1047800010BD10B5846842EA032224F47F440A4332
:104790002243826010BD00008268034B1A400A4326
:1047A00042F00701816070478FFFCFFF2DE9F04392
:1047B000026A22F001020262056A436882691C4CA7
:1047C00025F0020522400C6822F0030214438A6897
:1047D000194E2A43174D194FDFF864C0DFF8649073
:1047E000A84207D0B04205D0B84203D0604501D0FE
:1047F000484506D122F00808CA6842EA080222F0B9
:104800000402A84207D0B04205D0B84203D06045A8
:1048100001D0484505D14D6923F440731D438B6990
:104820002B4343608461496841630262BDE8F083C1
:104830008FFFFEFF002C014000340140004001408A
:104840000044014000480140F0B5026A22F0100225
:104850000262056A42688369194C1B4E23400C684A
:1048600023F4407343EA042425F020038D6843EACF
:104870000513144DA84201D0B04206D1CF6823F0F1
:10488000800343EA071323F04003A8420AD0B04252
:1048900008D00E4DA84205D00D4DA84202D00D4DB6
:1048A000A84207D14D6922F4406242EA85028D692F
:1048B00042EA850242608461496881630362F0BD17
:1048C000FF8FFFFE002C01400034014000400140FA
:1048D0000044014000480140F0B5026A22F48072B1
:1048E0000262056A4368C269194C1B4E22400C687B
:1048F00022F00302144325F400728D6842EA052277
:10490000144DA84201D0B04206D1CF6822F4006213
:1049100042EA072222F48062A8420AD0B04208D0BC
:104920000E4DA84205D00E4DA84202D00D4DA84212
:1049300007D14D6923F4405343EA05138D6943EAD7
:1049400005134360C4614968C1630262F0BD0000A1
:104950008FFFFEFF002C0140003401400040014069
:104960000044014000480140F0B5026A22F4805240
:104970000262056A4268C369194C1B4E23400C68E9
:1049800023F4407343EA042425F400538D6843EA7A
:104990000533144DA84201D0B04206D1CF6823F4AC
:1049A000004343EA073323F48043A8420AD0B042CD
:1049B00008D00E4DA84205D00D4DA84202D00D4D95
:1049C000A84207D14D6922F4404242EA85128D691E
:1049D00042EA85124260C461496801640362F0BD25
:1049E000FF8FFFFE002C01400034014000400140D9
:1049F000004401400048014030B5026A22F4803290
:104A00000262046A4268036D114D2B400D681D431C
:104A100024F400330C8943EA04430E4CA0420BD02B
:104A20000D4CA04208D00D4CA04205D00C4CA04229
:104A300002D00C4CA04204D14C6922F4803242EAEC
:104A400004224260056549688164036230BD00004C
:104A50008FFFFEFF002C0140003401400040014068
:104A6000004401400048014030B5026A22F480123F
:104A70000262046A4268036D114D24F400142B4055
:104A80000D6843EA05230D8944EA05540D4DA842FB
:104A90000BD00D4DA84208D00C4DA84205D00C4DAE
:104AA000A84202D00B4DA84204D14D6922F48022C5
:104AB00042EA8522426003654968C164046230BDF0
:104AC000FF8FFFFE002C01400034014000400140F8
:104AD000004401400048014010B5036A046A24F014
:104AE00001040462846924F0F00444EA021423F00F
:104AF0000A020A438461026210BD000070B5046AB4
:104B000024F0010404628469056A124EB0420ED09A
:104B1000B0F1804F0BD0104EB04208D00F4EB042D3
:104B200005D00F4EB04202D00E4EB04203D124F059
:104B30000304144301E044F001041A0724F0F004D4
:104B400044EA126225F00A0301F00A011943826166
:104B5000016270BD002C01400004004000080040CC
:104B6000003401400040014010B5036A23F01003F7
:104B700003628369046A23F4704343EA023224F037
:104B8000A00343EA01118261016210BD30B5046ADD
:104B900024F0100404628469056A24F4407444EA31
:104BA000022222F470444FF6FF7202EA03322243DB
:104BB000A02425F0A00304EA0111194382610162D7
:104BC00030BD000030B5416EB9B10268916892689D
:104BD000C1F342610B4B520F9C5CE50003F10804EA
:104BE000A25CB5FBF2F2A0F86A205A5C615CD200CC
:104BF000B2FBF1F1A0F8681030BD0121A0F86A10F5
:104C0000F8E70000C27A000890F82810C90706D01B
:104C100001684A68C36A22F400321A434A6090F875
:104C20002810890706D501684A68036B22F4803290
:104C30001A434A6090F82810490706D501684A6867
:104C4000436B22F480221A434A6090F82810090727
:104C500006D501684A68836B22F400421A434A6011
:104C600090F82810C90606D501688A68C36B22F43B
:104C700080521A438A6090F82810890606D5016888
:104C80008A68036C22F400521A438A6090F8281054
:104C9000490611D501684A68436C22F480121A4310
:104CA0004A60416CB1F5801F06D101684A68836C87
:104CB00022F4C0021A434A6090F82810090606D56B
:104CC00001684A68C06C22F4002202434A607047BF
:104CD000F8B500260446C0F88C60FDF7DDF90546FE
:104CE000206800686FF07E47000708D52B46002239
:104CF0004FF400112046009700F0A2FB60B9206835
:104D0000006840070AD52B4600224FF48001204658
:104D1000009700F095FB08B10320F8BD2020C4F8EF
:104D20008400C4F8880044F86C6F00202675F8BD34
:104D300010B5806A0021A0F85E10A0F85610FEF7AA
:104D4000F1FC10BD01680A6822F490720A600168E3
:104D50008A68094B1A408A60C16E012904D1016832
:104D60000A6822F010020A602021C0F88810002191
:104D7000C166016770470000FEFFFFEF70B5B0F835
:104D80006010D0F8882004460068222A04D0816987
:104D900041F00801816170BD406AA26D0840108039
:104DA000A06D801CA065B4F85E00401EA4F85E00F3
:104DB000B4F85E000028EED12068016821F49071FB
:104DC00001602068816821F0010181602020C4F821
:104DD000880000252567E06E012804D02046FEF7F4
:104DE0007BFEE56670BD2068016821F0100101605E
:104DF000B4F85C102046FEF745FCF2E72DE9F047D9
:104E00000446B0F860600068C569D0F800A0D0F82A
:104E10000880D4F88810222905D0816941F0080162
:104E20008161BDE8F087B4F868704FF000095BE07D
:104E30002068406AA16D30400880A06D801CA0658C
:104E4000B4F85E00401EA4F85E002068C5696907DA
:104E500030D0E9070AD05FEACA5107D501210162C3
:104E6000D4F88C0040F00100C4F88C00A8070BD5E2
:104E70005FEAC87008D0216802200862D4F88C006C
:104E800040F00400C4F88C0068070BD55FEAC870D6
:104E900008D0216804200862D4F88C0040F0020099
:104EA000C4F88C00D4F88C0020B12046FEF73AFC00
:104EB000C4F88C90B4F85E00B0B92068016821F4A1
:104EC0008071016020688168194A1140816020204A
:104ED000C4F88800C4F87090E06E01281CD0204609
:104EE000FEF7FAFDC4F86C900FB1A806A0D4B4F890
:104EF0005E00002895D0B4F86810814291D92068EE
:104F0000816821F0805181600A482067206801682B
:104F100041F02001016084E72068016821F0100160
:104F20000160B4F85C102046FEF7ACFBDAE7000045
:104F3000FEFFFFEF7D4D000870B5B0F86010D0F8AF
:104F4000882004460068222A04D0816941F00801C3
:104F5000816170BD406A0840A16D0870A06D401C61
:104F6000A065B4F85E00401EA4F85E00B4F85E00D0
:104F70000028EED12068016821F49071016020685A
:104F8000816821F0010181602020C4F8880000259B
:104F90002567E06E012804D02046FEF79DFDE566FA
:104FA00070BD2068016821F010010160B4F85C1048
:104FB0002046FEF767FBF2E72DE9F0470446B0F81C
:104FC00060600068C569D0F800A0D0F80880D4F807
:104FD0008810222905D0816941F008018161BDE86E
:104FE000F087B4F868704FF000095BE02068406A11
:104FF000A16D30400870A06D401CA065B4F85E0043
:10500000401EA4F85E002068C569690730D0E90732
:105010000AD05FEACA5107D501210162D4F88C0099
:1050200040F00100C4F88C00A8070BD55FEAC870F7
:1050300008D0216802200862D4F88C0040F00400F7
:10504000C4F88C0068070BD55FEAC87008D02168E7
:1050500004200862D4F88C0040F00200C4F88C00F0
:10506000D4F88C0020B12046FEF75CFBC4F88C908D
:10507000B4F85E00B0B92068016821F48071016065
:1050800020688168194A114081602020C4F8880096
:10509000C4F87090E06E01281CD02046FEF71CFD7D
:1050A000C4F86C900FB1A806A0D4B4F85E00002834
:1050B00095D0B4F86810814291D92068816821F0B8
:1050C000805181600A4820672068016841F0200112
:1050D000016084E72068016821F010010160B4F8E4
:1050E0005C102046FEF7CEFADAE70000FEFFFFEF85
:1050F000394F00082DE9F0410446016880682269B3
:10510000E3691043626900251A431043DFF82CC29B
:105110000A688B4B1A4002430A6020684168E268C3
:1051200021F44051114341602168A069614501D0DB
:10513000226A10438A68834B1A4002438A602068BF
:10514000C16A626A21F00F011143C1627E4923687E
:105150007E488B420DD1D0F8880010F0030006D0B5
:10516000012855D0022842D003283FD152E0012027
:105170003DE077498B420BD1D0F8880010F00C004D
:1051800035D0042833D0082840D00C282ED141E057
:1051900070498B420BD1D0F8880010F0300026D037
:1051A000102835D0202831D030281FD132E06A496C
:1051B0008B420BD1D0F8880010F0C00017D04028E7
:1051C00026D0802822D0C02810D123E063450DD1FD
:1051D000D0F8880010F4406009D0B0F5806F17D087
:1051E000B0F5006F12D0B0F5406F13D010205B4ABD
:1051F0005B4F00264FF40041634539D160B102286E
:105200000DD004280DD0082831D10EE00220EEE7A1
:105210000420ECE70820EAE7FDF76EFA03E0114608
:1052200003E0FDF78DFA01007DD0606A37F81020A9
:105230006768B1FBF2F007EB470383426CD8B0EB31
:10524000073F69D8002308461946FBF745F80902CD
:1052500041EA106102027808101871413A460023B1
:10526000FBF73AF83F4AA0F54071914259D953E013
:10527000E3694FF6EF788B422DD109284CD2DFE855
:1052800000F005080D4B274B4B4B0E00FDF734FA91
:1052900001E0FDF743FA010001D144E01146606AE4
:1052A00037F81000B1FBF0F04100606801EB5001ED
:1052B000B1FBF0F080B2A0F1100141452CD84FF6BF
:1052C000F0710140C0F3420001432068C1602AE050
:1052D000FDF736FADFE709281ED2DFE800F00508FF
:1052E0000D1D1F1D1D1D0E00FDF706FA01E0FDF747
:1052F00015FA010001D116E01146606A37F8100076
:10530000B1FBF0F1606801EB5001B1FBF0F080B24D
:10531000A0F11001414504D9012504E0FDF710FA80
:10532000E7E72168C8600120A4F86A0024F8680F44
:105330002846A660E660BDE8F081000000800040DD
:10534000F369FFCFFFF4FF11003801400010024065
:105350000044004000480040004C00400024F4009D
:10536000AA7A0008FFFC0F0070B58165A0F85C20E8
:10537000A0F85E200021016783684FF48056FF2467
:10538000B34204D10369D3B940F2FF131DE07F2576
:105390009BB1B3F1805F15D0A0F86010C0F88C10FD
:1053A0002223C0F8883003689C6844F001049C60A4
:1053B000436EB3F1005F0ED027E0036943B9A0F854
:1053C0006040EBE703691BB13F23A0F86030E5E7DD
:1053D000A0F86050E2E7B0F86830934215D88268D0
:1053E000B24201D1026972B1114A026780F880109D
:1053F00001680A6842F480720A600068816841F0BE
:10540000805181600FE00B4AEFE78268B24201D120
:10541000026952B1084A026780F88010006801688A
:1054200041F490710160002070BD044AF3E7000070
:10543000B94F0008FD4D0008394F00087D4D0008A8
:105440002DE9F0479A4617460E4604464FF00009EC
:105450004FF02008089D39E0681C37D0FCF71CFE8F
:10546000A0EB0A00A84222D80DB3206801684907C2
:105470002CD5C069C043000528D421684FF40060D2
:1054800008622068016821F4D07101602068816899
:1054900021F001018160C4F88480C4F88880C4F8D8
:1054A0008C8000BF84F880900320BDE8F0872068DE
:1054B000016821F4D07101602068816821F0010148
:1054C0008160C4F88480C4F88880EBE72068C069F4
:1054D00036EA000004D00020B842BDD00020E4E746
:1054E0000120F9E70148FEF71FB900000C02002077
:1054F00010B526480168264CE269891A322944D33E
:105500000068E06100F0AEF9012814D000F0AAF9BB
:10551000022813D000F0A6F9032815D000F0A2F954
:10552000042814D000F09EF9052818D000F09AF94C
:10553000062825D027E0227816A101E0627817A17D
:105540001848FAF741FF14E017A1226AF8E7154856
:1055500018A12A3090ED000B53EC102B06E01148F7
:1055600017A1623090ED000B53EC102B0D48FAF7A9
:105570002BFF322315220B491448FEF7BFFA02E035
:10558000E07AC043E0720020207210BD4800002085
:1055900008000020583A25640D0A0000593A256495
:1055A0000D0A00006E0000205041313A25640D0ABA
:1055B000000000005041343A252E326C660D0A007E
:1055C0005041353A252E326C660D0A000C0200203F
:1055D000FEE703B401984100009850EAC12018BFCB
:1055E00004204A0D18BF40F0010040F2FF72B2EBF8
:1055F000515F08BF40F00200012808BF052002B03B
:1056000070470907090E002804DB00F1E02080F84C
:105610000014704700F00F0000F1E02080F8141D26
:10562000704730380A2801D20120704700207047A7
:1056300070B52DED088B9FED608B9FED619B9FED0D
:1056400062AB9FED63BB644C04F1380500F0CCF80D
:10565000624853EC182B90ED0A0B84ED000B90ED93
:105660000C0B85ED000B94ED060B51EC100B00F0CC
:105670003FFE05D184ED049B84ED02AB84ED06BBB7
:1056800095ED060B53EC182B51EC100B00F030FE8F
:1056900005D185ED049B85ED02AB85ED06BB94EC51
:1056A000040B53EC102B51EC110B00F0B5FE02D2A1
:1056B00094ED000B01E094ED020B84ED020B95ECF0
:1056C000040B53EC102B51EC110B00F0A5FE02D291
:1056D00095ED000B01E095ED020B85ED020B94EDCD
:1056E000001B94ED040B53EC112B51EC100B00F04C
:1056F000CDFF02D294ED000B01E094ED040B84ED9C
:10570000040B95ED001B95ED040B53EC112B51ECA4
:10571000100B00F0BBFF02D295ED000B01E095ED00
:10572000040B85ED040B94ED000B94ED0C1B53EC76
:10573000102B51EC110B00F0CFFB41EC180B84ED5A
:105740000C8BA66A304600F03CFE9FED259B53EC87
:10575000192B00F0C1FB41EC100B51EC180B53EC72
:10576000102B00F06DFC2034761C84E8430095ED8E
:10577000001B95ED0C0B53EC112B51EC100B00F0B2
:10578000ABFB41EC180B85ED0C8BAC6A204600F0AE
:1057900018FE53EC192B00F09FFB41EC100B51EC61
:1057A000180B53EC102B00F04BFC641C203585E8E3
:1057B0001300BDEC088B70BD000000000000F0BFBE
:1057C0006666666666660A4000000000000000002B
:1057D0000000000000002440980000200800002085
:1057E000000000000000F03F10B518482DED048BBC
:1057F000FCF766FA1548FCF733F980B200F0F8FDC3
:105800009FED138B53EC182B00F042FE9FED129B83
:1058100053EC192B00F03CFE114CC4E90A010B4873
:10582000FCF74EFA0948FCF71BF980B200F0E0FDE6
:1058300053EC182B00F02CFE53EC192B00F028FE33
:10584000C4E90C01BDEC048B10BD00000801002070
:105850006666666666660A40000000000000303F2B
:10586000080000201748027A42B11748012A01783F
:1058700006D0032A0FD0012A06D018E00020704776
:10588000582904D0592904D0232918D00FE0012029
:10589000704702207047502909D14178412906D12B
:1058A0008078312805D0342805D0352805D0072048
:1058B000704703207047042070470520704706207A
:1058C00070470000080000208300002070B54B4D99
:1058D0002DED028B28684A4C2169401A32282AD3C0
:1058E0002868206100F09EF8A070617930EA01021A
:1058F00080EA0101E27021EA00012171607101D0AA
:105900002868606128686269801A0022B0F57A7F91
:1059100017D904290FD1A07A9FED3A0B9FED3B1BBD
:1059200060B13C48826280ED020B80ED040B80ED9B
:10593000080B80ED061BBDEC028B70BD3548383876
:10594000F0E7012910D0012002291BD0032924D01F
:105950000429F0D1A07958B301282FD00228EAD128
:10596000A07AC043A072E6E7A079401CC0B2A07143
:10597000032800D1A2710020BDEC028BBDE870406D
:10598000FEF760B9A1790129D5D12178491CC9B2A6
:1059900021700529CFD12070CDE7A1790129CAD185
:1059A0006178491CC9B261700529C4D16070C2E731
:1059B000BDEC028BBDE87040FFF73ABE207B164D70
:1059C000C04310F0FF0020739FED148B2178206AF4
:1059D00011D0B0FBF1F060622A68411ED162E9602B
:1059E00000F006FD53EC182B00F052FD00F0BCFC5B
:1059F000296888639FE74843EDE7000048000020DE
:105A0000080000200000000000000000000000006E
:105A10000000F0BFD0000020C00100200000000006
:105A20000000E03F70B51C4C01212046FCF72AFB2A
:105A30004FF0904570B102212046FCF723FB48B19E
:105A400004212046FCF71EFB20B101212846FCF76B
:105A500019FBB0B90A20FCF71FFA01212046FCF718
:105A600011FB80B102212046FCF70CFB68B1042138
:105A70002046FCF707FB50B101212846FCF702FB4A
:105A800038B1002070BD012070BD022070BD032020
:105A900070BD042070BD00000004004870B56B4E5E
:105AA0006B4CB07904F13805002847D0012878D034
:105AB000022874D1B07A002872D066A1A4F14800FF
:105AC000FAF782FCA4F148011820FEF721F965A13C
:105AD000A4F14800AA6AFAF777FCA4F1480148202B
