:020000040800F2
:10000000500800209D020008DB360008433100083C
:10001000D936000867160008A94A00080000000049
:10002000000000000000000000000000F33900089C
:100030006916000800000000DD3600080F3A0008CD
:10004000B7020008B7020008B7020008B7020008AC
:10005000B7020008B7020008B7020008B70200089C
:10006000B7020008B7020008B7020008B70200088C
:10007000B7020008B7020008B7020008B70200087C
:10008000B702000800000000B7020008B70200082D
:10009000B7020008B7020008B7020008B70200085C
:1000A000B7020008B7020008B7020008B70200084C
:1000B000B7020008A53A0008B7020008B702000816
:1000C000B7020008B7020008B7020008B70200082C
:1000D000B702000839480008B7020008B702000854
:1000E000B7020008B7020008B7020008B70200080C
:1000F000B7020008B7020008B702000800000000BD
:1001000000000000B702000800000000B70200086D
:10011000B702000800000000B7020008B70200089C
:10012000B7020008B7020008B7020008B7020008CB
:10013000B70200080000000000000000B70200083D
:10014000B7020008B702000800000000000000002D
:10015000000000000000000000000000000000009F
:10016000000000000000000000000000B7020008CE
:10017000B7020008000000000000000000000000BE
:1001800000000000B70200080000000000000000AE
:10019000000000000000000000000000000000005F
:1001A0000000000000000000B7020008B7020008CD
:1001B000B7020008B7020008B702000800000000FC
:1001C00000000000B702000800000000000000006E
:1001D000B7020008B702000800F002F800F04FF87C
:1001E0000AA090E8000C82448344AAF10107DA4592
:1001F00001D100F044F8AFF2090EBAE80F0013F095
:10020000010F18BFFB1A43F001031847F06000000C
:1002100010610000103A24BF78C878C1FAD852079C
:1002200024BF30C830C144BF04680C607047000070
:100230000023002400250026103A28BF78C1FBD8EF
:10024000520728BF30C148BF0B607047662904F0D1
:100250000187642900F01E81732900F002850020C7
:1002600070471FB504F0F1FE00F000FD040000200F
:10027000002104F05DFEE0601FBD10B510BD00F070
:10028000F5FD1146FFF7EDFF04F0FAFD00F013FE57
:1002900003B4FFF7F2FF03BC00F016FE09488047E5
:1002A00009480047FEE7FEE7FEE7FEE7FEE7FEE758
:1002B000FEE7FEE7FEE7FEE704480549054A064B70
:1002C00070470000953A0008D9010008500200204C
:1002D00050080020500400205004002053EA020C73
:1002E00000F069802DE9F04B4FF00006002B1FBF96
:1002F000B3FA83F503FA05F424FA05F65E4012BF5B
:100300001643B2FA82F502FA05F4C5F120051EBFC4
:1003100022FA05FC44EA0C04203556EA044C4FEA64
:10032000144418BF641C4FF000084FF000099042BD
:1003300071EB030C39D3002919BFB1FA81F701FA27
:1003400007F6B0FA80F700FA07F6C7F120071EBFDC
:1003500020FA07FC46EA0C062037B6FBF4FCA7EBB4
:100360000507103F07F01F0BCBF120060CFA0BFB23
:100370002CFA06F644BFB3460026202FA4BF5E46E3
:100380004FF0000B5BEA060C08BF4FF0010B19EBB6
:100390000B09ABFB027C48EB0608C01B06FB02CC3A
:1003A0000BFB03CC71EB0C01C1E70B460246414647
:1003B0004846BDE8F08B13B54FF000004FF0000148
:1003C000AFF30080BDE81C40704700000FB41CB5BF
:1003D000074B06AA7B4469460090059800F017FC7D
:1003E0000020694600F026FC1CBC5DF814FB0000F0
:1003F0005D08000070B5044685690068C10601D536
:10040000302600E02026C00707D070BDD4E90121C6
:1004100030469047206A401C20626D1EF6D570BDA4
:1004200070B5044685690078C00707D170BDD4E96E
:10043000012120209047206A401C20626D1EF6D5C5
:1004400070BD70B50C460546012A05D02878800697
:1004500000D5EA69002302E0012305E05B1C93421A
:1004600002D2E05C0028F9D1A869E618C01AA86198
:10047000286A184428622846FFF7BCFF04E0D5E943
:10048000012114F8010B9047B442F8D32846FFF736
:10049000C7FF70BD2DE9F04106460024106875299C
:1004A000314616A510D0AFF30080002802DA404292
:1004B00013A507E031688A0701D512A502E04907B4
:1004C00004D511A5012401E0AFF3008000210A2228
:1004D00006F1240709E0B0FBF2FCB0FBF2F302FBEB
:1004E0001C00303078541846491C0028F3D12346AC
:1004F0002A463046BDE8F04100F01BB9000000007C
:100500002D0000002B000000200000002DE9F04726
:100510004FF0000A89460446C0F820A02046E16852
:100520008847002876D0252806D0D4E901219047B5
:10053000206A401C2062F1E7E168204600258847D8
:10054000C4F81CA006460027C4F818A02A2E09D01B
:10055000304604F0D2FA38B304EB8708303EC8F8CE
:10056000186019E059F8041B204604EB87029161DA
:10057000E1688847012F064618D1E069002820DA93
:1005800025F020051DE0D8F8180000EB800006EBF0
:1005900040003038C8F818002046E1688847064611
:1005A00004F0ABFA0028EED1012F0AD02E2E08D18C
:1005B0002046E16888477F1C0646022F45F020054B
:1005C000C4DBA069002803DA404245F00105A061C0
:1005D000E80701D025F01005B6B1A6F141001928B1
:1005E00002D8203645F400654A463146204625604B
:1005F0004D46FFF72BFE58B1012806D0ED1D25F022
:10060000070000F1080989E704E005F1040985E71E
:1006100030468AE7206ABDE8F0874FF000020429DF
:10062000C0F0128010F0030C00F01B80CCF1040C21
:10063000BCF1020F18BF00F8012BA8BF20F8022B55
:10064000A1EB0C0100F00DB85FEAC17C24BF00F8FB
:10065000012B00F8012B48BF00F8012B70474FF029
:10066000000200B5134694469646203922BFA0E802
:100670000C50A0E80C50B1F12001BFF4F7AF09070E
:1006800028BFA0E80C5048BF0CC05DF804EB8900FF
:1006900028BF40F8042B08BF704748BF20F8022B42
:1006A00011F0804F18BF00F8012B70474FF0013C4C
:1006B00050F8042B51F8043B9A4221D1A2EB0C03D1
:1006C000934313EACC1317D150F8042B51F8043B91
:1006D0009A4215D1A2EB0C03934313EACC130BD12E
:1006E00050F8042B51F8043B9A4209D1A2EB0C03B9
:1006F000934313EACC13DBD04FF00000704700BFE8
:10070000D01A01BAB1FA81F101F0180122FA01F010
:10071000CB40C1F12001DBB2C0B2C01A2CFA01F308
:10072000D11A914311EAC311E6D17047704770475F
:1007300070472DE9F0470D4699469246044600F170
:1007400024080168880604D5E06921F010012160C1
:1007500000E00120A84201DD471B00E00027A1695D
:100760007A1902EB0900081AA0612078C00602D4A9
:100770002046FFF73FFE002608E0D4E901211AF8E1
:1007800006009047206A401C761C20624E45F4DB30
:100790002078C0060AD52046FFF72CFE06E0D4E9F3
:1007A000012130209047206A401C2062381EA7F1AA
:1007B0000107F4DC07E0D4E9012118F805009047AF
:1007C000206A401C2062281EA5F10105F3DC2046AA
:1007D000FFF726FE2078000602D50220BDE8F0874C
:1007E0000120FBE770472DE9FF4F0C461E464FF0F6
:1007F000FF378BB0D2E90001DDF860800A908A46AD
:10080000C1F30A5505B93D46002108464FF00000E6
:10081000BAF1000F00F4400005DA00EB80004FF45D
:10082000400101EA50004FEA9059B9F1010F00DD93
:10083000B9460A9850EA4A000ED044F61050A5F284
:10084000FF3545432F14B8F1000F1ED07542291E05
:100850001EDDC9F100021CE0B8F1010F4FF00000ED
:1008600001D0302103E0F24305E02154401CB042A6
:10087000FBDB30460022002121540B99C1F808808F
:10088000C1E900200FB0BDE8F08FBD1B6D1CDEE795
:100890004A4600DA694206A800F072FA06AB93E80D
:1008A000070003AB83E8070050460A9900F013FBEA
:1008B0008DE80700A0F500501F3800900398002D28
:1008C0000ADD42F21F014A460844002303A90390AF
:1008D000684600F07CFD09E0A0F500504A461F384C
:1008E000002303A90390684600F086FD8DE8070009
:1008F0000004000C03D04FF0FF30410800E0104628
:10090000B8F1000F03D00022009215461EE0751EBC
:1009100005D400F0AFF9303262556D1EF9D5B346FB
:100920000122084302D000227F1C04E020783028F6
:1009300001D100227F1E002A099784D01DE0112DCD
:1009400007DA00F097F9303262556D1C50EA010267
:10095000F5D1084302D00098C8B10EE00021681E0E
:1009600005E0235C625C63542254401E491C8142B2
:10097000F7DBAB46A81B401E0990002004F80B00D3
:100980000B98099AC0F80880C0E9002B7AE7112675
:100990004FF0000857E72DE9F04F88460446D21D76
:1009A00022F0070191B0D1E90001CDE90A0104F07C
:1009B0007CF802460B98C00F01D02D2007E020687C
:1009C000810701D52B2002E0202101EAC000032A83
:1009D000099001D0072A05DB03464146204600F076
:1009E0008FF90BE12078800601D5E06900E0062050
:1009F000B8F1650F814606D0B8F1660F18D0B8F18E
:100A0000670F70D131E00020B9F1110F009001DBC8
:100A1000112301E009F101030AAA01A90CA8FFF7BB
:100A2000E2FEDDE90C70002609F10105834647E08E
:100A300001204B4600904FF000470AAA01A90CA8DC
:100A4000FFF7D1FEDDE90DB00C995D46002610B927
:100A500009F101000D18B9EB050003D4C0F1FF3610
:100A600009F10105A5EB09002BE0B9F1010F01DA4D
:100A70004FF001090020B9F1110F0090484601DD47
:100A8000112300E003460AAA01A90CA8FFF7ABFE58
:100A9000DDE90C704D4600268346207800070AD415
:100AA000AB4500DA5D4601A8012D04DD411911F8BE
:100AB000011C302907D04F4502DA17F1040F04DA80
:100AC000012082460FE06D1EEEE7002F02DCED1BD9
:100AD0003E4403E0781CA84200DD7D1CB81B00F1F9
:100AE000010A4FF000472078000703D4AA4501DB34
:100AF0004FF0FF3A0021B7F1004F0DF143088DF898
:100B0000431024D002202B23002F01DA7F422D2313
:100B10000A21021EA0F1010000DC5FB197FBF1FC8D
:100B200097FBF1F201FB1C7C17460CF1300C08F826
:100B300001CDEEE7A8F1010003702188090501D578
:100B4000452100E06521A0F1010800F8011C099889
:100B50000FA9A1EB0807FF1D00B10120411901EB0E
:100B6000EA70A1693844081A401EA0612078C006C6
:100B700002D42046FFF73EFC099828B1D4E90121B0
:100B80009047206A401C20622078C00622D520466B
:100B9000FFF730FC1EE0002E04DBB34502DD01A8A8
:100BA000805D00E03020D4E901219047206A401C9C
:100BB0002062761CAAF101005FEA000A0AD100F067
:100BC00055F8C0680168405CD4E901219047206A6B
:100BD000401C2062281EA5F10105DCDC07E0D4E9F9
:100BE000012118F8010B9047206A401C2062381E32
:100BF000A7F10107F3DC2046FFF712FC032011B038
:100C000041E6000001694A1C02610878704700B59E
:100C10008FB0CDE901310021059105497944CDE935
:100C2000031011466846FFF771FC0FB000BD0000CD
:100C3000E5FFFFFF0A6802F8010B0A60704710B574
:100C4000436913B1AFF3008001E0FFF7FAFB012025
:100C500010BD127800F124010A7000224A700122AE
:100C6000EDE711684FF0FF32E9E7000000487047F8
:100C70000C02002030B5B0F10A024FEA900E71F17B
:100C800000034EEA817EB0EB0E0061EB91014FEA6A
:100C9000101E4EEA017E10EB0E0041EB11114FEADF
:100CA000102E4EEA016E10EB0E0041EB11214FEABF
:100CB000104E4EEA014E10EB0E0041EB1141401870
:100CC00041F100014FEAD00040EA41704FEAD10102
:100CD00010EB80054FEA810444EA907444EB010470
:100CE0006D1944EB0404521BA3414FF0000348BFAD
:100CF0000A3200D530BD401C41F1000130BD00007A
:100D00002DE9F0411F46044603260168072A01F435
:100D1000006004DB08B116A505E016A503E008B1E4
:100D200015A500E015A521F010002060A069C01EE7
:100D3000A0610FB1401EA0612046FFF75BFB4FB1E1
:100D4000D4E9012138469047206A401C2062C01C2B
:100D5000206206E0206AFAE7D4E9012115F8010BC8
:100D60009047761EF8D22046FFF75AFBBDE8F08187
:100D70004E414E006E616E00494E4600696E66003F
:100D80002DE9F047814616468AB0354878440DC8AB
:100D90008DE80D0032487844801C03AC0DC884E80F
:100DA0000D0041F69B300844372190FBF1F290FB97
:100DB000F1F5A5F1800501FB12041B3C02D564424C
:100DC000012000E00020DFF898A080460027FA44C8
:100DD000AAF1BE0A0EE0E0070AD03246684607EBE9
:100DE000470101230AEB810100F006FB8DE80700B3
:100DF00064107F1C002CEED1194F7F44AE3F19E0E8
:100E0000E80715D007EB04100DF1180A90E80E0062
:100E10008AE80E00C068F04201D198190890324665
:100E2000012306A903A800F0E7FA03AB83E8070053
:100E30006D10641C002DE3D14FF00103324669466A
:100E4000B8F1000F03A802D000F0C1FA01E000F0F1
:100E5000D3FAC9E90001C9F808200AB0BDE8F08753
:100E60005455000000487047EC0100207546FFF71C
:100E7000F9FFAE4605006946534620F00700854657
:100E800018B020B5FFF718FABDE820404FF0000673
:100E90004FF000074FF000084FF0000B21F0070162
:100EA000AC46ACE8C009ACE8C009ACE8C009ACE8A5
:100EB000C0098D46704710B50446AFF30080204648
:100EC000BDE81040FFF7E4B901491820ABBEFEE7CA
:100ED0002600020070475FEA400C08BF91F0000F47
:100EE0004FEA8C234FEAC12243EA51514FEA1C508A
:100EF00018BF00F5F0404FEA300018BF41F0004144
:100F00005FEA6C5C00F02980BCF1FF3F08BF40F055
:100F100080407047130C06BF12044FF0100C4FF0C6
:100F2000000C130E04BF12020CF1080C130F04BFC7
:100F300012010CF1040C930F04BF92000CF1020C8F
:100F4000D30F04BF52000CF1010C11464FF0000208
:100F5000A0F11F00A0EB0C00704711F0004F08BF7C
:100F6000704731F000413FF4D5AF0B0C06BF0904C8
:100F70004FF0100C4FF0000C0B0E04BF09020CF1E7
:100F8000080C0B0F04BF09010CF1040C8B0F04BFFC
:100F900089000CF1020CCB0F04BF49000CF1010CCD
:100FA000CCF12003A0EB0C0022FA03F302FA0CF2BE
:100FB00041EA030100F10100704720F07F4C80EA14
:100FC000030023F07F47ACEB070303F57C5300F0ED
:100FD000004003F1FF032DE980494FEA154B09B4A6
:100FE0004FEA144325EA0B4E24EA03480FF2042685
:100FF00006EB132749083E785FEA320203FB0667D7
:10100000C7F5000707FB06F64FEA54374FEAD64606
:1010100006F1020607FB066CCCF1005C4FEA1C47A8
:101020002CEA074C07FB06F40CFB06F504EB15460F
:101030004FEA961634BF00204FF000404FEAD137F8
:1010400006FB07FC4FEA1C4C0CFB0BF7D21B03FB07
:101050000CF761EB07010CFB0EF7B0EB074072EBEE
:1010600017420CFB08F734BFA2EB0742B2EB074272
:1010700061EB17414FEA0C444FEA910706FB07FC6E
:101080004FEA1C4C0CFB0BF7B0EBC74072EB57322E
:1010900003FB0CF734BFA2EBC742B2EBC74261EBD4
:1010A00057310CFB0EF7B0EBC70072EB57720CFB1D
:1010B00008F734BFA2EBC702B2EBC70261EB57716E
:1010C000039F4FEA816141EA921104EBCC044FEA9D
:1010D000D1374FEA826206FB07FC42EA90124FEAE0
:1010E00080604FEA1C4C0CFB0BF7D21B03FB0CF788
:1010F00061EB07010CFB0EF7B0EB074072EB1742F8
:101100000CFB08F734BFA2EB0742B2EB074261EBDE
:1011100017414FEA8C554FEA910704EB9C2406FBDC
:1011200007FC4FEA1C4C0CFB0BF7B0EBC74072EB13
:10113000573203FB0CF734BFA2EBC742B2EBC742F6
:1011400061EB57310CFB0EF7B0EBC70072EB577237
:101150000CFB08F734BFA2EBC702B2EBC70261EB8E
:10116000577115EB4C254FEA816141EA92114FEA24
:1011700082624FEAD13742EA901206FB07FC44F143
:1011800000044FEA80604FEA1C4C0CFB0BF7D21BAB
:1011900003FB0CF761EB07010CFB0EF7B0EB07400C
:1011A00072EB17420CFB08F734BFA2EB0742B2EB1D
:1011B000074261EB174115EB1C154FEA813141EAFB
:1011C00092414FEA823242EA90424FEA80304FEA3F
:1011D0000C7644F1000448EA03434EEA0B484FF012
:1011E000000EB2EB080C71EB030724BF62463946D0
:1011F0004EEB0E0E4FF0000B0018524149414BEBE5
:101200000B0BB2EB080C71EB03077BF1000B24BF57
:10121000624639464EEB0E0E4FF0000B001852415D
:1012200049414BEB0B0BB2EB080C71EB03077BF165
:10123000000B24BF624639464EEB0E0E51EA020700
:1012400018BF46F0010616EB0E7655F1000254F178
:10125000000103D5BDE88901BDE80088BDE889012A
:10126000BDE80048B619524141EB0101A3F1010369
:10127000704780807F7E7D7C7B7A79787776767503
:101280007473727171706F6E6E6D6C6C6B6A6A697B
:101290006868676666656464636362616160605F15
:1012A0005F5E5E5D5D5C5C5B5B5A5A59595858578E
:1012B00057565655555554545353525252515150F6
:1012C00050504F4F4F4E4E4D4D4D4C4C4C4B4B4B49
:1012D0004A4A4A494949484848474747474646468F
:1012E00045454544444444434343434242424241CA
:1012F0004141002B9C4630D477002BD01CB54FEADF
:10130000370703B44FF010004FF01001BAF1000F8F
:1013100006D0BCF1000FDCBF40F0080040F008012F
:101320004FF000000FBCBDE810400BF1010BBBF10A
:10133000010F08BF5FEA170722BF12F1010211F186
:1013400001014FF0004143F1000300F0004043EA87
:1013500000007047F9D35708D0E746EA064613F174
:10136000400F4FEA16461FDD13F1200FDFBF164373
:101370000A46002120335B42BED0C3F1200746EA73
:10138000064602FA07F74FEA164646EA0706C3F191
:10139000200722FA03F201FA07F721FA03F14FF0CE
:1013A000000342EA0702A7E746EA020646EA0646C3
:1013B0004FEA164646EA0106BCBF46EA0646360C28
:1013C0004FF000034FF000024FF0000194E72DE9C9
:1013D000804C9A46934670B491E8380007C831EAC9
:1013E000400C48BF34EA430C03D5FFF7E6FDFFF796
:1013F00080FFF0BCBDE8008C2DE9804C9A469346F6
:1014000070B491E8380007C810F0804F08BF13F09F
:10141000804F03D100F005F8FFF76BFFF0BCBDE88B
:10142000008C20F07F4780EA030023F07F4C07EB1D
:101430000C03A3F57C5300F00040A3F1FE0392F0EF
:10144000000F00F0B38095F0000F00F077802DE9D9
:1014500001494FEA11404FEA144621EA004800FBD7
:1014600006FC24EA064708FB06F607FB08F800FB23
:1014700007F718EB06484CEB164C4FEA124B18EBEB
:1014800007484FEA15464CEB174022EA0B4E0BFB80
:1014900006FC25EA06470EFB06F607FB0EFE0BFBD5
:1014A00007F71EEB064E4CEB164C4FF000061EEBFA
:1014B000074E4CEB174B18EB0B0840F1000018EBF4
:1014C0000E0B58EB000840F100008F1A4FF000019E
:1014D0003CBFC943661B14BFB5EB040C00213CBFE5
:1014E000C943F61B4FEA17444EEA8E0E27EA04451D
:1014F0004FEA1C4704FB07622CEA074C05FB07F781
:101500000CFB05F604FB0CFC16EB074642EB1742FE
:1015100016EB0C4642EB1C421BEB060658EB020294
:10152000414146EA9E0601D5BDE80189B6195241FE
:1015300041EB0101A3F10103BDE801894FEA144524
:101540004FEA114724EA054621EA074C05FB07F458
:1015500006FB07F70CFB06F105FB0CFC11EB074142
:1015600044EB17444FEA124711EB0C4144EB1C4487
:1015700022EA074C05FB07F206FB07F70CFB06F611
:1015800005FB0CFC16EB074642EB174216EB0C462C
:1015900042EB1C456A1854F1000148BF7047B61968
:1015A000524141EB0101A3F10103704795F0000F97
:1015B00037D04FEA11424FEA144721EA024624EAA3
:1015C000074C02FB07F106FB07F70CFB06F402FBD6
:1015D0000CFC14EB074441EB17414FEA154714EBA1
:1015E0000C4441EB1C4125EA074C02FB07F506FBC6
:1015F00007F70CFB06F602FB0CFC16EB074645EB67
:10160000174516EB0C4645EB1C42121951F100012F
:1016100048BF7047B619524141EB0101A3F10103E4
:1016200070474FEA14454FEA114724EA054621EA7C
:10163000074C05FB07F106FB07F70CFB06F24FF022
:10164000000605FB0CFC12EB074241EB174112EBC5
:101650000C4251EB1C4148BF7047921841EB01010D
:10166000A3F101037047FEE77047002240F6B8334C
:1016700006E00021491C89B29942FBD3521C92B268
:101680008242F6D3704772B6FEE710B590F8253067
:1016900000210122022B03D00421C163012122E099
:1016A00003681C6824F00E041C60836C1C6824F41E
:1016B00080741C6003681C6824F001041C6090F8AE
:1016C0004430046C03F01F0302FA03F36360D0E9B3
:1016D00013345C60436D33B11C6824F480741C6067
:1016E000D0E916345C6080F82520002280F82420A0
:1016F000084610BD70B590F825200024012123462E
:10170000022A07D00422C26380F8251080F8243012
:10171000012429E00268156825F00E0515600268AD
:10172000156825F001051560826C156825F4807533
:10173000156090F84420056C02F01F0201FA02F2D5
:101740006A60D0E913255560426D32B1156825F401
:1017500080751560D0E91625556080F8251080F851
:101760002430816B01B18847204670BD70B50446B6
:1017700000F0FCF80546601C02D0044840680444B0
:1017800000F0F4F8401BA042FAD370BD1C0000200A
:101790002DE9FC4FDFF8A0A1002301250AF1040B7D
:1017A00003244FF00F0C0BF1040EBDE005FA03F615
:1017B00032406FD04F68012F05D0022F03D0112F78
:1017C00001D0122F17D1D0F808905F0004FA07F863
:1017D00029EA08090097D1F80C8008FA07F848EAC6
:1017E0000908C0F808804768B7430E79C6F30016A9
:1017F0009E403E434660C6684FEA430804FA08F735
:10180000BE4301978F6807FA08F73743C7604E68F1
:10181000022E01D0122E13D1DE0800EB86060096B0
:10182000366A5F07FF0E0CFA07F926EA0906D1F8B7
:10183000109009FA07F949EA0609009EC6F82090B7
:101840000668019FBE430F7907F0030707FA08F700
:10185000374307604E68F60065D5384E376E47F05F
:1018600001073766366E23F0030706F0010600967F
:10187000334E3E44B146B6689F074FEA17780CFADC
:1018800008F7BE43B0F1904F05D02E4FB84204D1B7
:10189000012717E047E0002714E02B4FB84201D1A1
:1018A00002270FE0294FB84201D103270AE0284F51
:1018B000B84201D1042705E0264FB84201D10527DF
:1018C00000E0062707FA08F73743C9F80870DAF886
:1018D00000605746D1F8048096435FEAC83800D5C7
:1018E00016433E60DBF800605F46D1F80480964303
:1018F0005FEA883800D516433E60DEF80060774620
:10190000D1F8048096435FEAC82800D516433E60AC
:10191000094F0C373E68D1F8048096435FEA882867
:1019200000D516433E605B1C0A6832FA03F67FF46A
:101930003DAFBDE8FC8F00000004014000100240F4
:10194000000001400004004800080048000C004866
:1019500000100048001400480069084000D0012031
:1019600070470AB1816170478162704701488068A1
:10197000704700001C000020024881684268114442
:10198000816070471C00002010B50024032000F087
:1019900073F80F2000F008F808B1012401E000F00E
:1019A00025F8204610BD000070B50E4E05460024F7
:1019B000706898B14FF47A71B1FBF0F00A49096888
:1019C000B1FBF0F000F064FD40B9102D06D200220A
:1019D0002946501E00F030F8356000E00124204612
:1019E00070BD00001C000020280000200A4882B0C2
:1019F000016E41F001010166016E01F001010091EB
:101A0000816D41F080518165806D00F080500090C3
:101A100002B000F0A1B8000000100240002809DB6D
:101A200000F01F02012191404009800000F1E020F8
:101A3000C0F8001170470000F0B40E4B1B680C4654
:101A4000C3F30223C3F10705042D00D90425191D92
:101A5000072901D2002300E0DB1E012606FA05F16A
:101A6000491E214099409E40761E16403143F0BCED
:101A700003F033B80CED00E0064900F007020868F7
:101A80004FF6FF03184040EA0220034A1043086063
:101A9000704700000CED00E00000FA052B492C4BCC
:101AA0000A6832214A432B4940B1B0F5007F0868EB
:101AB00029D020F4C06040F480602CE00868C0F3B6
:101AC0004120022804D051F8800F20F4807022E0D9
:101AD000D1F8800020F48070C1F88000086820F4FC
:101AE000C06040F400700860B2FBF3F0401C00E0FE
:101AF000401E4A69520501D50028F9D148694005C0
:101B00000AD503207047C0F34120022806D051F8BF
:101B1000800F40F48070086000207047D1F880008A
:101B200040F48070C1F88000086820F4C06040F480
:101B300000700860B2FBF3F0401C00E0401E4A69F0
:101B40005205DBD50028F9D1D8E700002800002095
:101B500040420F00007000400248816841F480411B
:101B600081607047007000402DE9F843044600682A
:101B700000269D4D00035ED5A86D0027C00008D447
:101B8000A86D40F08050A865A86D012700F0805036
:101B90000090DFF85892D9F8001041F48071C9F82C
:101BA0000010FFF7E3FE804606E000BFFFF7DEFE11
:101BB000A0EB080002282BD8D9F80000C005F5D505
:101BC000D5F8900010F4407014D0216C814211D0EF
:101BD000D5F89000D5F8901020F4407041F4803191
:101BE000C5F89010D5F8901021F48031C5F8901008
:101BF000C5F89000C00711D0FFF7B8FE804641F24B
:101C0000883907E0FFF7B2FEA0EB0801494501D98A
:101C100003260BE0D5F890008007F3D5D5F89000A7
:101C2000216C20F440700843C5F890001FB1A86DE6
:101C300020F08050A8652078C00707D0D5F888002C
:101C4000616820F003000843C5F888002078800709
:101C500007D5D5F88800A16820F00C000843C5F826
:101C600088002078400707D5D5F88800E16820F083
:101C700030000843C5F888002078000707D5D5F85C
:101C80008800216920F0C0000843C5F8880020784A
:101C9000800607D5D5F88800616920F440600843C4
:101CA000C5F888002078400607D5D5F88800A169D6
:101CB00020F440500843C5F888002078000607D576
:101CC000D5F88800E16920F440400843C5F8880051
:101CD0002088C00507D5D5F88800216A20F4403057
:101CE0000843C5F888002088800507D5D5F8880006
:101CF000616A20F440200843C5F888002088400528
:101D00000FD5D5F88800A16A20F440100843C5F823
:101D10008800A06AB0F5801F03D1E86840F4801005
:101D2000E860208800050FD5D5F88800E16A20F426
:101D300040000843C5F88800E06AB0F5800F03D181
:101D4000E86840F48010E8602088C0040FD5D5F81A
:101D50008800216B20F040700843C5F88800206B94
:101D6000B0F1807F03D1E86840F48010E8602088FB
:101D70004FF0006180040ED5D5F88800626B20F02A
:101D800040601043C5F88800606B884203D1E86862
:101D900040F48010E860208840040ED5D5F8880013
:101DA000A26B20F040601043C5F88800A06B884209
:101DB00003D1E86840F48010E860208800040FD563
:101DC000D5F88800E16B20F040500843C5F8880042
:101DD000E06BB0F1805F03D1E86840F48030E860E8
:101DE0003046BDE8F883000000100240007000405B
:101DF0002DE9F0470E4605004FF0000725D0DFF82B
:101E0000AC81D8F8000000F00F00B0420CD2D8F836
:101E1000001021F00F013143C8F80010D8F800007D
:101E200000F00F00B04210D12968614CC80741F2A0
:101E3000883A5AD06868DFF87C91032808D00228D5
:101E400020682DD0400500282CDB0120BDE8F0875C
:101E500020688001F9D5E06800F00302E068C0F373
:101E60000310401C032A19D0534A00BFB2FBF0F004
:101E7000E268C2F306225043E268C2F34162521C98
:101E80005200B0FBF2F0484517D9A06810F0F00FEF
:101E90000CD0880711D5A86840B10EE0474AE5E7A5
:101EA0008003D0E700F0B6F8484506D9A06820F0D6
:101EB000F00040F08000A0608027A068696820F0F2
:101EC00003000843A060FFF751FD814606E000BF14
:101ED000FFF74CFDA0EB090151453AD8A0686968AD
:101EE00000F00C00B0EB810FF2D12868810714D507
:101EF000400703D5A06840F4E060A06028780007A0
:101F000005D5A06820F4605040F4E060A060A068AF
:101F1000A96820F0F000084304E0802F03D1A068F6
:101F200020F0F000A060D8F80010404601F00F014A
:101F3000B14216D9016821F00F0131430160FFF76A
:101F400015FD074607E000BFFFF710FDC11B514517
:101F500001D903207AE7D8F8000000F00F00B04262
:101F6000F2D12878400705D5A068E96820F4E06040
:101F70000843A0602878000706D5A068296920F4E6
:101F8000605040EAC100A06000F044F8A1680C4A2B
:101F9000C1F30311515C01F01F01C84009490860F9
:101FA00009480068BDE8F047FFF7FEBC002002408A
:101FB0000010024000B4C4040024F40000366E0196
:101FC00050620008280000201C0000200548064937
:101FD00000688968054AC1F30221515C01F01F01C4
:101FE000C8407047280000200010024060620008CE
:101FF0000548064900688968054AC1F3C221515C59
:1020000001F01F01C8407047280000200010024066
:1020100060620008184910B58868C0F3810217484B
:10202000012A0BD08A68164BC2F38102022A06D01D
:102030008A68C2F38102032A03D0002010BD18462B
:1020400010BDCA6802F00304CA68C2F30312521C2E
:10205000032C02D0B0FBF2F001E0B3FBF2F0CA684F
:10206000C968C2F306225043C1F34161491C4900CB
:10207000B0FBF1F010BD0000001002400024F4009D
:1020800000366E012DE9F84304007AD02078FA4D2D
:10209000C00747D0A868E96800F00C0001F0030110
:1020A0000C2802D0082817D001E0032914D060685A
:1020B000B0F5803F17D0B0F5A02F286817D020F4D6
:1020C00080302860286820F4802028606068E0B1B3
:1020D000FFF74CFC064614E02868800322D56068B0
:1020E0000028D2D01EE0286840F48030EDE740F4AC
:1020F00080202860F7E700BFFFF738FC801B6428CA
:1021000070D828688003F7D50CE0FFF72FFC06464F
:1021100005E000BFFFF72AFC801B6428F0D8286880
:102120008003F7D4207880074CD5A868E96800F0D0
:102130000C0001F003010C2802D004280DD001E0AE
:1021400002290AD0E068002828682BD040F480706B
:102150002860FFF70BFC064619E02868400502D509
:10216000E068002891D06868217C20F0FE4040EAB9
:1021700001606860C1480068FFF716FC002800D1C4
:1021800020E076E1FFF7F2FB801B0228B8D8286830
:102190004005F7D56868217C20F0FE4040EA0160E8
:1021A00068600FE020F480702860FFF7DFFB0646D0
:1021B00005E000BFFFF7DAFB801B0228A0D82868E3
:1021C0004005F7D42078000729D560690028D5F8A4
:1021D000940013D040F00100C5F89400FFF7C6FB4F
:1021E000064606E090E000BFFFF7C0FB801B022818
:1021F00086D8D5F894008007F6D510E020F00100CD
:10220000C5F89400FFF7B2FB064604E0FFF7AEFB0B
:10221000801B022878D8D5F894008007F6D420785F
:10222000400761D5A86D0026C00008D4A86D40F015
:102230008050A865A86D012600F08050009090485D
:102240000168C90511D40168804641F480710160BC
:10225000FFF78CFB074604E0FFF788FBC01B022852
:1022600052D8D8F80000C005F6D5A068012815D0CE
:102270000528D5F8900016D020F00100C5F8900090
:10228000D5F8900020F00400C5F89000A06841F255
:102290008838B8B1FFF76AFB07460EE0D5F8900022
:1022A00040F00100F0E740F00400C5F89000F5E7C9
:1022B000FFF75CFBC11B414526D8D5F8900080078D
:1022C000F6D50CE0FFF752FB074604E0FFF74EFBA4
:1022D000C11B414518D8D5F890008007F6D41EB12F
:1022E000A86D20F08050A8652078800629D5A069C7
:1022F0000028D5F8980013D040F00100C5F89800E8
:10230000FFF734FB064606E077E000BFFFF72EFB41
:10231000801B022877D8D5F898008007F6D510E002
:1023200020F00100C5F89800FFF720FB064604E006
:10233000FFF71CFB801B022865D8D5F898008007A2
:10234000F6D4E069F0B3A968C1F38101032961D033
:102350000228286820F0807028600BD0E86820F000
:102360000300E860E86847490840E860FFF7FEFAC4
:1023700004464BE0FFF7FAFA064604E0FFF7F6FAE8
:10238000801B02283FD828688001F7D4F4E90801AF
:102390006FF00F0202EB01110843218A5204490831
:1023A00002EB4151A26841EA02210843217D4FF02E
:1023B0007E42490802EB41610843217B40EAC1604B
:1023C000E96800E062E0304A11400843E8602868AC
:1023D00040F080702860E86840F08070E860FFF7A7
:1023E000C5FA044605E000BFFFF7C0FA001B02284B
:1023F00009D828688001F7D548E004E0FFF7B6FA6D
:10240000001B022802D90320BDE8F8832868800158
:10241000F4D43BE00128F7D0E868226A00F0030119
:10242000914226D1616A00F0F0020901103991420F
:102430001FD1A26A00F4FE41B1EB022F19D194F82A
:102440002C2000F07841B1EBC26F12D1218E00F444
:10245000C00249084905A1F50011914209D194F83B
:10246000341000F0C06049084906A1F100718142B2
:102470000CD00120C8E70000001002401C00002022
:1024800000700040FFFFEEFE0C809F010020BBE7C4
:1024900010B5401EB0F1807F01D3012010BD4FF078
:1024A000E02460610F21601702F017FB0020A0619B
:1024B00007202061002010BD7047704770477047AB
:1024C00070477047F0B590F83C20012A3AD00125BA
:1024D00080F83C50022280F83D2003685A689C68CE
:1024E000194E1A4FB34201D0BB4204D122F4700CF2
:1024F0004A6842EA0C02DFF858C002EA0C02D1F83E
:1025000000C04CEA020CC3F804C00268B2420DD00D
:10251000B2F1804F0AD00F4B9A4207D00E4B9A422D
:1025200004D0BA4202D00D4B9A4204D1896824F0FB
:1025300080031943916080F83D50002180F83C10E1
:102540000846F0BD0220F0BD002C014000340140DF
:102550008FFFFFFD000400400008004000400140E4
:10256000704710B5040003D094F83D0010B107E0A7
:10257000012010BD002084F83C00204600F022F825
:10258000022084F83D00211D206801F091FA01200D
:1025900084F8480084F83E0084F83F0084F8400046
:1025A00084F8410084F8420084F8430084F8440031
:1025B00084F8450084F8460084F8470084F83D001C
:1025C000002010BD08B500680B49884212D10B48A5
:1025D000816D41F002018165806D002200F00200F2
:1025E000009011461D20FFF727FABDE808401D2086
:1025F000FFF714BA08BD00000004004000100240BC
:1026000070B5044690F83C00012814D0012584F8E8
:102610003C50022084F83D0022689068344B1840FA
:1026200020F47F4090600868702827D010DC10F0FC
:102630000F0F03D04AE04FF0020070BD4FEA2012A6
:10264000072A43D2DFE802F0505050504831390099
:10265000284BC21A984247D009DCB0F5805F35D0CC
:10266000B0F5005F15D0B0F1101F2FD13CE0102A5B
:102670003AD0202A38D0502A28D135E0CB68D1E989
:102680000121206801F079FA2068816841F0770122
:1026900009E0CB68D1E90121206801F06EFA2068D9
:1026A000816841F48041816010E0CA68496820680F
:1026B00001F00EFC5021206806E0CA6849682068D5
:1026C00001F017FC6021206801F062FA84F83D50A7
:1026D000002084F83C0070BDCA684968206801F099
:1026E000F7FB40212068EFE7226801461046EBE740
:1026F00088FFCEFF20001000704770B504460068C8
:1027000001694FF00005C943890715D4C168C94361
:10271000890711D4E91E01610120207720688069B2
:102720008007204602D0FFF7E7FF04E000F00CF935
:10273000204600F0CBF9257720680169C943490795
:1027400017D4C168C943490713D46FF0040101616C
:10275000022020772068806910F4407F204602D054
:10276000FFF7CAFF04E000F0EFF8204600F0AEF9F2
:10277000257720680169C943090716D4C168C94390
:10278000090712D46FF00801016104202077206846
:10279000C0698007204602D0FFF7AEFF04E000F0DA
:1027A000D3F8204600F092F9257720680169C943E3
:1027B000C90617D4C168C943C90613D46FF0100104
:1027C0000161082020772068C06910F4407F20460E
:1027D00002D0FFF791FF04E000F0B6F8204600F0C9
:1027E00075F9257720680169C943C90708D1C1680F
:1027F000C943C90704D1891E0161204600F0E6F9EA
:1028000020680169C943090609D4C168C94309069A
:1028100005D46FF0800101612046FFF74EFE20686D
:102820000169C943C90509D4C168C943090605D46A
:102830006FF4807101612046FFF73EFE2068016958
:10284000C943490609D4C168C943490605D46FF094
:1028500040010161204600F0BAF920680169C943CE
:10286000890609D4C168C943890605D46FF02001DF
:1028700001612046FFF722FE20680169C943C902B1
:1028800009D4C168C943C90205D46FF4801101613C
:102890002046FFF715FE20680169C943890209D463
:1028A000C168C943890205D46FF400110161204653
:1028B000FFF705FE20680169C943490209D4C168D0
:1028C000C943490205D46FF4800101612046FFF736
:1028D000F8FD20680169C94309020BD4C168C943E6
:1028E000090207D46FF4000101612046BDE8704081
:1028F000FFF736BE70BD000010B586B00446142147
:102900006846FDF7ACFE0E492068884215D10D4897
:10291000C16C41F00101C164C06C002100F00100F4
:102920000590802000900220CDE90101CDE903103F
:1029300069464FF09040FEF72BFF06B010BD000037
:102940000004004000100240704770B5044690F843
:102950003C000D4601280BD0012084F83C000C2AD5
:1029600045D007DC5AB1042A1BD0082A78D12CE0C4
:10297000022070BD102A4ED0142A71D15DE020686B
:1029800001F010F92068816941F008018161206837
:10299000816921F004018161206881692A691143FC
:1029A00011E0206801F04CF92068816941F4006170
:1029B00081612068816921F4806181612068816979
:1029C0002A6941EA022181614AE0206801F080F928
:1029D0002068C16941F00801C1612068C16921F026
:1029E0000401C1612068C1692A69114311E02068AE
:1029F00001F0B6F92068C16941F40061C161206845
:102A0000C16921F48061C1612068C1692A6941EA14
:102A10000221C16124E0206801F0EAF92068016D1B
:102A200041F0080101652068016D21F00401016594
:102A30002068016D2A69114311E0206801F010FA45
:102A40002068016D41F4006101652068016D21F489
:102A5000806101652068016D2A6941EA02210165F2
:102A6000002084F83C0070BD10B5040003D094F839
:102A70003D0010B107E0012010BD002084F83C00AB
:102A8000204600F022F8022084F83D00211D206835
:102A900001F00EF8012084F8480084F83E0084F824
:102AA0003F0084F8400084F8410084F8420084F834
:102AB000430084F8440084F8450084F8460084F814
:102AC000470084F83D00002010BD704770470000AB
:102AD00030B50446022269B1042912D0082917D062
:102AE0000C291CD0102921D094F84300012824D0AF
:102AF000012030BD94F83E000128F9D184F83E2031
:102B00001DE094F83F000128F2D184F83F2016E040
:102B100094F840000128EBD184F840200FE094F8AD
:102B200041000128E4D184F8412008E094F84200F3
:102B30000128DDD184F8422001E084F843200122FD
:102B4000206801F00DF8194B20681949194A98427C
:102B500009D0884207D0904205D0174DA84202D034
:102B6000164DA84203D1456C45F4004545642068E4
:102B700098420CD0B0F1804F09D0114B984206D04A
:102B8000104B984203D0884201D0904207D181680F
:102B90000D4A1140062906D0B1F5803F03D00168E7
:102BA00041F001010160002030BD0000002C014017
:102BB0000034014000400140004401400048014011
:102BC0000004004000080040070001007047704703
:102BD00090F88010012918D0012180F8801024215C
:102BE000C0F8841050F8641B0A680B6823F00103D6
:102BF0000B6022F000510022026050F8643C196022
:102C0000202101620277104670470220704770470A
:102C1000704770B5044690F8800001281DD001204F
:102C200084F880002420C4F88400206805680268C5
:102C300022F0010202602068826822F060620A438A
:102C40008260204601F068F9206805602020C4F801
:102C50008400002084F8800070BD022070BD70B533
:102C6000044690F8800001281DD0012084F88000DF
:102C70002420C4F8840020680568026822F001025C
:102C800002602068826822F060420A438260204627
:102C900001F042F9206805602020C4F8840000207B
:102CA00084F8800070BD022070BD70477047704787
:102CB0002DE9F04103680446D86919689A6840F61E
:102CC0000F0528424FF0000509D186067ED501F098
:102CD000200602F080573E4378D0216FFFE0924EED
:102CE000924F16400F40374370D0C70709D0CF0529
:102CF00007D501271F62D4F88C3043F00103C4F8D4
:102D00008C3083070AD5D30708D0276802233B629B
:102D1000D4F88C3043F00403C4F88C3043070AD550
:102D2000D30708D0276804233B62D4F88C3043F0E3
:102D30000203C4F88C3003070CD501F020033343A1
:102D400008D0266808233362D4F88C3043F0080397
:102D5000C4F88C3003050BD54B0109D526684FF418
:102D600000633362D4F88C3043F02003C4F88C3015
:102D7000D4F88C30002B34D0800609D501F0200027
:102D800002F08051084303D0216F09B120468847E3
:102D9000D4F88C0021688968490602D410F0280F05
:102DA00021D0204601F078F920688168490615D5C0
:102DB000816821F040018160E06F78B15C498163F6
:102DC000E06FFEF797FC00280BD000E011E0E06F09
:102DD000816B00E02046BDE8F04108472046FFF740
:102DE00066FFBDE8F0812046FFF761FFC4F88C5014
:102DF000F7E7E76E2026012F5CD1C7065AD5CF062C
:102E000058D5102018622068816849062FD5E26FD6
:102E1000116849680904090CE3D0B4F85C308B42AE
:102E2000DFD9A4F85E1011680968890618D4016812
:102E300021F4807101602068816821F001018160C6
:102E40002068816821F040018160C4F88860E566EF
:102E50002068016821F010010160E06FFEF715FCA9
:102E6000B4F85C00B4F85E10401A81B21EE0B4F809
:102E70005C10B4F85E20891AB4F85E2089B2002A8A
:102E8000AFD00029ADD0026822F4907202602068B1
:102E90008268254BDB431A408260C4F88860E5668F
:102EA00025672068026822F0100202602046FFF7C2
:102EB000AEFE96E7C70209D5570207D54FF480103A
:102EC00018622046BDE8F041FFF7F0BE07060AD5BC
:102ED00001F0800702F40002174304D0616F00295B
:102EE0007FF478AF7DE742060CD54A060AD519680B
:102EF000204621F040011960C4F88460656700F045
:102F00001FF96EE7020206D54A0004D52046BDE847
:102F1000F041FFF7CABEC001CBD50029C9DA20466F
:102F2000BDE8F041FFF774BE01000010200100046D
:102F30008540000810B5040003D0D4F8840010B117
:102F400007E0012010BD002084F88000204600F03A
:102F500027F82420C4F884002068016821F00101CA
:102F60000160204601F070FA0128EBD0A06A10B190
:102F7000204600F0F3FF2068416821F49041416051
:102F80002068816821F02A0181602068016841F091
:102F9000010101602046BDE8104001F043B8000087
:102FA00010B586B0044614216846FDF758FB174952
:102FB0002068884227D11648016E41F4804101669D
:102FC000016E01F480410591C16C41F00101C164C1
:102FD000C06C694600F0010005904FF4C06000909D
:102FE00002200190002002900390072004904FF0EF
:102FF0009040FEF7CDFB002211462520FEF71CFD78
:103000002520FEF70BFD06B010BD00000038014082
:103010000010024010B4D0F88830202B1BD1B9B179
:10302000B2B190F88030012B15D0012380F88030A8
:103030000023C366094C0368A34206D05C682402DF
:1030400003D51C6844F080641C6010BC01F036BBE2
:10305000012010BC70470220FBE700000080004008
:103060000549064BC8798A791A54401CC871012257
:10307000891D0348FFF7CEBF080000204A0000204A
:103080005C0100202DE9F8430446D0F884001F4677
:1030900016460D46202851D1DDB1D6B194F88000F6
:1030A00001284BD0012084F880004FF00008C4F8BC
:1030B0008C802120C4F884001834FEF757FCA687C2
:1030C0008146E68754F8100C183CB0F5805F03D0B9
:1030D00004E00120BDE8F883206920B12E460025D8
:1030E00084F8808010E00026FAE78021204601F075
:1030F00051FBB8B9C6B116F8010B21688862B4F863
:103100005600401EA4F85600B4F856004B464FF047
:10311000000200970028E8D14FF04001204601F05E
:1031200039FB30B10320D5E735F8020BC0F30800B6
:10313000E3E72020C4F884000020CBE70220C9E7A1
:103140007047FEE700B585B014216846FDF787FAA1
:103150004FF6FF70009000200321CDE9020101909D
:1031600069460248FEF714FB05B000BD00080048A0
:1031700000B585B014216846FDF771FA4FF6FF706F
:1031800000900120019003200390002002906946E6
:103190000248FEF7FDFA05B000BD00000008004837
:1031A00070B5002406462146204600F003F900F0E1
:1031B00041F94FF49635304600F010F9641CAC42EA
:1031C000F9D370BD30B587B014216846FDF747FAD2
:1031D0001E48C16C41F00401C164C16C01F00401DE
:1031E0000591C16C41F00101C164C16C01F00101A4
:1031F0000591C16C41F00201C164C06C012500F071
:10320000020005904FF44870CDE9000500240394B6
:10321000694602940E48FEF7BBFA28020394009018
:10322000CDE901544FF0904469462046FEF7B0FACC
:10323000FFF79EFFA06940F48070A0610448183039
:10324000016841F40871016007B030BD0010024010
:1032500000040048203AD2B2034B02EB420203EBD7
:10326000021200F019B8000058500008F0B50E46E0
:103270000746002540F23F1407E021463846FFF795
:10328000E9FF103C6D1CA4B2761C3278002A01D0F4
:10329000142DF2D3F0BD00002DE9F04791468A4687
:1032A0000026044600F086F8DFF84080012700BFC2
:1032B00000F0C0F85FF0000539F8160007FA05F1D4
:1032C0000842404601D1408800E0008800F086F8BE
:1032D0006D1C102DF0D3641CE4B25146204600F062
:1032E00069F8761C182EE3D3BDE8F08700000020B3
:1032F00010B5FFF767FF002000F014F8084CA0801D
:10330000A088A0F50241303906D000F071FA002003
:1033100000F008F8A08010BD00F0E1F9F7E7000028
:103320000000002070B51D490A6842F400720A606E
:103330000A6842F480720A60184C103C226842F01D
:1033400020022260164A1060086840F020000860E1
:1033500000BF00BF00BF206840F020002060206850
:1033600040F480702060FFF7EDFE4FF09041886AD6
:1033700040F48070886200BF00BF00BF0848001F93
:10338000006885B2886940F480708861FFF7F0FEBC
:10339000206840F400702060284670BD2804004872
:1033A0001408004801B5BDF800000149488008BD77
:1033B0000000002010B50C460146202000F068F8FF
:1033C0002146BDE81040212000F062B801B5BDF8EB
:1033D00000000149088008BD00000020134A116860
:1033E00041F400711160114910390B6843F4807386
:1033F0000B600B6843F020030B600D4B18601068E6
:1034000040F02000106000BF00BF00BF086840F01F
:1034100020000860086840F48070086000BF00BFAA
:1034200000BF086840F40070086070472804004836
:10343000140800481449086840F4007008600868DF
:1034400040F48070086010481038026842F0200292
:1034500002600E4B22221A600A6842F020020A60C3
:1034600000BF00BF00BF016841F02001016001689A
:1034700041F48071016000BF00BF00BF016841F4EA
:1034800000710160704700002804004814080048DB
:10349000184B10B51A6842F400721A601A6842F4A8
:1034A00080721A60134A103A146844F020041460C1
:1034B000114C2060186840F02000186000BF00BF69
:1034C00000BF106840F020001060106840F4807069
:1034D00010602160186840F02000186000BF00BF35
:1034E00000BF106840F020001060106840F4807049
:1034F000106010BD2804004814080048F0B587B0DB
:1035000014216846FDF7ABF82D48C16C41F0040169
:10351000C164C16C01F004010591C16C41F020014E
:10352000C164C16C01F020010591C16C41F0010141
:10353000C164C16C01F001010591C16C41F002014F
:10354000C164C16C01F002010591C16C41F0080138
:10355000C164C06C1B4E00F008004FF45F4405903E
:10356000002221463046FEF7FCF9174F00220421C5
:103570003846FEF7F6F90125CDE90045002402940E
:10358000694630460394FEF703F9CDE900546946D5
:103590004FF090400294FEF7FBF80720CDE90004BD
:1035A00069460A480294FEF7F3F804200090CDE93A
:1035B0000154694638460394FEF7EAF807B0F0BDB7
:1035C0000010024000080048000C004800040048B9
:1035D00030B58FB000240794089409940A940B9492
:1035E0000C941C2168460D94FDF739F81F4D1E48B8
:1035F000286040F28F10C5E901046320C5E9030487
:103600008020A8612846FEF7ACFF08B1FEF73BF822
:103610004FF48050079007A91448FEF7F1FF08B156
:10362000FEF731F81148EC60FFF71EFA08B1FEF71B
:103630002AF80B940BA90D480D94FEF743FF08B12F
:10364000FEF721F86020CDE90004029404226946C7
:1036500006480494FFF779F908B1FEF714F8034817
:10366000FFF74AF90FB030BD000400401001002000
:10367000184810B5164901604FF4165141600021F9
:1036800081600C22C160C0E904128161C1610162E4
:1036900041628162FFF74EFC08B1FDF7F4FF0021A3
:1036A0000C48FFF7DCFA08B1FDF7EDFF00210948EF
:1036B000FFF7AFFA08B1FDF7E6FF0648FFF788FA13
:1036C000002803D0BDE81040FDF7DDBF10BD0000AD
:1036D000003801405C010020FEE7FEE7704730B58E
:1036E00001210020FFF7D4FE4FF47A70FDF7BDFFF3
:1036F00000210120FFF7CCFE41F290711020FFF76E
:10370000C7FE4FF41C516020FFF7C2FE012161206B
:10371000FFF7BEFE02214620FFF7BAFE48F2100175
:103720001320FFF7B5FE48F2FE011220FFF7B0FEAE
:103730004FF4A0610220FFF7ABFE41F230010320FD
:10374000FFF7A6FE40F2033421463020FFF7A0FE2B
:1037500021463120FFF79CFE21463220FFF798FEDC
:10376000E51E29463320FFF793FE03213420FFF79F
:103770008FFE21463520FFF78BFE14213620FFF700
:1037800087FE21463720FFF783FE21463820FFF7CA
:103790007FFE21463920FFF77BFE29463A20FFF7BE
:1037A00077FE03213B20FFF773FE21463C20FFF705
:1037B0006FFE4FF4A0513D20FFF76AFE4FF40071F9
:1037C0009220FFF765FE21469320FFF761FE40F649
:1037D0000D019020FFF75CFE41F218010320FFF776
:1037E00057FEBDE8304040F273110720FFF750BE8E
:1037F00010B543F20801E320FFF74AFE1221E7204B
:10380000FFF746FE41F23121EF20FFF741FE002194
:103810000120FFF73DFE4FF4E0610220FFF738FE84
:1038200041F230010320FFF733FE00210420FFF7AF
:103830002FFE40F207210820FFF72AFE0021092071
:10384000FFF726FE00210A20FFF722FE00210C20B0
:10385000FFF71EFE00210D20FFF71AFE00210F20AA
:10386000FFF716FE00211020FFF712FE072111209E
:10387000FFF70EFE00211220FFF70AFE00211320A1
:10388000FFF706FEC820FDF771FF41F2906110209E
:10389000FFF7FEFD40F227211120FFF7F9FD32204E
:1038A000FDF764FF1D211220FFF7F2FD3220FDF726
:1038B0005DFF4FF400611320FFF7EAFD142129207A
:1038C000FFF7E6FD0B212B20FFF7E2FD3220FDF78D
:1038D0004DFF00212020FFF7DBFD00212120FFF715
:1038E000D7FD07213020FFF7D3FD40F207713120CB
:1038F000FFF7CEFD06213220FFF7CAFD40F204712A
:103900003520FFF7C5FD41F604713620FFF7C0FDF5
:1039100004213720FFF7BCFD00213820FFF7B8FD58
:1039200040F206713920FFF7B3FD40F201713C20EF
:10393000FFF7AEFD0F213D20FFF7AAFD002150202B
:10394000FFF7A6FDEF215120FFF7A2FD0021522035
:10395000FFF79EFD40F23F115320FFF799FD4FF412
:103960001C516020FFF794FD01216120FFF790FDBD
:1039700000216A20FFF78CFD00218020FFF788FDE1
:1039800000218120FFF784FD00218220FFF780FDC8
:1039900000218320FFF77CFD00218420FFF778FDC4
:1039A00000218520FFF774FD10219020FFF770FDA6
:1039B00000219220FFF76CFD03219320FFF768FDA3
:1039C0004FF488719520FFF763FD00219720FFF7E2
:1039D0005FFD00219820FFF75BFD41F218010320F5
:1039E000FFF756FDBDE8104040F273110720FFF7C6
:1039F0004FBD704730B5002404E015194D5D0555E5
:103A0000641CE4B29C42F8D30021C15430BDFDF7E0
:103A1000B3BF30B5A5B038216846FCF720FE1421AD
:103A20001FA8FCF71CFE44210EA8FCF718FE4FF45B
:103A30000070FEF733F80220C10103914021049188
:103A4000012500900A21CDE90805CDE90A1007906B
:103A50000C900D906846FEF715FB08B172B6FEE7B4
:103A60000F2000241F900320CDE92004229402217E
:103A70001FA82394FEF7BCF908B172B6FEE7CDE9A2
:103A80000E540EA8FEF770F8002801D072B6FEE7BB
:103A900025B030BD0248016841F4700101607047F3
:103AA00088ED00E00148FEF728BE0000100100206C
:103AB0002DE9F0430268234B234D244E244C4FF054
:103AC0008049984207D0484505D0A84203D0B0426B
:103AD00001D0A04203D122F070074A683A431D4F3B
:103AE000DFF874C0DFF8748098420DD048450BD0E1
:103AF000A84209D0B04207D0A04205D0B84203D0B6
:103B0000604501D0404503D122F44075CA682A437C
:103B10004D6922F080022A4302608A68C2620A6804
:103B20008262984207D0A04205D0B84203D06045D7
:103B300001D0404501D10969016301214161BDE81E
:103B4000F0830000002C0140000400400008004009
:103B50000034014000400140004401400048014061
:103B600010B501F01F030121046A99408C430462DF
:103B7000016A9A401143016210BD10B5846842EA9F
:103B8000032224F47F440A432243826010BD0000D4
:103B90008268034B1A400A4342F007018160704774
:103BA0008FFFCFFF2DE9F043026A22F0010202628B
:103BB000056A436882691C4C25F0020522400C68A6
:103BC00022F0030214438A68194E2A43174D194FF5
:103BD000DFF864C0DFF86490A84207D0B04205D097
:103BE000B84203D0604501D0484506D122F008080C
:103BF000CA6842EA080222F00402A84207D0B04292
:103C000005D0B84203D0604501D0484505D14D6983
:103C100023F440731D438B692B43436084614968DF
:103C200041630262BDE8F0838FFFFEFF002C01407C
:103C30000034014000400140004401400048014080
:103C4000F0B5026A22F010020262056A42688369D6
:103C5000194C1B4E23400C6823F4407343EA0424A0
:103C600025F020038D6843EA0513144DA84201D0C6
:103C7000B04206D1CF6823F0800343EA071323F054
:103C80004003A8420AD0B04208D00E4DA84205D049
:103C90000D4DA84202D00D4DA84207D14D6922F426
:103CA000406242EA85028D6942EA8502426084618F
:103CB000496881630362F0BDFF8FFFFE002C014065
:103CC00000340140004001400044014000480140F0
:103CD000F0B5026A22F480720262056A4368C26922
:103CE000194C1B4E22400C6822F00302144325F4A9
:103CF00000728D6842EA0522144DA84201D0B042FC
:103D000006D1CF6822F4006242EA072222F48062E0
:103D1000A8420AD0B04208D00E4DA84205D00E4DA0
:103D2000A84202D00D4DA84207D14D6923F440535B
:103D300043EA05138D6943EA05134360C46149688A
:103D4000C1630262F0BD00008FFFFEFF002C014046
:103D5000003401400040014000440140004801405F
:103D6000F0B5026A22F480520262056A4268C369B1
:103D7000194C1B4E23400C6823F4407343EA04247F
:103D800025F400538D6843EA0533144DA84201D051
:103D9000B04206D1CF6823F4004343EA073323F44B
:103DA0008043A8420AD0B04208D00E4DA84205D0A8
:103DB0000D4DA84202D00D4DA84207D14D6922F405
:103DC000404242EA85128D6942EA85124260C4612E
:103DD000496801640362F0BDFF8FFFFE002C0140C3
:103DE00000340140004001400044014000480140CF
:103DF00030B5026A22F480320262046A4268036DBE
:103E0000114D2B400D681D4324F400330C8943EA07
:103E100004430E4CA0420BD00D4CA04208D00D4CD8
:103E2000A04205D00C4CA04202D00C4CA04204D1C0
:103E30004C6922F4803242EA0422426005654968F6
:103E40008164036230BD00008FFFFEFF002C014043
:103E5000003401400040014000440140004801405E
:103E600030B5026A22F480120262046A4268036D6D
:103E7000114D24F400142B400D6843EA05230D89ED
:103E800044EA05540D4DA8420BD00D4DA84208D070
:103E90000C4DA84205D00C4DA84202D00B4DA842B3
:103EA00004D14D6922F4802242EA852242600365F2
:103EB0004968C164046230BDFF8FFFFE002C0140E1
:103EC00000340140004001400044014000480140EE
:103ED00010B5036A046A24F001040462846924F0C2
:103EE000F00444EA021423F00A020A4384610262E5
:103EF00010BD10B5036A23F0100303628369046ADE
:103F000023F4704343EA023224F0A00343EA011190
:103F10008261016210BD000030B5416EB9B1026826
:103F200091689268C1F342610B4B520F9C5CE500B3
:103F300003F10804A25CB5FBF2F2A0F86A205A5C17
:103F4000615CD200B2FBF1F1A0F8681030BD012134
:103F5000A0F86A10F8E700004062000890F8281006
:103F6000C90706D001684A68C36A22F400321A43BE
:103F70004A6090F82810890706D501684A68036BE3
:103F800022F480321A434A6090F82810490706D577
:103F900001684A68436B22F480221A434A6090F811
:103FA0002810090706D501684A68836B22F400428D
:103FB0001A434A6090F82810C90606D501688A6835
:103FC000C36B22F480521A438A6090F82810890645
:103FD00006D501688A68036C22F400521A438A608D
:103FE00090F82810490611D501684A68436C22F4FC
:103FF00080121A434A60416CB1F5801F06D10168F6
:104000004A68836C22F4C0021A434A6090F8281070
:10401000090606D501684A68C06C22F400220243F2
:104020004A607047F8B500260446C0F88C60FDF77A
:104030009DFC0546206800686FF07E47000708D5A4
:104040002B4600224FF400112046009700F0A2FBFF
:1040500060B92068006840070AD52B4600224FF45B
:1040600080012046009700F095FB08B10320F8BDC1
:104070002020C4F88400C4F8880044F86C6F002045
:104080002675F8BD10B5806A0021A0F85E10A0F872
:104090005610FEF70CFE10BD01680A6822F49072FB
:1040A0000A6001688A68094B1A408A60C16E01295A
:1040B00004D101680A6822F010020A602021C0F8C9
:1040C00088100021C166016770470000FEFFFFEF06
:1040D00070B5B0F86010D0F8882004460068222A35
:1040E00004D0816941F00801816170BD406AA26D10
:1040F00008401080A06D801CA065B4F85E00401ED2
:10410000A4F85E00B4F85E000028EED120680168D3
:1041100021F4907101602068816821F001018160C3
:104120002020C4F8880000252567E06E012804D00F
:104130002046FEF795FFE56670BD2068016821F016
:1041400010010160B4F85C102046FEF760FDF2E754
:104150002DE9F0470446B0F860600068C569D0F802
:1041600000A0D0F80880D4F88810222905D08169F1
:1041700041F008018161BDE8F087B4F868704FF044
:1041800000095BE02068406AA16D30400880A06DA6
:10419000801CA065B4F85E00401EA4F85E00206894
:1041A000C569690730D0E9070AD05FEACA5107D567
:1041B00001210162D4F88C0040F00100C4F88C00A9
:1041C000A8070BD55FEAC87008D0216802200862F2
:1041D000D4F88C0040F00400C4F88C0068070BD5BC
:1041E0005FEAC87008D0216804200862D4F88C0007
:1041F00040F00200C4F88C00D4F88C0020B12046B6
:10420000FEF755FDC4F88C90B4F85E00B0B9206894
:10421000016821F48071016020688168194A1140A9
:1042200081602020C4F88800C4F87090E06E0128F6
:104230001CD02046FEF714FFC4F86C900FB1A806FE
:10424000A0D4B4F85E00002895D0B4F8681081427C
:1042500091D92068816821F0805181600A482067E7
:104260002068016841F02001016084E7206801684E
:1042700021F010010160B4F85C102046FEF7C7FC85
:10428000DAE70000FEFFFFEFD140000870B5B0F89C
:104290006010D0F8882004460068222A04D0816982
:1042A00041F00801816170BD406A0840A16D08704D
:1042B000A06D401CA065B4F85E00401EA4F85E002E
:1042C000B4F85E000028EED12068016821F49071F6
:1042D00001602068816821F0010181602020C4F81C
:1042E000880000252567E06E012804D02046FEF7EF
:1042F000B7FEE56670BD2068016821F0100101601D
:10430000B4F85C102046FEF782FCF2E72DE9F04796
:104310000446B0F860600068C569D0F800A0D0F825
:104320000880D4F88810222905D0816941F008015D
:104330008161BDE8F087B4F868704FF000095BE078
:104340002068406AA16D30400870A06D401CA065D7
:10435000B4F85E00401EA4F85E002068C5696907D5
:1043600030D0E9070AD05FEACA5107D501210162BE
:10437000D4F88C0040F00100C4F88C00A8070BD5DD
:104380005FEAC87008D0216802200862D4F88C0067
:1043900040F00400C4F88C0068070BD55FEAC870D1
:1043A00008D0216804200862D4F88C0040F0020094
:1043B000C4F88C00D4F88C0020B12046FEF777FCBE
:1043C000C4F88C90B4F85E00B0B92068016821F49C
:1043D0008071016020688168194A11408160202045
:1043E000C4F88800C4F87090E06E01281CD0204604
:1043F000FEF736FEC4F86C900FB1A806A0D4B4F84E
:104400005E00002895D0B4F86810814291D92068E8
:10441000816821F0805181600A4820672068016826
:1044200041F02001016084E72068016821F010015B
:104430000160B4F85C102046FEF7E9FBDAE7000003
:10444000FEFFFFEF8D4200082DE9F04104460168B0
:1044500080682269E3691043626900251A431043AA
:10446000DFF82CC20A688B4B1A4002430A602068AE
:104470004168E26821F44051114341602168A0691C
:10448000614501D0226A10438A68834B1A40024377
:104490008A602068C16A626A21F00F011143C1621B
:1044A0007E4923687E488B420DD1D0F8880010F0F9
:1044B000030006D0012855D0022842D003283FD15E
:1044C00052E001203DE077498B420BD1D0F88800C3
:1044D00010F00C0035D0042833D0082840D00C2828
:1044E0002ED141E070498B420BD1D0F8880010F0FA
:1044F000300026D0102835D0202831D030281FD1C8
:1045000032E06A498B420BD1D0F8880010F0C0002D
:1045100017D0402826D0802822D0C02810D123E0F0
:1045200063450DD1D0F8880010F4406009D0B0F593
:10453000806F17D0B0F5006F12D0B0F5406F13D078
:1045400010205B4A5B4F00264FF40041634539D190
:1045500060B102280DD004280DD0082831D10EE01A
:104560000220EEE70420ECE70820EAE7FDF72EFD45
:1045700003E0114603E0FDF74DFD01007DD0606AC8
:1045800037F810206768B1FBF2F007EB470383426E
:104590006CD8B0EB073F69D8002308461946FBF7F3
:1045A0009DFE090241EA106102027808101871416B
:1045B0003A460023FBF792FE3F4AA0F54071914234
:1045C00059D953E0E3694FF6EF788B422DD1092892
:1045D0004CD2DFE800F005080D4B274B4B4B0E008B
:1045E000FDF7F4FC01E0FDF703FD010001D144E01B
:1045F0001146606A37F81000B1FBF0F041006068C6
:1046000001EB5001B1FBF0F080B2A0F11001414587
:104610002CD84FF6F0710140C0F3420001432068EE
:10462000C1602AE0FDF7F6FCDFE709281ED2DFE8CB
:1046300000F005080D1D1F1D1D1D0E00FDF7C6FC19
:1046400001E0FDF7D5FC010001D116E01146606ADA
:1046500037F81000B1FBF0F1606801EB5001B1FBDD
:10466000F0F080B2A0F11001414504D9012504E029
:10467000FDF7D0FCE7E72168C8600120A4F86A00D4
:1046800024F8680F2846A660E660BDE8F0810000C7
:1046900000800040F369FFCFFFF4FF1100380140B4
:1046A000001002400044004000480040004C004020
:1046B0000024F40028620008FFFC0F0070B581653B
:1046C000A0F85C20A0F85E200021016783684FF409
:1046D0008056FF24B34204D10369D3B940F2FF13DB
:1046E0001DE07F259BB1B3F1805F15D0A0F860106D
:1046F000C0F88C102223C0F8883003689C6844F00E
:1047000001049C60436EB3F1005F0ED027E00369A3
:1047100043B9A0F86040EBE703691BB13F23A0F861
:104720006030E5E7A0F86050E2E7B0F86830934207
:1047300015D88268B24201D1026972B1114A02678A
:1047400080F8801001680A6842F480720A6000688C
:10475000816841F0805181600FE00B4AEFE7826889
:10476000B24201D1026952B1084A026780F8801052
:104770000068016841F490710160002070BD044A36
:10478000F3E700000D430008514100088D42000886
:10479000D14000082DE9F0479A4617460E460446D8
:1047A0004FF000094FF02008089D39E0681C37D011
:1047B000FDF7DCF8A0EB0A00A84222D80DB3206870
:1047C000016849072CD5C069C043000528D4216879
:1047D0004FF4006008622068016821F4D071016024
:1047E0002068816821F001018160C4F88480C4F8E8
:1047F0008880C4F88C8000BF84F880900320BDE8D6
:10480000F0872068016821F4D07101602068816818
:1048100021F001018160C4F88480C4F88880EBE74E
:104820002068C06936EA000004D00020B842BDD03C
:104830000020E4E70120F9E70148FEF739BA00005B
:104840005C0100202DE9F04F8E4889B002688E4946
:104850000B69D21A322A71D302680846026100F04D
:1048600079F900286BD08948817AC27A303901EB16
:1048700081036FF02F0101EB43031A4402F0FF0A9A
:10488000027B437B303A02EB820201EB42021A4484
:1048900002F0FF09827BC37B303A02EB820201EB1C
:1048A00042021A4402F0FF08027C437C303A02EBD9
:1048B000820201EB42021A44D7B2827CC37C303AB6
:1048C00002EB820201EB42021A44D6B2427D007D25
:1048D000303800EB800001EB40001044C5B2B9F164
:1048E0000C0F5DD8B8F11F0F5AD8172F7ED83B2E6A
:1048F0007CD83B2D7AD804230522644904A8FFF70D
:1049000079F804230022614906A8FFF773F804A888
:1049100000F00AF95D4CDFF870B11E340BF10B0B9F
:10492000FF280DD004A800F0FFF800EB00100444AD
:10493000611D06A8FBF7BAFE90BB32E058E098E094
:1049400000F0E2F8FF2851D000EB00100444601D95
:104950000423002206A9FFF74DF820460423002275
:1049600004A9FFF747F884F80AA084F80B9084F8AC
:104970000C806773A673E573012020746079432867
:1049800002D0562806D074E09BF80010491C8BF822
:1049900000106EE03C4809300178491C017068E065
:1049A00024E0A17AAAEB010040F26D1110FB01F1A5
:1049B000E27AA9EB0200C0EB4010227B0144A8EB95
:1049C0000200084432494843617B791AC1EB411225
:1049D000C2EB012100EB0110A17B711AC1EB0111A7
:1049E00000EB8100E17B691A401804D500F08AFAD7
:1049F00009B0BDE8F08F4FF4616100F60F6090FBE5
:104A0000F1F56079432822D01F4809304078684387
:104A100000EE100AB8EEC00A10EE100A00F0A4FA78
:104A2000CDE9020119482346621D009519A1A6305F
:104A3000FBF7CCFC154932231E22A6311948FEF79C
:104A400021FB6079432805D0562809D00DE09BF85A
:104A50000100DCE79BF80010491E8BF8001004E011
:104A6000094809300178491E017020461121FBF7E1
:104A7000D4FD1E210548FBF7D0FD03480021C1717C
:104A8000B6E7000024000020080000204A000020B3
:104A90008051010025733A25733A25643A252E3258
:104AA000660D0A005C010020FEE703B40198410096
:104AB000009850EAC12018BF04204A0D18BF40F0EA
:104AC000010040F2FF72B2EB515F08BF40F00200FC
:104AD000012808BF052002B070470907090E002809
:104AE00004DB00F1E02080F80014704700F00F00B4
:104AF00000F1E02080F8141D704730380A2801D2F8
:104B000001207047002070470649002000EB00128A
:104B10000A44127C002A04D0401CC0B20828F5D3F5
:104B2000FF2070476800002070B5094D064600243C
:104B300004EB041041193046FBF7B8FD28B1641CA2
:104B4000E4B2082CF4D3FF2070BD204670BD0000F5
:104B5000680000201048C079162814D10F48017849
:104B6000432901D056290ED141784E290BD18178A5
:104B7000422908D1C178522905D101793A2902D1B7
:104B8000407A3A2801D0002070470A20401CC0B269
:104B90001628FBD301207047080000204A0000209F
:104BA00010B500F045F820490870CA7820EA0203E1
:104BB000424082434B708A70C870012A13D001F1C1
:104BC0000B03981E022A19D0032A20D0042A09D1E7
:104BD0004879C04310F0FF004871144900D01420F8
:104BE0000968886310BD087930B100200871BDE8FC
:104BF00010400020FEF7D4BA0120F7E70979002918
:104C0000F0D05978491D59704178491D09E009795A
:104C10000029E7D04178491F0529E3DB5A78521F64
:104C20005A70417010BD00000800002010010020E3
:104C300070B51C4C01212046FCF78EFE4FF09045CC
:104C400070B102212046FCF787FE48B104212046BE
:104C5000FCF782FE20B101212846FCF77DFEB0B9A9
:104C60000A20FCF783FD01212046FCF775FE80B188
:104C700002212046FCF770FE68B104212046FCF7B3
:104C80006BFE50B101212846FCF766FE38B10020CA
:104C900070BD012070BD022070BD032070BD0420D6
:104CA00070BD00000004004870B53548344C2DED4F
:104CB000028B0B340079A51E00283BD031A134486B
:104CC000FBF784FB32491820FEF7D0FA60789FED9D
:104CD000318A00EE100AB8EE400A20EE080A10EE03
:104CE000100A00F041F941EC100B2BA153EC102BF2
:104CF0002748FBF76BFB26494820FEF7B7FA687890
:104D000000EE100AB8EE400A20EE080A10EE100A73
:104D100000F02AF941EC100B23A153EC102B1C4896
:104D2000FBF754FB1A497820BDEC028BBDE87040BC
:104D3000FEF79CBA20A11648FBF748FB144918203F
:104D4000FEF794FA22781FA11148FBF73FFB1049A8
:104D50004820FEF78BFA2A781DA10D48FBF736FB99
:104D60000B497820FEF782FA20782978C0F10800F4
:104D7000421A1AA10648FBF729FB0549A820D3E7E8
:104D80000800002020202020202020506172610097
:104D90002C000020CDCCCC3D202020434E42523A66
:104DA00025342E3266000000202020564E42523A12
:104DB00025342E32660000002020202020202044B0
:104DC00061746100202020434E42523A2564000065
:104DD000202020564E42523A2564000020202049CF
:104DE000444C453A256400000F480F49891E00785D
:104DF0000978C0F10800421A0B480B38002A017AE2
:104E000002DD41F0010101E021F00101017241796F
:104E10000029017A02D041F0020101E021F00201F3
:104E20000172C8B200F002B81300002070B5124D34
:104E3000044601224FF47F412846FCF792FD0F4EB5
:104E4000012204213046FCF78CFD0022042130466B
:104E5000FCF787FD210200222846FCF782FD012293
:104E600004213046FCF77DFD3046BDE8704000224D
:104E70000421FCF776BD000000080048000C004843
:104E8000FCF782FDFEF7C5FDFEF738FBFEF7A0FB41
:104E9000FEF7EEFBFEF72CFA0020FEF783FA4FF642
:104EA000FF70FEF793FA0020FEF77AF90020FFF773
:104EB000BDFF01220D490E48FEF7ACF804210D4854
:104EC000FDF706FE0C4A0DA1A2F11E00FBF77EFACB
:104ED000094900201E39FEF7C9F9FFF761FEFFF707
:104EE000E3FEFFF781FFFFF7ADFCEBE70E000020CC
:104EF0005C010020100100204A000020203A2573A8
:104F00000000000010B506A10748FBF75FFA322346
:104F1000BDE810401E2204490448FEF7B3B8000063
:104F20004572726F720D0A00F00000205C010020D3
:104F300010B500290AD00878002807D00548784421
:104F4000FBF7B4FB002801D0002010BD02487844D4
:104F500010BD0000DE130000D61300000808A0F505
:104F600000114FEA3101704743004FEAD30C4FEA7A
:104F70003C0C43401FBF40070CF1605113F0FE4F43
:104F800070471CF0006F03D100200CF00041704707
:104F90000CF0004343EA507010B540EACC0000F03A
:104FA0000EF800BF000000924FEA0001FFF7D6BFE5
:104FB0004FF000414FF00000A1F5002170470EF1C5
:104FC000020E2EF0030E5EF8044B244204D44FEA86
:104FD0004102B2F17F4F11D84FEA4003B3F17F4F46
:104FE0000CD80ED14FEAD07CB2F17F4F0CEB4C0CB9
:104FF0000CF1020C08BF4CEBD17C04E04FF0080C24
:1050000001E04FEAD17C0CEB4C0324FA03F404F0EA
:105010000704B4F1040C06D20EEB840CBDE810407A
:105020004CF0010C6047DFE80CF0070802024FF07B
:105030000040A0F5800010BD0846420018BFD2F124
:10504000807288BF00F0004010BD4FF04070E1EE6C
:10505000100A7047FBF79FBC000000000000000032
:105060000000000000000000000000000000000040
:105070000000000000000000000000000000000030
:10508000000000000000000000008001800180019D
:105090008001800180018001800180018001800108
:1050A00080018001000000008001800100000000FC
:1050B000000000000000000000000000CC00CC0058
:1050C000CC00CC00CC00CC000000000000000000B0
:1050D00000000000000000000000000000000000D0
:1050E00000000000000000000000000000000000C0
:1050F00000000000600C600C600C30063006FE1FE3
:10510000FE1F300638071803FE1FFE1F1803180382
:105110008C018C018C01000000008000E003F80F7E
:105120009C0E8C1C8C188C009800F801E007800EF7
:10513000801C8C188C189C18B80CF00FE0038000B1
:1051400080000000000000000000000000000E18B9
:105150001B0C110C11061106110311039B018E018A
:10516000C038C06C60446044304430441844186C0B
:105170000C380000000000000000E001F0033807D8
:10518000180618063003F001F000F8009C310E33C9
:10519000061E061C061C063FFC73F02100000000E2
:1051A0000000000000000000000000000C000C00E7
:1051B0000C000C000C000C000000000000000000BF
:1051C00000000000000000000000000000000000DF
:1051D0000000000000000000000000020003800149
:1051E000C000C000600060003000300030003000BF
:1051F000300030003000300060006000C000C000AF
:105200008001000300020000000020006000C000D8
:10521000800180010003000300060006000600066E
:10522000000600060006000600030003800180015E
:10523000C00060002000000000000000000000002E
:1052400000000000C000C000D806F807E0013003ED
:10525000380700000000000000000000000000000F
:10526000000000000000000000000000000000003E
:105270000000000080018001800180018001FC3F6E
:10528000FC3F80018001800180018001000000005E
:10529000000000000000000000000000000000000E
:1052A00000000000000000000000000000000000FE
:1052B00000000000000000000000800180010001EB
:1052C000000180000000000000000000000000005D
:1052D00000000000000000000000000000000000CE
:1052E000E007E007000000000000000000000000F0
:1052F00000000000000000000000000000000000AE
:10530000000000000000000000000000000000009D
:1053100000000000000000000000C000C00000000D
:1053200000000000000000000000000C000C00065F
:1053300000060006000300030003800380018001D3
:105340008001C000C000C0006000600000000000DC
:1053500000000000000000000000E003F007380E2D
:10536000180C0C180C180C180C180C180C180C181D
:105370000C180C18180C380EF007E00300000000A1
:105380000000000000000000000000018001C001DA
:10539000F001980188018001800180018001800175
:1053A00080018001800180018001800100000000F7
:1053B00000000000000000000000E003F80F180CDF
:1053C0000C180C1800180018000C000600038001CF
:1053D000C000600030001800FC1FFC1F000000002F
:1053E00000000000000000000000E001F807180EB7
:1053F0000C0C0C0C000C0006C003C007000C0018BD
:1054000000180C180C18180CF807E0030000000036
:1054100000000000000000000000000C000E000F63
:10542000000F800DC00C600C600C300C180C0C0CC4
:10543000FC3FFC3F000C000C000C000C00000000C6
:1054400000000000000000000000F80FF80F180036
:1054500018000C00EC03FC071C0E001C00180018C0
:1054600000180C181C0C180EF807E00300000000D0
:1054700000000000000000000000C007F00F381C12
:10548000181818000C00CC03EC0F3C0E1C1C0C1858
:105490000C180C18181C380EF007E0030000000070
:1054A00000000000000000000000FC1FFC1F000CBA
:1054B00000060006000380038001C001C000E00078
:1054C000600060007000300030003000000000001C
:1054D00000000000000000000000E003F007380EAC
:1054E000180C180C180C3806F007F007180C0C18DC
:1054F0000C180C180C18380CF80FE0030000000012
:1055000000000000000000000000E003F007380E7B
:105510001C0C0C180C180C181C1C381EF81BE0195D
:105520000018000C000C1C0EF807F0010000000031
:10553000000000000000000000000000000000006B
:105540000000000080018001000000000000000059
:105550000000000000000000800180010000000049
:10556000000000000000000000000000000000003B
:105570000000000080018001000000000000000029
:105580000000000000000000800180010001000117
:10559000800000000000000000000000000000008B
:1055A00000000000000000000010001C800FE0035D
:1055B000F8001800F800E003800F001C0010000045
:1055C00000000000000000000000000000000000DB
:1055D0000000000000000000F81F000000000000B4
:1055E000F81F0000000000000000000000000000A4
:1055F00000000000000000000000000000000000AB
:10560000000000000000000008003800F001C007A2
:10561000001F0018001FC007F0013800080000003C
:1056200000000000000000000000E003F80F180C6C
:105630000C180C180018000C000600038001C000B4
:10564000C000C00000000000C000C000000000005A
:10565000000000000000000000000000E007181833
:105660000420C229224A1144094409440944092258
:105670001113E20C024004201818E007000000009B
:105680000000000000000000000080038003C0064E
:10569000C006C006600C600C301830183018F83F97
:1056A000F83F1C700C600C6006C006C000000000D3
:1056B00000000000000000000000FC03FC0F0C0CC8
:1056C0000C180C180C180C0CFC07FC0F0C180C30E8
:1056D0000C300C300C300C18FC1FFC0700000000D4
:1056E00000000000000000000000C007F01F383874
:1056F0001C300C700660060006000600060006005E
:10570000060006600C701C30F01FE007000000006F
:1057100000000000000000000000FE03FE0F060E67
:1057200006180618063006300630063006300630F9
:10573000063006180618060EFE0FFE0300000000D5
:1057400000000000000000000000FC3FFC3F0C00D7
:105750000C000C000C000C00FC1FFC1F0C000C00CB
:105760000C000C000C000C00FC3FFC3F0000000093
:1057700000000000000000000000F83FF83F1800A3
:105780001800180018001800F81FF81F180018005B
:105790001800180018001800180018000000000079
:1057A00000000000000000000000E00FF83F3C781F
:1057B0000E6006E007C00300030003FE03FE03C003
:1057C00007C006C00EC03CF0F83FE00F000000002C
:1057D000000000000000000000000C300C300C3015
:1057E0000C300C300C300C30FC3FFC3F0C300C30DB
:1057F0000C300C300C300C300C300C300000000041
:105800000000000000000000000080018001800115
:105810008001800180018001800180018001800180
:105820008001800180018001800180010000000072
:105830000000000000000000000000060006000656
:105840000006000600060006000600060006000628
:105850000006180618063807F003E00100000000F3
:105860000000000000000000000006300618060CD2
:10587000060606038601C60066007600DE008E017D
:1058800006030606060C0618063006600000000037
:1058900000000000000000000000180018001800C0
:1058A0001800180018001800180018001800180038
:1058B0001800180018001800F81FF81F000000005A
:1058C000000000000000000000000EE01EF01EF0CE
:1058D0001EF036D836D836D836D866CC66CC66CCEC
:1058E000C6C6C6C6C6C6C6C686C386C300000000F6
:1058F000000000000000000000000C301C303C30B4
:105900003C306C306C30CC30CC308C310C330C33C0
:105910000C360C360C3C0C3C0C380C3000000000F3
:1059200000000000000000000000E007F81F1C3825
:105930000E70066003C003C003C003C003C003C0F1
:1059400003C006600E701C38F81FE007000000005E
:1059500000000000000000000000FC0FFC1F0C38DD
:105960000C300C300C300C300C18FC1FFC070C00F9
:105970000C000C000C000C000C000C0000000000DF
:1059800000000000000000000000E007F81F1C38C5
:105990000E70066003E003C003C003C003C003C071
:1059A00007E006630E3F1C3CF83FE0F700C0000034
:1059B00000000000000000000000FE0FFE1F06387F
:1059C0000630063006300638FE1FFE0706030606C0
:1059D000060C0618061806300630066000000000A7
:1059E00000000000000000000000E003F80F1C0CA5
:1059F0000C180C180C001C00F803E00F001E0038F7
:105A0000063006300E301C1CF80FE00700000000C6
:105A100000000000000000000000FE7FFE7F80010B
:105A2000800180018001800180018001800180016E
:105A30008001800180018001800180010000000060
:105A4000000000000000000000000C300C300C30A2
:105A50000C300C300C300C300C300C300C300C3066
:105A60000C300C300C301818F81FE0070000000054
:105A70000000000000000000000003600630063057
:105A800006300C180C180C18180C180C380E3006B0
:105A90003006700760036003C001C0010000000011
:105AA000000000000000000000000360C361C3614B
:105AB000C3616633663366336633663366336C1BA5
:105AC0006C1B6C1B2C1A3C1E380E380E000000009C
:105AD000000000000000000000000FE00C70183013
