:020000040800F2
:100000001007002081020008531E00083D1600085A
:10001000511E00089F060008F3260008000000009B
:100020000000000000000000000000000D22000899
:10003000A106000800000000551E00080F2200085D
:100040009B0200089B0200089B0200089B0200081C
:100050009B0200089B0200089B0200089B0200080C
:100060009B0200089B0200089B0200089B020008FC
:100070009B0200089B0200089B0200089B020008EC
:100080009B020008000000009B0200089B02000881
:100090009B0200089B0200089B0200089B020008CC
:1000A0009B0200089B0200089B0200089B020008BC
:1000B0009B0200089B0200089B0200089B020008AC
:1000C0009B0200089B0200089B0200089B0200089C
:1000D0009B0200089B0200089B0200089B0200088C
:1000E0009B0200089B0200089B0200089B0200087C
:1000F0009B0200089B0200089B0200080000000011
:10010000000000009B020008000000009B020008A5
:100110009B020008000000009B0200089B020008F0
:100120009B0200089B0200089B0200089B0200083B
:100130009B02000800000000000000009B02000875
:100140009B0200089B020008000000000000000065
:10015000000000000000000000000000000000009F
:100160000000000000000000000000009B020008EA
:100170009B020008000000000000000000000000DA
:10018000000000009B0200080000000000000000CA
:10019000000000000000000000000000000000005F
:1001A00000000000000000009B0200089B02000805
:1001B0009B0200089B0200089B0200080000000050
:1001C000000000009B02000800000000000000008A
:1001D0009B0200089B02000800F002F800F041F8C2
:1001E0000AA090E8000C82448344AAF10107DA4592
:1001F00001D100F036F8AFF2090EBAE80F0013F0A3
:10020000010F18BFFB1A43F001031847783D0000A7
:10021000983D0000103A24BF78C878C1FAD8520738
:1002200024BF30C830C144BF04680C607047000070
:100230000023002400250026103A28BF78C1FBD8EF
:10024000520728BF30C148BF0B607047642900F0D7
:100250007380002070471FB502F095FD1FBD10B5DB
:1002600010BD00F0E2F91146FFF7F5FF02F0BEFC09
:1002700000F000FA03B4FFF7F2FF03BC00F008FA45
:100280000948804709480047FEE7FEE7FEE7FEE72A
:10029000FEE7FEE7FEE7FEE7FEE7FEE70448054966
:1002A000054A064B704700007D220008D90100086E
:1002B0001001002010070020100300201003002070
:1002C0000FB41CB5074B06AA7B44694600900598FD
:1002D00000F093F90020694600F0A2F91CBC5DF81B
:1002E00014FB00005503000070B5044685690068E2
:1002F000C10601D5302600E02026C00707D070BD1A
:10030000D4E9012130469047206A401C20626D1ECE
:10031000F6D570BD70B5044685690078C00707D171
:1003200070BDD4E9012120209047206A401C206242
:100330006D1EF6D570BD00002DE9F0410646002483
:1003400010687529314616A510D0AFF3008000283B
:1003500002DA404213A507E031688A0701D512A5E9
:1003600002E0490704D511A5012401E0AFF30080A4
:1003700000210A2206F1240709E0B0FBF2FCB0FBE1
:10038000F2F302FB1C00303078541846491C002858
:10039000F3D123462A463046BDE8F04100F0CEB8FE
:1003A000000000002D0000002B00000020000000D5
:1003B0002DE9F05F894604464FF0000ADFF824B1CA
:1003C000FB44C0F820A02046E168884700287DD083
:1003D000252806D0D4E901219047206A401C2062DC
:1003E000F1E700255F462046E16888472028064659
:1003F00007DB312E05D2B81910F8200C08B10543DF
:10040000F1E7A80701D525F00405C4F81CA00027D2
:10041000C4F818A02A2E09D0304602F07BF938B370
:1004200004EB8708303EC8F8186019E059F8041B3F
:10043000204604EB87029161E1688847012F064658
:1004400018D1E069002820DA25F020051DE0D8F851
:10045000180000EB800006EB40003038C8F81800A8
:100460002046E1688847064602F054F90028EED19C
:10047000012F0AD02E2E08D12046E16888477F1C24
:100480000646022F45F02005C4DBA069002803DAE8
:10049000404245F00105A061E80701D025F01005B4
:1004A000A6B1A6F14100192802D8203645F400650E
:1004B0004A463146204625604D46FFF7C7FE60B1EB
:1004C000012807D0ED1D25F0070000E007E000F14E
:1004D000080978E705F1040975E730467AE7206AEC
:1004E000BDE8F09FAC3B00004FF0000200B51346A2
:1004F00094469646203922BFA0E80C50A0E80C5044
:10050000B1F12001BFF4F7AF090728BFA0E80C50F4
:1005100048BF0CC05DF804EB890028BF40F8042BED
:1005200008BF704748BF20F8022B11F0804F18BF5A
:1005300000F8012B70477047704770472DE9F0476E
:100540000D4699469246044600F124080168880643
:1005500004D5E06921F01001216000E00120A842EB
:1005600001DD471B00E00027A1697A1902EB0900B1
:10057000081AA0612078C00602D42046FFF7B4FE16
:10058000002608E0D4E901211AF806009047206A05
:10059000401C761C20624E45F4DB2078C0060AD54C
:1005A0002046FFF7A1FE06E0D4E901213020904764
:1005B000206A401C2062381EA7F10107F4DC07E026
:1005C000D4E9012118F805009047206A401C2062F8
:1005D000281EA5F10105F3DC2046FFF79BFE2078DD
:1005E000000602D50220BDE8F0870120FBE70000ED
:1005F00001694A1C02610878704700B58FB0CDE9E7
:1006000001310021059105497944CDE903101146D6
:100610006846FFF7CDFE0FB000BD0000E5FFFFFF0D
:100620000A6802F8010B0A607047754600F02CF862
:10063000AE4605006946534620F00700854618B0CF
:1006400020B5FFF72BFEBDE820404FF000064FF02D
:1006500000074FF000084FF0000B21F00701AC46F7
:10066000ACE8C009ACE8C009ACE8C009ACE8C00916
:100670008D46704710B50446AFF300802046BDE8B4
:100680001040FFF7F7BD000000487047B0000020A1
:1006900001491820ABBEFEE7260002007047FEE7C6
:1006A0007047002240F6B83306E00021491C89B2A9
:1006B0009942FBD3521C92B28242F6D3704772B673
:1006C000FEE7000070B5044600F0FCF80546601C2B
:1006D00002D004484068044400F0F4F8401BA042F3
:1006E000FAD370BD340000202DE9FC4FDFF8A0A143
:1006F000002301250AF1040B03244FF00F0C0BF12A
:10070000040EBDE005FA03F632406FD04F68012FAA
:1007100005D0022F03D0112F01D0122F17D1D0F8FE
:1007200008905F0004FA07F829EA08090097D1F851
:100730000C8008FA07F848EA0908C0F808804768FA
:10074000B7430E79C6F300169E403E434660C66826
:100750004FEA430804FA08F7BE4301978F6807FA87
:1007600008F73743C7604E68022E01D0122E13D10E
:10077000DE0800EB86060096366A5F07FF0E0CFA6D
:1007800007F926EA0906D1F8109009FA07F949EAAB
:100790000609009EC6F820900668019FBE430F79A7
:1007A00007F0030707FA08F7374307604E68F600BB
:1007B00065D5384E376E47F001073766366E23F041
:1007C000030706F001060096334E3E44B146B66874
:1007D0009F074FEA17780CFA08F7BE43B0F1904F25
:1007E00005D02E4FB84204D1012717E047E000277B
:1007F00014E02B4FB84201D102270FE0294FB84235
:1008000001D103270AE0284FB84201D1042705E0AF
:10081000264FB84201D1052700E0062707FA08F75E
:100820003743C9F80870DAF800605746D1F80480F9
:1008300096435FEAC83800D516433E60DBF8006097
:100840005F46D1F8048096435FEA883800D51643A6
:100850003E60DEF800607746D1F8048096435FEA98
:10086000C82800D516433E60094F0C373E68D1F8C2
:10087000048096435FEA882800D516433E605B1CDF
:100880000A6832FA03F67FF43DAFBDE8FC8F000042
:100890000004014000100240000001400004004834
:1008A00000080048000C00480010004800140048F0
:1008B0000069084000D0012070470AB1816170478B
:1008C0008162704701488068704700003400002052
:1008D00002488168426811448160704734000020FA
:1008E00010B50024032000F065F80F2000F008F890
:1008F00008B1012401E000F025F8204610BD0000F9
:1009000070B50E4E05460024706898B14FF47A71A8
:10091000B1FBF0F00A490968B1FBF0F000F0EEFB22
:1009200040B9102D06D200222946501E00F022F8B0
:10093000356000E00124204670BD00003400002036
:10094000400000200A4882B0016E41F001010166BA
:10095000016E01F001010091816D41F080518165CE
:10096000806D00F08050009002B000F093B800005D
:1009700000100240F0B40E4B1B680C46C3F3022378
:10098000C3F10705042D00D90425191D072901D23B
:10099000002300E0DB1E012606FA05F1491E214076
:1009A00099409E40761E16403143F0BC01F0A2BE35
:1009B0000CED00E0064900F0070208684FF6FF035F
:1009C000184040EA0220034A1043086070470000C4
:1009D0000CED00E00000FA052B492C4B0A6832218F
:1009E0004A432B4940B1B0F5007F086829D020F474
:1009F000C06040F480602CE00868C0F34120022809
:100A000004D051F8800F20F4807022E0D1F88000EB
:100A100020F48070C1F88000086820F4C06040F4C1
:100A200000700860B2FBF3F0401C00E0401E4A6911
:100A3000520501D50028F9D1486940050AD503209F
:100A40007047C0F34120022806D051F8800F40F4CF
:100A50008070086000207047D1F8800040F48070FA
:100A6000C1F88000086820F4C06040F4007008609D
:100A7000B2FBF3F0401C00E0401E4A695205DBD592
:100A80000028F9D1D8E700004000002040420F00C4
:100A9000007000400248816841F4804181607047E5
:100AA000007000402DE9F0470E4605004FF00007AA
:100AB00025D0DFF8AC81D8F8000000F00F00B0427C
:100AC0000CD2D8F8001021F00F013143C8F8001003
:100AD000D8F8000000F00F00B04210D12968614C36
:100AE000C80741F2883A5AD06868DFF87C91032839
:100AF00008D0022820682DD0400500282CDB0120DA
:100B0000BDE8F08720688001F9D5E06800F00302B5
:100B1000E068C0F30310401C032A19D0534A00BFF9
:100B2000B2FBF0F0E268C2F306225043E268C2F37F
:100B30004162521C5200B0FBF2F0484517D9A06840
:100B400010F0F00F0CD0880711D5A86840B10EE066
:100B5000474AE5E78003D0E700F092F8484506D918
:100B6000A06820F0F00040F08000A0608027A0681E
:100B7000696820F003000843A060FFF7A3FE8146E8
:100B800006E000BFFFF79EFEA0EB090151453AD8F1
:100B9000A068696800F00C00B0EB810FF2D1286802
:100BA000810714D5400703D5A06840F4E060A06039
:100BB0002878000705D5A06820F4605040F4E06074
:100BC000A060A068A96820F0F000084304E0802F2E
:100BD00003D1A06820F0F000A060D8F800104046D3
:100BE00001F00F01B14216D9016821F00F01314324
:100BF0000160FFF767FE074607E000BFFFF762FEF0
:100C0000C11B514501D903207AE7D8F8000000F054
:100C10000F00B042F2D12878400705D5A068E968F6
:100C200020F4E0600843A0602878000706D5A0689B
:100C3000296920F4605040EAC100A06000F020F86B
:100C4000A1680C4AC1F30311515C01F01F01C840B7
:100C50000949086009480068BDE8F047FFF750BE41
:100C6000002002400010024000B4C4040024F4003C
:100C700000366E01603F0008400000203400002074
:100C8000184910B58868C0F381021748012A0BD0B3
:100C90008A68164BC2F38102022A06D08A68C2F320
:100CA0008102032A03D0002010BD184610BDCA6877
:100CB00002F00304CA68C2F30312521C032C02D0D0
:100CC000B0FBF2F001E0B3FBF2F0CA68C968C2F30E
:100CD00006225043C1F34161491C4900B0FBF1F0C9
:100CE00010BD0000001002400024F40000366E0128
:100CF0002DE9F84304007AD02078FA4DC00747D098
:100D0000A868E96800F00C0001F003010C2802D08B
:100D1000082817D001E0032914D06068B0F5803F9F
:100D200017D0B0F5A02F286817D020F480302860A5
:100D3000286820F4802028606068E0B1FFF7C2FDD9
:100D4000064614E02868800322D560680028D2D0C7
:100D50001EE0286840F48030EDE740F480202860F1
:100D6000F7E700BFFFF7AEFD801B642870D8286846
:100D70008003F7D50CE0FFF7A5FD064605E000BFB0
:100D8000FFF7A0FD801B6428F0D828688003F7D403
:100D9000207880074CD5A868E96800F00C0001F0C5
:100DA00003010C2802D004280DD001E002290AD04A
:100DB000E068002828682BD040F480702860FFF796
:100DC00081FD064619E02868400502D5E068002844
:100DD00091D06868217C20F0FE4040EA01606860A4
:100DE000C1480068FFF78CFD002800D120E076E1C3
:100DF000FFF768FD801B0228B8D828684005F7D5A2
:100E00006868217C20F0FE4040EA016068600FE0E5
:100E100020F480702860FFF755FD064605E000BF0E
:100E2000FFF750FD801B0228A0D828684005F7D4A2
:100E30002078000729D560690028D5F8940013D0E0
:100E400040F00100C5F89400FFF73CFD064606E0BF
:100E500090E000BFFFF736FD801B022886D8D5F84A
:100E600094008007F6D510E020F00100C5F894004A
:100E7000FFF728FD064604E0FFF724FD801B02284B
:100E800078D8D5F894008007F6D42078400761D54B
:100E9000A86D0026C00008D4A86D40F08050A86559
:100EA000A86D012600F08050009090480168C905A7
:100EB00011D40168804641F480710160FFF702FDA2
:100EC000074604E0FFF7FEFCC01B022852D8D8F802
:100ED0000000C005F6D5A068012815D00528D5F872
:100EE000900016D020F00100C5F89000D5F89000D1
:100EF00020F00400C5F89000A06841F28838B8B12D
:100F0000FFF7E0FC07460EE0D5F8900040F0010046
:100F1000F0E740F00400C5F89000F5E7FFF7D2FCD9
:100F2000C11B414526D8D5F890008007F6D50CE0C6
:100F3000FFF7C8FC074604E0FFF7C4FCC11B4145AE
:100F400018D8D5F890008007F6D41EB1A86D20F00F
:100F50008050A8652078800629D5A0690028D5F89A
:100F6000980013D040F00100C5F89800FFF7AAFCE4
:100F7000064606E077E000BFFFF7A4FC801B0228CE
:100F800077D8D5F898008007F6D510E020F001005A
:100F9000C5F89800FFF796FC064604E0FFF792FCC0
:100FA000801B022865D8D5F898008007F6D4E06940
:100FB000F0B3A968C1F38101032961D00228286830
:100FC00020F0807028600BD0E86820F00300E86013
:100FD000E86847490840E860FFF774FC04464BE0C6
:100FE000FFF770FC064604E0FFF76CFC801B02284C
:100FF0003FD828688001F7D4F4E908016FF00F02A8
:1010000002EB01110843218A5204490802EB4151C5
:10101000A26841EA02210843217D4FF07E4249083F
:1010200002EB41610843217B40EAC160E96800E0CE
:1010300062E0304A11400843E860286840F0807060
:101040002860E86840F08070E860FFF73BFC0446E9
:1010500005E000BFFFF736FC001B022809D828680E
:101060008001F7D548E004E0FFF72CFC001B0228C4
:1010700002D90320BDE8F88328688001F4D43BE05E
:101080000128F7D0E868226A00F00301914226D1D6
:10109000616A00F0F0020901103991421FD1A26A81
:1010A00000F4FE41B1EB022F19D194F82C2000F08E
:1010B0007841B1EBC26F12D1218E00F4C002490811
:1010C0004905A1F50011914209D194F8341000F0BE
:1010D000C06049084906A1F1007181420CD001208D
:1010E000C8E70000001002403400002000700040FB
:1010F000FFFFEEFE0C809F010020BBE710B5401EF5
:10110000B0F1807F01D3012010BD4FF0E024606179
:101110000F21601701F0EEFA0020A0610720206186
:10112000002010BDF0B590F83C20012A3AD00125EE
:1011300080F83C50022280F83D2003685A689C6881
:10114000194E1A4FB34201D0BB4204D122F4700CA5
:101150004A6842EA0C02DFF858C002EA0C02D1F8F1
:1011600000C04CEA020CC3F804C00268B2420DD0C1
:10117000B2F1804F0AD00F4B9A4207D00E4B9A42E1
:1011800004D0BA4202D00D4B9A4204D1896824F0AF
:1011900080031943916080F83D50002180F83C1095
:1011A0000846F0BD0220F0BD002C01400034014093
:1011B0008FFFFFFD00040040000800400040014098
:1011C00010B5040003D094F83D0010B107E00120F1
:1011D00010BD002084F83C00204600F023F80220D7
:1011E00084F83D00211D206801F050F8012084F8AA
:1011F000480084F83E0084F83F0084F8400084F8FA
:10120000410084F8420084F8430084F8440084F8E4
:10121000450084F8460084F8470084F83D0000202B
:1012200010BD000008B500680649884208D106488C
:10123000816D41F002018165806D00F00200009037
:1012400008BD0000000400400010024070B50446D4
:1012500090F83C00012814D0012584F83C5002206D
:1012600084F83D0022689068344B184020F47F4099
:1012700090600868702827D010DC10F00F0F03D0A2
:101280004AE04FF0020070BD4FEA2012072A43D215
:10129000DFE802F05050505048313900284BC21A54
:1012A000984247D009DCB0F5805F35D0B0F5005FDB
:1012B00015D0B0F1101F2FD13CE0102A3AD0202ACF
:1012C00038D0502A28D135E0CB68D1E901212068F7
:1012D00001F041F82068816841F0770109E0CB68AE
:1012E000D1E90121206801F036F82068816841F4D5
:1012F0008041816010E0CA684968206801F0D6F931
:101300005021206806E0CA684968206801F0DFF9CA
:101310006021206801F02AF884F83D50002084F80C
:101320003C0070BDCA684968206801F0BFF94021DF
:101330002068EFE7226801461046EBE788FFCEFF02
:101340002000100010B586B0044614216846FFF74F
:10135000CBF80E492068884215D10D48C16C41F088
:101360000101C164C06C002100F001000590402023
:1013700000900220CDE90101CDE9031069464FF04C
:101380009040FFF7B1F906B010BD00000004004026
:101390000010024070B5044690F83C000D4601284C
:1013A0000BD0012084F83C000C2A45D007DC5AB150
:1013B000042A1BD0082A78D12CE0022070BD102A04
:1013C0004ED0142A71D15DE0206800F0D9FF20686A
:1013D000816941F0080181612068816921F004017F
:1013E0008161206881692A69114311E0206801F058
:1013F00015F82068816941F4006181612068816984
:1014000021F480618161206881692A6941EA0221B1
:1014100081614AE0206801F049F82068C16941F023
:101420000801C1612068C16921F00401C16120681F
:10143000C1692A69114311E0206801F07FF8206832
:10144000C16941F40061C1612068C16921F4806112
:10145000C1612068C1692A6941EA0221C16124E0B1
:10146000206801F0B3F82068016D41F008010165C2
:101470002068016D21F0040101652068016D2A6971
:10148000114311E0206801F0D9F82068016D41F4A2
:10149000006101652068016D21F4806101652068AB
:1014A000016D2A6941EA02210165002084F83C00AF
:1014B00070BD10B5040003D094F83D0010B107E0F2
:1014C000012010BD002084F83C00204600F022F8E6
:1014D000022084F83D00211D206800F0D7FE012085
:1014E00084F8480084F83E0084F83F0084F8400007
:1014F00084F8410084F8420084F8430084F84400F2
:1015000084F8450084F8460084F8470084F83D00DC
:10151000002010BD7047000030B50446022269B1BA
:10152000042916D0082920D00C2929D010292ED022
:1015300094F84300012831D0012030BD94F83E00DA
:101540000128F9D184F83E202068C26842F00202E6
:1015500009E094F83F000128EED184F83F2020688C
:10156000C26842F00402C2601CE094F84000012806
:10157000E2D184F840202068C26842F00802F2E715
:1015800094F841000128D7D184F8412008E094F86C
:1015900042000128D0D184F8422003E084F843209F
:1015A0000C2935D00122206800F0C8FE1B492068B4
:1015B0001B4A1C4B884209D0904207D0984205D064
:1015C000194DA84202D0194DA84203D1456C45F4EB
:1015D00000454564206888420CD0B0F1804F09D0A6
:1015E0001349884206D01349884203D0904201D063
:1015F000984207D18168104A1140062906D0B1F5FA
:10160000803F03D0016841F001010160002030BD3E
:101610002068C26842F01002A5E70000002C0140DB
:1016200000340140004001400044014000480140B6
:10163000000400400008004007000100FEE7000031
:1016400000B585B014216846FEF74EFFC02000901B
:101650000120019002900220039069460248FFF7A2
:1016600043F805B000BD00000004004870B5082430
:10167000002500F093FD13E06806050E002000F041
:1016800075FD142001F04DF8142001F04AF80120F6
:1016900000F06CFD142001F044F800F073FD0543E8
:1016A000641EE4B2E8D2002000F060FD142001F0D6
:1016B00038F800F095FD284670BD70B50446082541
:1016C00016E000F053FD142001F02BF804F0800028
:1016D00000F07AFD142001F024F86006040E1420B6
:1016E00001F01FF8012000F041FD142001F019F86D
:1016F0006D1EEDB24FF00000E3D200F037FDBDE803
:101700007040142001F00DB810B5012000F05CFD10
:10171000142001F006F8012000F028FD142001F04B
:1017200000F8002000F050FD142000F0FAFF002027
:1017300000F01CFDBDE81040142000F0F2BF10B511
:10174000002000F013FD142000F0EBFF002000F05B
:101750003BFD142000F0E5FF012000F007FD142000
:1017600000F0DFFF012000F02FFDBDE81040142045
:1017700000F0D7BF10B5052400F010FD142000F0D4
:10178000D0FF012000F0F2FC142000F0CAFF05E0B9
:10179000641EA4B2142000F0C4FF6CB100F0F2FC8F
:1017A0000028F5D100F01CFD002000F0DFFC142023
:1017B00000F0B7FF002010BD00F012FDFFF7BFFFE3
:1017C000012010BD2DE9F05F89468246FFF770F8D1
:1017D0004E4C4FF44877002628B1207801287DD060
:1017E0000420BDE8F09F4A4D668228686061286841
:1017F0004FF6E07B4FF00A08206276E02868A18A65
:10180000401A80B26082E17800296ED0414A924548
:101810006BD1B9F1040F68D1B84266D92868216A42
:10182000401AB0F57A7F60D928682062607B012871
:1018300003D002281BD0A0BB34E0A07B401CC0B268
:10184000A073182800D9A673584600F0A9F9A17B07
:10185000B1FBF8F03030C2B2CF21602000F0E4F8E4
:10186000A17BB1FBF8F208FB1212BF2133E0E07B51
:10187000401CC0B2E0733C2800D9E673584600F023
:101880008FF9E17BB1FBF8F03030C2B29F216020CC
:1018900000F0CAF8E17BB1FBF8F208FB12128F21CD
:1018A00019E022E0207C401CC0B220743C2800D902
:1018B0002674584600F074F9217CB1FBF8F0303002
:1018C000C2B26F21602000F0AFF8217CB1FBF8F2CA
:1018D00008FB12125F216020303200E00DE000F0C2
:1018E000A3F84FF6FF7000F05BF949465046FEF74B
:1018F000DFFF002882D001202070608A2670B84265
:1019000001D803206DE702206BE7000008000020EB
:101910003C0000200004004800B585B01421684652
:10192000FEF7E2FD4FF6FF70009000200321CDE9A5
:101930000201019069460248FEF7D6FE05B000BDDF
:101940000008004800B585B014216846FEF7CCFDBC
:101950004FF6FF70009001200190032003900020BB
:10196000029069460248FEF7BFFE05B000BD0000C8
:101970000008004870B5002406462146204600F0C5
:1019800003F900F041F94FF49635304600F010F9B4
:10199000641CAC42F9D370BD30B587B014216846E1
:1019A000FEF7A2FD1E48C16C41F00401C164C16C88
:1019B00001F004010591C16C41F00101C164C16CE9
:1019C00001F001010591C16C41F00201C164C06CDC
:1019D000012500F0020005904FF44870CDE90005A4
:1019E00000240394694602940E48FEF77DFE280207
:1019F00003940090CDE901544FF09044694620468D
:101A0000FEF772FEFFF79EFFA06940F48070A061B0
:101A100004481830016841F40871016007B030BD16
:101A20000010024000040048203AD2B2034B02EBFF
:101A3000420203EB021200F019B80000902D0008DA
:101A4000F0B50E460746002540F23F1407E0214658
:101A50003846FFF7E9FF103C6D1CA4B2761C3278C3
:101A6000002A01D0142DF2D3F0BD00002DE9F0477B
:101A700091468A460026044600F086F8DFF840804A
:101A8000012700BF00F0C0F85FF0000539F816002C
:101A900007FA05F10842404601D1408800E000887D
:101AA00000F086F86D1C102DF0D3641CE4B2514692
:101AB000204600F069F8761C182EE3D3BDE8F087C5
:101AC0000000002010B5FFF767FF002000F014F8B9
:101AD000084CA080A088A0F50241303906D000F063
:101AE00043FA002000F008F8A08010BD00F0B3F920
:101AF000F7E700000000002070B51D490A6842F4B5
:101B000000720A600A6842F480720A60184C103C45
:101B1000226842F020022260164A1060086840F0F5
:101B20002000086000BF00BF00BF206840F0200018
:101B30002060206840F480702060FFF7EDFE4FF0D9
:101B40009041886A40F48070886200BF00BF00BF87
:101B50000848001F006885B2886940F48070886179
:101B6000FFF7F0FE206840F400702060284670BD4A
:101B7000280400481408004801B5BDF800000149D8
:101B8000488008BD0000002010B50C46014620200A
:101B900000F068F82146BDE81040212000F062B84E
:101BA00001B5BDF800000149088008BD0000002013
:101BB000134A116841F400711160114910390B6822
:101BC00043F480730B600B6843F020030B600D4BF4
:101BD0001860106840F02000106000BF00BF00BF18
:101BE000086840F020000860086840F480700860D1
:101BF00000BF00BF00BF086840F400700860704775
:101C000028040048140800481449086840F400708B
:101C10000860086840F48070086010481038026856
:101C200042F0200202600E4B22221A600A6842F043
:101C300020020A6000BF00BF00BF016841F0200120
:101C40000160016841F48071016000BF00BF00BF06
:101C5000016841F4007101607047000028040048E9
:101C600014080048184B10B51A6842F400721A6044
:101C70001A6842F480721A60134A103A146844F0E9
:101C800020041460114C2060186840F02000186097
:101C900000BF00BF00BF106840F020001060106857
:101CA00040F4807010602160186840F020001860D7
:101CB00000BF00BF00BF106840F020001060106837
:101CC00040F48070106010BD2804004814080048DB
:101CD000F0B587B014216846FEF706FC3148C16CA8
:101CE00041F00401C164C16C01F004010591C16CB3
:101CF00041F02001C164C16C01F020010591C16C6B
:101D000041F00101C164C16C01F001010591C16C98
:101D100041F00201C164C16C01F002010591C16C86
:101D200041F00801C164C06C1F4E00F008004FF480
:101D30007D440590002221463046FEF7BEFD1B4F34
:101D4000002204213846FEF7B8FD0125CDE9004503
:101D500000240294694630460394FEF7C5FCCDE9A1
:101D6000005469464FF090400294FEF7BDFC0720F6
:101D7000CDE9000469460E480294FEF7B5FC6802FE
:101D8000CDE90004694630460294FEF7ADFC04201C
:101D90000090CDE90154694638460394FEF7A4FC4F
:101DA00007B0F0BD0010024000080048000C0048D9
:101DB0000004004810B58EB00024079408940994DC
:101DC0000A940B940C941C2168460D94FEF78CFB2E
:101DD0001E481D4901604F21C0E901144FF47A717A
:101DE000C0E9031480218161FFF7EAF908B1FEF729
:101DF00066FC4FF48050079007A91448FFF726FAB5
:101E000008B1FEF75CFC1148FFF753FB08B1FEF781
:101E100056FC0B940BA90D480D94FFF783F908B1FC
:101E2000FEF74DFC6020CDE90004029400226946D3
:101E300006480494FFF7AEFA08B1FEF740FC0348E9
:101E4000FFF780FA0EB010BD0004004064000020CF
:101E5000FEE7FEE7704730B501210020FFF702FFE3
:101E60004FF47A70FEF71DFC00210120FFF7FAFE07
:101E700041F290711020FFF7F5FE4FF41C516020E5
:101E8000FFF7F0FE01216120FFF7ECFE0221462062
:101E9000FFF7E8FE48F210011320FFF7E3FE48F2D7
:101EA000FE011220FFF7DEFE4FF4A0610220FFF7D3
:101EB000D9FE41F230010320FFF7D4FE40F2033493
:101EC00021463020FFF7CEFE21463120FFF7CAFE23
:101ED00021463220FFF7C6FEE51E29463320FFF7D4
:101EE000C1FE03213420FFF7BDFE21463520FFF758
:101EF000B9FE14213620FFF7B5FE21463720FFF743
:101F0000B1FE21463820FFF7ADFE21463920FFF70C
:101F1000A9FE29463A20FFF7A5FE03213B20FFF743
:101F2000A1FE21463C20FFF79DFE4FF4A0513D202D
:101F3000FFF798FE4FF400719220FFF793FE2146C1
:101F40009320FFF78FFE40F60D019020FFF78AFEE9
:101F500041F218010320FFF785FEBDE8304040F252
:101F600073110720FFF77EBE10B543F20801E3208E
:101F7000FFF778FE1221E720FFF774FE41F23121CE
:101F8000EF20FFF76FFE00210120FFF76BFE4FF4FB
:101F9000E0610220FFF766FE41F230010320FFF707
:101FA00061FE00210420FFF75DFE40F207210820BA
:101FB000FFF758FE00210920FFF754FE00210A20F8
:101FC000FFF750FE00210C20FFF74CFE00210D20F2
:101FD000FFF748FE00210F20FFF744FE00211020EC
:101FE000FFF740FE07211120FFF73CFE00211220E1
:101FF000FFF738FE00211320FFF734FEC820FEF75C
:1020000061FB41F290611020FFF72CFE40F2272186
:102010001120FFF727FE3220FEF754FB1D2112206E
:10202000FFF720FE3220FEF74DFB4FF40061132036
:10203000FFF718FE14212920FFF714FE0B212B2097
:10204000FFF710FE3220FEF73DFB00212020FFF7B6
:1020500009FE00212120FFF705FE07213020FFF7B0
:1020600001FE40F207713120FFF7FCFD062132200E
:10207000FFF7F8FD40F204713520FFF7F3FD41F65C
:1020800004713620FFF7EEFD04213720FFF7EAFD4B
:1020900000213820FFF7E6FD40F206713920FFF7F6
:1020A000E1FD40F201713C20FFF7DCFD0F213D20F6
:1020B000FFF7D8FD00215020FFF7D4FDEF2151207C
:1020C000FFF7D0FD00215220FFF7CCFD40F23F1179
:1020D0005320FFF7C7FD4FF41C516020FFF7C2FDEE
:1020E00001216120FFF7BEFD00216A20FFF7BAFD44
:1020F00000218020FFF7B6FD00218120FFF7B2FD0F
:1021000000218220FFF7AEFD00218320FFF7AAFD0A
:1021100000218420FFF7A6FD00218520FFF7A2FD06
:1021200010219020FFF79EFD00219220FFF79AFDDD
:1021300003219320FFF796FD4FF488719520FFF758
:1021400091FD00219720FFF78DFD00219820FFF7DA
:1021500089FD41F218010320FFF784FDBDE810401E
:1021600040F273110720FFF77DBD000008B104485D
:1021700001E003481030016841F040010160704700
:102180001804004810B580210348FEF791FB012890
:1021900000D0002010BD00000004004800B585B04C
:1021A00014216846FEF7A0F98020009000200190DD
:1021B000012002900220039069460248FEF794FA3B
:1021C00005B000BD0004004808B1044801E0034820
:1021D0001030016841F08001016070471804004828
:1021E00000B585B014216846FEF77EF98020009086
:1021F00011200190002002900220039069460248BD
:10220000FEF772FA05B000BD000400487047FEF703
:102210005FBB00B593B038216846FEF765F914211D
:102220000EA8FEF761F94FF40070FEF7D5FB02200F
:10223000C1010391402104910121CDE908010090E1
:102240000A21CDE90A1007900C900D906846FEF720
:102250004FFD08B172B6FEE70F200E9003200F90DD
:10226000002010901190129002210EA8FEF71AFC87
:10227000002801D072B6FEE713B000BD0248016825
:1022800041F470010160704788ED00E02DE9F043F2
:102290000268234B234D244E244C4FF08049984232
:1022A00007D0484505D0A84203D0B04201D0A04293
:1022B00003D122F070074A683A431D4FDFF874C01B
:1022C000DFF8748098420DD048450BD0A84209D061
:1022D000B04207D0A04205D0B84203D0604501D03B
:1022E000404503D122F44075CA682A434D6922F063
:1022F00080022A4302608A68C2620A688262984247
:1023000007D0A04205D0B84203D0604501D0404577
:1023100001D10969016301214161BDE8F083000039
:10232000002C01400004004000080040003401403F
:1023300000400140004401400048014010B501F058
:102340001F030121046A99408C430462016A9A4088
:102350001143016210BD10B5846842EA032224F4DF
:102360007F440A432243826010BD00008268034B11
:102370001A400A4342F00701816070478FFFCFFF88
:102380002DE9F043026A22F001020262056A436805
:1023900082691C4C25F0020522400C6822F00302E1
:1023A00014438A68194E2A43174D194FDFF864C049
:1023B000DFF86490A84207D0B04205D0B84203D0FD
:1023C000604501D0484506D122F00808CA6842EAB3
:1023D000080222F00402A84207D0B04205D0B84259
:1023E00003D0604501D0484505D14D6923F44073C1
:1023F0001D438B692B4343608461496841630262DA
:10240000BDE8F0838FFFFEFF002C01400034014047
:10241000004001400044014000480140F0B5026A1C
:1024200022F010020262056A42688369194C1B4E51
:1024300023400C6823F4407343EA042425F020036E
:102440008D6843EA0513144DA84201D0B04206D16D
:10245000CF6823F0800343EA071323F04003A84228
:102460000AD0B04208D00E4DA84205D00D4DA8426A
:1024700002D00D4DA84207D14D6922F4406242EAD4
:1024800085028D6942EA8502426084614968816300
:102490000362F0BDFF8FFFFE002C014000340140BD
:1024A000004001400044014000480140F0B5026A8C
:1024B00022F480720262056A4368C269194C1B4E9D
:1024C00022400C6822F00302144325F400728D6848
:1024D00042EA0522144DA84201D0B04206D1CF688D
:1024E00022F4006242EA072222F48062A8420AD063
:1024F000B04208D00E4DA84205D00E4DA84202D0E1
:102500000D4DA84207D14D6923F4405343EA05130A
:102510008D6943EA05134360C4614968C16302627F
:10252000F0BD00008FFFFEFF002C01400034014091
:10253000004001400044014000480140F0B5026AFB
:1025400022F480520262056A4268C369194C1B4E2C
:1025500023400C6823F4407343EA042425F4005319
:102560008D6843EA0533144DA84201D0B04206D12C
:10257000CF6823F4004343EA073323F48043A8429F
:102580000AD0B04208D00E4DA84205D00D4DA84249
:1025900002D00D4DA84207D14D6922F4404242EAD3
:1025A00085128D6942EA85124260C46149680164FE
:1025B0000362F0BDFF8FFFFE002C0140003401409C
:1025C00000400140004401400048014030B5026A2B
:1025D00022F480320262046A4268036D114D2B407E
:1025E0000D681D4324F400330C8943EA04430E4C68
:1025F000A0420BD00D4CA04208D00D4CA04205D0FB
:102600000C4CA04202D00C4CA04204D14C6922F4E4
:10261000803242EA042242600565496881640362AF
:1026200030BD00008FFFFEFF002C01400034014050
:1026300000400140004401400048014030B5026ABA
:1026400022F480120262046A4268036D114D24F480
:1026500000142B400D6843EA05230D8944EA055414
:102660000D4DA8420BD00D4DA84208D00C4DA842EC
:1026700005D00C4DA84202D00B4DA84204D14D69A3
:1026800022F4802242EA8522426003654968C164DF
:10269000046230BDFF8FFFFE002C0140003401407A
:1026A00000400140004401400048014010B5036A69
:1026B000046A24F001040462846924F0F00444EA0A
:1026C000021423F00A020A438461026210BD10B5AD
:1026D000036A23F0100303628369046A23F47043DE
:1026E00043EA023224F0A00343EA0111826101624D
:1026F00010BDFEE70907090E002804DB00F1E02009
:1027000080F80014704700F00F0000F1E02080F81E
:10271000141D704730380A2801D20120704700206C
:102720007047002100E0491C8142FCD37047000043
:1027300070B502211848FFF745F8184C0022012116
:10274000E07203281ED0022825D16171E270617801
:10275000202000F0FDFA607804F12405A17B285CBC
:1027600000F0F6FA6078E17B285C401CC0B200F013
:10277000EFFA6078217C285CBDE87040801CC0B214
:1027800000F0E6BA6171E170607B401CC0B260731A
:10279000032800D1627370BD0004004808000020C7
:1027A00010B504211548FFF70DF8154903280873E3
:1027B00013D101204871C87801280ED14A7B00202E
:1027C000012A0BD0022A11D0002A06D10A7C521C01
:1027D000D2B20A743C2A00D9087410BD8A7B521CFC
:1027E000D2B28A73182AF8D9887310BDCA7B521CDA
:1027F000D2B2CA733C2AF8D9C87310BD000400488D
:102800000800002010B501214FF09040FEF7DAFFDC
:102810000849032888700AD101204871087938B125
:102820000020087104480268CA610068886110BD10
:102830000120F6E7080000203C00002010B500F061
:1028400019F80B4988714A7A20EA02034240824310
:10285000CB710A724872012A09D101204871487867
:10286000401CC0B24870052801D10020487010BD3E
:102870000800002010B5094C01212046FEF718F889
:1028800038B90A20FDF71EFF01212046FEF710F897
:1028900008B1002010BD012010BD00000004004858
:1028A000F8B58B4C8BA18E486278FDF709FD8C49F9
:1028B0001820FFF7C5F8E07860B1607B0A254FF675
:1028C000E0764FF6FF77012811D0022841D000288A
:1028D0007DD0D3E0207C0090E37BA27B81A1804867
:1028E000FDF7EEFC7E496020FFF7AAF8C6E030460F
:1028F000FFF756F9A07BCF21B0FBF5F03030C2B224
:102900006020FFF791F8A07BB0FBF5F105FB110209
:10291000BF2160203032FFF787F83846FFF740F9D3
:102920003A22AF216020FFF77FF8E07B9F21B0FBC8
:10293000F5F03030C2B26020FFF776F8E07BB0FBF4
:10294000F5F105FB11028F2160203032FFF76CF8A2
:1029500030E0A07BCF21B0FBF5F03030C2B2602078
:10296000FFF762F8A07BB0FBF5F105FB1102BF2178
:1029700060203032FFF758F83A22AF216020FFF78D
:1029800053F83046FFF70CF9E07B9F21B0FBF5F0E0
:102990003030C2B26020FFF747F8E07BB0FBF5F1C2
:1029A00005FB11028F2160203032FFF73DF83846D9
:1029B000FFF7F6F83A227F216020FFF735F8207CF8
:1029C0006F21B0FBF5F03030C2B2602000E00CE0C7
:1029D000FFF72AF8207CB0FBF5F105FB11025F211F
:1029E00060203032FFF720F848E0A07BCF21B0FB19
:1029F000F5F03030C2B26020FFF716F8A07BB0FBD4
:102A0000F5F105FB1102BF2160203032FFF70CF811
:102A10003A22AF216020FFF707F8E07B9F21B0FB4F
:102A2000F5F03030C2B26020FEF7FEFFE07BB0FB75
:102A3000F5F105FB11028F2160203032FEF7F4FF23
:102A40003A227F216020FEF7EFFF3046FFF7A8F81B
:102A5000207C6F21B0FBF5F03030C2B26020FEF771
:102A6000E3FF207CB0FBF5F105FB11025F21602044
:102A70003032FEF7D9FF3846FFF792F8607938B95F
:102A80001EA11748FDF71CFC1549C020FEF7D8FF12
:102A9000A078022802D0032802D005E017A10EE09A
:102AA000207938B1012807D0E07A032806D002281F
:102AB000F4D0F8BD16A102E01AA100E01EA108485A
:102AC000FDF7FEFBBDE8F8400549C020FEF7B8BFA2
:102AD000080000202020204E6F2025640000000008
:102AE0004400002020202020202020253032643A7D
:102AF000253032643A253032640000002020202046
:102B000020205374616E6442792020200000000070
:102B10002020202020205061757365202020202057
:102B20000000000020202020202052756E6E696E6B
:102B30006720202000000000202020202020536556
:102B40007474696E67202020000000000F4810494F
:102B50000279096812B1012A04D013E00022CA6385
:102B600082720FE04FF44872CA630A490A68C36967
:102B7000D21AB2F5FA7F05D90968C161817A81F06C
:102B800001018172807A00F007B80000080000207F
:102B9000640000203C00002070B5124D0446012264
:102BA0004FF47F412846FDF788FE0F4E0122042195
:102BB0003046FDF782FE002204213046FDF77DFEFF
:102BC000210200222846FDF778FE0122042130462A
:102BD000FDF773FE3046BDE8704000220421FDF78A
:102BE0006CBE000000080048000C0048FDF778FEAD
:102BF000FFF70FFBFFF76CF8FFF7DCF8FEF720FD9F
:102C0000FEF760FF0020FEF7B5FE0020FEF7B4FFE0
:102C10004FF6FF70FEF7C4FF0020FFF7BDFF002155
:102C20002648FEF779FC002000F074F8244C44217B
:102C30006074002000F08CF8607C04F124054428C6
:102C400025D06178202000F083F86078A17B285C93
:102C500000F07EF86078E17B285C401CC0B200F098
:102C600077F86078217C285C801CC0B200F070F896
:102C7000FFF7E4FDFFF75CFDFFF792FDFFF7C2FDF4
:102C8000FFF764FFFFF70CFE00F01CF8F0E72020D0
:102C900000F040F86070285C00F03CF8A0736078A9
:102CA000285C401CC0B200F035F8E0736078285C06
:102CB000801CC0B200F02EF82074D9E76400002018
:102CC000080000201148017901291ED1104A11681D
:102CD0008369C91AB1F57A7F17D9017C491CCBB237
:102CE000002103743C2B03D90174C37B5B1CC373A9
:102CF000C37B3C2B03D9C173837B5B1C8373837BB6
:102D0000182B00D981731168816170470800002079
:102D10003C00002010B50446FEF7F6FCA020FEF7AC
:102D2000CCFCFEF727FD2046FEF7C7FCFEF722FD90
:102D3000FEF7EAFCA120FEF7C0FCFEF71BFDFEF744
:102D400095FC0446FEF716FDFEF7F9FC204610BD83
:102D500070B50D460446FEF7D7FCA020FEF7ADFC8B
:102D6000FEF708FD2046FEF7A8FCFEF703FD284607
:102D7000FEF7A3FCFEF7FEFCFEF7E1FCBDE87040A9
:102D80000520FDF79FBC4FF04070E1EE100A704740
:102D90000000000000000000000000000000000033
:102DA0000000000000000000000000000000000023
:102DB0000000000000000000000000000000000013
:102DC000000080018001800180018001800180017C
:102DD00080018001800180018001800100000000ED
:102DE00080018001000000000000000000000000E1
:102DF00000000000CC00CC00CC00CC00CC00CC000B
:102E000000000000000000000000000000000000C2
:102E100000000000000000000000000000000000B2
:102E2000000000000000000000000000600C600CCA
:102E3000600C30063006FE1FFE1F300638071803F0
:102E4000FE1FFE1F180318038C018C018C0100006B
:102E500000008000E003F80F9C0E8C1C8C188C0086
:102E60009800F801E007800E801C8C188C189C18C4
:102E7000B80CF00FE00380008000000000000000AC
:102E80000000000000000E181B0C110C11061106AA
:102E9000110311039B018E01C038C06C6044604473
:102EA000304430441844186C0C3800000000000016
:102EB0000000E001F0033807180618063003F0019F
:102EC000F000F8009C310E33061E061C061C063F5F
:102ED000FC73F02100000000000000000000000072
:102EE000000000000C000C000C000C000C000C009A
:102EF00000000000000000000000000000000000D2
:102F000000000000000000000000000000000000C1
:102F10000000000200038001C000C00060006000EB
:102F20003000300030003000300030003000300021
:102F300060006000C000C0008001000300020000CB
:102F4000000020006000C000800180010003000339
:102F50000006000600060006000600060006000641
:102F60000003000380018001C00060002000000019
:102F7000000000000000000000000000C000C000D1
:102F8000D806F807E0013003380700000000000011
:102F90000000000000000000000000000000000031
:102FA000000000000000000000000000800180011F
:102FB000800180018001FC3FFC3F80018001800195
:102FC00080018001000000000000000000000000FF
:102FD00000000000000000000000000000000000F1
:102FE00000000000000000000000000000000000E1
:102FF000000080018001000100018000000000004D
:1030000000000000000000000000000000000000C0
:103010000000000000000000E007E00700000000E2
:1030200000000000000000000000000000000000A0
:103030000000000000000000000000000000000090
:103040000000000000000000000000000000000080
:103050000000C000C00000000000000000000000F0
:103060000000000C000C0006000600060003000330
:1030700000038003800180018001C000C000C00007
:103080006000600000000000000000000000000080
:103090000000E003F007380E180C0C180C180C1880
:1030A0000C180C180C180C180C180C18180C380EDE
:1030B000F007E00300000000000000000000000036
:1030C000000000018001C001F00198018801800129
:1030D00080018001800180018001800180018001E8
:1030E00080018001000000000000000000000000DE
:1030F0000000E003F80F180C0C180C18001800184A
:10310000000C000600038001C000600030001800C1
:10311000FC1FFC1F00000000000000000000000079
:103120000000E001F807180E0C0C0C0C000C000657
:10313000C003C007000C001800180C180C18180C5D
:10314000F807E0030000000000000000000000009D
:103150000000000C000E000F000F800DC00C600C72
:10316000600C300C180C0C0CFC3FFC3F000C000CED
:10317000000C000C00000000000000000000000037
:103180000000F80FF80F180018000C00EC03FC0703
:103190001C0E001C0018001800180C181C0C180E2F
:1031A000F807E0030000000000000000000000003D
:1031B0000000C007F00F381C181818000C00CC03D2
:1031C000EC0F3C0E1C1C0C180C180C18181C380E9C
:1031D000F007E00300000000000000000000000015
:1031E0000000FC1FFC1F000C00060006000380030B
:1031F0008001C001C000E00060006000700030008D
:10320000300030000000000000000000000000005E
:103210000000E003F007380E180C180C180C3806E4
:10322000F007F007180C0C180C180C180C18380CB8
:10323000F80FE003000000000000000000000000A4
:103240000000E003F007380E1C0C0C180C180C18CA
:103250001C1C381EF81BE0190018000C000C1C0E7A
:10326000F807F0010000000000000000000000006E
:10327000000000000000000000000000800180014C
:10328000000000000000000000000000000000003E
:10329000800180010000000000000000000000002C
:1032A000000000000000000000000000800180011C
:1032B000000000000000000000000000000000000E
:1032C000800180010001000180000000000000007A
:1032D00000000000000000000000000000000000EE
:1032E0000010001C800FE003F8001800F800E00355
:1032F000800F001C00100000000000000000000013
:1033000000000000000000000000000000000000BD
:10331000F81F000000000000F81F0000000000007F
:10332000000000000000000000000000000000009D
:10333000000000000000000000000000000000008D
:1033400008003800F001C007001F0018001FC00768
:10335000F00138000800000000000000000000003C
:103360000000E003F80F180C0C180C180018000CE3
:10337000000600038001C000C000C0000000000083
:10338000C000C000000000000000000000000000BD
:1033900000000000E00718180420C229224A114446
:1033A00009440944094409221113E20C0240042093
:1033B0001818E007000000000000000000000000F6
:1033C000000080038003C006C006C006600C600CCD
:1033D000301830183018F83FF83F1C700C600C6043
:1033E00006C006C000000000000000000000000051
:1033F0000000FC03FC0F0C0C0C180C180C180C0C27
:10340000FC07FC0F0C180C300C300C300C300C1876
:10341000FC1FFC070000000000000000000000008E
:103420000000C007F01F38381C300C700660060022
:103430000600060006000600060006600C701C3040
:10344000F01FE00700000000000000000000000086
:103450000000FE03FE0F060E0618061806300630A2
:103460000630063006300630063006180618060EFE
:10347000FE0FFE030000000000000000000000003E
:103480000000FC3FFC3F0C000C000C000C000C008A
:10349000FC1FFC1F0C000C000C000C000C000C00AE
:1034A000FC3FFC3F000000000000000000000000A6
:1034B0000000F83FF83F1800180018001800180026
:1034C000F81FF81F1800180018001800180018003E
:1034D00018001800000000000000000000000000BC
:1034E0000000E00FF83F3C780E6006E007C00300E4
:1034F000030003FE03FE03C007C006C00EC03CF07D
:10350000F83FE00F00000000000000000000000095
:1035100000000C300C300C300C300C300C300C3007
:10352000FC3FFC3F0C300C300C300C300C300C30BD
:103530000C300C3000000000000000000000000013
:1035400000008001800180018001800180018001F4
:103550008001800180018001800180018001800163
:103560008001800100000000000000000000000059
:103570000000000600060006000600060006000621
:1035800000060006000600060006180618063807A2
:10359000F003E00100000000000000000000000057
:1035A000000006300618060C060606038601C60053
:1035B00066007600DE008E0106030606060C06187D
:1035C000063006600000000000000000000000005F
:1035D0000000180018001800180018001800180043
:1035E000180018001800180018001800180018001B
:1035F000F81FF81F0000000000000000000000009D
:1036000000000EE01EF01EF01EF036D836D836D878
:1036100036D866CC66CC66CCC6C6C6C6C6C6C6C6D6
:1036200086C386C300000000000000000000000008
:1036300000000C301C303C303C306C306C30CC30F6
:10364000CC308C310C330C330C360C360C3C0C3C2F
:103650000C380C30000000000000000000000000EA
:103660000000E007F81F1C380E70066003C003C09E
:1036700003C003C003C003C003C006600E701C3843
:10368000F81FE0070000000000000000000000003C
:103690000000FC0FFC1F0C380C300C300C300C30D0
:1036A0000C18FC1FFC070C000C000C000C000C009C
:1036B0000C000C00000000000000000000000000F2
:1036C0000000E007F81F1C380E70066003E003C01E
:1036D00003C003C003C003C007E006630E3F1C3CE9
:1036E000F83FE0F700C0000000000000000000000C
:1036F0000000FE0FFE1F0638063006300630063882
:10370000FE1FFE0706030606060C061806180630FE
:10371000063006600000000000000000000000000D
:103720000000E003F80F1C0C0C180C180C001C0017
:10373000F803E00F001E0038063006300E301C1C67
:10374000F80FE0070000000000000000000000008B
:103750000000FE7FFE7F80018001800180018001EA
:103760008001800180018001800180018001800151
:103770008001800100000000000000000000000047
:1037800000000C300C300C300C300C300C300C3095
:103790000C300C300C300C300C300C300C30181855
:1037A000F81FE0070000000000000000000000001B
:1037B000000003600630063006300C180C180C1898
:1037C000180C180C380E30063006700760036003C2
:1037D000C001C00100000000000000000000000067
:1037E00000000360C361C361C3616633663366333F
:1037F0006633663366336C1B6C1B6C1B2C1A3C1EC9
:10380000380E380E0000000000000000000000002C
:1038100000000FE00C7018303018700C600EC007FC
:1038200080038003C003E006700C301C18180C30B5
:103830000E6007E000000000000000000000000033
:10384000000003C006600C301C383818300C6006CD
:10385000E007C003800180018001800180018001B8
:103860008001800100000000000000000000000056
:103870000000FC7FFC7F006000300018000C000698
:1038800000038001C0006000300018000C0006003A
:10389000FE7FFE7F0000000000000000000000002E
:1038A0000000E003E0036000600060006000600072
:1038B0006000600060006000600060006000600008
:1038C00060006000600060006000E003E003000052
:1038D000000030003000600060006000C000C000E8
:1038E000C000C001800180018001000300030003CB
:1038F00000060006000000000000000000000000BC
:103900000000E003E00300030003000300030003E2
:10391000000300030003000300030003000300038F
:1039200000030003000300030003E003E0030000C2
:1039300000000000C001C0016003600360033006A6
:103940003006180C180C00000000000000000000F9
:103950000000000000000000000000000000000067
:103960000000000000000000000000000000000057
:103970000000000000000000000000000000000047
:103980000000FFFFFFFF000000000000000000003B
:1039900000000C000C000C000C000C000C000000DF
:1039A0000000000000000000000000000000000017
:1039B0000000000000000000000000000000000007
:1039C000000000000000000000000000F003F80705
:1039D0001C0C0C0C000FF00FF80C0C0C0C0C1C0F3A
:1039E000F80FF018000000000000000000000000C8
:1039F000000018001800180018001800D803F80F6D
:103A0000380C181818181818181818181818380C0E
:103A1000F80FD803000000000000000000000000C4
:103A2000000000000000000000000000C003F007DC
:103A3000300E180C1800180018001800180C300E62
:103A4000F007C003000000000000000000000000BC
:103A5000000000180018001800180018C01BF01F04
:103A6000301C181818181818181818181818301C9E
:103A7000F01FC01B0000000000000000000000005C
:103A8000000000000000000000000000C003F00F74
:103A9000300C1818F81FF81F180018003818301CC0
:103AA000F00FC00700000000000000000000000050
:103AB0000000800FC00FC000C000C000F007F0077A
:103AC000C000C000C000C000C000C000C000C000F6
:103AD000C000C00000000000000000000000000066
:103AE000000000000000000000000000E00DF80FE2
:103AF000180E0C0C0C0C0C0C0C0C0C0C0C0C180EEA
:103B0000F80FE00D000C0C0C1C06F807F00100008B
:103B1000000018001800180018001800D807F80F47
:103B2000381C1818181818181818181818181818F1
:103B30001818181800000000000000000000000025
:103B40000000C000C000000000000000C000C00075
:103B5000C000C000C000C000C000C000C000C00065
:103B6000C000C000000000000000000000000000D5
:103B70000000C000C000000000000000C000C00045
:103B8000C000C000C000C000C000C000C000C00035
:103B9000C000C000C000C000C000F80078000000F5
:103BA00000000C000C000C000C000C000C0C0C06AF
:103BB0000C038C01CC006C00FC009C018C030C03FA
:103BC0000C060C0C000000000000000000000000CB
:103BD0000000C000C000C000C000C000C000C000A5
:103BE000C000C000C000C000C000C000C000C000D5
:103BF000C000C00000000000000000000000000045
:103C00000000000000000000000000007C3CFF7E7F
:103C1000C7E383C183C183C183C183C183C183C11E
:103C200083C183C10000000000000000000000000C
:103C30000000000000000000000000009807F80FDE
:103C4000381C1818181818181818181818181818D0
:103C50001818181800000000000000000000000004
:103C6000000000000000000000000000C003F00F92
:103C7000300C181818181818181818181818300CAC
:103C8000F00FC00300000000000000000000000072
:103C9000000000000000000000000000D803F80F42
:103CA000380C181818181818181818181818380C6C
:103CB000F80FD803180018001800180018000000AA
:103CC000000000000000000000000000C01BF01F0A
:103CD000301C181818181818181818181818301C2C
:103CE000F01FC01B00180018001800180018000072
:103CF000000000000000000000000000B007F0031A
:103D000070003000300030003000300030003000F3
:103D10003000300000000000000000000000000043
:103D2000000000000000000000000000E003F003BD
:103D3000380E180C3800F003C007000C180C380EB1
:103D4000F007E00300000000000000000000000099
:103D5000000000008000C000C000C000F007F007B5
:103D6000C000C000C000C000C000C000C000C00053
:103D7000C0078007000000000000000000000000F5
:103D800000000000000000000000000018181818D3
:103D90001818181818181818181818181818381C7F
:103DA000F01FE0190000000000000000000000000B
:103DB0000000000000000000000000000C18180CBB
:103DC000180C180C300630063006600360036003E0
:103DD000C001C00100000000000000000000000061
:103DE000000000000000000000000000C141C141CF
:103DF000C3616363636363633636363636361C1CD1
:103E00001C1C1C1C00000000000000000000000042
:103E10000000000000000000000000001C38381CFA
:103E2000300C600660036003600360036006300CC2
:103E3000381C1C38000000000000000000000000DA
:103E400000000000000000000000000018303018E2
:103E500030187018600C600CE00CC006C0068003BF
:103E60008003800380018001C001F0007000000029
:103E7000000000000000000000000000FC1FFC1F0C
:103E8000000C000600038001C00060003000180034
:103E9000FC1FFC1F000000000000000000000000EC
:103EA000000000038001C000C000C000C000C000CE
:103EB000C00060006000300060004000C000C00032
:103EC000C000C000C000C00080010003000000006E
:103ED000000080018001800180018001800180015B
:103EE00080018001800180018001800180018001CA
:103EF000800180018001800180018001800100003B
:103F000000006000C000C0018001800180018001CC
:103F1000800100030003000600030001800180010E
:103F20008001800180018001C0006000000000006D
:103F30000000000000000000000000000000000081
:103F4000F010F81F080F0000000000000000000043
:103F50000000000000000000000000000000000061
:103F60000000000000000000010203040607080929
:103F70000400000800000000000000020001000032
:103F800010000000A43F00080000002044000000D2
:103F900014020008E83F000844000020CC0600009E
:103FA000300200080000FFFF0000000000000200D7
:103FB0000000000000000000000000000000000001
:103FC00000000000000000000000000000000000F1
:103FD00001040710140000001000000001000000A0
:083FE000000000000024F400C1
:04000005080001D915
:00000001FF
