:020000040800F2
:10000000B00F0020990200088F440008DB3C000874
:100010008D440008191600087D57000800000000F4
:10002000000000000000000000000000A7470008DA
:100030001B1600080000000091440008A9470008B2
:10004000B3020008B3020008B3020008B3020008BC
:10005000B3020008B3020008B3020008B3020008AC
:10006000B3020008B3020008B3020008B30200089C
:10007000B3020008B3020008B3020008B30200088C
:10008000B302000800000000B3020008B302000839
:10009000B3020008B3020008B3020008B30200086C
:1000A000B3020008B3020008B3020008B30200085C
:1000B00049480008B3020008B3020008B302000870
:1000C000B3020008B3020008B3020008B30200083C
:1000D000B302000881560008B3020008B30200080A
:1000E000B3020008B3020008B3020008B30200081C
:1000F000B3020008B3020008B302000800000000C9
:1001000000000000B302000800000000B302000875
:10011000B302000800000000B3020008B3020008A8
:10012000B3020008B3020008B3020008B3020008DB
:10013000B30200080000000000000000B302000845
:10014000B3020008B3020008000000000000000035
:10015000000000000000000000000000000000009F
:10016000000000000000000000000000B3020008D2
:10017000B3020008000000000000000000000000C2
:1001800000000000B30200080000000000000000B2
:10019000000000000000000000000000000000005F
:1001A0000000000000000000B3020008B3020008D5
:1001B000B3020008B3020008B30200080000000008
:1001C00000000000B3020008000000000000000072
:1001D000B3020008B302000800F002F800F04CF887
:1001E0000AA090E8000C82448344AAF10107DA4592
:1001F00001D100F041F8AFF2090EBAE80F0013F098
:10020000010F18BFFB1A43F001031847C47A00001E
:10021000E47A0000103A24BF78C878C1FAD85207AF
:1002200024BF30C830C144BF04680C607047000070
:100230000023002400250026103A28BF78C1FBD8EF
:10024000520728BF30C148BF0B607047662906F0CF
:10025000EA83642900F0CC80002070471FB506F0C7
:10026000DDFB00F061FC04000020002105F002FF2E
:10027000E0601FBD10B510BD00F056FD1146FFF740
:10028000EDFF05F0B5FE00F074FD03B4FFF7F2FFDB
:1002900003BC00F0B7FD000009488047094800474B
:1002A000FEE7FEE7FEE7FEE7FEE7FEE7FEE7FEE726
:1002B000FEE7FEE704480549054A064B7047000083
:1002C00039480008D9010008B0090020B00F00200B
:1002D000B00B0020B00B002053EA020C00F0698044
:1002E0002DE9F04B4FF00006002B1FBFB3FA83F54A
:1002F00003FA05F424FA05F65E4012BF1643B2FA7B
:1003000082F502FA05F4C5F120051EBF22FA05FCAC
:1003100044EA0C04203556EA044C4FEA144418BF52
:10032000641C4FF000084FF00009904271EB030C81
:1003300039D3002919BFB1FA81F701FA07F6B0FAEB
:1003400080F700FA07F6C7F120071EBF20FA07FC66
:1003500046EA0C062037B6FBF4FCA7EB0507103F76
:1003600007F01F0BCBF120060CFA0BFB2CFA06F65C
:1003700044BFB3460026202FA4BF5E464FF0000BBB
:100380005BEA060C08BF4FF0010B19EB0B09ABFB46
:10039000027C48EB0608C01B06FB02CC0BFB03CC1F
:1003A00071EB0C01C1E70B46024641464846BDE8E9
:1003B000F08B13B54FF000004FF00001AFF3008059
:1003C000BDE81C40704700000FB41CB5074B06AADF
:1003D0007B4469460090059800F08DFB002069463B
:1003E00000F09CFB1CBC5DF814FB000049070000FA
:1003F0002DE9F0410646002410687529314616A5FE
:1004000010D0AFF30080002802DA404213A507E0C5
:1004100031688A0701D512A502E0490704D511A564
:10042000012401E0AFF3008000210A2206F1240735
:1004300009E0B0FBF2FCB0FBF2F302FB1C00303031
:1004400078541846491C0028F3D123462A463046E2
:10045000BDE8F04100F0E2B8000000002D0000000F
:100460002B000000200000002DE9F0474FF0000AAB
:1004700089460446C0F820A02046E1688847002845
:1004800076D0252806D0D4E901219047206A401C67
:100490002062F1E7E168204600268847C4F81CA0E6
:1004A00005460027C4F818A02A2D09D0284605F0D3
:1004B0008EF938B304EB8708303DC8F8185019E0BE
:1004C00059F8041B204604EB87029161E1688847D4
:1004D000012F054618D1E069002820DA26F0200611
:1004E0001DE0D8F8180000EB800005EB4000303824
:1004F000C8F818002046E1688847054605F067F906
:100500000028EED1012F0AD02E2D08D12046E16817
:1005100088477F1C0546022F46F02006C4DBA069F1
:10052000002803DA404246F00106A061F00701D03E
:1005300026F010066C2D0AD0682D08D04C2D39D02D
:100540006A2D35D0742D35D07A2D33D016E0E16880
:100550002F4620468847B84205460AD16C2F27D03F
:100560004FF48060E168064320468847054605E071
:1005700027E06C2F1AD04FF4807006430DB3A5F11D
:100580004100192802D8203546F400664A4629461B
:10059000204626604E46FFF759FE80B101280BD059
:1005A000F61D26F0070000F1080965E74020E4E7A2
:1005B0008020D7E70020D5E706F104095CE728464C
:1005C00061E7206ABDE8F0874FF0000200B51346EE
:1005D00094469646203922BFA0E80C50A0E80C5063
:1005E000B1F12001BFF4F7AF090728BFA0E80C5014
:1005F00048BF0CC05DF804EB890028BF40F8042B0D
:1006000008BF704748BF20F8022B11F0804F18BF79
:1006100000F8012B70477047704770472DE9F0478D
:100620000D4699469246044600F124080168880662
:1006300004D5E06921F01001216000E00120A8420A
:1006400001DD471B00E00027A1697A1902EB0900D0
:10065000081AA0612078C00602D42046AFF30080BB
:10066000002608E0D4E901211AF806009047206A24
:10067000401C761C20624E45F4DB2078C0060AD56B
:100680002046AFF3008006E0D4E9012130209047F6
:10069000206A401C2062381EA7F10107F4DC07E045
:1006A000D4E9012118F805009047206A401C206217
:1006B000281EA5F10105F3DC2046AFF30080207869
:1006C000000602D50220BDE8F0870120FBE7704755
:1006D0002DE9FF4F0C461E464FF0FF378BB0D2E995
:1006E0000001DDF860800A908A46C1F30A5505B919
:1006F0003D46002108464FF00000BAF1000F00F41B
:10070000400005DA00EB80004FF4400101EA5000A0
:100710004FEA9059B9F1010F00DDB9460A9850EA45
:100720004A000ED044F61050A5F2FF3545432F1471
:10073000B8F1000F1ED07542291E1EDDC9F100025E
:100740001CE0B8F1010F4FF0000001D0302103E0B0
:10075000F24305E02154401CB042FBDB304600224E
:10076000002121540B99C1F80880C1E900200FB085
:10077000BDE8F08FBD1B6D1CDEE74A4600DA69421A
:1007800006A800F05BFA06AB93E8070003AB83E82A
:10079000070050460A9900F03CFB8DE80700A0F5E1
:1007A00000501F3800900398002D0ADD42F21F010F
:1007B0004A460844002303A90390684600F0A5FDBB
:1007C00009E0A0F500504A461F38002303A9039012
:1007D000684600F0AFFD8DE807000004000C03D070
:1007E0004FF0FF30410800E01046B8F1000F03D091
:1007F0000022009215461EE0751E05D400F098F9FF
:10080000303262556D1EF9D5B3460122084302D03D
:1008100000227F1C04E02078302801D100227F1EB6
:10082000002A099784D01DE0112D07DA00F080F925
:10083000303262556D1C50EA0102F5D1084302D0F6
:100840000098C8B10EE00021681E05E0235C625CE0
:1008500063542254401E491C8142F7DBAB46A81B5F
:10086000401E0990002004F80B000B98099AC0F86C
:100870000880C0E9002B7AE711264FF0000857E7FF
:100880002DE9F04F88460446D21D22F0070191B0B1
:10089000D1E90001CDE90A0104F071FF02460B988D
:1008A000C00F01D02D2007E02068810701D52B2043
:1008B00002E0202101EAC000032A099001D0072AA2
:1008C00005DB03464146204600F078F90BE120782D
:1008D000800601D5E06900E00620B8F1650F814689
:1008E00006D0B8F1660F18D0B8F1670F70D131E0BB
:1008F0000020B9F1110F009001DB112301E009F193
:1009000001030AAA01A90CA8FFF7E2FEDDE90C70B9
:10091000002609F10105834647E001204B4600907F
:100920004FF000470AAA01A90CA8FFF7D1FEDDE9A4
:100930000DB00C995D46002610B909F101000D18A3
:10094000B9EB050003D4C0F1FF3609F10105A5EBB1
:1009500009002BE0B9F1010F01DA4FF00109002085
:10096000B9F1110F0090484601DD112300E0034664
:100970000AAA01A90CA8FFF7ABFEDDE90C704D46F1
:1009800000268346207800070AD4AB4500DA5D468E
:1009900001A8012D04DD411911F8011C302907D0EF
:1009A0004F4502DA17F1040F04DA012082460FE006
:1009B0006D1EEEE7002F02DCED1B3E4403E0781CC9
:1009C000A84200DD7D1CB81B00F1010A4FF0004772
:1009D0002078000703D4AA4501DB4FF0FF3A00213D
:1009E000B7F1004F0DF143088DF8431024D00220D9
:1009F0002B23002F01DA7F422D230A21021EA0F1B2
:100A0000010000DC5FB197FBF1FC97FBF1F201FB09
:100A10001C7C17460CF1300C08F801CDEEE7A8F16C
:100A2000010003702188090501D5452100E06521F9
:100A3000A0F1010800F8011C09980FA9A1EB080713
:100A4000FF1D00B10120411901EBEA70A169384492
:100A5000081A401EA0612078C00602D42046AFF3D9
:100A60000080099828B1D4E901219047206A401CF0
:100A700020622078C00622D52046AFF300801EE019
:100A8000002E04DBB34502DD01A8805D00E03020CC
:100A9000D4E901219047206A401C2062761CAAF10B
:100AA00001005FEA000A0AD100F03EF8C068016860
:100AB000405CD4E901219047206A401C2062281E36
:100AC000A5F10105DCDC07E0D4E9012118F8010BF0
:100AD0009047206A401C2062381EA7F10107F3DC12
:100AE0002046AFF30080032011B041E601694A1CA3
:100AF00002610878704700B58FB0CDE9013100215F
:100B0000059105497944CDE9031011466846FFF780
:100B1000ABFC0FB000BD0000E5FFFFFF0A6802F864
:100B2000010B0A6070470000004870477009002000
:100B300030B5B0F10A024FEA900E71F100034EEAAF
:100B4000817EB0EB0E0061EB91014FEA101E4EEA80
:100B5000017E10EB0E0041EB11114FEA102E4EEA10
:100B6000016E10EB0E0041EB11214FEA104E4EEAE0
:100B7000014E10EB0E0041EB1141401841F1000114
:100B80004FEAD00040EA41704FEAD10110EB8005F6
:100B90004FEA810444EA907444EB01046D1944EB7C
:100BA0000404521BA3414FF0000348BF0A3200D592
:100BB00030BD401C41F1000130BD00002DE9F04185
:100BC0001F46044603260168072A01F4006004DB7F
:100BD00008B116A505E016A503E008B115A500E0CB
:100BE00015A521F010002060A069C01EA0610FB102
:100BF000401EA0612046AFF300804FB1D4E901212F
:100C000038469047206A401C2062C01C206206E0E3
:100C1000206AFAE7D4E9012115F8010B9047761E06
:100C2000F8D22046AFF30080BDE8F0814E414E007F
:100C30006E616E00494E4600696E66002DE9F04710
:100C4000814616468AB0354878440DC88DE80D00B7
:100C500032487844801C03AC0DC884E80D0041F68E
:100C60009B300844372190FBF1F290FBF1F5A5F1A0
:100C7000800501FB12041B3C02D56442012000E008
:100C80000020DFF898A080460027FA44AAF1BE0AA7
:100C90000EE0E0070AD03246684607EB4701012321
:100CA0000AEB810100F046FB8DE8070064107F1C11
:100CB000002CEED1194F7F44AE3F19E0E80715D064
:100CC00007EB04100DF1180A90E80E008AE80E00F8
:100CD000C068F04201D1981908903246012306A954
:100CE00003A800F027FB03AB83E807006D10641C2A
:100CF000002DE3D14FF0010332466946B8F1000FF1
:100D000003A802D000F001FB01E000F013FBC9E9E9
:100D10000001C9F808200AB0BDE8F0876C70000037
:100D200000487047500900207546FFF7F9FFAE46AE
:100D300005006946534620F00700854618B020B5E7
:100D4000FFF7B8FABDE820404FF000064FF000076B
:100D50004FF000084FF0000B21F00701AC46ACE863
:100D6000C009ACE8C009ACE8C009ACE8C0098D46D0
:100D7000704710B50446AFF300802046BDE8104030
:100D8000FFF783BA4FF0013C50F8042B51F8043BB5
:100D90009A4221D1A2EB0C03934313EACC1317D14F
:100DA00050F8042B51F8043B9A4215D1A2EB0C03E6
:100DB000934313EACC130BD150F8042B51F8043BA6
:100DC0009A4209D1A2EB0C03934313EACC13DBD074
:100DD0004FF00000704700BFD01A01BAB1FA81F19C
:100DE00001F0180122FA01F0CB40C1F12001DBB281
:100DF000C0B2C01A2CFA01F3D11A914311EAC311FF
:100E0000E6D1704701491820ABBEFEE7260002007C
:100E100070475FEA400C08BF91F0000F4FEA8C2347
:100E20004FEAC12243EA51514FEA1C5018BF00F566
:100E3000F0404FEA300018BF41F000415FEA6C5CBF
:100E400000F02980BCF1FF3F08BF40F080407047B0
:100E5000130C06BF12044FF0100C4FF0000C130ED1
:100E600004BF12020CF1080C130F04BF12010CF1A5
:100E7000040C930F04BF92000CF1020CD30F04BFBB
:100E800052000CF1010C11464FF00002A0F11F00BE
:100E9000A0EB0C00704711F0004F08BF704731F015
:100EA00000413FF4D5AF0B0C06BF09044FF0100C06
:100EB0004FF0000C0B0E04BF09020CF1080C0B0FD5
:100EC00004BF09010CF1040C8B0F04BF89000CF165
:100ED000020CCB0F04BF49000CF1010CCCF1200334
:100EE000A0EB0C0022FA03F302FA0CF241EA030130
:100EF00000F10100704720F07F4C80EA030023F0EE
:100F00007F47ACEB070303F57C5300F0004003F18F
:100F1000FF032DE980494FEA154B09B44FEA14430A
:100F200025EA0B4E24EA03480FF2042606EB1327AA
:100F300049083E785FEA320203FB0667C7F50007FF
:100F400007FB06F64FEA54374FEAD64606F102068B
:100F500007FB066CCCF1005C4FEA1C472CEA074CFF
:100F600007FB06F40CFB06F504EB15464FEA961654
:100F700034BF00204FF000404FEAD13706FB07FC9A
:100F80004FEA1C4C0CFB0BF7D21B03FB0CF761EB7D
:100F900007010CFB0EF7B0EB074072EB17420CFB9E
:100FA00008F734BFA2EB0742B2EB074261EB1741EF
:100FB0004FEA0C444FEA910706FB07FC4FEA1C4C32
:100FC0000CFB0BF7B0EBC74072EB573203FB0CF78F
:100FD00034BFA2EBC742B2EBC74261EB57310CFB07
:100FE0000EF7B0EBC70072EB57720CFB08F734BF7B
:100FF000A2EBC702B2EBC70261EB5771039F4FEA46
:10100000816141EA921104EBCC044FEAD1374FEAF7
:10101000826206FB07FC42EA90124FEA80604FEAC8
:101020001C4C0CFB0BF7D21B03FB0CF761EB07010D
:101030000CFB0EF7B0EB074072EB17420CFB08F706
:1010400034BFA2EB0742B2EB074261EB17414FEA14
:101050008C554FEA910704EB9C2406FB07FC4FEAF2
:101060001C4C0CFB0BF7B0EBC74072EB573203FB89
:101070000CF734BFA2EBC742B2EBC74261EB57316A
:101080000CFB0EF7B0EBC70072EB57720CFB08F7C6
:1010900034BFA2EBC702B2EBC70261EB577115EB8D
:1010A0004C254FEA816141EA92114FEA82624FEA90
:1010B000D13742EA901206FB07FC44F100044FEAE4
:1010C00080604FEA1C4C0CFB0BF7D21B03FB0CF7A8
:1010D00061EB07010CFB0EF7B0EB074072EB174218
:1010E0000CFB08F734BFA2EB0742B2EB074261EBFF
:1010F000174115EB1C154FEA813141EA92414FEA45
:10110000823242EA90424FEA80304FEA0C7644F154
:10111000000448EA03434EEA0B484FF0000EB2EBDE
:10112000080C71EB030724BF624639464EEB0E0EE6
:101130004FF0000B0018524149414BEB0B0BB2EB47
:10114000080C71EB03077BF1000B24BF62463946A4
:101150004EEB0E0E4FF0000B0018524149414BEB85
:101160000B0BB2EB080C71EB03077BF1000B24BFF8
:10117000624639464EEB0E0E51EA020718BF46F0A2
:10118000010616EB0E7655F1000254F1000103D56D
:10119000BDE88901BDE80088BDE88901BDE80048D7
:1011A000B619524141EB0101A3F101037047808060
:1011B0007F7E7D7C7B7A79787776767574737271B1
:1011C00071706F6E6E6D6C6C6B6A6A696868676669
:1011D00066656464636362616160605F5F5E5E5DFB
:1011E0005D5C5C5B5B5A5A5959585857575656556F
:1011F00055555454535352525251515050504F4FD1
:101200004F4E4E4D4D4D4C4C4C4B4B4B4A4A4A4920
:101210004949484848474747474646464545454463
:101220004444444343434342424242414141002BF0
:101230009C4630D477002BD01CB54FEA370703B457
:101240004FF010004FF01001BAF1000F06D0BCF1C2
:10125000000FDCBF40F0080040F008014FF0000034
:101260000FBCBDE810400BF1010BBBF1010F08BF33
:101270005FEA170722BF12F1010211F101014FF0DD
:10128000004143F1000300F0004043EA00007047D2
:10129000F9D35708D0E746EA064613F1400F4FEA64
:1012A00016461FDD13F1200FDFBF16430A4600214B
:1012B00020335B42BED0C3F1200746EA064602FA5D
:1012C00007F74FEA164646EA0706C3F1200722FA57
:1012D00003F201FA07F721FA03F14FF0000342EAA3
:1012E0000702A7E746EA020646EA06464FEA16461E
:1012F00046EA0106BCBF46EA0646360C4FF000033C
:101300004FF000024FF0000194E72DE9804C9A461F
:10131000934670B491E8380007C831EA400C48BFE2
:1013200034EA430C03D5FFF7E6FDFFF780FFF0BC7E
:10133000BDE8008C2DE9804C9A46934670B491E844
:10134000380007C810F0804F08BF13F0804F03D15A
:1013500000F005F8FFF76BFFF0BCBDE8008C20F053
:101360007F4780EA030023F07F4C07EB0C03A3F5D3
:101370007C5300F00040A3F1FE0392F0000F00F058
:10138000B38095F0000F00F077802DE901494FEA16
:1013900011404FEA144621EA004800FB06FC24EA0B
:1013A000064708FB06F607FB08F800FB07F718EBF3
:1013B00006484CEB164C4FEA124B18EB07484FEA25
:1013C00015464CEB174022EA0B4E0BFB06FC25EAB8
:1013D00006470EFB06F607FB0EFE0BFB07F71EEBA0
:1013E000064E4CEB164C4FF000061EEB074E4CEB36
:1013F000174B18EB0B0840F1000018EB0E0B58EBE5
:10140000000840F100008F1A4FF000013CBFC943B3
:10141000661B14BFB5EB040C00213CBFC943F61B8F
:101420004FEA17444EEA8E0E27EA04454FEA1C475E
:1014300004FB07622CEA074C05FB07F70CFB05F6DB
:1014400004FB0CFC16EB074642EB174216EB0C466E
:1014500042EB1C421BEB060658EB0202414146EAF6
:101460009E0601D5BDE80189B619524141EB010143
:10147000A3F10103BDE801894FEA14454FEA114782
:1014800024EA054621EA074C05FB07F406FB07F7AB
:101490000CFB06F105FB0CFC11EB074144EB174478
:1014A0004FEA124711EB0C4144EB1C4422EA074C73
:1014B00005FB07F206FB07F70CFB06F605FB0CFC29
:1014C00016EB074642EB174216EB0C4642EB1C4567
:1014D0006A1854F1000148BF7047B619524141EBF8
:1014E0000101A3F10103704795F0000F37D04FEAD7
:1014F00011424FEA144721EA024624EA074C02FB54
:1015000007F106FB07F70CFB06F402FB0CFC14EBDF
:10151000074441EB17414FEA154714EB0C4441EBEC
:101520001C4125EA074C02FB07F506FB07F70CFBFD
:1015300006F602FB0CFC16EB074645EB174516EBCF
:101540000C4645EB1C42121951F1000148BF70478F
:10155000B619524141EB0101A3F1010370474FEA73
:1015600014454FEA114724EA054621EA074C05FBDA
:1015700007F106FB07F70CFB06F24FF0000605FB30
:101580000CFC12EB074241EB174112EB0C4251EB02
:101590001C4148BF7047921841EB0101A3F10103C0
:1015A0007047000070B504460068816811F0010FB3
:1015B0002DD18168174A11421AD18168D54329403B
:1015C000491C816000F0F8FD06461BE0816811F0BF
:1015D000010F03D181682940491C816000F0ECFDB6
:1015E000801B02280ED920680068C043C00709D0BC
:1015F000E06D40F01000E065206E40F001002066D4
:10160000012070BD20680168C943C907DED10020F0
:1016100070BD00003F000080FEE77047002240F6EA
:10162000B83306E00021491C89B29942FBD3521C11
:1016300092B28242F6D3704772B6FEE72DE9F047C8
:10164000044690F858009CB00E464FF0000901285F
:1016500015D0012084F858000025179518952068AA
:101660004FF0A04840450ED1284F0097384602F071
:1016700035FD8246206802F031FD60B10EE00220A7
:101680001CB0BDE8F087E06D40F02000E06584F814
:1016900058500120F4E7BAF1000F09D0E06D40F096
:1016A0002000E0654FF0010984F858504846E7E70C
:1016B0001748326840F61F71002A826822F460429F
:1016C00016D094F8383042EA433273681A43826085
:1016D000D8F80820BB6802F0010203F001031A43A6
:1016E000E2D1B36832681A4383688B431A430BE034
:1016F0008260D8F80820BB6802F0010203F0010301
:101700001A43D1D182688A438260CDE7000100503C
:10171000000300502DE9F84F00270446009790F889
:101720005800DFF8E0930D46B846012811D0012695
:1017300084F85860206802F0CDFC60B1E06D40F0A4
:101740002000E0655FF0010784F858803846BDE866
:10175000F88F0220FBE7D5E900210C23206803EA7B
:1017600091131844036B01F01F014FF01F0C0CFA8A
:1017700001FCC2F3846223EA0C038A40134303632F
:10178000206802F0A7FC8246206802F09FFC5AEA1B
:1017900000003CD1AA6829682068B2F1004F37D018
:1017A00002F0A0FC2068416921F0004141612068FD
:1017B0006969C268C2F3C102520091402A69042AD1
:1017C00031D000EB82002B68026EDFF83CC303F0DF
:1017D000F84302EA0C020B431A4342F0004101664F
:1017E00020682A69A96900EB8200026E22F08072EB
:1017F0000A430266297F22682869012910D0002146
:1018000002EB8000026E22F000720A4302667DE065
:10181000002202F067FC2068416941F00041C5E701
:101820004FF00071ECE7002102F04AFC4003206811
:101830004FF0000172D002F043FC90FAA0F0B0FA31
:1018400080F1286842036ED090FAA0F0B0FA80F0E0
:10185000814204D100221146206802F052FC01218D
:10186000206802F02DFC400320684FF001015DD09C
:1018700002F026FC90FAA0F0B0FA80F1286842034A
:1018800059D090FAA0F0B0FA80F0814204D1002241
:101890000121206802F035FC0221206802F010FCD2
:1018A000400320684FF0020148D002F009FC90FA92
:1018B000A0F0B0FA80F12868420344D090FAA0F07A
:1018C000B0FA80F0814204D100220221206802F0A7
:1018D00018FC0321206802F0F3FB400320684FF05E
:1018E000030133D002F0ECFB90FAA0F0B0FA80F1E3
:1018F000286842032FD090FAA0F0B0FA80F081421D
:1019000004D100220321206802F0FBFB20688168DB
:1019100011F0010F22D0ACE000E004E002F0D0FBB7
:10192000C0F384618DE7C0F3846091E702F0C8FBE7
:10193000C0F38461A2E7C0F38460A6E702F0C0FBB5
:10194000C0F38461B7E7C0F38460BBE702F0B8FB83
:10195000C0F38461CCE7C0F38460D0E72A7B2968B8
:1019600050F8B03FC1F3120C23EA0C0302F0180C3C
:10197000664A22FA0CF20A4013430360E9684945BB
:1019800077D1286841031CD090FAA0F1B1FA81F117
:10199000491C01F01F0109294FEA403132D80029C2
:1019A00012D000BF90FAA0F1B1FA81F101F101016A
:1019B00001F01F0106FA01F609D100BFC0F38461EE
:1019C00009E0C0F38461E3E7C0F38461EEE790FAD5
:1019D000A0F1B1FA81F101F1010101F01F0146EA24
:1019E000816102D1C0F3846003E090FAA0F0B0FA04
:1019F00080F000F1010000F01F0000EB400041EA20
:101A0000005132E000290ED090FAA0F1B1FA81F134
:101A100001F1010101F01F0106FA01F606D100BF34
:101A2000C0F3846106E0C0F38461F1E790FAA0F1AD
:101A3000B1FA81F101F1010101F01F0146EA816172
:101A400002D1C0F3846003E090FAA0F0B0FA80F015
:101A500000F1010000F01F002D4A00EB400002EBF6
:101A6000005041EA000141F00071AA68206802F0CC
:101A700039FB28482A6802423FF466AE264881684E
:101A8000264B01F0E0719A4202D0254B9A421CD1BC
:101A90000B021AD42268B2F1A04F7FF455AE8268CF
:101AA00041F4000122F0E0720A4382601D481E49A1
:101AB0000068B0FBF1F0401C00EB4000800000E04B
:101AC000401E00900028FBD13EE6184D184BAA425C
:101AD00007D1CD0105D422689A42F5D041F080713A
:101AE00009E0144DAA42EFD14A02EDD422689A428D
:101AF000EAD041F48001826822F0E0720A438260F9
:101B000022E6000000007F4000F0FF03FFFF070017
:101B1000000020FE0000088000030050000021C3E8
:101B20001000C09050000020400D0300000052C77C
:101B300000010050000084CB0068006C704700007A
:101B4000F8B54FF0000504002E46009502D0E06D78
:101B500010B107E00120F8BD204600F0EFF826663E
:101B600084F8586020688168C1F3407119B18168B8
:101B70006A4A1140816020688168C1F3007189B9A7
:101B80008168674A114041F080518160654866492B
:101B90000068B0FBF1F04000801C00E0401E0090A7
:101BA0000028FBD120688168C1F3007141B9E16D63
:101BB00041F01001E165216E41F00101216601252E
:101BC00002F088FAE16DC90600D430B1E06D40F052
:101BD0001000E06501252846F8BDE06D20F4807016
:101BE00040F00200E0652068806810F0010F11D11C
:101BF0004FF0A04080684D4900F00100896801F075
:101C00000101084306D14A486168826822F47C12C7
:101C10000A438260E168E06B627F0843A16841EAA1
:101C20004231084394F8241040EA0140012904D1CC
:101C3000218D404A02EB41410843E16A29B101F498
:101C40007871226B014342EA01002168CA683A4B6D
:101C50001A400243CA6020680169626B21F040614A
:101C600011430161206802F035FA0646206802F04F
:101C70002DFA30432ED1207F94F83810800340EAAB
:101C800041022068C16844F2020399431143C160D4
:101C900020690028206801690AD041F4803101617F
:101CA000206850F8C01F22696FF30D01114307E04F
:101CB00021F480310161206850F8C01F6FF30D01DD
:101CC000016094F8400001280CD02068016921F0DF
:101CD00001010161606901282068016B21F00F0199
:101CE00011D013E0D4E911010843D4E913121143D0
:101CF000084321680A6940F2FC739A43104340F09C
:101D000001000861E6E7226A521E11430163E06D9B
:101D100020F0020040F00100E0655CE7C0FFFF5FDB
:101D2000C0FFFF7F50000020400D03000001005065
:101D3000000300500000FEFF0740F0FFF0B587B041
:101D4000044614216846FEF73FFC214B2668002418
:101D50001A6803251F482049521CB6F1A04F06D02F
:101D60001E4FBE4231D11A60012A16D01DE01A6002
:101D7000012A07D1CA6C42F40052CA64CA6C02F448
:101D800000520592CA6C42F00202CA64C96C01F0AA
:101D9000020105914FF4805111E0CA6C42F40052E7
:101DA000CA64CA6C02F400520592CA6C42F0020284
:101DB000CA64C96C01F0020105914FF40041CDE9FC
:101DC00000150294694600F009F907B0F0BD000063
:101DD00038000020000400480010024000010050BC
:101DE0002DE9F04104463848806800F01F0520685E
:101DF00002F070F918B102210846BDE8F08194F8AC
:101E0000580001280CD0012084F858002046FFF724
:101E1000C9FB01004FF0000304D084F85830EBE711
:101E20000220EAE7E06D40F60162904340F48070E2
:101E3000E065264A20684FF0A046904201D137461F
:101E400000E00746874200D01DB9E76D27F48017F0
:101E5000E765E76DFF0404D5276E27F006072766C0
:101E600000E023661C27076084F858302068904201
:101E700001D1334600E00346834215D0A5B1052DBC
:101E800012D0092D10D0E36D43F48013E365904226
:101E900000D13046C0688001AED5E06D20F400501E
:101EA00040F48050E065A7E7C268920105D5E26D75
:101EB00022F4005242F48052E2658268044B1A40D8
:101EC000121D826098E700000003005000010050DE
:101ED000C0FFFF7F10B590F8253000210122022BB2
:101EE00003D00421C163012122E003681C6824F0AF
:101EF0000E041C60836C1C6824F480741C600368EE
:101F00001C6824F001041C6090F84430046C03F059
:101F10001F0302FA03F36360D0E913345C60436D7E
:101F200033B11C6824F480741C60D0E916345C6002
:101F300080F82520002280F82420084610BD70B5C6
:101F400090F82520002401212346022A07D00422EC
:101F5000C26380F8251080F82430012429E002684B
:101F6000156825F00E0515600268156825F0010555
:101F70001560826C156825F48075156090F8442012
:101F8000056C02F01F0201FA02F26A60D0E9132523
:101F90005560426D32B1156825F480751560D0E941
:101FA0001625556080F8251080F82430816B01B12A
:101FB0008847204670BD000070B5044600F0FCF86C
:101FC0000546601C02D004484068044400F0F4F860
:101FD000401BA042FAD370BD440000202DE9FC4F05
:101FE000DFF8A0A1002301250AF1040B03244FF020
:101FF0000F0C0BF1040EBDE005FA03F632406FD072
:102000004F68012F05D0022F03D0112F01D0122FBE
:1020100017D1D0F808905F0004FA07F829EA0809F8
:102020000097D1F80C8008FA07F848EA0908C0F8C8
:1020300008804768B7430E79C6F300169E403E43BA
:102040004660C6684FEA430804FA08F7BE430197A2
:102050008F6807FA08F73743C7604E68022E01D031
:10206000122E13D1DE0800EB86060096366A5F0753
:10207000FF0E0CFA07F926EA0906D1F8109009FAC2
:1020800007F949EA0609009EC6F820900668019FF4
:10209000BE430F7907F0030707FA08F737430760D5
:1020A0004E68F60065D5384E376E47F00107376643
:1020B000366E23F0030706F001060096334E3E44C9
:1020C000B146B6689F074FEA17780CFA08F7BE4387
:1020D000B0F1904F05D02E4FB84204D1012717E040
:1020E00047E0002714E02B4FB84201D102270FE050
:1020F000294FB84201D103270AE0284FB84201D145
:10210000042705E0264FB84201D1052700E0062745
:1021100007FA08F73743C9F80870DAF8006057463D
:10212000D1F8048096435FEAC83800D516433E6074
:10213000DBF800605F46D1F8048096435FEA883898
:1021400000D516433E60DEF800607746D1F8048083
:1021500096435FEAC82800D516433E60094F0C3706
:102160003E68D1F8048096435FEA882800D516437C
:102170003E605B1C0A6832FA03F67FF43DAFBDE8AF
:10218000FC8F0000000401400010024000000140EC
:102190000004004800080048000C004800100048F7
:1021A000001400480069084000D0012070470AB1BF
:1021B0008161704781627047014880687047000004
:1021C00044000020024881684268114481607047E1
:1021D0004400002010B50024032000F073F80F2005
:1021E00000F008F808B1012401E000F025F82046CD
:1021F00010BD000070B50E4E05460024706898B101
:102200004FF47A71B1FBF0F00A490968B1FBF0F0C4
:1022100000F064FD40B9102D06D200222946501E60
:1022200000F030F8356000E00124204670BD000069
:1022300044000020500000200A4882B0016E41F0A6
:1022400001010166016E01F001010091816D41F013
:1022500080518165806D00F08050009002B000F0E8
:10226000A1B8000000100240002809DB00F01F02A6
:10227000012191404009800000F1E020C0F80011E8
:1022800070470000F0B40E4B1B680C46C3F30223EA
:10229000C3F10705042D00D90425191D072901D212
:1022A000002300E0DB1E012606FA05F1491E21404D
:1022B00099409E40761E16403143F0BC03F077BA39
:1022C0000CED00E0064900F0070208684FF6FF0336
:1022D000184040EA0220034A10430860704700009B
:1022E0000CED00E00000FA052B492C4B0A68322166
:1022F0004A432B4940B1B0F5007F086829D020F44B
:10230000C06040F480602CE00868C0F341200228DF
:1023100004D051F8800F20F4807022E0D1F88000C2
:1023200020F48070C1F88000086820F4C06040F498
:1023300000700860B2FBF3F0401C00E0401E4A69E8
:10234000520501D50028F9D1486940050AD5032076
:102350007047C0F34120022806D051F8800F40F4A6
:102360008070086000207047D1F8800040F48070D1
:10237000C1F88000086820F4C06040F40070086074
:10238000B2FBF3F0401C00E0401E4A695205DBD569
:102390000028F9D1D8E700005000002040420F008B
:1023A000007000400248816841F4804181607047BC
:1023B000007000402DE9F8430446006800269D4D5A
:1023C00000035ED5A86D0027C00008D4A86D40F0BA
:1023D0008050A865A86D012700F080500090DFF8BC
:1023E0005892D9F8001041F48071C9F80010FFF735
:1023F000E3FE804606E000BFFFF7DEFEA0EB08002C
:1024000002282BD8D9F80000C005F5D5D5F89000E2
:1024100010F4407014D0216C814211D0D5F8900096
:10242000D5F8901020F4407041F48031C5F8901038
:10243000D5F8901021F48031C5F89010C5F89000BF
:10244000C00711D0FFF7B8FE804641F2883907E097
:10245000FFF7B2FEA0EB0801494501D903260BE0C6
:10246000D5F890008007F3D5D5F89000216C20F4C2
:1024700040700843C5F890001FB1A86D20F080504F
:10248000A8652078C00707D0D5F88800616820F0DB
:1024900003000843C5F888002078800707D5D5F8E1
:1024A0008800A16820F00C000843C5F88800207857
:1024B000400707D5D5F88800E16820F030000843D0
:1024C000C5F888002078000707D5D5F8880021696D
:1024D00020F0C0000843C5F888002078800607D5A2
:1024E000D5F88800616920F440600843C5F8880089
:1024F0002078400607D5D5F88800A16920F440501F
:102500000843C5F888002078000607D5D5F888006C
:10251000E16920F440400843C5F888002088C005E0
:1025200007D5D5F88800216A20F440300843C5F863
:1025300088002088800507D5D5F88800616A20F4D6
:1025400040200843C5F88800208840050FD5D5F8FD
:102550008800A16A20F440100843C5F88800A06AEA
:10256000B0F5801F03D1E86840F48010E86020884F
:1025700000050FD5D5F88800E16A20F44000084333
:10258000C5F88800E06AB0F5800F03D1E86840F430
:102590008010E8602088C0040FD5D5F88800216B32
:1025A00020F040700843C5F88800206BB0F1807FB0
:1025B00003D1E86840F48010E86020884FF00061A3
:1025C00080040ED5D5F88800626B20F0406010437F
:1025D000C5F88800606B884203D1E86840F4801039
:1025E000E860208840040ED5D5F88800A26B20F062
:1025F00040601043C5F88800A06B884203D1E868AA
:1026000040F48010E860208800040FD5D5F88800D9
:10261000E16B20F040500843C5F88800E06BB0F152
:10262000805F03D1E86840F48030E8603046BDE860
:10263000F883000000100240007000402DE9F047D0
:102640000E4605004FF0000725D0DFF8AC81D8F822
:10265000000000F00F00B0420CD2D8F8001021F0BA
:102660000F013143C8F80010D8F8000000F00F0047
:10267000B04210D12968614CC80741F2883A5AD05B
:102680006868DFF87C91032808D0022820682DD0E4
:10269000400500282CDB0120BDE8F0872068800180
:1026A000F9D5E06800F00302E068C0F30310401CB5
:1026B000032A19D0534A00BFB2FBF0F0E268C2F31C
:1026C00006225043E268C2F34162521C5200B0FB42
:1026D000F2F0484517D9A06810F0F00F0CD0880729
:1026E00011D5A86840B10EE0474AE5E78003D0E77E
:1026F00000F0B6F8484506D9A06820F0F00040F098
:102700008000A0608027A068696820F0030008436B
:10271000A060FFF751FD814606E000BFFFF74CFDCA
:10272000A0EB090151453AD8A068696800F00C0097
:10273000B0EB810FF2D12868810714D5400703D58B
:10274000A06840F4E060A0602878000705D5A06884
:1027500020F4605040F4E060A060A068A96820F018
:10276000F000084304E0802F03D1A06820F0F000BF
:10277000A060D8F80010404601F00F01B14216D910
:10278000016821F00F0131430160FFF715FD074695
:1027900007E000BFFFF710FDC11B514501D9032021
:1027A0007AE7D8F8000000F00F00B042F2D12878A4
:1027B000400705D5A068E96820F4E0600843A06000
:1027C0002878000706D5A068296920F4605040EAFF
:1027D000C100A06000F044F8A1680C4AC1F30311E5
:1027E000515C01F01F01C8400949086009480068B0
:1027F000BDE8F047FFF7FEBC002002400010024099
:1028000000B4C4040024F40000366E01227C0008E9
:1028100050000020440000200548064900688968EF
:10282000054AC1F30221515C01F01F01C840704705
:102830005000002000100240327C00080548064984
:1028400000688968054AC1F3C221515C01F01F018B
:10285000C84070475000002000100240327C000841
:10286000184910B58868C0F381021748012A0BD0B7
:102870008A68164BC2F38102022A06D08A68C2F324
:102880008102032A03D0002010BD184610BDCA687B
:1028900002F00304CA68C2F30312521C032C02D0D4
:1028A000B0FBF2F001E0B3FBF2F0CA68C968C2F312
:1028B00006225043C1F34161491C4900B0FBF1F0CD
:1028C00010BD0000001002400024F40000366E012C
:1028D0002DE9F84304007AD02078FA4DC00747D09C
:1028E000A868E96800F00C0001F003010C2802D090
:1028F000082817D001E0032914D06068B0F5803FA4
:1029000017D0B0F5A02F286817D020F480302860A9
:10291000286820F4802028606068E0B1FFF74CFC54
:10292000064614E02868800322D560680028D2D0CB
:102930001EE0286840F48030EDE740F480202860F5
:10294000F7E700BFFFF738FC801B642870D82868C1
:102950008003F7D50CE0FFF72FFC064605E000BF2B
:10296000FFF72AFC801B6428F0D828688003F7D47E
:10297000207880074CD5A868E96800F00C0001F0C9
:1029800003010C2802D004280DD001E002290AD04E
:10299000E068002828682BD040F480702860FFF79A
:1029A0000BFC064619E02868400502D5E0680028BF
:1029B00091D06868217C20F0FE4040EA01606860A8
:1029C000C1480068FFF716FC002800D120E076E13E
:1029D000FFF7F2FB801B0228B8D828684005F7D51E
:1029E0006868217C20F0FE4040EA016068600FE0EA
:1029F00020F480702860FFF7DFFB064605E000BF8B
:102A0000FFF7DAFB801B0228A0D828684005F7D41E
:102A10002078000729D560690028D5F8940013D0E4
:102A200040F00100C5F89400FFF7C6FB064606E03B
:102A300090E000BFFFF7C0FB801B022886D8D5F8C6
:102A400094008007F6D510E020F00100C5F894004E
:102A5000FFF7B2FB064604E0FFF7AEFB801B02283F
:102A600078D8D5F894008007F6D42078400761D54F
:102A7000A86D0026C00008D4A86D40F08050A8655D
:102A8000A86D012600F08050009090480168C905AB
:102A900011D40168804641F480710160FFF78CFB1E
:102AA000074604E0FFF788FBC01B022852D8D8F87D
:102AB0000000C005F6D5A068012815D00528D5F876
:102AC000900016D020F00100C5F89000D5F89000D5
:102AD00020F00400C5F89000A06841F28838B8B131
:102AE000FFF76AFB07460EE0D5F8900040F00100C2
:102AF000F0E740F00400C5F89000F5E7FFF75CFB55
:102B0000C11B414526D8D5F890008007F6D50CE0CA
:102B1000FFF752FB074604E0FFF74EFBC11B4145A0
:102B200018D8D5F890008007F6D41EB1A86D20F013
:102B30008050A8652078800629D5A0690028D5F89E
:102B4000980013D040F00100C5F89800FFF734FB5F
:102B5000064606E077E000BFFFF72EFB801B022849
:102B600077D8D5F898008007F6D510E020F001005E
:102B7000C5F89800FFF720FB064604E0FFF71CFBB2
:102B8000801B022865D8D5F898008007F6D4E06944
:102B9000F0B3A968C1F38101032961D00228286834
:102BA00020F0807028600BD0E86820F00300E86017
:102BB000E86847490840E860FFF7FEFA04464BE042
:102BC000FFF7FAFA064604E0FFF7F6FA801B022840
:102BD0003FD828688001F7D4F4E908016FF00F02AC
:102BE00002EB01110843218A5204490802EB4151CA
:102BF000A26841EA02210843217D4FF07E42490844
:102C000002EB41610843217B40EAC160E96800E0D2
:102C100062E0304A11400843E860286840F0807064
:102C20002860E86840F08070E860FFF7C5FA044665
:102C300005E000BFFFF7C0FA001B022809D828688A
:102C40008001F7D548E004E0FFF7B6FA001B022840
:102C500002D90320BDE8F88328688001F4D43BE062
:102C60000128F7D0E868226A00F00301914226D1DA
:102C7000616A00F0F0020901103991421FD1A26A85
:102C800000F4FE41B1EB022F19D194F82C2000F092
:102C90007841B1EBC26F12D1218E00F4C002490815
:102CA0004905A1F50011914209D194F8341000F0C2
:102CB000C06049084906A1F1007181420CD0012091
:102CC000C8E70000001002404400002000700040EF
:102CD000FFFFEEFE0C809F010020BBE710B5401EF9
:102CE000B0F1807F01D3012010BD4FF0E02460617E
:102CF0000F21601702F05BFD0020A061072020611A
:102D0000002010BD7047704770477047704770478C
:102D1000F0B590F83C20012A3AD0012580F83C50CB
:102D2000022280F83D2003685A689C68194E1A4FA9
:102D3000B34201D0BB4204D122F4700C4A6842EA8B
:102D40000C02DFF858C002EA0C02D1F800C04CEACD
:102D5000020CC3F804C00268B2420DD0B2F1804F39
:102D60000AD00F4B9A4207D00E4B9A4204D0BA4277
:102D700002D00D4B9A4204D1896824F08003194394
:102D8000916080F83D50002180F83C100846F0BD6D
:102D90000220F0BD002C0140003401408FFFFFFDF8
:102DA000000400400008004000400140704710B59A
:102DB000040003D094F83D0010B107E0012010BDDD
:102DC000002084F83C00204600F022F8022084F81D
:102DD0003D00211D206801F03DFD012084F84800E0
:102DE00084F83E0084F83F0084F8400084F84100F5
:102DF00084F8420084F8430084F8440084F84500D5
:102E000084F8460084F8470084F83D00002010BD97
:102E100010B586B0044614216846FDF7D5FB21683D
:102E20001C48B1F1804F0CD01B4A914207D1816DF3
:102E300041F002018165806D00F00200059006B04E
:102E400010BD816D41F001018165816D01F00101CD
:102E50000591C16C41F00101C164C06C694600F08C
:102E6000010005904FF400400090022001900020E6
:102E700002900390012004904FF09040FFF7AEF8CD
:102E8000002211461C20FFF7FDF91C20FFF7ECF98A
:102E9000D5E70000001002400004004070B5044671
:102EA00090F83C00012814D0012584F83C50022001
:102EB00084F83D0022689068344B184020F47F402D
:102EC00090600868702827D010DC10F00F0F03D036
:102ED0004AE04FF0020070BD4FEA2012072A43D2A9
:102EE000DFE802F05050505048313900284BC21AE8
:102EF000984247D009DCB0F5805F35D0B0F5005F6F
:102F000015D0B0F1101F2FD13CE0102A3AD0202A62
:102F100038D0502A28D135E0CB68D1E9012120688A
:102F200001F0FDFC2068816841F0770109E0CB6881
:102F3000D1E90121206801F0F2FC2068816841F4A8
:102F40008041816010E0CA684968206801F092FE03
:102F50005021206806E0CA684968206801F0D2FE66
:102F60006021206801F0E6FC84F83D50002084F8E0
:102F70003C0070BDCA684968206801F07BFE4021B2
:102F80002068EFE7226801461046EBE788FFCEFF96
:102F90002000100010B50446002100F0CEFB22688E
:102FA0000021516206498C4204D10649B1FBF0F080
:102FB00005490862BDE810400021014800F0C0B892
:102FC0002808002040420F00000000202DE9F041B9
:102FD000054690F83C000C46012836D0012085F8C3
:102FE0003C008AB3042A42D02868082A51D0D4E988
:102FF0000023E168066A26F480560662C669076AFD
:1030000026F4407646EA03234FF6FF7606EA0131BE
:1030100023F4704319434FF4204627F4204306EA73
:1030200002321A43C16102622868C16921F4406119
:10303000C1612868C169A26841EA0221C16100201A
:1030400085F83C00BDE8F08101E00220FAE7D4E910
:103050000012E368286801F01FFE2868816921F0EA
:103060000C01816128688169A26811430FE0D4E9ED
:103070000012E368286801F057FE2868816921F48E
:103080004061816128688169A26841EA0221816109
:10309000D5E7D4E90027267B016A21F4807101621B
:1030A000C169036A21F00301394321F0F0073107B8
:1030B0004FF4206647EA116123F4206306EA0222F6
:1030C0001A43C16102622868C16921F00C01C16123
:1030D0002868C169A2681143B0E710B5040003D0A5
:1030E00094F83D0010B107E0012010BD002084F8E5
:1030F0003C00204600F022F8022084F83D00211D0B
:10310000206801F0A7FB012084F8480084F83E0005
:1031100084F83F0084F8400084F8410084F84200BD
:1031200084F8430084F8440084F8450084F846009D
:1031300084F8470084F83D00002010BD704700006F
:1031400010B5044679B1042912D0082915D00C29EC
:1031500018D0102919D094F8430000BF94F84720E4
:10316000012817D114E094F83E0094F84420F7E7C2
:1031700094F83F0094F84520F2E794F8400094F862
:103180004620EDE794F84100E8E794F84200E5E7CF
:10319000012A01D0012010BD022071B1042915D0EF
:1031A00008291CD00C2948D0102949D084F84300A4
:1031B00084F847000C291BD145E084F83E0084F8D0
:1031C00044002068C26842F0020210E084F83F0028
:1031D00084F845002068C26842F0040207E084F8E1
:1031E000400084F846002068C26842F00802C260CD
:1031F0000122206801F086FB1549206888420ED024
:10320000B0F1804F0BD01349884208D01249884250
:1032100005D01249884202D01149884207D18168FD
:10322000104A1140062906D0B1F5803F03D001684D
:1032300041F001010160002010BD84F84100B7E7B2
:1032400084F84200B4E72068C26842F01002CEE77A
:10325000002C014000040040000800400034014000
:10326000004001400700010070B504460068016994
:103270004FF00005C943890715D4C168C9438907C0
:1032800011D4E91E01610120207720688069800740
:10329000204602D0FFF77EFE04E000F00BF9204646
:1032A00000F0CAF9257720680169C943490717D496
:1032B000C168C943490713D46FF0040101610220BA
:1032C00020772068806910F4407F204602D0FFF705
:1032D00061FE04E000F0EEF8204600F0ADF925773D
:1032E00020680169C943090716D4C168C9430907A1
:1032F00012D46FF008010161042020772068C069B2
:103300008007204602D0FFF745FE04E000F0D2F827
:10331000204600F091F9257720680169C943C90664
:1033200017D4C168C943C90613D46FF010010161F5
:10333000082020772068C06910F4407F204602D022
:10334000FFF728FE04E000F0B5F8204600F074F91D
:10335000257720680169C943C90708D1C168C943F5
:10336000C90704D1891E0161204600F0E5F92068F3
:103370000169C943090609D4C168C943090605D4CE
:103380006FF0800101612046FFF7BDFC20680169F4
:10339000C943C90509D4C168C943090605D46FF4F6
:1033A000807101612046FFF7ADFC20680169C943C7
:1033B000490609D4C168C943490605D46FF04001E4
:1033C0000161204600F0CEF920680169C9438906F1
:1033D00009D4C168C943890605D46FF02001016191
:1033E0002046FFF791FC20680169C943C90209D44E
:1033F000C168C943C90205D46FF480110161204638
:10340000FFF784FC20680169C943890209D4C168B7
:10341000C943890205D46FF4001101612046FFF70A
:1034200074FC20680169C943490209D4C168C943D1
:10343000490205D46FF4800101612046FFF767FC63
:1034400020680169C94309020BD4C168C943090254
:1034500007D46FF4000101612046BDE87040FFF71A
:10346000A5BC70BD10B586B0044614216846FDF7B2
:10347000ABF80E492068884215D10D48C16C41F067
:103480000101C164C06C002100F0010005908020A2
:1034900000900220CDE90101CDE9031069464FF00B
:1034A0009040FEF79BFD06B010BD000000040040F8
:1034B00000100240704770B5044690F83C000D467D
:1034C00001280BD0012084F83C000C2A45D007DCF1
:1034D0005AB1042A1BD0082A78D12CE0022070BDF2
:1034E000102A4ED0142A71D15DE0206801F02CFA28
:1034F0002068816941F0080181612068816921F0BB
:1035000004018161206881692A69114311E0206802
:1035100001F068FA2068816941F4006181612068E6
:10352000816921F480618161206881692A6941EAA9
:10353000022181614AE0206801F09CFA2068C1699B
:1035400041F00801C1612068C16921F00401C16135
:103550002068C1692A69114311E0206801F0D2FA9C
:103560002068C16941F40061C1612068C16921F42A
:103570008061C1612068C1692A6941EA0221C16193
:1035800024E0206801F006FB2068016D41F008018D
:1035900001652068016D21F0040101652068016D5D
:1035A0002A69114311E0206801F02CFB2068016DAD
:1035B00041F4006101652068016D21F480610165BD
:1035C0002068016D2A6941EA02210165002084F822
:1035D0003C0070BD10B5040003D094F83D0010B15C
:1035E00007E0012010BD002084F83C00204600F0D8
:1035F00022F8022084F83D00211D206801F02AF9FC
:10360000012084F8480084F83E0084F83F0084F8E4
:10361000400084F8410084F8420084F8430084F8B4
:10362000440084F8450084F8460084F8470084F894
:103630003D00002010BD70477047000030B50446C3
:10364000022269B1042912D0082917D00C291CD0F4
:10365000102921D094F84300012824D0012030BD46
:1036600094F83E000128F9D184F83E201DE094F83A
:103670003F000128F2D184F83F2016E094F8400082
:103680000128EBD184F840200FE094F84100012894
:10369000E4D184F8412008E094F842000128DDD10B
:1036A00084F8422001E084F843200122206801F0E0
:1036B00029F9194B20681949194A984209D08842BA
:1036C00007D0904205D0174DA84202D0164DA8420F
:1036D00003D1456C45F400454564206898420CD000
:1036E000B0F1804F09D0114B984206D0104B984250
:1036F00003D0884201D0904207D181680D4A114021
:10370000062906D0B1F5803F03D0016841F00101E0
:103710000160002030BD0000002C01400034014059
:1037200000400140004401400048014000040040C6
:10373000000800400700010070470246002041B128
:10374000042909D008290AD00C2901D11068006C7D
:1037500070471068406B70471068806B7047106846
:10376000C06B7047704790F88010012918D0012174
:1037700080F880102421C0F8841050F8641B0A6877
:103780000B6823F001030B6022F00051002202605D
:1037900050F8643C1960202101620277104670479E
:1037A000022070477047704770B5044690F880005B
:1037B00001281DD0012084F880002420C4F8840052
:1037C00020680568026822F00102026020688268B1
:1037D00022F060620A438260204601F0C1FA20684C
:1037E00005602020C4F88400002084F8800070BDAB
:1037F000022070BD70B5044690F8800001281DD0ED
:10380000012084F880002420C4F884002068056822
:10381000026822F0010202602068826822F06042A1
:103820000A438260204601F09BFA20680560202050
:10383000C4F88400002084F8800070BD022070BDB0
:1038400070477047704700002DE9F0410368044657
:10385000D86919689A6840F60F0528424FF00005AC
:1038600009D186067ED501F0200602F080573E433E
:1038700078D0216FFFE0924E924F16400F403743B1
:1038800070D0C70709D0CF0507D501271F62D4F82C
:103890008C3043F00103C4F88C3083070AD5D3077A
:1038A00008D0276802233B62D4F88C3043F004032D
:1038B000C4F88C3043070AD5D30708D027680423FF
:1038C0003B62D4F88C3043F00203C4F88C30030719
:1038D0000CD501F02003334308D026680823336257
:1038E000D4F88C3043F00803C4F88C3003050BD5B2
:1038F0004B0109D526684FF400633362D4F88C304D
:1039000043F02003C4F88C30D4F88C30002B34D032
:10391000800609D501F0200002F08051084303D051
:10392000216F09B120468847D4F88C002168896846
:10393000490602D410F0280F21D0204601F0D0FA19
:1039400020688168490615D5816821F040018160B1
:10395000E06F78B15C498163E06FFEF7F0FA002810
:103960000BD000E011E0E06F816B00E02046BDE885
:10397000F04108472046FFF765FFBDE8F08120468B
:10398000FFF760FFC4F88C50F7E7E76E2026012FA1
:103990005CD1C7065AD5CF0658D5102018622068CA
:1039A000816849062FD5E26F116849680904090C3E
:1039B000E3D0B4F85C308B42DFD9A4F85E10116814
:1039C0000968890618D4016821F4807101602068B3
:1039D000816821F0010181602068816821F0400147
:1039E0008160C4F88860E5662068016821F01001F4
:1039F0000160E06FFEF76EFAB4F85C00B4F85E1098
:103A0000401A81B21EE0B4F85C10B4F85E20891A46
:103A1000B4F85E2089B2002AAFD00029ADD0026888
:103A200022F49072026020688268254BDB431A40C2
:103A30008260C4F88860E56625672068026822F025
:103A4000100202602046FFF7ADFE96E7C70209D5D7
:103A5000570207D54FF4801018622046BDE8F041A8
:103A6000FFF7EFBE07060AD501F0800702F4000257
:103A7000174304D0616F00297FF478AF7DE74206D9
:103A80000CD54A060AD51968204621F04001196074
:103A9000C4F88460656700F01FF96EE7020206D57E
:103AA0004A0004D52046BDE8F041FFF7C9BEC00179
:103AB000CBD50029C9DA2046BDE8F041FFF773BE37
:103AC0000100001020010004CD4E000810B50400D4
:103AD00003D0D4F8840010B107E0012010BD00200D
:103AE00084F88000204600F027F82420C4F88400E1
:103AF0002068016821F001010160204601F0C8FB47
:103B00000128EBD0A06A10B1204601F04BF92068E3
:103B1000416821F4904141602068816821F02A01C8
:103B200081602068016841F0010101602046BDE824
:103B3000104001F09BB9000010B586B00446142176
:103B40006846FCF741FD17492068884227D116488E
:103B5000016E41F480410166016E01F480410591DE
:103B6000C16C41F00101C164C06C694600F0010004
:103B700005904FF4C0600090022001900020029058
:103B80000390072004904FF09040FEF727FA0022A0
:103B900011462520FEF776FB2520FEF765FB06B0D3
:103BA00010BD0000003801400010024010B4D0F8F1
:103BB0008830202B1BD1B9B1B2B190F88030012BE5
:103BC00015D0012380F880300023C366094C0368B8
:103BD000A34206D05C68240203D51C6844F08064CC
:103BE0001C6010BC01F08EBC012010BC704702208C
:103BF000FBE70000008000400549064B087ACA79BF
:103C00001A54401C08720122C91D0348FFF7CEBF99
:103C1000000000208B000020C00800202DE9F843A0
:103C20000446D0F884001F4616460D46202851D180
:103C3000DDB1D6B194F8800001284BD0012084F882
:103C400080004FF00008C4F88C802120C4F8840064
:103C50001834FEF7B1FAA6878146E68754F8100CAF
:103C6000183CB0F5805F03D004E00120BDE8F88384
:103C7000206920B12E46002584F8808010E00026BF
:103C8000FAE78021204601F0A9FCB8B9C6B116F8C0
:103C9000010B21688862B4F85600401EA4F8560053
:103CA000B4F856004B464FF0000200970028E8D1C8
:103CB0004FF04001204601F091FC30B10320D5E7E0
:103CC00035F8020BC0F30800E3E72020C4F88400B5
:103CD0000020CBE70220C9E77047FEE700B585B0BA
:103CE00014216846FCF770FCC02000900120019070
:103CF00002900220039069460248FEF76FF905B072
:103D000000BD00000004004800B585B014216846DD
:103D1000FCF75AFC4FF6FF70009000200321CDE91C
:103D20000201019069460248FEF758F905B000BD4E
:103D30000008004800B585B014216846FCF744FC33
:103D40004FF6FF70009001200190032003900020A7
:103D5000029069460248FEF741F905B000BD000037
:103D60000008004870B5002406462146204600F0B1
:103D700003F900F041F94FF49635304600F010F9A0
:103D8000641CAC42F9D370BD30B587B014216846CD
:103D9000FCF71AFC1E48C16C41F00401C164C16CFF
:103DA00001F004010591C16C41F00101C164C16CD5
:103DB00001F001010591C16C41F00201C164C06CC8
:103DC000012500F0020005904FF44870CDE9000590
:103DD00000240394694602940E48FEF7FFF8280277
:103DE00003940090CDE901544FF090446946204679
:103DF000FEF7F4F8FFF79EFFA06940F48070A06121
:103E000004481830016841F40871016007B030BD02
:103E10000010024000040048203AD2B2034B02EBEB
:103E2000420203EB021200F019B800002A6A0008EF
:103E3000F0B50E460746002540F23F1407E0214644
:103E40003846FFF7E9FF103C6D1CA4B2761C3278AF
:103E5000002A01D0142DF2D3F0BD00002DE9F04767
:103E600091468A460026044600F086F8DFF8408036
:103E7000012700BF00F0C0F85FF0000539F8160018
:103E800007FA05F10842404601D1408800E0008869
:103E900000F086F86D1C102DF0D3641CE4B251467E
:103EA000204600F069F8761C182EE3D3BDE8F087B1
:103EB0003C00002010B5FFF767FF002000F014F869
:103EC000084CA080A088A0F50241303906D000F04F
:103ED00069FB002000F008F8A08010BD00F0D9FABE
:103EE000F7E700003C00002070B51D490A6842F465
:103EF00000720A600A6842F480720A60184C103C32
:103F0000226842F020022260164A1060086840F0E1
:103F10002000086000BF00BF00BF206840F0200004
:103F20002060206840F480702060FFF7EDFE4FF0C5
:103F30009041886A40F48070886200BF00BF00BF73
:103F40000848001F006885B2886940F48070886165
:103F5000FFF7F0FE206840F400702060284670BD36
:103F6000280400481408004801B5BDF800000149C4
:103F7000488008BD3C00002010B50C4601462020BA
:103F800000F068F82146BDE81040212000F062B83A
:103F900001B5BDF800000149088008BD3C000020C3
:103FA000134A116841F400711160114910390B680E
:103FB00043F480730B600B6843F020030B600D4BE0
:103FC0001860106840F02000106000BF00BF00BF04
:103FD000086840F020000860086840F480700860BD
:103FE00000BF00BF00BF086840F400700860704761
:103FF00028040048140800481449086840F4007078
:104000000860086840F48070086010481038026842
:1040100042F0200202600E4B22221A600A6842F02F
:1040200020020A6000BF00BF00BF016841F020010C
:104030000160016841F48071016000BF00BF00BFF2
:10404000016841F4007101607047000028040048D5
:1040500014080048184B10B51A6842F400721A6030
:104060001A6842F480721A60134A103A146844F0D5
:1040700020041460114C2060186840F02000186083
:1040800000BF00BF00BF106840F020001060106843
:1040900040F4807010602160186840F020001860C3
:1040A00000BF00BF00BF106840F020001060106823
:1040B00040F48070106010BD2804004814080048C7
:1040C00000EB8100006E00F0F84070478068C0F39C
:1040D000C00070478068C0F3800070478068C0F3FC
:1040E00080007047042303EAD15310B51844436994
:1040F000C1F3045107248C40A3438A401343436116
:1041000010BD00EB8100016E21F0004111430166FA
:104110007047000030B58BB000240894099420212A
:1041200068460A94FCF750FA1C484FF0A041042559
:1041300001604FF40031C0E90114C4600461C0E9BA
:104140000545047744770121016280F82440C46268
:10415000046380F83840C46380F84040FDF7F0FC09
:1041600008B1FDF769FA08A90C480894FDF766FA4A
:1041700008B1FDF761FA0A4800900620CDE9010474
:104180007F200594CDE9030569460448FDF7C2FA8E
:10419000002801D0FDF750FA0BB030BD50070020C9
:1041A0000008302E30B589B020216846FCF70CFAA3
:1041B00019481849002401604902C0E90114C4608B
:1041C00004250461C0E905450477447701210162B3
:1041D00080F82440C462046380F83840C46380F8E7
:1041E0004040FDF7ADFC08B1FDF726FA0B48009002
:1041F0000620CDE901047F200594CDE90305694639
:104200000548FDF787FA002801D0FDF715FA09B037
:1042100030BD000000010050BC0700200080F03ECF
:10422000F0B587B014216846FCF7CEF92D48C16C73
:1042300041F00401C164C16C01F004010591C16C3D
:1042400041F02001C164C16C01F020010591C16CF5
:1042500041F00101C164C16C01F001010591C16C23
:1042600041F00201C164C16C01F002010591C16C11
:1042700041F00801C164C06C1B4E00F008004FF40F
:104280007F440590002221463046FDF790FF174FEE
:10429000002204213846FDF78AFF0125CDE90045BB
:1042A00000240294694630460394FDF797FECDE959
:1042B000005469464FF090400294FDF78FFE0720AE
:1042C000CDE9000469460A480294FDF787FE042000
:1042D0000090CDE90154694638460394FDF77EFE0F
:1042E00007B0F0BD0010024000080048000C004874
:1042F0000004004810B58CB00024059421480494B3
:104300000694079408940A940994009401940294E2
:104310004FF08041039401604F21C0E90114611EF8
:10432000C0E903148461FEF742FD08B1FDF784F98A
:104330004FF48050049004A91248FEF7AFFD08B175
:10434000FDF77AF90F48FEF7C8FE08B1FDF774F9DA
:10435000089408A90B480A94FEF7DAFC08B1FDF7A7
:104360006BF90120CDE9004002940022694605481E
:104370000394FEF72BFE002801D0FDF75DF90CB089
:1043800010BD00002808002010B58EB0002407944E
:10439000089409940A940B940C941C2168460D947B
:1043A000FCF712F91E481D4901604F21C0E90114B4
:1043B00042F20F71C0E9031480218161FEF7F7FC1E
:1043C00008B1FDF739F94FF48050079007A9144858
:1043D000FEF764FD08B1FDF72FF91148FFF7FAF871
:1043E00008B1FDF729F90B940BA90D480D94FEF7C0
:1043F0008FFC08B1FDF720F96020CDE9000402949C
:104400000422694606480494FFF755F808B1FDF701
:1044100013F90348FFF726F80EB010BD0004004062
:1044200074080020184810B5164901604FF4165161
:104430004160002181600C22C160C0E904128161E9
:10444000C161016241628162FFF740FB08B1FDF783
:10445000F3F800210C48FFF7CDF908B1FDF7ECF8AF
:1044600000210948FFF7A0F908B1FDF7E5F8064873
:10447000FFF779F9002803D0BDE81040FDF7DCB85C
:1044800010BD000000380140C0080020FEE7FEE734
:10449000704730B501210020FFF7DCFD4FF47A7042
:1044A000FDF7BCF800210120FFF7D4FD41F2907127
:1044B0001020FFF7CFFD4FF41C516020FFF7CAFD1D
:1044C00001216120FFF7C6FD02214620FFF7C2FD52
:1044D00048F210011320FFF7BDFD48F2FE01122043
:1044E000FFF7B8FD4FF4A0610220FFF7B3FD41F2E2
:1044F00030010320FFF7AEFD40F2033421463020A7
:10450000FFF7A8FD21463120FFF7A4FD2146322008
:10451000FFF7A0FDE51E29463320FFF79BFD032191
:104520003420FFF797FD21463520FFF793FD142136
:104530003620FFF78FFD21463720FFF78BFD214600
:104540003820FFF787FD21463920FFF783FD2946F4
:104550003A20FFF77FFD03213B20FFF77BFD21463B
:104560003C20FFF777FD4FF4A0513D20FFF772FD8F
:104570004FF400719220FFF76DFD21469320FFF765
:1045800069FD40F60D019020FFF764FD41F218012E
:104590000320FFF75FFDBDE8304040F273110720B4
:1045A000FFF758BD10B543F20801E320FFF752FDB5
:1045B0001221E720FFF74EFD41F23121EF20FFF7F6
:1045C00049FD00210120FFF745FD4FF4E061022085
:1045D000FFF740FD41F230010320FFF73BFD0021D2
:1045E0000420FFF737FD40F207210820FFF732FDD6
:1045F00000210920FFF72EFD00210A20FFF72AFDE8
:1046000000210C20FFF726FD00210D20FFF722FDE1
:1046100000210F20FFF71EFD00211020FFF71AFDDB
:1046200007211120FFF716FD00211220FFF712FDD0
:1046300000211320FFF70EFDC820FDF7BDFC41F25D
:1046400090611020FFF706FD40F227211120FFF7AF
:1046500001FD3220FDF7B0FC1D211220FFF7FAFC0E
:104660003220FDF7A9FC4FF400611320FFF7F2FCA4
:1046700014212920FFF7EEFC0B212B20FFF7EAFC89
:104680003220FDF799FC00212020FFF7E3FC0021F8
:104690002120FFF7DFFC07213020FFF7DBFC40F291
:1046A00007713120FFF7D6FC06213220FFF7D2FC3C
:1046B00040F204713520FFF7CDFC41F6047136203D
:1046C000FFF7C8FC04213720FFF7C4FC0021382085
:1046D000FFF7C0FC40F206713920FFF7BBFC40F247
:1046E00001713C20FFF7B6FC0F213D20FFF7B2FC23
:1046F00000215020FFF7AEFCEF215120FFF7AAFC6C
:1047000000215220FFF7A6FC40F23F115320FFF793
:10471000A1FC4FF41C516020FFF79CFC012161209B
:10472000FFF798FC00216A20FFF794FC002180200D
:10473000FFF790FC00218120FFF78CFC00218220F4
:10474000FFF788FC00218320FFF784FC00218420F0
:10475000FFF780FC00218520FFF77CFC10219020D2
:10476000FFF778FC00219220FFF774FC03219320CF
:10477000FFF770FC4FF488719520FFF76BFC002168
:104780009720FFF767FC00219820FFF763FC41F2B8
:1047900018010320FFF75EFCBDE8104040F27311E2
:1047A0000720FFF757BC7047FDF70CBD10B5A4B04C
:1047B00038216846FBF708FF14211FA8FBF704FF08
:1047C00044210EA8FBF700FF4FF40070FDF78CFDAD
:1047D0000220C1010391402104910121CDE908018A
:1047E00000900A21CDE90A1007900C900D906846C0
:1047F000FEF76EF808B172B6FEE70F2000241F9096
:104800000320CDE92004229402211FA82394FDF760
:1048100015FF08B172B6FEE748F20100CDE90E04BB
:1048200040071D900EA8FDF7C5FD002801D072B607
:10483000FEE724B010BD00000248016841F4700199
:104840000160704788ED00E00148FEF70DBD0000F3
:10485000280800202DE9F0430268234B234D244E05
:10486000244C4FF08049984207D0484505D0A842D3
:1048700003D0B04201D0A04203D122F070074A68B1
:104880003A431D4FDFF874C0DFF8748098420DD0B2
:1048900048450BD0A84209D0B04207D0A04205D06D
:1048A000B84203D0604501D0404503D122F44075A1
:1048B000CA682A434D6922F080022A4302608A684E
:1048C000C2620A688262984207D0A04205D0B8420C
:1048D00003D0604501D0404501D109690163012140
:1048E0004161BDE8F0830000002C0140000400405D
:1048F00000080040003401400040014000440140F5
:104900000048014010B501F01F030121046A9940DD
:104910008C430462016A9A401143016210BD10B5D4
:10492000846842EA032224F47F440A4322438260DB
:1049300010BD00008268034B1A400A4342F0070191
:10494000816070478FFFCFFF2DE9F043026A22F0AC
:1049500001020262056A436882691C4C25F0020567
:1049600022400C6822F0030214438A68194E2A433D
:10497000174D194FDFF864C0DFF86490A84207D0E4
:10498000B04205D0B84203D0604501D0484506D1B9
:1049900022F00808CA6842EA080222F00402A8428B
:1049A00007D0B04205D0B84203D0604501D0484599
:1049B00005D14D6923F440731D438B692B4343603C
:1049C0008461496841630262BDE8F0838FFFFEFFA6
:1049D000002C0140003401400040014000440140EF
:1049E00000480140F0B5026A22F010020262056A36
:1049F00042688369194C1B4E23400C6823F44073B2
:104A000043EA042425F020038D6843EA0513144D7E
:104A1000A84201D0B04206D1CF6823F0800343EA18
:104A2000071323F04003A8420AD0B04208D00E4D2D
:104A3000A84205D00D4DA84202D00D4DA84207D185
:104A40004D6922F4406242EA85028D6942EA85029C
:104A500042608461496881630362F0BDFF8FFFFE9D
:104A6000002C01400034014000400140004401405E
:104A700000480140F0B5026A22F480720262056AC1
:104A80004368C269194C1B4E22400C6822F0030295
:104A9000144325F400728D6842EA0522144DA842A1
:104AA00001D0B04206D1CF6822F4006242EA072268
:104AB00022F48062A8420AD0B04208D00E4DA8422B
:104AC00005D00E4DA84202D00D4DA84207D14D6928
:104AD00023F4405343EA05138D6943EA0513436009
:104AE000C4614968C1630262F0BD00008FFFFEFF30
:104AF000002C0140003401400040014000440140CE
:104B000000480140F0B5026A22F480520262056A50
:104B10004268C369194C1B4E23400C6823F4407350
:104B200043EA042425F400538D6843EA0533144D09
:104B3000A84201D0B04206D1CF6823F4004343EA33
:104B4000073323F48043A8420AD0B04208D00E4D68
:104B5000A84205D00D4DA84202D00D4DA84207D164
:104B60004D6922F4404242EA85128D6942EA85127B
:104B70004260C461496801640362F0BDFF8FFFFEBB
:104B8000002C01400034014000400140004401403D
:104B90000048014030B5026A22F480320262046AA1
:104BA0004268036D114D2B400D681D4324F4003302
:104BB0000C8943EA04430E4CA0420BD00D4CA0429A
:104BC00008D00D4CA04205D00C4CA04202D00C4C99
:104BD000A04204D14C6922F4803242EA04224260AD
:104BE000056549688164036230BD00008FFFFEFFE8
:104BF000002C0140003401400040014000440140CD
:104C00000048014030B5026A22F480120262046A50
:104C10004268036D114D24F400142B400D6843EAE3
:104C200005230D8944EA05540D4DA8420BD00D4DC6
:104C3000A84208D00C4DA84205D00C4DA84202D085
:104C40000B4DA84204D14D6922F4802242EA85220C
:104C5000426003654968C164046230BDFF8FFFFE96
:104C6000002C01400034014000400140004401405C
:104C70000048014010B5036A046A24F0010404628C
:104C8000846924F0F00444EA021423F00A020A437F
:104C90008461026210BD000070B5046A24F0010452
:104CA00004628469056A124EB0420ED0B0F1804FA2
:104CB0000BD0104EB04208D00F4EB04205D00F4E70
:104CC000B04202D00E4EB04203D124F0030414438C
:104CD00001E044F001041A0724F0F00444EA1262EF
:104CE00025F00A0301F00A0119438261016270BDD7
:104CF000002C014000040040000800400034014046
:104D00000040014010B5036A23F010030362836979
:104D1000046A23F4704343EA023224F0A00343EA16
:104D200001118261016210BD30B5046A24F01004E3
:104D300004628469056A24F4407444EA022222F47D
:104D400070444FF6FF7202EA03322243A02425F09A
:104D5000A00304EA011119438261016230BD000021
:104D600030B5416EB9B1026891689268C1F3426191
:104D70000B4B520F9C5CE50003F10804A25CB5FBF1
:104D8000F2F2A0F86A205A5C615CD200B2FBF1F149
:104D9000A0F8681030BD0121A0F86A10F8E7000003
:104DA000127C000890F82810C90706D001684A68EC
:104DB000C36A22F400321A434A6090F82810890727
:104DC00006D501684A68036B22F480321A434A60B0
:104DD00090F82810490706D501684A68436B22F409
:104DE00080221A434A6090F82810090706D5016806
:104DF0004A68836B22F400421A434A6090F82810F4
:104E0000C90606D501688A68C36B22F480521A432A
:104E10008A6090F82810890606D501688A68036CB4
:104E200022F400521A438A6090F82810490611D5DE
:104E300001684A68436C22F480121A434A60416C4C
:104E4000B1F5801F06D101684A68836C22F4C00264
:104E50001A434A6090F82810090606D501684A6886
:104E6000C06C22F4002202434A607047F8B5002665
:104E70000446C0F88C60FDF79FF90546206800687D
:104E80006FF07E47000708D52B4600224FF4001133
:104E90002046009700F0A2FB60B920680068400738
:104EA0000AD52B4600224FF480012046009700F0DF
:104EB00095FB08B10320F8BD2020C4F88400C4F895
:104EC000880044F86C6F00202675F8BD10B5806A24
:104ED0000021A0F85E10A0F85610FEF7B3FC10BD3C
:104EE00001680A6822F490720A6001688A68094BB6
:104EF0001A408A60C16E012904D101680A6822F053
:104F000010020A602021C0F888100021C1660167E4
:104F100070470000FEFFFFEF70B5B0F86010D0F8EA
:104F2000882004460068222A04D0816941F00801E3
:104F3000816170BD406AA26D08401080A06D801C28
:104F4000A065B4F85E00401EA4F85E00B4F85E00F0
:104F50000028EED12068016821F49071016020687A
:104F6000816821F0010181602020C4F888000025BB
:104F70002567E06E012804D02046FEF73DFEE56679
:104F800070BD2068016821F010010160B4F85C1068
:104F90002046FEF707FCF2E72DE9F0470446B0F89B
:104FA00060600068C569D0F800A0D0F80880D4F827
:104FB0008810222905D0816941F008018161BDE88E
:104FC000F087B4F868704FF000095BE02068406A31
:104FD000A16D30400880A06D801CA065B4F85E0013
:104FE000401EA4F85E002068C569690730D0E90753
:104FF0000AD05FEACA5107D501210162D4F88C00BA
:1050000040F00100C4F88C00A8070BD55FEAC87017
:1050100008D0216802200862D4F88C0040F0040017
:10502000C4F88C0068070BD55FEAC87008D0216807
:1050300004200862D4F88C0040F00200C4F88C0010
:10504000D4F88C0020B12046FEF7FCFBC4F88C900D
:10505000B4F85E00B0B92068016821F48071016085
:1050600020688168194A114081602020C4F88800B6
:10507000C4F87090E06E01281CD02046FEF7BCFDFD
:10508000C4F86C900FB1A806A0D4B4F85E00002854
:1050900095D0B4F86810814291D92068816821F0D8
:1050A000805181600A4820672068016841F0200132
:1050B000016084E72068016821F010010160B4F804
:1050C0005C102046FEF76EFBDAE70000FEFFFFEF04
:1050D000194F000870B5B0F86010D0F88820044669
:1050E0000068222A04D0816941F00801816170BD05
:1050F000406A0840A16D0870A06D401CA065B4F81E
:105100005E00401EA4F85E00B4F85E000028EED1F8
:105110002068016821F4907101602068816821F0A5
:10512000010181602020C4F8880000252567E06E19
:10513000012804D02046FEF75FFDE56670BD2068BB
:10514000016821F010010160B4F85C102046FEF700
:1051500029FBF2E72DE9F0470446B0F860600068EB
:10516000C569D0F800A0D0F80880D4F888102229AA
:1051700005D0816941F008018161BDE8F087B4F88C
:1051800068704FF000095BE02068406AA16D304014
:105190000870A06D401CA065B4F85E00401EA4F825
:1051A0005E002068C569690730D0E9070AD05FEA68
:1051B000CA5107D501210162D4F88C0040F00100EA
:1051C000C4F88C00A8070BD55FEAC87008D0216826
:1051D00002200862D4F88C0040F00400C4F88C006F
:1051E00068070BD55FEAC87008D021680420086200
:1051F000D4F88C0040F00200C4F88C00D4F88C0085
:1052000020B12046FEF71EFBC4F88C90B4F85E0077
:10521000B0B92068016821F480710160206881685C
:10522000194A114081602020C4F88800C4F87090A9
:10523000E06E01281CD02046FEF7DEFCC4F86C901E
:105240000FB1A806A0D4B4F85E00002895D0B4F839
:105250006810814291D92068816821F08051816075
:105260000A4820672068016841F02001016084E756
:105270002068016821F010010160B4F85C1020463C
:10528000FEF790FADAE70000FEFFFFEFD5500008C6
:105290002DE9F0410446016880682269E369104302
:1052A000626900251A431043DFF82CC20A688B4B51
:1052B0001A4002430A6020684168E26821F44051C4
:1052C000114341602168A069614501D0226A104301
:1052D0008A68834B1A4002438A602068C16A626A06
:1052E00021F00F011143C1627E4923687E488B4241
:1052F0000DD1D0F8880010F0030006D0012855D059
:10530000022842D003283FD152E001203DE07749F6
:105310008B420BD1D0F8880010F00C0035D0042857
:1053200033D0082840D00C282ED141E070498B4260
:105330000BD1D0F8880010F0300026D0102835D0DE
:10534000202831D030281FD132E06A498B420BD15E
:10535000D0F8880010F0C00017D0402826D0802850
:1053600022D0C02810D123E063450DD1D0F88800A9
:1053700010F4406009D0B0F5806F17D0B0F5006F21
:1053800012D0B0F5406F13D010205B4A5B4F00265F
:105390004FF40041634539D160B102280DD0042893
:1053A0000DD0082831D10EE00220EEE70420ECE712
:1053B0000820EAE7FDF730FA03E0114603E0FDF7C5
:1053C0004FFA01007DD0606A37F810206768B1FBA2
:1053D000F2F007EB470383426CD8B0EB073F69D884
:1053E000002308461946FAF777FF090241EA1061DF
:1053F00002027808101871413A460023FAF76CFF50
:105400003F4AA0F54071914259D953E0E3694FF604
:10541000EF788B422DD109284CD2DFE800F0050847
:105420000D4B274B4B4B0E00FDF7F6F901E0FDF756
:1054300005FA010001D144E01146606A37F8100016
:10544000B1FBF0F04100606801EB5001B1FBF0F0FE
:1054500080B2A0F1100141452CD84FF6F071014007
:10546000C0F3420001432068C1602AE0FDF7F8F96B
:10547000DFE709281ED2DFE800F005080D1D1F1D1B
:105480001D1D0E00FDF7C8F901E0FDF7D7F9010079
:1054900001D116E01146606A37F81000B1FBF0F157
:1054A000606801EB5001B1FBF0F080B2A0F1100197
:1054B000414504D9012504E0FDF7D2F9E7E7216869
:1054C000C8600120A4F86A0024F8680F2846A66086
:1054D000E660BDE8F081000000800040F369FFCF86
:1054E000FFF4FF110038014000100240004400406A
:1054F00000480040004C00400024F400FA7B000803
:10550000FFFC0F0070B58165A0F85C20A0F85E205C
:105510000021016783684FF48056FF24B34204D111
:105520000369D3B940F2FF131DE07F259BB1B3F1AE
:10553000805F15D0A0F86010C0F88C102223C0F84E
:10554000883003689C6844F001049C60436EB3F1AA
:10555000005F0ED027E0036943B9A0F86040EBE795
:1055600003691BB13F23A0F86030E5E7A0F8605065
:10557000E2E7B0F86830934215D88268B24201D1B0
:10558000026972B1114A026780F8801001680A68E6
:1055900042F480720A600068816841F08051816045
:1055A0000FE00B4AEFE78268B24201D1026952B1C3
:1055B000084A026780F880100068016841F4907121
:1055C0000160002070BD044AF3E700005551000857
:1055D000994F0008D5500008194F00082DE9F047F1
:1055E0009A4617460E4604464FF000094FF0200831
:1055F000089D39E0681C37D0FCF7DEFDA0EB0A00FF
:10560000A84222D80DB32068016849072CD5C0698B
:10561000C043000528D421684FF400600862206868
:10562000016821F4D07101602068816821F00101D6
:105630008160C4F88480C4F88880C4F88C8000BF7E
:1056400084F880900320BDE8F0872068016821F489
:10565000D07101602068816821F001018160C4F887
:105660008480C4F88880EBE72068C06936EA0000CF
:1056700004D00020B842BDD00020E4E70120F9E7C3
:105680000148FEF7E1B80000C008002010B5294825
:105690000168294CE269891A322949D30068E0611E
:1056A00000F0B2F9012814D000F0AEF9022813D0AE
:1056B00000F0AAF9032815D000F0A6F9042814D0A8
:1056C00000F0A2F905281BD000F09EF906282AD088
:1056D0002CE0227819A101E062781AA11B48FAF7A0
:1056E00073FE19E01AA1226AF8E718482A30016A05
:1056F00000EBC10019A190ED0A0B53EC102B08E050
:105700001948016A00EBC10018A190ED0A0B53EC97
:10571000102B0E48FAF758FE322315220B49164873
:10572000FEF77CFA02E0E07AC043E07200202072CB
:1057300010BD00004C00002000000020583A2564F5
:105740000D0A0000593A25640D0A00007600002079
:105750005041313A25640D0A000000005041343AAE
:10576000252E326C660D0A00F80300205041353AB0
:10577000252E326C660D0A00C0080020FEE703B437
:1057800001984100009850EAC12018BF04204A0D3A
:1057900018BF40F0010040F2FF72B2EB515F08BF4A
:1057A00040F00200012808BF052002B07047090739
:1057B000090E002804DB00F1E02080F80014704797
:1057C00000F00F0000F1E02080F8141D7047303821
:1057D0000A2801D2012070470020704770B52DEDD6
:1057E000028B00F0D1F8634D614805F55674296AC3
:1057F00090ED0A0B05EBC10181ED0A0B90ED0C0B4E
:10580000206A04EBC00080ED0A0B9FED5B0B9FED5F
:105810005C1B286A18B985ED020B85ED001B216A17
:1058200019B984ED020B84ED001B05EBC00095ED6A
:10583000000B90ED0A1B51EC100B53EC112B00F0F8
:1058400093FE05D2286A05EBC00090ED0A0B01E03B
:1058500095ED000B85ED000B206A94ED000B04EB39
:10586000C00090ED0A1B51EC100B53EC112B00F013
:105870007BFE05D2206A04EBC00090ED0A0B01E02C
:1058800094ED000B84ED000B286A95ED020B05EBFF
:10589000C00090ED0A1B51EC100B53EC112B00F0E3
:1058A0009DFF05D2286A05EBC00090ED0A0B01E0D0
:1058B00095ED020B85ED020B206A94ED021B04EBC3
:1058C000C00090ED0A0B51EC110B53EC102B00F0C3
:1058D00085FF05D2206A04EBC00090ED0A0B01E0C1
:1058E00094ED020B84ED020B2E6A95EDD40B05EBC3
:1058F000C60090ED0A1B51EC100B53EC112B00F07D
:10590000CFFB41EC180B304685EDD48B00F001FE47
:1059100041EC100B51EC180B53EC102B00F074FC05
:105920001835761C85E84300256A94EDD41B04EBFA
:10593000C50090ED0A0B51EC110B53EC102B00F04D
:10594000AFFB41EC180B284684EDD48B00F0E1FD51
:1059500041EC100B51EC180B53EC102B00F054FCE5
:1059600018346D1C84E82300BDEC028B70BD000070
:1059700000000020A00000206666666666660A4099
:10598000000000000000000010B518482DED048B49
:10599000FCF726FA1548FCF7CFF880B200F0D0FDEE
:1059A0009FED138B53EC182B00F01AFE9FED129B0A
:1059B00053EC192B00F014FE114CC4E90A011148F4
:1059C000FCF70EFA0F48FCF7B7F880B200F0B8FD0C
:1059D00053EC182B00F004FE53EC192B00F000FEE2
:1059E000C4E90C01BDEC048B10BD00005007002081
:1059F0006666666666660A40000000000000303F8A
:105A000000000020BC0700201748027A42B1174866
:105A1000012A017806D0032A0FD0012A06D018E007
:105A200000207047582904D0592904D0232918D0C0
:105A30000FE00120704702207047502909D14178BA
:105A4000412906D18078312805D0342805D0352861
:105A500005D00720704703207047042070470520B9
:105A60007047062070470000000000208B000020D7
:105A700070B5544D2DED028B2868534C2169401AA6
:105A8000322834D32868206100F0AEF8A070627923
:105A900030EA020180EA0202E17022EA0002227189
:105AA000607101D02868606128686169401A00212E
:105AB000B0F57A7F29D9042A19D1A07A9FED430B3A
:105AC000617308B143481BE0434805E000EBC203A3
:105AD000521C83ED0A0B6273627B036A9342F5DC0E
