:020000040800F2
:1000000068050020F1010008072F000853280008A8
:10001000052F000839080008D33700080000000049
:100020000000000000000000000000001F32000877
:100030003B08000800000000092F000821320008DA
:100040000B0200080B0200080B0200080B0200085C
:100050000B0200080B0200080B0200080B0200084C
:100060000B0200080B0200080B0200080B0200083C
:100070000B0200080B0200080B0200080B0200082C
:100080000B020008000000000B0200080B02000831
:100090000B0200080B0200080B0200080B0200080C
:1000A0000B0200080B0200080B0200080B020008FC
:1000B0000B020008BD3200080B0200080B0200080A
:1000C0000B0200080B0200080B0200080B020008DC
:1000D0000B0200080B0200080B0200080B020008CC
:1000E0000B0200080B0200080B0200080B020008BC
:1000F0000B0200080B0200080B02000800000000C1
:10010000000000000B020008000000000B020008C5
:100110000B020008000000000B0200080B020008A0
:100120000B0200080B0200080B0200080B0200087B
:100130000B02000800000000000000000B02000895
:100140000B0200080B020008000000000000000085
:10015000000000000000000000000000000000009F
:100160000000000000000000000000000B0200087A
:100170000B0200080000000000000000000000006A
:10018000000000000B02000800000000000000005A
:10019000000000000000000000000000000000005F
:1001A00000000000000000000B0200080B02000825
:1001B0000B0200080B0200080B0200080000000000
:1001C000000000000B02000800000000000000001A
:1001D0000B0200080B020008DFF810D000F0E0FA74
:1001E000004800479D430008AFF3008068050020E9
:1001F0000648804706480047FEE7FEE7FEE7FEE7C1
:10020000FEE7FEE7FEE7FEE7FEE7FEE7AD320008A9
:10021000D9010008D2B201E000F8012B491EFBD23F
:1002200070470022F6E710B513460A460446194601
:10023000FFF7F0FF204610BD2DE9FE4F804681EA12
:100240000300C00F0C46009021F0004123F0004550
:10025000B8EB0200A94105D24046214690461C4613
:100260000B46024623F00040104347D0270DC7F34A
:100270000A00C3F30A510290401A019040286BDA39
:10028000C3F3130040F4801B0098924620B1002372
:10029000D2EB030A63EB0B0B01985946C0F1400205
:1002A000504600F0BEF906460D4650465946019AA2
:1002B00000F0D6F910EB08006141002487EA1152E2
:1002C00084EAE7731A4340D0009A62B3019A012A84
:1002D0004FEA075215DC001B61EB02014FF00042B0
:1002E00002EA0752CDE90042001C41F58011324676
:1002F0002B4600F0D6F903B0BDE8F08F404621460A
:10030000F9E7001B61EB0201001C41F580130018A6
:100310005B412018A2F5001747EB030140EAD570B6
:10032000B6196D4111E06D084FEA360645EAC07511
:100330004FEA0752001B61EB0201001C41F58011DE
:1003400049084FEA30000019514132462B4603B0AC
:10035000BDE8F04F00F096B900980122400000235C
:10036000D0EB020263EBE073009821464FEAE074A1
:10037000B8EB000061EB0401E9E783F000435BE7C1
:1003800081F0004158E72DE9FE4F81EA030404F0B3
:10039000004421F0004100944FF0000B23F0004393
:1003A00050EA01045ED052EA03045BD0C3F30A545E
:1003B000C1F30A552C44A4F2F3340194A0FB025477
:1003C000C1F3130141F48011C3F3130343F4801309
:1003D00001FB024400FB034E840A970A44EA81545D
:1003E00047EA8357A4FB076802958D0A05FB07853A
:1003F0004FEA932C04FB0C542705029D4FEA065844
:1004000047EA1637B5EB08056EEB070C870E920E20
:1004100047EA811742EA8312A7FB0201B6EB0B0100
:1004200064EB00042B0D43EA0C335E1844EB1C50C4
:10043000DA465146E7FB0201C5F313044FEA0B33DA
:1004400043EA14534FEA0432019C43EA0603A4F141
:100450000C040294009CCDE900B400F022F903B032
:10046000BDE8F08F00200146F9E72DE9F04D81EA63
:10047000030404F0004B21F0004514464FF0000A3D
:1004800023F0004150EA050220D054EA01021DD0B9
:10049000C5F30A570246C5F31303C1F31300C1F3B2
:1004A0000A5640F4801543F48013A7EB0608101B8E
:1004B000D64608F2FD3873EB050002D308F10108B7
:1004C00001E092185B41B8F1000F03DA0020014609
:1004D000BDE8F08D00204FF48011064684460EE002
:1004E000171B73EB050705D3121B63EB05030643CC
:1004F0004CEA010C49084FEA300092185B4150EA7F
:100500000107EDD152EA030012D082EA040083EA27
:100510000501084305D0101BAB4106D20122002380
:1005200006E000224FF0004302E06FF0010253109A
:100530001AEB06004CEB085110EB0A0041EB0B01E3
:10054000BDE8F04D00F09EB80EB540F23341029187
:100550000021CDE900110A460B4600F0A2F803B0D5
:1005600000BDC1F30A5210B5C1F3130140F2FF33CD
:1005700041F480119A4201DA002010BD40F2334369
:100580009A42A2F2334203DC524200F059F810BD05
:10059000904010BD30B50B460146002020220124BA
:1005A00009E021FA02F59D4205D303FA02F5491B41
:1005B00004FA02F52844151EA2F10102F1DC30BD57
:1005C0002DE9F05F0546002092469B468846064688
:1005D000814640241BE0284641464746224600F01B
:1005E0002FF853465A46C01A914110D31146184667
:1005F000224600F016F82D1A67EB01084F462246F6
:100600000120002100F00DF817EB00094E41201EDB
:10061000A4F10104DFDC484631462A464346BDE8E2
:10062000F09F202A04DB203A00FA02F100207047F4
:100630009140C2F1200320FA03F319439040704720
:10064000202A04DB203A21FA02F00021704721FA27
:1006500002F3D040C2F1200291400843194670478E
:10066000202A06DBCB17203A41FA02F043EAE07376
:1006700006E041FA02F3D040C2F120029140084363
:100680001946704710B5141E73F1000408DA401CB7
:1006900041F1000192185B411A4301D120F00100A1
:1006A00010BD2DE9F04D92469B4611B1B1FA81F291
:1006B00002E0B0FA80F220329046FFF7B2FF044623
:1006C0000F4640EA0A0041EA0B0153465A460843E6
:1006D00013D0114653EA010019D0C8F14002504628
:1006E000FFF7AEFF05460E46504659464246FFF715
:1006F00098FF084305D0012004E020463946BDE8B4
:10070000F08D0020054346EAE0762C4337430A98F3
:100710006305E40AA0EB08000022FD0A44EA4754FE
:100720000A3002D500200146E9E7010510196941A8
:10073000DDE9084500196941BDE8F04DA2E7C1F3C4
:100740000A52C1F3130140F2FF3341F480119A427F
:1007500002DA00200146704740F233439A42A2F287
:10076000334202DC5242FFF76BBFFFF75ABF000073
:1007700030B5041E71F1000404DB4FF00044404228
:1007800064EB0101141E73F1000405DB1C464FF0FD
:100790000043524263EB0403994208BF904230BDCC
:1007A000064C074D06E0E06840F0010394E80700BE
:1007B00098471034AC42F6D3FFF712FDE855000815
:1007C0000856000870B504460068816811F0010FF2
:1007D0002DD18168174A11421AD18168D543294029
:1007E000491C816000F0F8FC06461BE0816811F0AE
:1007F000010F03D181682940491C816000F0ECFCA5
:10080000801B02280ED920680068C043C00709D0A9
:10081000E06D40F01000E065206E40F001002066C1
:10082000012070BD20680168C943C907DED10020DE
:1008300070BD00003F000080FEE77047002240F6D8
:10084000B83306E00021491C89B29942FBD3521CFF
:1008500092B28242F6D3704772B6FEE72DE9F84FA6
:1008600000270446009790F85800DFF8E0930D4603
:10087000B846012811D0012684F85860206802F09B
:10088000CFF960B1E06D40F02000E0655FF0010756
:1008900084F858803846BDE8F88F0220FBE7D5E998
:1008A00000210C23206803EA91131844036B01F024
:1008B0001F014FF01F0C0CFA01FCC2F3846223EA03
:1008C0000C038A4013430363206802F0A9F98246AF
:1008D000206802F0A1F95AEA00003CD1AA68296810
:1008E0002068B2F1004F37D002F09EF920684169CC
:1008F00021F00041416120686969C268C2F3C10208
:10090000520091402A69042A31D000EB82002B6802
:10091000026EDFF83CC303F0F84302EA0C020B431B
:100920001A4342F00041016620682A69A96900EB78
:100930008200026E22F080720A430266297F2268DA
:100940002869012910D0002102EB8000026E22F0FC
:1009500000720A4302667DE0002202F065F9206819
:10096000416941F00041C5E74FF00071ECE700211B
:1009700002F04CF9400320684FF0000172D002F001
:1009800045F990FAA0F0B0FA80F1286842036ED0E1
:1009900090FAA0F0B0FA80F0814204D10022114612
:1009A000206802F050F90121206802F02FF940037D
:1009B00020684FF001015DD002F028F990FAA0F014
:1009C000B0FA80F12868420359D090FAA0F0B0FA4A
:1009D00080F0814204D100220121206802F033F925
:1009E0000221206802F012F9400320684FF0020152
:1009F00048D002F00BF990FAA0F0B0FA80F1286824
:100A0000420344D090FAA0F0B0FA80F0814204D1C1
:100A100000220221206802F016F90321206802F06A
:100A2000F5F8400320684FF0030133D002F0EEF8F0
:100A300090FAA0F0B0FA80F1286842032FD090FA23
:100A4000A0F0B0FA80F0814204D100220321206896
:100A500002F0F9F82068816811F0010F22D0ACE0B3
:100A600000E004E002F0D2F8C0F384618DE7C0F347
:100A7000846091E702F0CAF8C0F38461A2E7C0F392
:100A80008460A6E702F0C2F8C0F38461B7E7C0F360
:100A90008460BBE702F0BAF8C0F38461CCE7C0F32E
:100AA0008460D0E72A7B296850F8B03FC1F3120C6C
:100AB00023EA0C0302F0180C664A22FA0CF20A40F0
:100AC00013430360E968494577D1286841031CD086
:100AD00090FAA0F1B1FA81F1491C01F01F01092936
:100AE0004FEA403132D8002912D000BF90FAA0F16D
:100AF000B1FA81F101F1010101F01F0106FA01F6DD
:100B000009D100BFC0F3846109E0C0F38461E3E769
:100B1000C0F38461EEE790FAA0F1B1FA81F101F13E
:100B2000010101F01F0146EA816102D1C0F3846036
:100B300003E090FAA0F0B0FA80F000F1010000F0BC
:100B40001F0000EB400041EA005132E000290ED0C6
:100B500090FAA0F1B1FA81F101F1010101F01F0158
:100B600006FA01F606D100BFC0F3846106E0C0F3C7
:100B70008461F1E790FAA0F1B1FA81F101F101018C
:100B800001F01F0146EA816102D1C0F3846003E0F5
:100B900090FAA0F0B0FA80F000F1010000F01F0020
:100BA0002D4A00EB400002EB005041EA000141F009
:100BB0000071AA68206802F037F828482A680242C3
:100BC0003FF466AE26488168264B01F0E0719A42F8
:100BD00002D0254B9A421CD10B021AD42268B2F1E2
:100BE000A04F7FF455AE826841F4000122F0E0721C
:100BF0000A4382601D481E490068B0FBF1F0401CAA
:100C000000EB4000800000E0401E00900028FBD177
:100C10003EE6184D184BAA4207D1CD0105D42268F3
:100C20009A42F5D041F0807109E0144DAA42EFD10B
:100C30004A02EDD422689A42EAD041F480018268E7
:100C400022F0E0720A43826022E6000000007F404A
:100C500000F0FF03FFFF0700000020FE00000880F7
:100C600000030050000021C31000C0903C00002091
:100C7000400D0300000052C700010050000084CB6B
:100C80000068006C70470000F8B54FF000050400E4
:100C90002E46009502D0E06D10B107E00120F8BDAE
:100CA000204600F0EFF8266684F8586020688168D6
:100CB000C1F3407119B181686A4A114081602068AE
:100CC0008168C1F3007189B98168674A114041F0B8
:100CD00080518160654866490068B0FBF1F04000D2
:100CE000801C00E0401E00900028FBD12068816835
:100CF000C1F3007141B9E16D41F01001E165216E70
:100D000041F001012166012501F08AFFE16DC9066C
:100D100000D430B1E06D40F01000E06501252846B8
:100D2000F8BDE06D20F4807040F00200E0652068BE
:100D3000806810F0010F11D14FF0A04080684D493C
:100D400000F00100896801F00101084306D14A481A
:100D50006168826822F47C120A438260E168E06B79
:100D6000627F0843A16841EA4231084394F82410A5
:100D700040EA0140012904D1218D404A02EB414162
:100D80000843E16A29B101F47871226B014342EA18
:100D900001002168CA683A4B1A400243CA602068C1
:100DA0000169626B21F0406111430161206801F02B
:100DB00037FF0646206801F02FFF30432ED1207FF9
:100DC00094F83810800340EA41022068C16844F278
:100DD000020399431143C16020690028206801691A
:100DE0000AD041F480310161206850F8C01F2269A7
:100DF0006FF30D01114307E021F480310161206898
:100E000050F8C01F6FF30D01016094F840000128F5
:100E10000CD02068016921F001010161606901289D
:100E20002068016B21F00F0111D013E0D4E911010A
:100E30000843D4E913121143084321680A6940F2B8
:100E4000FC739A43104340F001000861E6E7226A10
:100E5000521E11430163E06D20F0020040F00100DA
:100E6000E0655CE7C0FFFF5FC0FFFF7F3C00002044
:100E7000400D030000010050000300500000FEFF81
:100E80000740F0FF10B586B0044614216846FFF70E
:100E9000C8F91149206888421BD11048C16C41F43F
:100EA0000051C164C16C01F400510591C16C41F065
:100EB0000201C164C06C694600F0020005904FF465
:100EC000004000900320019000200290044800F0B0
:100ED00095F806B010BD000000010050001002405F
:100EE000000400482DE9F04104463848806800F0CD
:100EF0001F05206801F094FE18B102210846BDE8E4
:100F0000F08194F8580001280CD0012084F8580092
:100F10002046FFF757FC01004FF0000304D084F88F
:100F20005830EBE70220EAE7E06D40F601629043BB
:100F300040F48070E065264A20684FF0A046904259
:100F400001D1374600E00746874200D01DB9E76D62
:100F500027F48017E765E76DFF0404D5276E27F0B7
:100F60000607276600E023661C27076084F85830D0
:100F70002068904201D1334600E00346834215D0F9
:100F8000A5B1052D12D0092D10D0E36D43F48013C7
:100F9000E365904200D13046C0688001AED5E06D77
:100FA00020F4005040F48050E065A7E7C268920149
:100FB00005D5E26D22F4005242F48052E265826867
:100FC000044B1A40121D826098E700000003005095
:100FD00000010050C0FFFF7F70B5044600F0FCF830
:100FE0000546601C02D004484068044400F0F4F850
:100FF000401BA042FAD370BD300000202DE9FC4F09
:10100000DFF8A0A1002301250AF1040B03244FF00F
:101010000F0C0BF1040EBDE005FA03F632406FD061
:101020004F68012F05D0022F03D0112F01D0122FAE
:1010300017D1D0F808905F0004FA07F829EA0809E8
:101040000097D1F80C8008FA07F848EA0908C0F8B8
:1010500008804768B7430E79C6F300169E403E43AA
:101060004660C6684FEA430804FA08F7BE43019792
:101070008F6807FA08F73743C7604E68022E01D021
:10108000122E13D1DE0800EB86060096366A5F0743
:10109000FF0E0CFA07F926EA0906D1F8109009FAB2
:1010A00007F949EA0609009EC6F820900668019FE4
:1010B000BE430F7907F0030707FA08F737430760C5
:1010C0004E68F60065D5384E376E47F00107376633
:1010D000366E23F0030706F001060096334E3E44B9
:1010E000B146B6689F074FEA17780CFA08F7BE4377
:1010F000B0F1904F05D02E4FB84204D1012717E030
:1011000047E0002714E02B4FB84201D102270FE03F
:10111000294FB84201D103270AE0284FB84201D134
:10112000042705E0264FB84201D1052700E0062735
:1011300007FA08F73743C9F80870DAF8006057462D
:10114000D1F8048096435FEAC83800D516433E6064
:10115000DBF800605F46D1F8048096435FEA883888
:1011600000D516433E60DEF800607746D1F8048073
:1011700096435FEAC82800D516433E60094F0C37F6
:101180003E68D1F8048096435FEA882800D516436C
:101190003E605B1C0A6832FA03F67FF43DAFBDE89F
:1011A000FC8F0000000401400010024000000140DC
:1011B0000004004800080048000C004800100048E7
:1011C000001400480069084000D0012070470AB1AF
:1011D00081617047816270470148806870470000F4
:1011E00030000020024881684268114481607047E5
:1011F0003000002010B50024032000F073F8002018
:1012000000F008F808B1012401E000F025F82046BC
:1012100010BD000070B50E4E05460024706898B1F0
:101220004FF47A71B1FBF0F00A490968B1FBF0F0B4
:1012300000F040FD40B9102D06D200222946501E74
:1012400000F030F8356000E00124204670BD000059
:10125000300000203C0000200A4882B0016E41F0BE
:1012600001010166016E01F001010091816D41F003
:1012700080518165806D00F08050009002B000F0D8
:10128000A1B8000000100240002809DB00F01F0296
:10129000012191404009800000F1E020C0F80011D8
:1012A00070470000F0B40E4B1B680C46C3F30223DA
:1012B000C3F10705042D00D90425191D072901D202
:1012C000002300E0DB1E012606FA05F1491E21403D
:1012D00099409E40761E16403143F0BC02F08EBA13
:1012E0000CED00E0064900F0070208684FF6FF0326
:1012F000184040EA0220034A10430860704700008B
:101300000CED00E00000FA052B492C4B0A68322155
:101310004A432B4940B1B0F5007F086829D020F43A
:10132000C06040F480602CE00868C0F341200228CF
:1013300004D051F8800F20F4807022E0D1F88000B2
:1013400020F48070C1F88000086820F4C06040F488
:1013500000700860B2FBF3F0401C00E0401E4A69D8
:10136000520501D50028F9D1486940050AD5032066
:101370007047C0F34120022806D051F8800F40F496
:101380008070086000207047D1F8800040F48070C1
:10139000C1F88000086820F4C06040F40070086064
:1013A000B2FBF3F0401C00E0401E4A695205DBD559
:1013B0000028F9D1D8E700003C00002040420F008F
:1013C000007000400248816841F4804181607047AC
:1013D000007000402DE9F8430446006800269D4D4A
:1013E00000035ED5A86D0027C00008D4A86D40F0AA
:1013F0008050A865A86D012700F080500090DFF8AC
:101400005892D9F8001041F48071C9F80010FFF724
:10141000E3FE804606E000BFFFF7DEFEA0EB08001B
:1014200002282BD8D9F80000C005F5D5D5F89000D2
:1014300010F4407014D0216C814211D0D5F8900086
:10144000D5F8901020F4407041F48031C5F8901028
:10145000D5F8901021F48031C5F89010C5F89000AF
:10146000C00711D0FFF7B8FE804641F2883907E087
:10147000FFF7B2FEA0EB0801494501D903260BE0B6
:10148000D5F890008007F3D5D5F89000216C20F4B2
:1014900040700843C5F890001FB1A86D20F080503F
:1014A000A8652078C00707D0D5F88800616820F0CB
:1014B00003000843C5F888002078800707D5D5F8D1
:1014C0008800A16820F00C000843C5F88800207847
:1014D000400707D5D5F88800E16820F030000843C0
:1014E000C5F888002078000707D5D5F8880021695D
:1014F00020F0C0000843C5F888002078800607D592
:10150000D5F88800616920F440600843C5F8880078
:101510002078400607D5D5F88800A16920F440500E
:101520000843C5F888002078000607D5D5F888005C
:10153000E16920F440400843C5F888002088C005D0
:1015400007D5D5F88800216A20F440300843C5F853
:1015500088002088800507D5D5F88800616A20F4C6
:1015600040200843C5F88800208840050FD5D5F8ED
:101570008800A16A20F440100843C5F88800A06ADA
:10158000B0F5801F03D1E86840F48010E86020883F
:1015900000050FD5D5F88800E16A20F44000084323
:1015A000C5F88800E06AB0F5800F03D1E86840F420
:1015B0008010E8602088C0040FD5D5F88800216B22
:1015C00020F040700843C5F88800206BB0F1807FA0
:1015D00003D1E86840F48010E86020884FF0006193
:1015E00080040ED5D5F88800626B20F0406010436F
:1015F000C5F88800606B884203D1E86840F4801029
:10160000E860208840040ED5D5F88800A26B20F051
:1016100040601043C5F88800A06B884203D1E86899
:1016200040F48010E860208800040FD5D5F88800C9
:10163000E16B20F040500843C5F88800E06BB0F142
:10164000805F03D1E86840F48030E8603046BDE850
:10165000F883000000100240007000402DE9F047C0
:101660000E4605004FF0000725D0DFF8AC81D8F812
:10167000000000F00F00B0420CD2D8F8001021F0AA
:101680000F013143C8F80010D8F8000000F00F0037
:10169000B04210D12968614CC80741F2883A5AD04B
:1016A0006868DFF87C91032808D0022820682DD0D4
:1016B000400500282CDB0120BDE8F0872068800170
:1016C000F9D5E06800F00302E068C0F30310401CA5
:1016D000032A19D0534A00BFB2FBF0F0E268C2F30C
:1016E00006225043E268C2F34162521C5200B0FB32
:1016F000F2F0484517D9A06810F0F00F0CD0880719
:1017000011D5A86840B10EE0474AE5E78003D0E76D
:1017100000F092F8484506D9A06820F0F00040F0AB
:101720008000A0608027A068696820F0030008435B
:10173000A060FFF751FD814606E000BFFFF74CFDBA
:10174000A0EB090151453AD8A068696800F00C0087
:10175000B0EB810FF2D12868810714D5400703D57B
:10176000A06840F4E060A0602878000705D5A06874
:1017700020F4605040F4E060A060A068A96820F008
:10178000F000084304E0802F03D1A06820F0F000AF
:10179000A060D8F80010404601F00F01B14216D900
:1017A000016821F00F0131430160FFF715FD074685
:1017B00007E000BFFFF710FDC11B514501D9032011
:1017C0007AE7D8F8000000F00F00B042F2D1287894
:1017D000400705D5A068E96820F4E0600843A060F0
:1017E0002878000706D5A068296920F4605040EAEF
:1017F000C100A06000F020F8A1680C4AC1F30311F9
:10180000515C01F01F01C84009490860094800689F
:10181000BDE8F047FFF7FEBC002002400010024088
:1018200000B4C4040024F40000366E01D85500084A
:101830003C00002030000020184910B58868C0F333
:1018400081021748012A0BD08A68164BC2F3810225
:10185000022A06D08A68C2F38102032A03D000203C
:1018600010BD184610BDCA6802F00304CA68C2F36E
:101870000312521C032C02D0B0FBF2F001E0B3FBC8
:10188000F2F0CA68C968C2F306225043C1F341614D
:10189000491C4900B0FBF1F010BD000000100240EF
:1018A0000024F40000366E012DE9F84304007AD0DC
:1018B0002078FA4DC00747D0A868E96800F00C000E
:1018C00001F003010C2802D0082817D001E00329F9
:1018D00014D06068B0F5803F17D0B0F5A02F28680D
:1018E00017D020F480302860286820F480202860F9
:1018F0006068E0B1FFF770FC064614E028688003DA
:1019000022D560680028D2D01EE0286840F48030DC
:10191000EDE740F480202860F7E700BFFFF75CFCAC
:10192000801B642870D828688003F7D50CE0FFF787
:1019300053FC064605E000BFFFF74EFC801B642801
:10194000F0D828688003F7D4207880074CD5A868A1
:10195000E96800F00C0001F003010C2802D0042813
:101960000DD001E002290AD0E068002828682BD0B9
:1019700040F480702860FFF72FFC064619E02868C5
:10198000400502D5E068002891D06868217C20F0ED
:10199000FE4040EA01606860C1480068FFF73AFC19
:1019A000002800D120E076E1FFF716FC801B02281A
:1019B000B8D828684005F7D56868217C20F0FE403B
:1019C00040EA016068600FE020F480702860FFF753
:1019D00003FC064605E000BFFFF7FEFB801B022864
:1019E000A0D828684005F7D42078000729D5606979
:1019F0000028D5F8940013D040F00100C5F89400F9
:101A0000FFF7EAFB064606E090E000BFFFF7E4FBC5
:101A1000801B022886D8D5F894008007F6D510E000
:101A200020F00100C5F89400FFF7D6FB064604E05D
:101A3000FFF7D2FB801B022878D8D5F894008007E6
:101A4000F6D42078400761D5A86D0026C00008D4E0
:101A5000A86D40F08050A865A86D012600F0805068
:101A6000009090480168C90511D40168804641F48E
:101A700080710160FFF7B0FB074604E0FFF7ACFBA5
:101A8000C01B022852D8D8F80000C005F6D5A068BF
:101A9000012815D00528D5F8900016D020F00100B7
:101AA000C5F89000D5F8900020F00400C5F890002B
:101AB000A06841F28838B8B1FFF78EFB07460EE008
:101AC000D5F8900040F00100F0E740F00400C5F8C0
:101AD0009000F5E7FFF780FBC11B414526D8D5F8FC
:101AE00090008007F6D50CE0FFF776FB074604E090
:101AF000FFF772FBC11B414518D8D5F8900080074D
:101B0000F6D41EB1A86D20F08050A865207880061C
:101B100029D5A0690028D5F8980013D040F001001D
:101B2000C5F89800FFF758FB064606E077E000BFCF
:101B3000FFF752FB801B022877D8D5F89800800762
:101B4000F6D510E020F00100C5F89800FFF744FB3F
:101B5000064604E0FFF740FB801B022865D8D5F855
:101B600098008007F6D4E069F0B3A968C1F3810159
:101B7000032961D00228286820F0807028600BD0EB
:101B8000E86820F00300E860E86847490840E8603A
:101B9000FFF722FB04464BE0FFF71EFB064604E07E
:101BA000FFF71AFB801B02283FD828688001F7D472
:101BB000F4E908016FF00F0202EB01110843218ADA
:101BC0005204490802EB4151A26841EA022108434C
:101BD000217D4FF07E42490802EB41610843217BA1
:101BE00040EAC160E96800E062E0304A1140084321
:101BF000E860286840F080702860E86840F08070F5
:101C0000E860FFF7E9FA044605E000BFFFF7E4FAF1
:101C1000001B022809D828688001F7D548E004E0B5
:101C2000FFF7DAFA001B022802D90320BDE8F88387
:101C300028688001F4D43BE00128F7D0E868226AE4
:101C400000F00301914226D1616A00F0F00209011F
:101C5000103991421FD1A26A00F4FE41B1EB022F6C
:101C600019D194F82C2000F07841B1EBC26F12D159
:101C7000218E00F4C00249084905A1F500119142E6
:101C800009D194F8341000F0C06049084906A1F168
:101C9000007181420CD00120C8E700000010024012
:101CA0003000002000700040FFFFEEFE0C809F011E
:101CB0000020BBE710B5401EB0F1807F01D30120AA
:101CC00010BD4FF0E02460610F21601701F096FD18
:101CD0000020A06107202061002010BD70477047E0
:101CE00070470000F0B590F83C20012A4AD001224C
:101CF00080F83C20CA688B6822F440721A434B6813
:101D000022F480621A430B6822F400621A430B69C2
:101D100022F480521A434B6922F400521A430B6B8F
:101D200022F480421A430B8B22F4702242EA0342CF
:101D3000154C03680026154DA34201D0AB4203D1D8
:101D4000CF6922F080523A43A34201D0AB4214D172
:101D50000F8D22F4700242EA07520F6A22F080725D
:101D60003A434F6A22F000723A43A34201D0AB4299
:101D700003D1C96A22F000520A435A6480F83C60D9
:101D80000020F0BD0220F0BD002C014000340140D5
:101D90007047704770470000F0B590F83C20012A6A
:101DA0003AD0012580F83C50022280F83D2003689B
:101DB0005A689C68194E1A4FB34201D0BB4204D1F5
:101DC00022F4700C4A6842EA0C02DFF858C002EABA
:101DD0000C02D1F800C04CEA020CC3F804C002683F
:101DE000B2420DD0B2F1804F0AD00F4B9A4207D0C9
:101DF0000E4B9A4204D0BA4202D00D4B9A4204D103
:101E0000896824F080031943916080F83D500021D7
:101E100080F83C100846F0BD0220F0BD002C0140C7
:101E2000003401408FFFFFFD000400400008004027
:101E300000400140704710B5040003D094F83D0005
:101E400010B107E0012010BD002084F83C002046BE
:101E500000F022F8022084F83D00211D206801F0E6
:101E600033FA012084F8480084F83E0084F83F00EB
:101E700084F8400084F8410084F8420084F843006C
:101E800084F8440084F8450084F8460084F847004C
:101E900084F83D00002010BD10B586B00446142122
:101EA0006846FEF7BEF91C4A21681C48914209D1D8
:101EB000016E41F400610166006E00F4006005905F
:101EC00006B010BD164A9142FAD1816D41F002016F
:101ED0008165816D01F002010591C16C41F0010144
:101EE000C164C06C002100F001000590402000900A
:101EF0000220CDE90101CDE9031069464FF0904081
:101F0000FFF77CF8002211461D20FFF7CBF91D20BA
:101F1000FFF7BAF9D4E70000002C0140001002409E
:101F20000004004070B5044690F83C00012814D02D
:101F3000012584F83C50022084F83D002268906816
:101F4000344B184020F47F4090600868702827D0F8
:101F500010DC10F00F0F03D04AE04FF0020070BD0C
:101F60004FEA2012072A43D2DFE802F050505050C7
:101F700048313900284BC21A984247D009DCB0F5E5
:101F8000805F35D0B0F5005F15D0B0F1101F2FD1B4
:101F90003CE0102A3AD0202A38D0502A28D135E007
:101FA000CB68D1E90121206801F0F3F9206881684C
:101FB00041F0770109E0CB68D1E90121206801F007
:101FC000E8F92068816841F48041816010E0CA68C6
:101FD0004968206801F088FB5021206806E0CA6843
:101FE0004968206801F0C8FB6021206801F0DCF935
:101FF00084F83D50002084F83C0070BDCA684968F0
:10200000206801F071FB40212068EFE7226801465B
:102010001046EBE788FFCEFF2000100070B50546A4
:102020001F482DED028B85422ED1287F1D4C0128A3
:1020300002D0022807D00CE00021284600F0F3FB74
:10204000401CA06005E00421284600F0ECFB401C89
:10205000E0602968002048621349A068B1FBF0F1F4
:102060006161FEF771FA41EC180BE068FEF76CFA5B
:1020700053EC182BFEF7F9F99FED0C1B53EC112BC9
:10208000FEF781F9C4E908010021054800F0CCF809
:10209000BDEC028B0421BDE87040014800F0C4B8DB
:1020A000180100200800002040420F00000000003E
:1020B000000059402DE9F041054690F83C000C46DF
:1020C000012836D0012085F83C008AB3042A42D08A
:1020D0002868082A51D0D4E90023E168066A26F46A
:1020E00080560662C669076A26F4407646EA0323EC
:1020F0004FF6FF7606EA013123F4704319434FF49B
:10210000204627F4204306EA02321A43C1610262E4
:102110002868C16921F44061C1612868C169A26869
:1021200041EA0221C161002085F83C00BDE8F08150
:1021300001E00220FAE7D4E90012E368286801F020
:10214000E5FA2868816921F00C01816128688169BC
:10215000A26811430FE0D4E90012E368286801F097
:102160001DFB2868816921F44061816128688169CB
:10217000A26841EA02218161D5E7D4E90027267BE4
:10218000016A21F480710162C169036A21F00301CF
:10219000394321F0F00731074FF4206647EA116117
:1021A00023F4206306EA02221A43C161026228680E
:1021B000C16921F00C01C1612868C169A26811439D
:1021C000B0E710B5040003D094F83D0010B107E06B
:1021D000012010BD002084F83C00204600F022F8C9
:1021E000022084F83D00211D206801F06DF80120D7
:1021F00084F8480084F83E0084F83F0084F84000EA
:1022000084F8410084F8420084F8430084F84400D4
:1022100084F8450084F8460084F8470084F83D00BF
:10222000002010BD7047000010B5044679B10429A4
:1022300012D0082915D00C2918D0102919D094F8DB
:10224000430000BF94F84720012817D114E094F808
:102250003E0094F84420F7E794F83F0094F84520B6
:10226000F2E794F8400094F84620EDE794F8410036
:10227000E8E794F84200E5E7012A01D0012010BD0B
:10228000022071B1042915D008291CD00C2948D08E
:10229000102949D084F8430084F847000C291BD149
:1022A00045E084F83E0084F844002068C26842F0AB
:1022B000020210E084F83F0084F845002068C268FC
:1022C00042F0040207E084F8400084F846002068E9
:1022D000C26842F00802C2600122206801F04CF896
:1022E0001549206888420ED0B0F1804F0BD01349B9
:1022F000884208D01249884205D01249884202D04B
:102300001149884207D18168104A1140062906D038
:10231000B1F5803F03D0016841F001010160002068
:1023200010BD84F84100B7E784F84200B4E72068A4
:10233000C26842F01002CEE7002C014000040040C9
:102340000008004000340140004001400700010047
:1023500070B50446006801694FF00005C94389075C
:1023600015D4C168C943890711D4E91E0161012050
:102370002077206880698007204602D0FFF74EFE54
:1023800004E000F00DF9204600F0CCF92577206834
:102390000169C943490717D4C168C943490713D420
:1023A0006FF004010161022020772068806910F439
:1023B000407F204602D0FFF731FE04E000F0F0F845
:1023C000204600F0AFF9257720680169C943090765
:1023D00016D4C168C943090712D46FF0080101611E
:1023E000042020772068C0698007204602D0FFF7CC
:1023F00015FE04E000F0D4F8204600F093F92577AC
:1024000020680169C943C90617D4C168C943C90610
:1024100013D46FF010010161082020772068C06993
:1024200010F4407F204602D0FFF7F8FD04E000F0F2
:10243000B7F8204600F076F9257720680169C9438E
:10244000C90708D1C168C943C90704D1891E016100
:10245000204600F0E7F920680169C943090609D45C
:10246000C168C943090605D46FF0800101612046A7
:10247000FFF735FC20680169C943C90509D4C16863
:10248000C943090605D46FF4807101612046FFF746
:1024900025FC20680169C943490609D4C168C943BC
:1024A000490605D46FF040010161204600F0D0F9E3
:1024B00020680169C943890609D4C168C9438906EE
:1024C00005D46FF0200101612046FFF709FC206868
:1024D0000169C943C90209D4C168C943C90205D405
:1024E0006FF4801101612046FFF753FC20680169F9
:1024F000C943890209D4C168C943890205D46FF46C
:10250000001101612046FFF743FC20680169C943BF
:10251000490209D4C168C943490205D46FF4800156
:1025200001612046FFF736FC20680169C9430902B2
:102530000BD4C168C943090207D46FF400010161DB
:102540002046BDE87040FFF775BC70BD10B586B081
:10255000044614216846FDF764FE0F49206888424E
:1025600017D10E48C16C41F00101C164C06C6946CD
:1025700000F0010005904FF40060009002200190EF
:102580000020029003900B2004904FF09040FEF743
:1025900035FD06B010BD0000002C014000100240C7
:1025A000704770B5044690F83C000D4601280BD0EA
:1025B000012084F83C000C2A45D007DC5AB1042ADB
:1025C0001BD0082A78D12CE0022070BD102A4ED0F2
:1025D000142A71D15DE0206800F0F0FE2068816966
:1025E00041F0080181612068816921F00401816165
:1025F000206881692A69114311E0206800F02CFFEE
:102600002068816941F4006181612068816921F459
:1026100080618161206881692A6941EA02218161C2
:102620004AE0206800F060FF2068C16941F00801BD
:10263000C1612068C16921F00401C1612068C169DC
:102640002A69114311E0206800F096FF2068C169F3
:1026500041F40061C1612068C16921F48061C161F8
:102660002068C1692A6941EA0221C16124E0206829
:1026700000F0CAFF2068016D41F008010165206883
:10268000016D21F0040101652068016D2A69114383
:1026900011E0206800F0F0FF2068016D41F4006156
:1026A00001652068016D21F4806101652068016D7C
:1026B0002A6941EA02210165002084F83C0070BDCE
:1026C00010B5040003D094F83D0010B107E00120DC
:1026D00010BD002084F83C00204600F022F80220C3
:1026E00084F83D00211D206800F0EEFD012084F8F3
:1026F000480084F83E0084F83F0084F8400084F8E5
:10270000410084F8420084F8430084F8440084F8CF
:10271000450084F8460084F8470084F83D00002016
:1027200010BD70477047000030B50446022269B101
:10273000042912D0082917D00C291CD0102921D027
:1027400094F84300012824D0012030BD94F83E00C5
:102750000128F9D184F83E201DE094F83F000128BB
:10276000F2D184F83F2016E094F840000128EBD124
:1027700084F840200FE094F841000128E4D184F867
:10278000412008E094F842000128DDD184F842207D
:1027900001E084F843200122206800F0EDFD194B90
:1027A00020681949194A984209D0884207D09042B6
:1027B00005D0174DA84202D0164DA84203D1456C52
:1027C00045F400454564206898420CD0B0F1804F34
:1027D00009D0114B984206D0104B984203D0884242
:1027E00001D0904207D181680D4A1140062906D0D8
:1027F000B1F5803F03D0016841F001010160002084
:1028000030BD0000002C0140003401400040014078
:10281000004401400048014000040040000800401E
:102820000700010070470246002041B1042909D089
:1028300008290AD00C2901D11068006C7047106873
:10284000406B70471068806B70471068C06B7047B2
:102850007047FEE700B585B014216846FDF7E1FC3E
:102860004FF6FF70009000200321CDE90201019096
:1028700069460248FEF7C2FB05B000BD00080048EB
:1028800000B585B014216846FDF7CBFC4FF6FF700C
:1028900000900120019003200390002002906946DF
:1028A0000248FEF7ABFB05B000BD00000008004881
:1028B00070B5002406462146204600F003F900F0DA
:1028C00041F94FF49635304600F010F9641CAC42E3
:1028D000F9D370BD30B587B014216846FDF7A1FC6F
:1028E0001E48C16C41F00401C164C16C01F00401D7
:1028F0000591C16C41F00101C164C16C01F001019D
:102900000591C16C41F00201C164C06C012500F069
:10291000020005904FF44870CDE9000500240394AF
:10292000694602940E48FEF769FB28020394009062
:10293000CDE901544FF0904469462046FEF75EFB16
:10294000FFF79EFFA06940F48070A0610448183032
:10295000016841F40871016007B030BD0010024009
:1029600000040048203AD2B2034B02EB420203EBD0
:10297000021200F019B8000008440008F0B50E4635
:102980000746002540F23F1407E021463846FFF78E
:10299000E9FF103C6D1CA4B2761C3278002A01D0ED
:1029A000142DF2D3F0BD00002DE9F04791468A4680
:1029B0000026044600F086F8DFF84080012700BFBB
:1029C00000F0C0F85FF0000539F8160007FA05F1CD
:1029D0000842404601D1408800E0008800F086F8B7
:1029E0006D1C102DF0D3641CE4B25146204600F05B
:1029F00069F8761C182EE3D3BDE8F08700000020AC
:102A000010B5FFF767FF002000F014F8084CA08015
:102A1000A088A0F50241303906D000F0FFFA00206E
:102A200000F008F8A08010BD00F06FFAF7E7000092
:102A30000000002070B51D490A6842F400720A6067
:102A40000A6842F480720A60184C103C226842F016
:102A500020022260164A1060086840F020000860DA
:102A600000BF00BF00BF206840F020002060206849
:102A700040F480702060FFF7EDFE4FF09041886ACF
:102A800040F48070886200BF00BF00BF0848001F8C
:102A9000006885B2886940F480708861FFF7F0FEB5
:102AA000206840F400702060284670BD280400486B
:102AB0001408004801B5BDF800000149488008BD70
:102AC0000000002010B50C460146202000F068F8F8
:102AD0002146BDE81040212000F062B801B5BDF8E4
:102AE00000000149088008BD00000020134A116859
:102AF00041F400711160114910390B6843F480737F
:102B00000B600B6843F020030B600D4B18601068DE
:102B100040F02000106000BF00BF00BF086840F018
:102B200020000860086840F48070086000BF00BFA3
:102B300000BF086840F4007008607047280400482F
:102B4000140800481449086840F4007008600868D8
:102B500040F48070086010481038026842F020028B
:102B600002600E4B22221A600A6842F020020A60BC
:102B700000BF00BF00BF016841F020010160016893
:102B800041F48071016000BF00BF00BF016841F4E3
:102B900000710160704700002804004814080048D4
:102BA000184B10B51A6842F400721A601A6842F4A1
:102BB00080721A60134A103A146844F020041460BA
:102BC000114C2060186840F02000186000BF00BF62
:102BD00000BF106840F020001060106840F4807062
:102BE00010602160186840F02000186000BF00BF2E
:102BF00000BF106840F020001060106840F4807042
:102C0000106010BD280400481408004800EB810043
:102C1000006E00F0F84070478068C0F3C000704755
:102C20008068C0F380007047042303EAD15310B5D5
:102C300018444369C1F3045107248C40A3438A40DC
:102C40001343436110BD00EB8100016E21F0004190
:102C5000114301667047000030B589B020216846F5
:102C6000FDF7DFFA19481849002401604902C0E95C
:102C70000114C46004250461C0E905450477447764
:102C80000121016280F82440C462046380F8384066
:102C9000C46380F84040FDF7F7FF08B1FDF7DCFDA5
:102CA0000B4800900620CDE901047F200594CDE972
:102CB000030569460548FDF7D1FD002801D0FDF761
:102CC000CBFD09B030BD00000001005060000020C5
:102CD0000080F03E70B586B014216846FDF7A1FA79
:102CE0002248C16C41F00401C164C16C01F00401CF
:102CF0000591C16C41F02001C164C16C01F020015B
:102D00000591C16C41F00101C164C16C01F0010188
:102D10000591C16C41F00201C164C06C144E00F019
:102D200002004FF47F440590002221463046FEF712
:102D30004EFA0125CDE9004500240294694630464B
:102D40000394FEF75BF9CDE9005469464FF09040DB
:102D50000294FEF753F90720CDE9000469460548BF
:102D60000294FEF74BF906B070BD0000001002405F
:102D7000000800480004004810B59CB000241994D5
:102D80001A9417941894149415941C210DA8169451
:102D9000FDF747FA34216846FDF743FA2D482C49E0
:102DA000016040F21F31C0E901146321C0E903143E
:102DB0008021C0E90541FFF73EF808B1FDF74CFD61
:102DC0004FF48050179017A92248FFF7ABF808B1CD
:102DD000FDF742FD1F48FFF773FC08B1FDF73CFD0E
:102DE0001494159414A91B481694FEF7D5FF08B146
:102DF000FDF732FD60200D900920CDE90E041094FE
:102E0000119412940C220DA912481394FFF7C9FBD8
:102E100008B1FDF721FD00944FF40050CDE90440C6
:102E200003940003CDE908400194029406940794AA
:102E30000A940B94694607480C94FEF753FF08B1B7
:102E4000FDF70AFD0348FFF781FB1CB010BD000031
:102E5000002C0140CC00002010B58CB0002405945B
:102E6000274804940694079408940A9409940094BB
:102E7000019402942149039401604F21C0E9011497
:102E80004FF6FF71C0E903148461FEF7D4FF08B167
:102E9000FDF7E2FC4FF48050049004A91848FFF7B6
:102EA00041F808B1FDF7D8FC1548FFF78AF908B1D9
:102EB000FDF7D2FC089408A911480A94FEF76CFFAC
:102EC00008B1FDF7C9FC0120CDE9004002940022C1
:102ED00069460B480394FFF7EDF808B1FDF7BCFC19
:102EE000022000900190042269460548FFF7E2F8AD
:102EF000002801D0FDF7B0FC0CB010BD000400406C
:102F000018010020FEE7FEE7704730B501210020E0
:102F1000FFF746FE4FF47A70FDF790FC0021012088
:102F2000FFF73EFE41F290711020FFF739FE4FF49B
:102F30001C516020FFF734FE01216120FFF730FEB5
:102F400002214620FFF72CFE48F210011320FFF764
:102F500027FE48F2FE011220FFF722FE4FF4A06187
:102F60000220FFF71DFE41F230010320FFF718FE9B
:102F700040F2033421463020FFF712FE2146312073
:102F8000FFF70EFE21463220FFF70AFEE51E294616
:102F90003320FFF705FE03213420FFF701FE214611
:102FA0003520FFF7FDFD14213620FFF7F9FD2146FE
:102FB0003720FFF7F5FD21463820FFF7F1FD2146C8
:102FC0003920FFF7EDFD29463A20FFF7E9FD0321FF
:102FD0003B20FFF7E5FD21463C20FFF7E1FD4FF4E4
:102FE000A0513D20FFF7DCFD4FF400719220FFF768
:102FF000D7FD21469320FFF7D3FD40F60D01902029
:10300000FFF7CEFD41F218010320FFF7C9FDBDE82F
:10301000304040F273110720FFF7C2BD10B543F2F4
:103020000801E320FFF7BCFD1221E720FFF7B8FD00
:1030300041F23121EF20FFF7B3FD00210120FFF71E
:10304000AFFD4FF4E0610220FFF7AAFD41F230012D
:103050000320FFF7A5FD00210420FFF7A1FD40F2AA
:1030600007210820FFF79CFD00210920FFF798FDAC
:1030700000210A20FFF794FD00210C20FFF790FDAE
:1030800000210D20FFF78CFD00210F20FFF788FDA8
:1030900000211020FFF784FD07211120FFF780FD9C
:1030A00000211220FFF77CFD00211320FFF778FD9F
:1030B000C820FDF791FF41F290611020FFF770FDED
:1030C00040F227211120FFF76BFD3220FDF784FF2E
:1030D0001D211220FFF764FD3220FDF77DFF4FF424
:1030E00000611320FFF75CFD14212920FFF758FD34
:1030F0000B212B20FFF754FD3220FDF76DFF00213F
:103100002020FFF74DFD00212120FFF749FD072179
:103110003020FFF745FD40F207713120FFF740FDF9
:1031200006213220FFF73CFD40F204713520FFF705
:1031300037FD41F604713620FFF732FD04213720B8
:10314000FFF72EFD00213820FFF72AFD40F206711F
:103150003920FFF725FD40F201713C20FFF720FDEB
:103160000F213D20FFF71CFD00215020FFF718FD27
:10317000EF215120FFF714FD00215220FFF710FD31
:1031800040F23F115320FFF70BFD4FF41C5160201C
:10319000FFF706FD01216120FFF702FD00216A20F3
:1031A000FFF7FEFC00218020FFF7FAFC00218120C0
:1031B000FFF7F6FC00218220FFF7F2FC00218320BC
:1031C000FFF7EEFC00218420FFF7EAFC00218520B8
:1031D000FFF7E6FC10219020FFF7E2FC002192208F
:1031E000FFF7DEFC03219320FFF7DAFC4FF4887130
:1031F0009520FFF7D5FC00219720FFF7D1FC002197
:103200009820FFF7CDFC41F218010320FFF7C8FC1E
:10321000BDE8104040F273110720FFF7C1BC7047B2
:10322000FDF7E0BF00B5A5B038216846FCF7F9FF0F
:1032300014211FA8FCF7F5FF44210EA8FCF7F1FFAD
:103240004FF40070FEF760F80220C10103914021A5
:1032500004910121CDE9080100900A21CDE90A106D
:1032600007900C900D906846FEF71EFB08B172B6F1
:10327000FEE70F201F900320209000202190229035
:10328000239002211FA8FEF7E9F908B172B6FEE704
:103290004FF400400E9080031D900EA8FEF79AF8A0
:1032A000002801D072B6FEE725B000BD02480168D3
:1032B00041F470010160704788ED00E00148FFF7BC
:1032C00047B80000180100202DE9F0430268234BA5
:1032D000234D244E244C4FF08049984207D0484556
:1032E00005D0A84203D0B04201D0A04203D122F0C1
:1032F00070074A683A431D4FDFF874C0DFF87480E6
:1033000098420DD048450BD0A84209D0B04207D012
:10331000A04205D0B84203D0604501D0404503D15A
:1033200022F44075CA682A434D6922F080022A437C
:1033300002608A68C2620A688262984207D0A0422C
:1033400005D0B84203D0604501D0404501D109699C
:10335000016301214161BDE8F0830000002C0140C0
:1033600000040040000800400034014000400140DB
:10337000004401400048014010B501F01F03012145
:10338000046A99408C430462016A9A4011430162C5
:1033900010BD10B5846842EA032224F47F440A4336
:1033A0002243826010BD00008268034B1A400A432A
:1033B00042F00701816070478FFFCFFF2DE9F04396
:1033C000026A22F001020262056A436882691C4CAB
:1033D00025F0020522400C6822F0030214438A689B
:1033E000194E2A43174D194FDFF864C0DFF8649077
:1033F000A84207D0B04205D0B84203D0604501D002
:10340000484506D122F00808CA6842EA080222F0BC
:103410000402A84207D0B04205D0B84203D06045AC
:1034200001D0484505D14D6923F440731D438B6994
:103430002B4343608461496841630262BDE8F083C5
:103440008FFFFEFF002C014000340140004001408E
:103450000044014000480140F0B5026A22F0100229
:103460000262056A42688369194C1B4E23400C684E
:1034700023F4407343EA042425F020038D6843EAD3
:103480000513144DA84201D0B04206D1CF6823F0F5
:10349000800343EA071323F04003A8420AD0B04256
:1034A00008D00E4DA84205D00D4DA84202D00D4DBA
:1034B000A84207D14D6922F4406242EA85028D6933
:1034C00042EA850242608461496881630362F0BD1B
:1034D000FF8FFFFE002C01400034014000400140FE
:1034E0000044014000480140F0B5026A22F48072B5
:1034F0000262056A4368C269194C1B4E22400C687F
:1035000022F00302144325F400728D6842EA05227A
:10351000144DA84201D0B04206D1CF6822F4006217
:1035200042EA072222F48062A8420AD0B04208D0C0
:103530000E4DA84205D00E4DA84202D00D4DA84216
:1035400007D14D6923F4405343EA05138D6943EADB
:1035500005134360C4614968C1630262F0BD0000A5
:103560008FFFFEFF002C014000340140004001406D
:103570000044014000480140F0B5026A22F4805244
:103580000262056A4268C369194C1B4E23400C68ED
:1035900023F4407343EA042425F400538D6843EA7E
:1035A0000533144DA84201D0B04206D1CF6823F4B0
:1035B000004343EA073323F48043A8420AD0B042D1
:1035C00008D00E4DA84205D00D4DA84202D00D4D99
:1035D000A84207D14D6922F4404242EA85128D6922
:1035E00042EA85124260C461496801640362F0BD29
:1035F000FF8FFFFE002C01400034014000400140DD
:10360000004401400048014030B5026A22F4803293
:103610000262046A4268036D114D2B400D681D4320
:1036200024F400330C8943EA04430E4CA0420BD02F
:103630000D4CA04208D00D4CA04205D00C4CA0422D
:1036400002D00C4CA04204D14C6922F4803242EAF0
:1036500004224260056549688164036230BD000050
:103660008FFFFEFF002C014000340140004001406C
:10367000004401400048014030B5026A22F4801243
:103680000262046A4268036D114D24F400142B4059
:103690000D6843EA05230D8944EA05540D4DA842FF
:1036A0000BD00D4DA84208D00C4DA84205D00C4DB2
:1036B000A84202D00B4DA84204D14D6922F48022C9
:1036C00042EA8522426003654968C164046230BDF4
:1036D000FF8FFFFE002C01400034014000400140FC
:1036E000004401400048014010B5036A046A24F018
:1036F00001040462846924F0F00444EA021423F013
:103700000A020A438461026210BD000070B5046AB7
:1037100024F0010404628469056A124EB0420ED09E
:10372000B0F1804F0BD0104EB04208D00F4EB042D7
:1037300005D00F4EB04202D00E4EB04203D124F05D
:103740000304144301E044F001041A0724F0F004D8
:1037500044EA126225F00A0301F00A01194382616A
:10376000016270BD002C01400004004000080040D0
:10377000003401400040014010B5036A23F01003FB
:1037800003628369046A23F4704343EA023224F03B
:10379000A00343EA01118261016210BD30B5046AE1
:1037A00024F0100404628469056A24F4407444EA35
:1037B000022222F470444FF6FF7202EA03322243DF
:1037C000A02425F0A00304EA0111194382610162DB
:1037D00030BDFEE70FB4084B10B504A902AA039848
:1037E00000F0EEF8044602A9002000F06CFC204630
:1037F00010BC5DF814FB0000C74000080907090E63
:10380000002804DB00F1E02080F80014704700F08D
:103810000F0000F1E02080F8141D704702E008C896
:10382000121F08C1002AFAD170477047002001E03A
:1038300001C1121F002AFBD1704700002DE9FF5F74
:1038400082B00021DDE90430020DDDF840B0034311
:1038500018D044F61050A2F2FF32424315141198CA
:1038600001281FD0A5EB0B00401C5FEA000A4FF0B7
:1038700000064E4FDFF83891B046504615D5CAF1D4
:10388000000413E0119801244AA3012801D16FEA32
:103890000B010298119AC0E90031C0E9024206B05A
:1038A000BDE8F09FCBF10000DFE704460021404A6D
:1038B000491842EB0450CDE9001012E0E00707D0B0
:1038C00032463B4640464946FCF75DFD8046894608
:1038D00032463B4610461946FCF755FD06460F4654
:1038E0006410002CEAD1DDE90401DDE90023BAF11E
:1038F000000F06DAFCF747FD42464B46FCF743FD56
:1039000005E0FCF7B2FD42464B46FCF7AEFD04462F
:103910000E460022284BFCF72BFF03D84FF0FF3058
:10392000014607E00022254B20463146FCF784FC87
:10393000FCF705FF102409E0002C0ADB0A22002313
:10394000FCF73EFE039B30321A55641E50EA01021A
:10395000F2D1641C039AC4F111031444119A012A90
:1039600003D0012208430DD10AE0084304D000200F
:103970004FF0110B119072E7A3EB0B056D1E0DE0DC
:103980005B4504DD4FF0000205F1010504E003DAB8
:103990004FF00002A5F10105002AECD00298119920
:1039A000C0E90231C0E9004579E700000000144099
:1039B0000000F03F300000000000F0430000E03F56
:1039C0002DE9FF4F95B09A46884606460025EEE160
:1039D000252877D100242746F94A0121039400E0E5
:1039E000044316F8013F203B01FA03F01042F7D1DF
:1039F00030782A2811D06FF02F033078A0F13002F0
:103A0000092A16D8039A44F0020402EB820203EB5F
:103A100042021044761C0390EFE758F8042B0392FF
:103A2000002A03DA504244F40054039044F00204A4
:103A3000761C30782E2816D116F8010F44F00404B5
:103A40002A280DD06FF02F023078A0F13003092B17
:103A500009D807EB870302EB4303C718761CF3E78B
:103A600058F8047B761C30786C280FD006DC4C2884
:103A700017D068280DD06A2814D104E0742810D01B
:103A80007A280FD10DE044F400140AE044F48014C5
:103A900001E044F440147278824202D104F58014AB
:103AA000761C761C307866280BD013DC582877D02B
:103AB00009DC002875D04528F6D04628F4D04728E0
:103AC0001AD193E118E0632835D0642879D06528AD
:103AD00012D18BE1702873D008DC6728F1D06928F7
:103AE0006FD06E280DD06F2806D1ACE073282CD093
:103AF000752874D0782853D05246179990476D1C7A
:103B000054E1C4F30250022809D003280DD0D8F89C
:103B1000001004280DD00D6008F1040846E1D8F823
:103B20000010EA17C1E90052F6E7D8F800100D803E
:103B3000F2E70D70F0E718F8041B8DF80010002074
:103B40008DF80100EB46012003E058F804BB4FF06C
:103B5000FF3061074FF0000102D40DE009F10101CF
:103B60008946B9420FDA8145F8DB1BF809100029B4
:103B7000F4D108E009F1010189468142FADB1BF822
:103B800009100029F6D103985346A0EB09072146F6
:103B90003846179A00F080FA284400EB090507E040
:103BA00044E008E10DE01BF8010B524617999047DD
:103BB000B9F10109F7D2534621463846179AF2E087
:103BC00039E00A21C4F302524FF0000B0091022A9F
:103BD00006D058F8040BC117032A09D00AE023E0E5
:103BE00008F1070020F00702F2E80201904605E024
:103BF00000B2C117042A01D140B2C117002906DA68
:103C00000A460021404261EB02012D2202E022051A
:103C100004D52B228DF80420012203E0E20701D015
:103C20002022F7E7914657E00A2100E010214FF0EB
:103C3000000B00910BE010214FF0000B44F0040446
:103C40000827009103E008204FF0000B0090C4F318
:103C50000252022A05D058F8040B0021032A08D08A
:103C600008E008F1070020F00702F2E802019046A0
:103C700003E080B2042A00D1C0B24FF0000922074D
:103C80002AD53278702A07D0DDF800C08CF0100CED
:103C90005CEA0B0C05D00EE040228DF804200122D6
:103CA00008E050EA010306D030238DF804308DF887
:103CB000052002229146009B83F0080353EA0B0380
:103CC0000AD150EA010201D1620705D530228DF8F0
:103CD00004204FF001097F1E3278582A04D039A2FF
:103CE0000C920CAA02920BE03BA2F9E75B46009A09
:103CF000FCF766FC0C9B9B5C029A521E02921370AE
:103D000050EA0102F2D1029804A9081A00F1200B2E
:103D1000600702D524F4803400E001275F4502DD0E
:103D2000A7EB0B0000E0002000EB0B0100900398D4
:103D30004944401A0390E00306D453462146179A9B
:103D4000039800F0A9F90544002706E001A85246AF
:103D5000C05D179990476D1C7F1C4F45F6DBE00353
:103D60000CD553462146179A039800F095F905445F
:103D700004E030205246179990476D1C0099481E68
:103D800000900029F5DC08E002980299524600787C
:103D9000491C0291179990476D1CBBF10001ABF1D2
:103DA000010BF1DC5BE100F065F90544761C30782D
:103DB00000287FF40DAE19B02846BDE8F08F000052
:103DC00009280100303132333435363738396162F1
:103DD00063646566000000003031323334353637B5
:103DE000383941424344454600000000600700D492
:103DF000062708F1070020F00700F0E802238046BC
:103E000003F0004C5FEA0C0001D097A009E0200508
:103E100001D596A005E0E00701D095A001E0AFF242
:103E20004C001390307823F0004365280CD006DC5A
:103E3000452809D046281DD047287FD13BE0662879
:103E400018D067287AD136E00021112F01DB11202C
:103E500000E0781CCDE9000104A90CA8FFF7EEFCF6
:103E6000DDE90D010C9A4FF0000B07F101091092EA
:103E700000914EE04FF000400097CDE9011004A9F9
:103E80000CA8FFF7DBFCDDE90D020C9B0F994FF04E
:103E9000000B91461093009211B9791C00EB0109B7
:103EA000B7EB090003D4C0F1FF3B07F10109A9EB0F
:103EB0000700019042E0012F00DA01270021112FB5
:103EC00001DD112000E03846CDE9000104A90CA86D
:103ED000FFF7B4FCDDE90D010C9A00914FF0000BE7
:103EE000B946109221070FD4009A4A4503DA914649
:103EF00001E0A9F10109B9F1010F05DD109AA9F15D
:103F00000101515C3029F4D0B84202DA10F1040FFB
:103F100003DA0121CDE9011010E0002803DC83441D
:103F2000A9EB000102E0411C494500DD8946A0EBF8
:103F30000B00401C01904FF000400290200705D478
:103F40000198484502DB4FF0FF30019000208DF8CA
:103F50004B0002980DF14B07B0F1004F25D0022025
:103F60000C902B200D90029800280CDA4042029011
:103F70002D200D9007E00A210298FCF70BFB303151
:103F8000029007F8011D0C99481E0C900029F2DCE4
:103F900002980028EFD1791E0D980870307800F053
:103FA000200040F0450007F8020D11A8C01BC01DFD
:103FB00002901398007800B1012000EB09010198EC
:103FC00001EBE071029801440398401A401E0390EF
:103FD000E00306D453462146179A039800F05CF894
:103FE00005441398007818B15246179990476D1CF4
:103FF000E00323D553462146179A039800F04CF866
:1040000005441BE0BBF1000F07DB0098584504DDB9
:104010001098179910F80B0001E0179930205246BC
:10402000904701980BF1010B401E05F1010501902D
:1040300004D12E205246179990476D1CB9F100010A
:10404000A9F10109DEDC05E017F8010B52461799CA
:1040500090476D1C0299481E02900029F4DC5346DB
:104060002146179A03989EE62D0000002B000000C1
:10407000200000002DE9F041044600251E461746A9
:10408000880404D405E039462020B0476D1C641E26
:10409000F9D52846BDE8F0812DE9F0410446002518
:1040A0001E469046C80301D5302700E0202788042B
:1040B00004D505E041463846B0476D1C641EF9D56D
:1040C0002846BDE8F0810A68531C0B6010707047E9
:1040D00070B520482DED028BFCF704FF1D48FCF75E
:1040E000CFFD1D4E80B2B080FCF72EFA0D4645EC98
:1040F000100B9FED1A1B044653EC112B51EC100BC7
:10410000FCF741F99FED178B53EC182BFCF73BF9AB
:10411000C6E90601154E64203168C86245EC104BB3
:10412000F06053EC182B51EC100BFCF72CF99FEDC1
:10413000101B53EC112BFCF726F99FED0F1B53ECD2
:10414000112BFCF71AF9FCF70CFA31680864BDEC86
:10415000028B70BD60000020080000206666666665
:1041600066660A40000000000000303FCC000020DE
:104170000000000000005940000000000000F03F77
:10418000184810B50168184C2269891A322927D3BA
:104190000068206100F02CF82070E17820EA01022C
:1041A000414062708143A170E0701048012909D03C
:1041B000022915D003290BD0042911D1BDE81040E4
:1041C000FFF786BF02683121D162C160052105E099
:1041D00002684FF4FA61D162C160C72100680164CE
:1041E00010BD00003800002008000020CC00002096
:1041F00070B51C4C01212046FCF7E4FF4FF09045C0
:1042000070B102212046FCF7DDFF48B104212046B1
:10421000FCF7D8FF20B101212846FCF7D3FFB0B945
:104220000A20FCF7D9FE01212046FCF7CBFF80B124
:1042300002212046FCF7C6FF68B104212046FCF7A6
:10424000C1FF50B101212846FCF7BCFF38B1002066
:1042500070BD012070BD022070BD032070BD042020
:1042600070BD00000004004810B5224C22A1264871
:104270006269FFF7AFFA24496020FEF77FFB94EDF7
:10428000080B22A153EC102B1F48FFF7A3FA1E497D
:104290007820FEF773FB94ED060B20A153EC102B56
:1042A0001948FFF797FA18499020FEF767FBA08896
:1042B000FCF74AF99FED1E1B53EC112BFCF763F83A
:1042C0009FED1D1B53EC112BFCF75DF89FED1C1BA4
:1042D00053EC112BFCF751F841EC100B0FA153ECF0
:1042E000102B0948FFF776FABDE810400649C020B8
:1042F000FEF744BB08000020202025642020202059
:104300002020202000000000400000202020253236
:104310002E32662020202020200000002020616F07
:10432000323A25322E326620202020202000000044
:10433000000000000000303F000000000000594075
:10434000000000000000F03F70B5124D044601224D
:104350004FF47F412846FCF73AFF0F4E012204211B
:104360003046FCF734FF002204213046FCF72FFFD3
:10437000210200222846FCF72AFF012204213046B0
:10438000FCF725FF3046BDE8704000220421FCF711
:104390001EBF000000080048000C0048FCF72AFF80
:1043A000FEF740FFFEF796FCFEF7E6FCFEF754FD35
:1043B000FEF752FCFEF724FB0020FEF77BFB4FF6D6
:1043C000FF70FEF78BFB0020FEF772FA0020FFF76C
:1043D000BBFF00210A48FDF727FF04210848FDF72D
:1043E00023FF0C210748FEF79FF9FFF771FE00201D
:1043F000FFF7AAFFFFF7C4FEFFF736FFF7E700005D
:1044000018010020CC000020000000000000000087
:10441000000000000000000000000000000000009C
:10442000000000000000000000000000000000008C
:1044300000000000000000000000800180018001F9
:104440008001800180018001800180018001800164
:104450008001800100000000800180010000000058
:10446000000000000000000000000000CC00CC00B4
:10447000CC00CC00CC00CC0000000000000000000C
:10448000000000000000000000000000000000002C
:10449000000000000000000000000000000000001C
:1044A00000000000600C600C600C30063006FE1F3F
:1044B000FE1F300638071803FE1FFE1F18031803DF
:1044C0008C018C018C01000000008000E003F80FDB
:1044D0009C0E8C1C8C188C009800F801E007800E54
:1044E000801C8C188C189C18B80CF00FE00380000E
:1044F00080000000000000000000000000000E1816
:104500001B0C110C11061106110311039B018E01E6
:10451000C038C06C60446044304430441844186C67
:104520000C380000000000000000E001F003380734
:10453000180618063003F001F000F8009C310E3325
:10454000061E061C061C063FFC73F021000000003E
:104550000000000000000000000000000C000C0043
:104560000C000C000C000C0000000000000000001B
:10457000000000000000000000000000000000003B
:1045800000000000000000000000000200038001A5
:10459000C000C0006000600030003000300030001B
:1045A000300030003000300060006000C000C0000B
:1045B0008001000300020000000020006000C00035
:1045C00080018001000300030006000600060006CB
:1045D00000060006000600060003000380018001BB
:1045E000C00060002000000000000000000000008B
:1045F00000000000C000C000D806F807E00130034A
:10460000380700000000000000000000000000006B
:10461000000000000000000000000000000000009A
:104620000000000080018001800180018001FC3FCA
:10463000FC3F8001800180018001800100000000BA
:10464000000000000000000000000000000000006A
:10465000000000000000000000000000000000005A
:104660000000000000000000000080018001000147
:1046700000018000000000000000000000000000B9
:10468000000000000000000000000000000000002A
:10469000E007E0070000000000000000000000004C
:1046A000000000000000000000000000000000000A
:1046B00000000000000000000000000000000000FA
:1046C00000000000000000000000C000C00000006A
:1046D00000000000000000000000000C000C0006BC
:1046E0000006000600030003000380038001800130
:1046F0008001C000C000C000600060000000000039
:1047000000000000000000000000E003F007380E89
:10471000180C0C180C180C180C180C180C180C1879
:104720000C180C18180C380EF007E00300000000FD
:104730000000000000000000000000018001C00136
:10474000F0019801880180018001800180018001D1
:104750008001800180018001800180010000000053
:1047600000000000000000000000E003F80F180C3B
:104770000C180C1800180018000C0006000380012B
:10478000C000600030001800FC1FFC1F000000008B
:1047900000000000000000000000E001F807180E13
:1047A0000C0C0C0C000C0006C003C007000C001819
:1047B00000180C180C18180CF807E0030000000093
:1047C00000000000000000000000000C000E000FC0
:1047D000000F800DC00C600C600C300C180C0C0C21
:1047E000FC3FFC3F000C000C000C000C0000000023
:1047F00000000000000000000000F80FF80F180093
:1048000018000C00EC03FC071C0E001C001800181C
:1048100000180C181C0C180EF807E003000000002C
:1048200000000000000000000000C007F00F381C6E
:10483000181818000C00CC03EC0F3C0E1C1C0C18B4
:104840000C180C18181C380EF007E00300000000CC
:1048500000000000000000000000FC1FFC1F000C16
:1048600000060006000380038001C001C000E000D4
:104870006000600070003000300030000000000078
:1048800000000000000000000000E003F007380E08
:10489000180C180C180C3806F007F007180C0C1838
:1048A0000C180C180C18380CF80FE003000000006E
:1048B00000000000000000000000E003F007380ED8
:1048C0001C0C0C180C180C181C1C381EF81BE019BA
:1048D0000018000C000C1C0EF807F001000000008E
:1048E00000000000000000000000000000000000C8
:1048F00000000000800180010000000000000000B6
:1049000000000000000000008001800100000000A5
:104910000000000000000000000000000000000097
:104920000000000080018001000000000000000085
:104930000000000000000000800180010001000173
:1049400080000000000000000000000000000000E7
:1049500000000000000000000010001C800FE003B9
:10496000F8001800F800E003800F001C00100000A1
:104970000000000000000000000000000000000037
:104980000000000000000000F81F00000000000010
:10499000F81F000000000000000000000000000000
:1049A0000000000000000000000000000000000007
:1049B000000000000000000008003800F001C007FF
:1049C000001F0018001FC007F00138000800000099
:1049D00000000000000000000000E003F80F180CC9
:1049E0000C180C180018000C000600038001C00011
:1049F000C000C00000000000C000C00000000000B7
:104A0000000000000000000000000000E00718188F
:104A10000420C229224A11440944094409440922B4
:104A20001113E20C024004201818E00700000000F7
:104A30000000000000000000000080038003C006AA
:104A4000C006C006600C600C301830183018F83FF3
:104A5000F83F1C700C600C6006C006C0000000002F
:104A600000000000000000000000FC03FC0F0C0C24
:104A70000C180C180C180C0CFC07FC0F0C180C3044
:104A80000C300C300C300C18FC1FFC070000000030
:104A900000000000000000000000C007F01F3838D0
:104AA0001C300C70066006000600060006000600BA
:104AB000060006600C701C30F01FE00700000000CC
:104AC00000000000000000000000FE03FE0F060EC4
:104AD0000618061806300630063006300630063056
:104AE000063006180618060EFE0FFE030000000032
:104AF00000000000000000000000FC3FFC3F0C0034
:104B00000C000C000C000C00FC1FFC1F0C000C0027
:104B10000C000C000C000C00FC3FFC3F00000000EF
:104B200000000000000000000000F83FF83F1800FF
:104B30001800180018001800F81FF81F18001800B7
:104B400018001800180018001800180000000000D5
:104B500000000000000000000000E00FF83F3C787B
:104B60000E6006E007C00300030003FE03FE03C05F
:104B700007C006C00EC03CF0F83FE00F0000000088
:104B8000000000000000000000000C300C300C3071
:104B90000C300C300C300C30FC3FFC3F0C300C3037
:104BA0000C300C300C300C300C300C30000000009D
:104BB0000000000000000000000080018001800172
:104BC00080018001800180018001800180018001DD
:104BD00080018001800180018001800100000000CF
:104BE00000000000000000000000000600060006B3
:104BF0000006000600060006000600060006000685
:104C00000006180618063807F003E001000000004F
:104C10000000000000000000000006300618060C2E
:104C2000060606038601C60066007600DE008E01D9
:104C300006030606060C0618063006600000000093
:104C4000000000000000000000001800180018001C
:104C50001800180018001800180018001800180094
:104C60001800180018001800F81FF81F00000000B6
:104C7000000000000000000000000EE01EF01EF02A
:104C80001EF036D836D836D836D866CC66CC66CC48
:104C9000C6C6C6C6C6C6C6C686C386C30000000052
:104CA000000000000000000000000C301C303C3010
:104CB0003C306C306C30CC30CC308C310C330C331D
:104CC0000C360C360C3C0C3C0C380C300000000050
:104CD00000000000000000000000E007F81F1C3882
:104CE0000E70066003C003C003C003C003C003C04E
:104CF00003C006600E701C38F81FE00700000000BB
:104D000000000000000000000000FC0FFC1F0C3839
:104D10000C300C300C300C300C18FC1FFC070C0055
:104D20000C000C000C000C000C000C00000000003B
:104D300000000000000000000000E007F81F1C3821
:104D40000E70066003E003C003C003C003C003C0CD
:104D500007E006630E3F1C3CF83FE0F700C0000090
:104D600000000000000000000000FE0FFE1F0638DB
:104D70000630063006300638FE1FFE07060306061C
:104D8000060C061806180630063006600000000003
:104D900000000000000000000000E003F80F1C0C01
:104DA0000C180C180C001C00F803E00F001E003853
:104DB000063006300E301C1CF80FE0070000000023
:104DC00000000000000000000000FE7FFE7F800168
:104DD00080018001800180018001800180018001CB
:104DE00080018001800180018001800100000000BD
:104DF000000000000000000000000C300C300C30FF
:104E00000C300C300C300C300C300C300C300C30C2
:104E10000C300C300C301818F81FE00700000000B0
:104E200000000000000000000000036006300630B3
:104E300006300C180C180C18180C180C380E30060C
:104E40003006700760036003C001C001000000006D
:104E5000000000000000000000000360C361C361A7
:104E6000C3616633663366336633663366336C1B01
:104E70006C1B6C1B2C1A3C1E380E380E00000000F8
:104E8000000000000000000000000FE00C7018306F
:104E90003018700C600EC00780038003C003E0066A
:104EA000700C301C18180C300E6007E00000000079
:104EB0000000000000000000000003C006600C308D
:104EC0001C383818300C6006E007C00380018001F0
:104ED00080018001800180018001800100000000CC
:104EE00000000000000000000000FC7FFC7F00606C
:104EF00000300018000C000600038001C0006000B4
:104F0000300018000C000600FE7FFE7F000000004D
:104F100000000000000000000000E003E00360006B
:104F20006000600060006000600060006000600081
:104F30006000600060006000600060006000600071
:104F40006000E003E003000000003000300060007B
:104F500060006000C000C000C000C001800180018E
:104F600080010003000300030006000600000000AB
:104F700000000000000000000000E003E003000368
:104F80000003000300030003000300030003000309
:104F900000030003000300030003000300030003F9
:104FA0000003E003E003000000000000C001C001B6
:104FB00060036003600330063006180C180C000014
:104FC00000000000000000000000000000000000E1
:104FD00000000000000000000000000000000000D1
:104FE00000000000000000000000000000000000C1
:104FF00000000000000000000000FFFFFFFF0000B5
:10500000000000000000000000000C000C000C007C
:105010000C000C000C00000000000000000000006C
:105020000000000000000000000000000000000080
:105030000000000000000000000000000000000070
:1050400000000000F003F8071C0C0C0C000FF00F20
:10505000F80C0C0C0C0C1C0FF80FF01800000000E2
:1050600000000000000000000000180018001800F8
:1050700018001800D803F80F380C1818181818184A
:10508000181818181818380CF80FD803000000006A
:105090000000000000000000000000000000000010
:1050A00000000000C003F007300E180C18001800B4
:1050B00018001800180C300EF007C00300000000A4
:1050C0000000000000000000000000180018001898
:1050D00000180018C01BF01F301C181818181818DA
:1050E000181818181818301CF01FC01B00000000FA
:1050F00000000000000000000000000000000000B0
:1051000000000000C003F00F300C1818F81FF81F43
:10511000180018003818301CF00FC00700000000FD
:1051200000000000000000000000800FC00FC00061
:10513000C000C000F007F007C000C000C000C00001
:10514000C000C000C000C000C000C00000000000DF
:10515000000000000000000000000000000000004F
:1051600000000000E00DF80F180E0C0C0C0C0C0CDD
:105170000C0C0C0C0C0C180EF80FE00D000C0C0CA9
:105180001C06F807F00100000000180018001800C5
:1051900018001800D807F80F381C18181818181815
:1051A00018181818181818181818181800000000DF
:1051B00000000000000000000000C000C00000006F
:1051C00000000000C000C000C000C000C000C0005F
:1051D000C000C000C000C000C000C000000000004F
:1051E00000000000000000000000C000C00000003F
:1051F00000000000C000C000C000C000C000C0002F
:10520000C000C000C000C000C000C000C000C0009E
:10521000C000F8007800000000000C000C000C003A
:105220000C000C000C0C0C060C038C01CC006C0068
:10523000FC009C018C030C030C060C0C000000000D
:1052400000000000000000000000C000C000C0001E
:10525000C000C000C000C000C000C000C000C0004E
:10526000C000C000C000C000C000C00000000000BE
:10527000000000000000000000000000000000002E
:10528000000000007C3CFF7EC7E383C183C183C173
:1052900083C183C183C183C183C183C10000000076
:1052A00000000000000000000000000000000000FE
:1052B000000000009807F80F381C18181818181864
:1052C00018181818181818181818181800000000BE
:1052D00000000000000000000000000000000000CE
:1052E00000000000C003F00F300C18181818181830
:1052F000181818181818300CF00FC0030000000020
:10530000000000000000000000000000000000009D
:1053100000000000D803F80F380C181818181818D7
:10532000181818181818380CF80FD8031800180097
:105330001800180018000000000000000000000025
:1053400000000000C01BF01F301C18181818181897
:10535000181818181818301CF01FC01B0018001857
:1053600000180018001800000000000000000000F5
:1053700000000000B007F003700030003000300083
:1053800030003000300030003000300000000000FD
:10539000000000000000000000000000000000000D
:1053A00000000000E003F003380E180C3800F00392
:1053B000C007000C180C380EF007E00300000000D6
:1053C0000000000000000000000000008000C0009D
:1053D000C000C000F007F007C000C000C000C0005F
:1053E000C000C000C000C000C0078007000000006F
:1053F00000000000000000000000000000000000AD
:10540000000000001818181818181818181818187C
:10541000181818181818381CF01FE01900000000A0
:10542000000000000000000000000000000000007C
:10543000000000000C18180C180C180C3006300670
:105440003006600360036003C001C001000000007B
:10545000000000000000000000000000000000004C
:1054600000000000C141C141C361636363636363C2
:105470003636363636361C1C1C1C1C1C0000000040
:10548000000000000000000000000000000000001C
:10549000000000001C38381C300C600660036003FC
:1054A000600360036006300C381C1C3800000000EC
:1054B00000000000000000000000000000000000EC
:1054C000000000001830301830187018600C600CA4
:1054D000E00CC006C00680038003800380018001C9
:1054E000C001F0007000000000000000000000009B
:1054F00000000000FC1FFC1F000C000600038001E0
:10550000C000600030001800FC1FFC1F00000000FD
:105510000000000000000000000000038001C00047
:10552000C000C000C000C000C000600060003000CB
:1055300060004000C000C000C000C000C000C0004B
:105540008001000300000000000080018001800154
:105550008001800180018001800180018001800143
:105560008001800180018001800180018001800133
:10557000800180018001000000006000C000C001C7
:10558000800180018001800180010003000300068A
:105590000003000180018001800180018001800101
:1055A000C0006000000000000000000000000000DB
:1055B0000000000000000000F010F81F080F0000BD
:1055C00000000000000000000000000000000000DB
:1055D00000000000000000000000000000000000CB
:1055E000010203040607080908560008000000200D
:1055F000400000001C380008485600084000002009
:10560000280500002C3800080000FFFF0000000003
:10561000000000000000000000000000000000008A
:10562000000000000000000000000000000000007A
:105630000000000000000000100000000100000059
:08564000000000000024F4004A
:04000005080001D915
:00000001FF
