:020000040800F2
:100000004809002081020008EF350008BB2C0008D9
:10001000ED350008750800083546000800000000AE
:10002000000000000000000000000000A9390008E6
:100030007708000800000000F1350008AB3900081F
:100040009B0200089B0200089B0200089B0200081C
:100050009B0200089B0200089B0200089B0200080C
:100060009B0200089B0200089B0200089B020008FC
:100070009B0200089B0200089B0200089B020008EC
:100080009B020008000000009B0200089B02000881
:100090009B0200089B0200089B0200089B020008CC
:1000A0009B0200089B020008493A00089B020008D6
:1000B000553A0008613A00089B0200089B020008BC
:1000C0009B0200089B0200089B0200089B0200089C
:1000D0009B0200086D4500089B0200089B02000877
:1000E0009B0200089B0200089B0200089B0200087C
:1000F0009B0200089B0200089B0200080000000011
:10010000000000009B020008000000009B020008A5
:100110009B020008000000009B0200089B020008F0
:100120009B0200089B0200089B0200089B0200083B
:100130009B02000800000000000000009B02000875
:100140009B0200089B020008000000000000000065
:10015000000000000000000000000000000000009F
:100160000000000000000000000000009B020008EA
:100170009B020008000000000000000000000000DA
:10018000000000009B0200080000000000000000CA
:10019000000000000000000000000000000000005F
:1001A00000000000000000009B0200089B02000805
:1001B0009B0200089B0200089B0200080000000050
:1001C000000000009B02000800000000000000008A
:1001D0009B0200089B02000800F002F800F041F8C2
:1001E0000AA090E8000C82448344AAF10107DA4592
:1001F00001D100F036F8AFF2090EBAE80F0013F0A3
:10020000010F18BFFB1A43F001031847585A0000AA
:10021000785A0000103A24BF78C878C1FAD852073B
:1002200024BF30C830C144BF04680C607047000070
:100230000023002400250026103A28BF78C1FBD8EF
:10024000520728BF30C148BF0B607047642900F0D7
:10025000F780002070471FB504F0F6FB1FBD10B5F6
:1002600010BD00F0E8F91146FFF7F5FF04F07AFB46
:1002700000F006FA03B4FFF7F2FF03BC00F00EFA39
:100280000948804709480047FEE7FEE7FEE7FEE72A
:10029000FEE7FEE7FEE7FEE7FEE7FEE70448054966
:1002A000054A064B70470000393A0008D90100089A
:1002B0004803002048090020480500204805002088
:1002C00053EA020C00F069802DE9F04B4FF0000674
:1002D000002B1FBFB3FA83F503FA05F424FA05F6E1
:1002E0005E4012BF1643B2FA82F502FA05F4C5F178
:1002F00020051EBF22FA05FC44EA0C04203556EA0C
:10030000044C4FEA144418BF641C4FF000084FF02F
:100310000009904271EB030C39D3002919BFB1FADF
:1003200081F701FA07F6B0FA80F700FA07F6C7F18D
:1003300020071EBF20FA07FC46EA0C062037B6FB52
:10034000F4FCA7EB0507103F07F01F0BCBF12006CD
:100350000CFA0BFB2CFA06F644BFB3460026202FFE
:10036000A4BF5E464FF0000B5BEA060C08BF4FF0DF
:10037000010B19EB0B09ABFB027C48EB0608C01B19
:1003800006FB02CC0BFB03CC71EB0C01C1E70B4667
:10039000024641464846BDE8F08B13B54FF00000D9
:1003A0004FF00001AFF30080BDE81C407047000033
:1003B0000FB41CB5074B06AA7B446946009005980C
:1003C00000F021F90020694600F030F91CBC5DF80E
:1003D00014FB0000710200002DE9F0410E460446B6
:1003E000002020622046E168884730B3252805D0E8
:1003F000D4E901219047206A401CF2E7E1682046D9
:1004000000278847050018D0A5F14100192802D817
:1004100020354FF400673246294620462760FFF713
:1004200015FF40B1012804D0F61D26F00706083656
:10043000D8E7361DD6E72846DAE7206ABDE8F0811E
:100440002DE9F0410646002410687529314616A5AD
:1004500010D0AFF30080002802DA404213A507E075
:1004600031688A0701D512A502E0490704D511A514
:10047000012401E0AFF3008000210A2206F12407E5
:1004800009E0B0FBF2FCB0FBF2F302FB1C003030E1
:1004900078541846491C0028F3D123462A46304692
:1004A000BDE8F04100F051B8000000002D00000050
:1004B0002B0000002000000010B5431C02E010F8E3
:1004C000011B71B18107FAD14FF0013202C88C1AB9
:1004D0008C4314EAC211F9D0C01A0A0603D0C01E18
:1004E00010BDC01A10BD0A0401D0801E10BD090243
:1004F000FCD0401E10BD4FF0000200B513469446DC
:100500009646203922BFA0E80C50A0E80C50B1F16B
:100510002001BFF4F7AF090728BFA0E80C5048BF7F
:100520000CC05DF804EB890028BF40F8042B08BF1D
:10053000704748BF20F8022B11F0804F18BF00F819
:10054000012B70477047704770472DE9F0470D4603
:1005500099469246044600F124080168880604D5AD
:10056000E06921F01001216000E00120A84201DDD6
:10057000471B00E00027A1697A1902EB0900081A5D
:10058000A0612078C00602D42046AFF30080002688
:1005900008E0D4E901211AF806009047206A401CBF
:1005A000761C20624E45F4DB2078C0060AD5204632
:1005B000AFF3008006E0D4E9012130209047206AA3
:1005C000401C2062381EA7F10107F4DC07E0D4E9E3
:1005D000012118F805009047206A401C2062281E5F
:1005E000A5F10105F3DC2046AFF30080207800067A
:1005F00002D50220BDE8F0870120FBE701694A1C13
:1006000002610878704700B58FB0CDE90131002153
:10061000059105497944CDE9031011466846FFF775
:10062000DBFE0FB000BD0000E5FFFFFF0A6802F827
:10063000010B0A607047754600F02CF8AE460500C5
:100640006946534620F00700854618B020B5FFF7ED
:1006500025FEBDE820404FF000064FF000074FF0A8
:1006600000084FF0000B21F00701AC46ACE8C009D0
:10067000ACE8C009ACE8C009ACE8C0098D467047D9
:1006800010B50446AFF300802046BDE81040FFF7E8
:10069000F1BD000000487047E80200200149182021
:1006A000ABBEFEE726000200704700002DE9F041D6
:1006B000044600270D46006802F0D8FD0646206873
:1006C00002F0D0FD30435DD02068C1682E4E890114
:1006D00005D5617F012902D1217F01290BD0022D8F
:1006E0001DD0206802F0C2FDB8B120688168C1F356
:1006F000400169B111E00125244902E08F4232D264
:100700007F1C0268D2435206F8D440210160E8E71A
:100710008168314041F010018160012D11D02068C5
:1007200002F0A0FD48B120688168C1F3400121B901
:100730008168314041F020018160022D08D0032DF5
:1007400004D0042500F082FE064617E00C25F9E7E8
:100750000825F7E700F07AFE801B05280ED92068EF
:10076000806828420AD0E06D40F01000E065206EFD
:1007700040F0010020660120BDE8F081206880681B
:100780002842E7D10020F7E7C0FFFF7F000040A329
:1007900070B50446006881688268C1F3400112F0B8
:1007A000010F28D039BB816801F00D01012914D156
:1007B0008168124A1140891C816021680320086009
:1007C00000F044FE054612E000F040FE401B022807
:1007D0000DD920688068C00709D0E06D40F0100096
:1007E000E065206E40F001002066012070BD2068A9
:1007F0008068C007E8D1002070BD0000C0FFFF7F07
:1008000070B504460068816811F0010F2DD1816830
:10081000174A11421AD18168D5432940491C816089
:1008200000F014FE06461BE0816811F0010F03D1B1
:1008300081682940491C816000F008FE801B022865
:100840000ED920680068C043C00709D0E06D40F0B1
:100850001000E065206E40F001002066012070BDB0
:1008600020680168C943C907DED1002070BD0000BF
:100870003F000080FEE77047002240F6B83306E0F4
:100880000021491C89B29942FBD3521C92B2824288
:10089000F6D3704772B6FEE72DE9F84F00270446FD
:1008A000009790F85800DFF8E0930D46B84601280D
:1008B00011D0012684F85860206802F0D7FC60B19E
:1008C000E06D40F02000E0655FF0010784F858809B
:1008D0003846BDE8F88F0220FBE7D5E900210C235C
:1008E000206803EA91131844036B01F01F014FF0D5
:1008F0001F0C0CFA01FCC2F3846223EA0C038A4049
:1009000013430363206802F0B1FC8246206802F0C2
:10091000A9FC5AEA00003CD1AA6829682068B2F113
:10092000004F37D002F0AEFC2068416921F0004151
:10093000416120686969C268C2F3C10252009140F6
:100940002A69042A31D000EB82002B68026EDFF89E
:100950003CC303F0F84302EA0C020B431A4342F093
:100960000041016620682A69A96900EB8200026ED5
:1009700022F080720A430266297F226828690129D1
:1009800010D0002102EB8000026E22F000720A43B8
:1009900002667DE0002202F075FC2068416941F0AA
:1009A0000041C5E74FF00071ECE7002102F054FC74
:1009B000400320684FF0000172D002F04DFC90FA25
:1009C000A0F0B0FA80F1286842036ED090FAA0F04F
:1009D000B0FA80F0814204D100221146206802F072
:1009E00060FC0121206802F037FC400320684FF0D2
:1009F00001015DD002F030FC90FAA0F0B0FA80F175
:100A00002868420359D090FAA0F0B0FA80F08142F1
:100A100004D100220121206802F043FC0221206859
:100A200002F01AFC400320684FF0020148D002F0A7
:100A300013FC90FAA0F0B0FA80F12868420344D089
:100A400090FAA0F0B0FA80F0814204D10022022195
:100A5000206802F026FC0321206802F0FDFB400321
:100A600020684FF0030133D002F0F6FB90FAA0F0BB
:100A7000B0FA80F1286842032FD090FAA0F0B0FAC3
:100A800080F0814204D100220321206802F009FC99
:100A90002068816811F0010F22D0ACE000E004E092
:100AA00002F0DAFBC0F384618DE7C0F3846091E764
:100AB00002F0D2FBC0F38461A2E7C0F38460A6E732
:100AC00002F0CAFBC0F38461B7E7C0F38460BBE700
:100AD00002F0C2FBC0F38461CCE7C0F38460D0E7CE
:100AE0002A7B296850F8B03FC1F3120C23EA0C03AB
:100AF00002F0180C664A22FA0CF20A401343036013
:100B0000E968494577D1286841031CD090FAA0F1E3
:100B1000B1FA81F1491C01F01F0109294FEA403166
:100B200032D8002912D000BF90FAA0F1B1FA81F1B9
:100B300001F1010101F01F0106FA01F609D100BF20
:100B4000C0F3846109E0C0F38461E3E7C0F384612A
:100B5000EEE790FAA0F1B1FA81F101F1010101F0A3
:100B60001F0146EA816102D1C0F3846003E090FA7C
:100B7000A0F0B0FA80F000F1010000F01F0000EBDF
:100B8000400041EA005132E000290ED090FAA0F175
:100B9000B1FA81F101F1010101F01F0106FA01F63C
:100BA00006D100BFC0F3846106E0C0F38461F1E7C1
:100BB00090FAA0F1B1FA81F101F1010101F01F01F8
:100BC00046EA816102D1C0F3846003E090FAA0F0AC
:100BD000B0FA80F000F1010000F01F002D4A00EB98
:100BE000400002EB005041EA000141F00071AA68A8
:100BF000206802F047FB28482A6802423FF466AEAC
:100C000026488168264B01F0E0719A4202D0254BBC
:100C10009A421CD10B021AD42268B2F1A04F7FF481
:100C200055AE826841F4000122F0E0720A4382600E
:100C30001D481E490068B0FBF1F0401C00EB40006D
:100C4000800000E0401E00900028FBD13EE6184DD9
:100C5000184BAA4207D1CD0105D422689A42F5D09B
:100C600041F0807109E0144DAA42EFD14A02EDD45F
:100C700022689A42EAD041F48001826822F0E07250
:100C80000A43826022E6000000007F4000F0FF037C
:100C9000FFFF0700000020FE000008800003005056
:100CA000000021C31000C0903C000020400D030054
:100CB000000052C700010050000084CB0068006CA7
:100CC00070470000F8B54FF0000504002E4600956F
:100CD00002D0E06D10B107E00120F8BD204600F021
:100CE000EFF8266684F8586020688168C1F3407187
:100CF00019B181686A4A1140816020688168C1F336
:100D0000007189B98168674A114041F08051816062
:100D1000654866490068B0FBF1F04000801C00E0C7
:100D2000401E00900028FBD120688168C1F300714B
:100D300041B9E16D41F01001E165216E41F0010121
:100D40002166012502F092FAE16DC90600D430B1A6
:100D5000E06D40F01000E06501252846F8BDE06D2B
:100D600020F4807040F00200E0652068806810F098
:100D7000010F11D14FF0A04080684D4900F00100F3
:100D8000896801F00101084306D14A486168826818
:100D900022F47C120A438260E168E06B627F0843C0
:100DA000A16841EA4231084394F8241040EA014026
:100DB000012904D1218D404A02EB41410843E16AF7
:100DC00029B101F47871226B014342EA01002168E4
:100DD000CA683A4B1A400243CA6020680169626BD4
:100DE00021F0406111430161206802F03FFA06469C
:100DF000206802F037FA30432ED1207F94F8381063
:100E0000800340EA41022068C16844F2020399432A
:100E10001143C16020690028206801690AD041F4AB
:100E200080310161206850F8C01F22696FF30D0105
:100E3000114307E021F480310161206850F8C01FA0
:100E40006FF30D01016094F8400001280CD0206878
:100E5000016921F001010161606901282068016BCD
:100E600021F00F0111D013E0D4E911010843D4E9B6
:100E700013121143084321680A6940F2FC739A4334
:100E8000104340F001000861E6E7226A521E114358
:100E90000163E06D20F0020040F00100E0655CE7D6
:100EA000C0FFFF5FC0FFFF7F3C000020400D03003C
:100EB00000010050000300500000FEFF0740F0FF5B
:100EC00030B587B0044614216846FFF714FB184973
:100ED000206888422AD11748C16C41F40051C1648E
:100EE000C16C01F400510591C16C41F00101C16474
:100EF000C16C01F001010591C16C41F00201C164B6
:100F0000C06C032400F002000590802000258DE8CD
:100F1000310069464FF0904000F0AAF94FF40040CC
:100F20008DE831006946044800F0A2F907B030BDF1
:100F30000001005000100240000400482DE9F0417B
:100F400004463B480F46816801F01F05A169082946
:100F50000FD085B1052D0ED0092D0CD0806800F47E
:100F6000604060B1E06D40F02000E0650120BDE828
:100F7000F081082604E02068C068C007F1E7042675
:100F800000F064FA804615E0781C13D000F05EFA99
:100F9000A0EB0800B84200D867B92068006830426A
:100FA00008D1E06D40F00400E065002084F85800AE
:100FB0000320DCE7206800683042E5D0E06D40F4B3
:100FC0000070E065206802F055F980B1607F70B96B
:100FD0002068006800070AD5E06D20F48070E065A5
:100FE000E06DC00403D4E06D40F00100E065114AFB
:100FF00020684FF0A041904201D10B4600E003462B
:10100000834210D07DB1052D0DD0092D0BD090421B
:1010100000D00146C968082E07D0490401D40C212C
:1010200001600020A3E7C168F5E70821F8E70000A8
:1010300000030050000100502DE9F04104463848FB
:10104000806800F01F05206802F010F918B1022135
:101050000846BDE8F08194F8580001280CD0012022
:1010600084F858002046FFF7CBFB01004FF0000347
:1010700004D084F85830EBE70220EAE7E06D40F650
:101080000162904340F48070E065264A20684FF08A
:10109000A046904201D1374600E00746874200D083
:1010A0001DB9E76D27F48017E765E76DFF0404D5E8
:1010B000276E27F00607276600E023661C270760D7
:1010C00084F858302068904201D1334600E003464E
:1010D000834215D0A5B1052D12D0092D10D0E36D96
:1010E00043F48013E365904200D13046C06880012C
:1010F000AED5E06D20F4005040F48050E065A7E7E5
:10110000C268920105D5E26D22F4005242F4805289
:10111000E2658268044B1A40121D826098E7000065
:101120000003005000010050C0FFFF7F10B50446CF
:1011300090F85800012808D0012084F858000321B5
:101140002046FFF7B3FA10B10BE0022010BD204695
:10115000FFF71EFB28B9E16D21F4885141F0010130
:10116000E165002184F8581010BD10B590F82530C5
:1011700000210122022B03D00421C163012122E0BE
:1011800003681C6824F00E041C60836C1C6824F443
:1011900080741C6003681C6824F001041C6090F8D3
:1011A0004430046C03F01F0302FA03F36360D0E9D8
:1011B00013345C60436D33B11C6824F480741C608C
:1011C000D0E916345C6080F82520002280F82420C5
:1011D000084610BD70B590F8252000240121234653
:1011E000022A07D00422C26380F8251080F8243038
:1011F000012429E00268156825F00E0515600268D3
:10120000156825F001051560826C156825F4807558
:10121000156090F84420056C02F01F0201FA02F2FA
:101220006A60D0E913255560426D32B1156825F426
:1012300080751560D0E91625556080F8251080F876
:101240002430816B01B18847204670BD70B50446DB
:1012500000F0FCF80546601C02D0044840680444D5
:1012600000F0F4F8401BA042FAD370BD300000201B
:101270002DE9FC4FDFF8A0A1002301250AF1040BA2
:1012800003244FF00F0C0BF1040EBDE005FA03F63A
:1012900032406FD04F68012F05D0022F03D0112F9D
:1012A00001D0122F17D1D0F808905F0004FA07F888
:1012B00029EA08090097D1F80C8008FA07F848EAEB
:1012C0000908C0F808804768B7430E79C6F30016CE
:1012D0009E403E434660C6684FEA430804FA08F75A
:1012E000BE4301978F6807FA08F73743C7604E6817
:1012F000022E01D0122E13D1DE0800EB86060096D6
:10130000366A5F07FF0E0CFA07F926EA0906D1F8DC
:10131000109009FA07F949EA0609009EC6F82090DC
:101320000668019FBE430F7907F0030707FA08F725
:10133000374307604E68F60065D5384E376E47F084
:1013400001073766366E23F0030706F001060096A4
:10135000334E3E44B146B6689F074FEA17780CFA01
:1013600008F7BE43B0F1904F05D02E4FB84204D1DC
:10137000012717E047E0002714E02B4FB84201D1C6
:1013800002270FE0294FB84201D103270AE0284F76
:10139000B84201D1042705E0264FB84201D1052704
:1013A00000E0062707FA08F73743C9F80870DAF8AB
:1013B00000605746D1F8048096435FEAC83800D5EC
:1013C00016433E60DBF800605F46D1F80480964328
:1013D0005FEA883800D516433E60DEF80060774645
:1013E000D1F8048096435FEAC82800D516433E60D2
:1013F000094F0C373E68D1F8048096435FEA88288D
:1014000000D516433E605B1C0A6832FA03F67FF48F
:101410003DAFBDE8FC8F0000000401400010024019
:10142000000001400004004800080048000C00488B
:1014300000100048001400480069084000D0012056
:1014400070470AB1816170478162704701488068C6
:101450007047000030000020024881684268114453
:10146000816070473000002010B50024032000F098
:1014700073F80F2000F008F808B1012401E000F033
:1014800025F8204610BD000070B50E4E054600241C
:10149000706898B14FF47A71B1FBF0F00A490968AD
:1014A000B1FBF0F000F064FD40B9102D06D200222F
:1014B0002946501E00F030F8356000E00124204637
:1014C00070BD0000300000203C0000200A4882B0BF
:1014D000016E41F001010166016E01F00101009110
:1014E000816D41F080518165806D00F080500090E9
:1014F00002B000F0A1B8000000100240002809DB93
:1015000000F01F02012191404009800000F1E0201D
:10151000C0F8001170470000F0B40E4B1B680C4679
:10152000C3F30223C3F10705042D00D90425191DB7
:10153000072901D2002300E0DB1E012606FA05F18F
:10154000491E214099409E40761E16403143F0BC12
:1015500003F071B80CED00E0064900F007020868DE
:101560004FF6FF03184040EA0220034A1043086088
:10157000704700000CED00E00000FA052B492C4BF1
:101580000A6832214A432B4940B1B0F5007F086810
:1015900029D020F4C06040F480602CE00868C0F3DB
:1015A0004120022804D051F8800F20F4807022E0FE
:1015B000D1F8800020F48070C1F88000086820F421
:1015C000C06040F400700860B2FBF3F0401C00E023
:1015D000401E4A69520501D50028F9D148694005E5
:1015E0000AD503207047C0F34120022806D051F8E5
:1015F000800F40F48070086000207047D1F88000B0
:1016000040F48070C1F88000086820F4C06040F4A5
:1016100000700860B2FBF3F0401C00E0401E4A6915
:101620005205DBD50028F9D1D8E700003C000020A6
:1016300040420F00007000400248816841F4804140
:1016400081607047007000402DE9F843044600684F
:1016500000269D4D00035ED5A86D0027C00008D46C
:10166000A86D40F08050A865A86D012700F080505B
:101670000090DFF85892D9F8001041F48071C9F851
:101680000010FFF7E3FE804606E000BFFFF7DEFE36
:10169000A0EB080002282BD8D9F80000C005F5D52A
:1016A000D5F8900010F4407014D0216C814211D014
:1016B000D5F89000D5F8901020F4407041F48031B6
:1016C000C5F89010D5F8901021F48031C5F890102D
:1016D000C5F89000C00711D0FFF7B8FE804641F270
:1016E000883907E0FFF7B2FEA0EB0801494501D9B0
:1016F00003260BE0D5F890008007F3D5D5F89000CD
:10170000216C20F440700843C5F890001FB1A86D0B
:1017100020F08050A8652078C00707D0D5F8880051
:10172000616820F003000843C5F88800207880072E
:1017300007D5D5F88800A16820F00C000843C5F84B
:1017400088002078400707D5D5F88800E16820F0A8
:1017500030000843C5F888002078000707D5D5F881
:101760008800216920F0C0000843C5F8880020786F
:10177000800607D5D5F88800616920F440600843E9
:10178000C5F888002078400607D5D5F88800A169FB
:1017900020F440500843C5F888002078000607D59B
:1017A000D5F88800E16920F440400843C5F8880076
:1017B0002088C00507D5D5F88800216A20F440307C
:1017C0000843C5F888002088800507D5D5F888002B
:1017D000616A20F440200843C5F88800208840054D
:1017E0000FD5D5F88800A16A20F440100843C5F849
:1017F0008800A06AB0F5801F03D1E86840F480102B
:10180000E860208800050FD5D5F88800E16A20F44B
:1018100040000843C5F88800E06AB0F5800F03D1A6
:10182000E86840F48010E8602088C0040FD5D5F83F
:101830008800216B20F040700843C5F88800206BB9
:10184000B0F1807F03D1E86840F48010E860208820
:101850004FF0006180040ED5D5F88800626B20F04F
:1018600040601043C5F88800606B884203D1E86887
:1018700040F48010E860208840040ED5D5F8880038
:10188000A26B20F040601043C5F88800A06B88422E
:1018900003D1E86840F48010E860208800040FD588
:1018A000D5F88800E16B20F040500843C5F8880067
:1018B000E06BB0F1805F03D1E86840F48030E8600D
:1018C0003046BDE8F8830000001002400070004080
:1018D0002DE9F0470E4605004FF0000725D0DFF850
:1018E000AC81D8F8000000F00F00B0420CD2D8F85C
:1018F000001021F00F013143C8F80010D8F80000A3
:1019000000F00F00B04210D12968614CC80741F2C5
:10191000883A5AD06868DFF87C91032808D00228FA
:1019200020682DD0400500282CDB0120BDE8F08781
:1019300020688001F9D5E06800F00302E068C0F398
:101940000310401C032A19D0534A00BFB2FBF0F029
:10195000E268C2F306225043E268C2F34162521CBD
:101960005200B0FBF2F0484517D9A06810F0F00F14
:101970000CD0880711D5A86840B10EE0474AE5E7CA
:101980008003D0E700F0B6F8484506D9A06820F0FB
:10199000F00040F08000A0608027A068696820F017
:1019A00003000843A060FFF751FD814606E000BF39
:1019B000FFF74CFDA0EB090151453AD8A0686968D2
:1019C00000F00C00B0EB810FF2D12868810714D52C
:1019D000400703D5A06840F4E060A06028780007C5
:1019E00005D5A06820F4605040F4E060A060A068D5
:1019F000A96820F0F000084304E0802F03D1A0681C
:101A000020F0F000A060D8F80010404601F00F016F
:101A1000B14216D9016821F00F0131430160FFF78F
:101A200015FD074607E000BFFFF710FDC11B51453C
:101A300001D903207AE7D8F8000000F00F00B04287
:101A4000F2D12878400705D5A068E96820F4E06065
:101A50000843A0602878000706D5A068296920F40B
:101A6000605040EAC100A06000F044F8A1680C4A50
:101A7000C1F30311515C01F01F01C840094908601E
:101A800009480068BDE8F047FFF7FEBC00200240AF
:101A90000010024000B4C4040024F40000366E01BB
:101AA0004A5C00083C000020300000200548064940
:101AB00000688968054AC1F30221515C01F01F01E9
:101AC000C84070473C000020001002405A5C0008EB
:101AD0000548064900688968054AC1F3C221515C7E
:101AE00001F01F01C84070473C0000200010024078
:101AF0005A5C0008184910B58868C0F3810217487D
:101B0000012A0BD08A68164BC2F38102022A06D042
:101B10008A68C2F38102032A03D0002010BD184650
:101B200010BDCA6802F00304CA68C2F30312521C53
:101B3000032C02D0B0FBF2F001E0B3FBF2F0CA6874
:101B4000C968C2F306225043C1F34161491C4900F0
:101B5000B0FBF1F010BD0000001002400024F400C2
:101B600000366E012DE9F84304007AD02078FA4D52
:101B7000C00747D0A868E96800F00C0001F0030135
:101B80000C2802D0082817D001E0032914D060687F
:101B9000B0F5803F17D0B0F5A02F286817D020F4FB
:101BA00080302860286820F4802028606068E0B1D8
:101BB000FFF74CFC064614E02868800322D56068D5
:101BC0000028D2D01EE0286840F48030EDE740F4D1
:101BD00080202860F7E700BFFFF738FC801B6428EF
:101BE00070D828688003F7D50CE0FFF72FFC064675
:101BF00005E000BFFFF72AFC801B6428F0D82868A6
:101C00008003F7D4207880074CD5A868E96800F0F5
:101C10000C0001F003010C2802D004280DD001E0D3
:101C200002290AD0E068002828682BD040F4807090
:101C30002860FFF70BFC064619E02868400502D52E
:101C4000E068002891D06868217C20F0FE4040EADE
:101C500001606860C1480068FFF716FC002800D1E9
:101C600020E076E1FFF7F2FB801B0228B8D8286855
:101C70004005F7D56868217C20F0FE4040EA01600D
:101C800068600FE020F480702860FFF7DFFB0646F5
:101C900005E000BFFFF7DAFB801B0228A0D8286808
:101CA0004005F7D42078000729D560690028D5F8C9
:101CB000940013D040F00100C5F89400FFF7C6FB74
:101CC000064606E090E000BFFFF7C0FB801B02283D
:101CD00086D8D5F894008007F6D510E020F00100F2
:101CE000C5F89400FFF7B2FB064604E0FFF7AEFB31
:101CF000801B022878D8D5F894008007F6D4207885
:101D0000400761D5A86D0026C00008D4A86D40F03A
:101D10008050A865A86D012600F080500090904882
:101D20000168C90511D40168804641F480710160E1
:101D3000FFF78CFB074604E0FFF788FBC01B022877
:101D400052D8D8F80000C005F6D5A068012815D0F3
:101D50000528D5F8900016D020F00100C5F89000B5
:101D6000D5F8900020F00400C5F89000A06841F27A
:101D70008838B8B1FFF76AFB07460EE0D5F8900047
:101D800040F00100F0E740F00400C5F89000F5E7EE
:101D9000FFF75CFBC11B414526D8D5F890008007B2
:101DA000F6D50CE0FFF752FB074604E0FFF74EFBC9
:101DB000C11B414518D8D5F890008007F6D41EB154
:101DC000A86D20F08050A8652078800629D5A069EC
:101DD0000028D5F8980013D040F00100C5F898000D
:101DE000FFF734FB064606E077E000BFFFF72EFB67
:101DF000801B022877D8D5F898008007F6D510E028
:101E000020F00100C5F89800FFF720FB064604E02B
:101E1000FFF71CFB801B022865D8D5F898008007C7
:101E2000F6D4E069F0B3A968C1F38101032961D058
:101E30000228286820F0807028600BD0E86820F025
:101E40000300E860E86847490840E860FFF7FEFAE9
:101E500004464BE0FFF7FAFA064604E0FFF7F6FA0D
:101E6000801B02283FD828688001F7D4F4E90801D4
:101E70006FF00F0202EB01110843218A5204490856
:101E800002EB4151A26841EA02210843217D4FF053
:101E90007E42490802EB41610843217B40EAC16070
:101EA000E96800E062E0304A11400843E8602868D1
:101EB00040F080702860E86840F08070E860FFF7CC
:101EC000C5FA044605E000BFFFF7C0FA001B022870
:101ED00009D828688001F7D548E004E0FFF7B6FA92
:101EE000001B022802D90320BDE8F883286880017E
:101EF000F4D43BE00128F7D0E868226A00F003013F
:101F0000914226D1616A00F0F00209011039914234
:101F10001FD1A26A00F4FE41B1EB022F19D194F84F
:101F20002C2000F07841B1EBC26F12D1218E00F469
:101F3000C00249084905A1F50011914209D194F860
:101F4000341000F0C06049084906A1F100718142D7
:101F50000CD00120C8E70000001002403000002033
:101F600000700040FFFFEEFE0C809F010020BBE7E9
:101F700010B5401EB0F1807F01D3012010BD4FF09D
:101F8000E02460610F21601702F055FB0020A06182
:101F900007202061002010BD7047704770477047D0
:101FA00070477047F0B590F83C20012A3AD00125DF
:101FB00080F83C50022280F83D2003685A689C68F3
:101FC000194E1A4FB34201D0BB4204D122F4700C17
:101FD0004A6842EA0C02DFF858C002EA0C02D1F863
:101FE00000C04CEA020CC3F804C00268B2420DD033
:101FF000B2F1804F0AD00F4B9A4207D00E4B9A4253
:1020000004D0BA4202D00D4B9A4204D1896824F020
:1020100080031943916080F83D50002180F83C1006
:102020000846F0BD0220F0BD002C01400034014004
:102030008FFFFFFD00040040000800400040014009
:10204000704710B5040003D094F83D0010B107E0CC
:10205000012010BD002084F83C00204600F022F84A
:10206000022084F83D00211D206801F0FFFC0120C2
:1020700084F8480084F83E0084F83F0084F840006B
:1020800084F8410084F8420084F8430084F8440056
:1020900084F8450084F8460084F8470084F83D0041
:1020A000002010BD10B586B0044614216846FEF726
:1020B00022FA2268002330480221B2F1804F25D055
:1020C0002E4CA24245D1826D42F002028265826DA1
:1020D00002F002020592C26C42F00202C264C06CBD
:1020E00000F00200059010208DE80B00CDE90331CF
:1020F00069462348FFF7BCF8002211461D20FFF770
:102100000BFA1D20FFF7FAF906B010BD826D42F000
:1021100001028265826D02F001020592C26C42F0FA
:102120000102C264C06C00F0010005904FF4004051
:102130008DE80B000120CDE9033069464FF0904057
:10214000FFF796F8002211461C20FFF7E5F91C2046
:10215000D8E70C498A42D7D1016E41F4802101664B
:10216000006E002200F48020059011461A20FFF72F
:10217000D3F91A20C6E70000001002400004004016
:10218000000400480048014070B5044690F83C0047
:10219000012814D0012584F83C50022084F83D0029
:1021A00022689068344B184020F47F4090600868A3
:1021B000702827D010DC10F00F0F03D04AE04FF04A
:1021C000020070BD4FEA2012072A43D2DFE802F076
:1021D0005050505048313900284BC21A984247D0CD
:1021E00009DCB0F5805F35D0B0F5005F15D0B0F1F7
:1021F000101F2FD13CE0102A3AD0202A38D0502A84
:1022000028D135E0CB68D1E90121206801F093FCA9
:102210002068816841F0770109E0CB68D1E90121AC
:10222000206801F088FC2068816841F48041816069
:1022300010E0CA684968206801F092FC50212068CB
:1022400006E0CA684968206801F0D2FC6021206875
:1022500001F07CFC84F83D50002084F83C0070BD07
:10226000CA684968206801F07BFC40212068EFE7DC
:10227000226801461046EBE788FFCEFF20001000E1
:102280000268516A00235362044A904204D1044810
:10229000B0FBF1F00349C8607047000074010020F2
:1022A00040420F00080000202DE9F041054690F85B
:1022B0003C000C46012836D0012085F83C008AB34A
:1022C000042A42D02868082A51D0D4E90023E168C2
:1022D000066A26F480560662C669076A26F44076C6
:1022E00046EA03234FF6FF7606EA013123F47043F2
:1022F00019434FF4204627F4204306EA02321A43DA
:10230000C16102622868C16921F44061C161286825
:10231000C169A26841EA0221C161002085F83C0040
:10232000BDE8F08101E00220FAE7D4E90012E36899
:10233000286801F027FC2868816921F00C0181617F
:1023400028688169A26811430FE0D4E90012E368AC
:10235000286801F05FFC2868816921F4406181618F
:1023600028688169A26841EA02218161D5E7D4E940
:102370000027267B016A21F480710162C169036A2A
:1023800021F00301394321F0F00731074FF42066B3
:1023900047EA116123F4206306EA02221A43C1616D
:1023A00002622868C16921F00C01C1612868C16915
:1023B000A2681143B0E710B5040003D094F83D00C3
:1023C00010B107E0012010BD002084F83C00204639
:1023D00000F022F8022084F83D00211D206801F061
:1023E00045FB012084F8480084F83E0084F83F0053
:1023F00084F8400084F8410084F8420084F84300E7
:1024000084F8440084F8450084F8460084F84700C6
:1024100084F83D00002010BD7047000010B5044650
:1024200079B1042912D0082915D00C2918D0102907
:1024300019D094F8430000BF94F84720012817D121
:1024400014E094F83E0094F84420F7E794F83F0035
:1024500094F84520F2E794F8400094F84620EDE720
:1024600094F84100E8E794F84200E5E7012A01D03A
:10247000012010BD022071B1042915D008291CD0FB
:102480000C2948D0102949D084F8430084F847002B
:102490000C291BD145E084F83E0084F844002068F4
:1024A000C26842F0020210E084F83F0084F8450060
:1024B0002068C26842F0040207E084F8400084F813
:1024C00046002068C26842F00802C260012220680B
:1024D00001F024FB1549206888420ED0B0F1804FEE
:1024E0000BD01349884208D01249884205D01249BE
:1024F000884202D01149884207D18168104A1140B0
:10250000062906D0B1F5803F03D0016841F00101F2
:102510000160002010BD84F84100B7E784F8420054
:10252000B4E72068C26842F01002CEE7002C0140F8
:102530000004004000080040003401400040014019
:102540000700010070B50446006801694FF00005FE
:10255000C943890715D4C168C943890711D4E91E45
:10256000016101202077206880698007204602D021
:10257000FFF786FE04E000F0E3F8204600F0E1F803
:10258000257720680169C943490717D4C168C94341
:10259000490713D46FF004010161022020772068FD
:1025A000806910F4407F204602D0FFF769FE04E006
:1025B00000F0C6F8204600F0C4F8257720680169CD
:1025C000C943090716D4C168C943090712D46FF07B
:1025D00008010161042020772068C0698007204637
:1025E00002D0FFF74DFE04E000F0AAF8204600F00C
:1025F000A8F8257720680169C943C90617D4C168BE
:10260000C943C90613D46FF0100101610820207777
:102610002068C06910F4407F204602D0FFF730FEEA
:1026200004E000F08DF8204600F08BF82577206854
:102630000169C943C90708D1C168C943C90704D1A1
:10264000891E0161204600F07DF820680169C943B8
:10265000090609D4C168C943090605D46FF0800191
:1026600001612046FFF799FC20680169C943C9054B
:1026700009D4C168C943090605D46FF480710161AA
:102680002046FFF789FC20680169C943490609D43F
:10269000C168C943490605D46FF040010161204675
:1026A00000F051F820680169C943890609D4C1685E
:1026B000C943890605D46FF0200101612046FFF768
:1026C0006DFC20680169C943C90209D4C168C943C6
:1026D000C90205D46FF4801101612046FFF760FC48
:1026E00020680169C943890209D4C168C9438902C4
:1026F00005D46FF4001101612046FFF750FC2068FB
:102700000169C943490209D4C168C943490205D4D2
:102710006FF4800101612046FFF743FC20680169E6
:10272000C94309020BD4C168C943090207D46FF435
:10273000000101612046BDE87040FFF781BC70BD1B
:10274000704770477047704790F88010012918D083
:10275000012180F880102421C0F8841050F8641BF7
:102760000A680B6823F001030B6022F0005100227D
:10277000026050F8643C1960202101620277104623
:102780007047022070477047704770B5044690F854
:10279000800001281DD0012084F880002420C4F886
:1027A000840020680568026822F001020260206847
:1027B000826822F060620A438260204601F046FA95
:1027C000206805602020C4F88400002084F8800080
:1027D00070BD022070BD70B5044690F880000128DD
:1027E0001DD0012084F880002420C4F884002068D3
:1027F0000568026822F0010202602068826822F007
:1028000060420A438260204601F020FA2068056099
:102810002020C4F88400002084F8800070BD0220CD
:1028200070BD7047704770472DE9F041036804465A
:10283000D86919689A6840F60F0528424FF00005DC
:1028400009D186067ED501F0200602F080573E436E
:1028500078D0216FFFE0924E924F16400F403743E1
:1028600070D0C70709D0CF0507D501271F62D4F85C
:102870008C3043F00103C4F88C3083070AD5D307AA
:1028800008D0276802233B62D4F88C3043F004035D
:10289000C4F88C3043070AD5D30708D0276804232F
:1028A0003B62D4F88C3043F00203C4F88C30030749
:1028B0000CD501F02003334308D026680823336287
:1028C000D4F88C3043F00803C4F88C3003050BD5E2
:1028D0004B0109D526684FF400633362D4F88C307D
:1028E00043F02003C4F88C30D4F88C30002B34D063
:1028F000800609D501F0200002F08051084303D082
:10290000216F09B120468847D4F88C002168896876
:10291000490602D410F0280F21D0204601F056FAC3
:1029200020688168490615D5816821F040018160E1
:10293000E06F78B15C498163E06FFEF74BFC0028E3
:102940000BD000E011E0E06F816B00E02046BDE8B5
:10295000F04108472046FFF766FFBDE8F0812046BA
:10296000FFF761FFC4F88C50F7E7E76E2026012FD0
:102970005CD1C7065AD5CF0658D5102018622068FA
:10298000816849062FD5E26F116849680904090C6E
:10299000E3D0B4F85C308B42DFD9A4F85E10116844
:1029A0000968890618D4016821F4807101602068E3
:1029B000816821F0010181602068816821F0400177
:1029C0008160C4F88860E5662068016821F0100124
:1029D0000160E06FFEF7C9FBB4F85C00B4F85E106C
:1029E000401A81B21EE0B4F85C10B4F85E20891A77
:1029F000B4F85E2089B2002AAFD00029ADD00268B9
:102A000022F49072026020688268254BDB431A40F2
:102A10008260C4F88860E56625672068026822F055
:102A2000100202602046FFF7AEFE96E7C70209D506
:102A3000570207D54FF4801018622046BDE8F041D8
:102A4000FFF7F0BE07060AD501F0800702F4000286
:102A5000174304D0616F00297FF478AF7DE7420609
:102A60000CD54A060AD51968204621F040011960A4
:102A7000C4F88460656700F01FF96EE7020206D5AE
:102A80004A0004D52046BDE8F041FFF7CABEC001A8
:102A9000CBD50029C9DA2046BDE8F041FFF774BE66
:102AA0000100001020010004B93D000810B5040029
:102AB00003D0D4F8840010B107E0012010BD00203D
:102AC00084F88000204600F027F82420C4F8840011
:102AD0002068016821F001010160204601F04EFBF1
:102AE0000128EBD0A06A10B1204601F0D1F820688F
:102AF000416821F4904141602068816821F02A01F9
:102B000081602068016841F0010101602046BDE854
:102B1000104001F021B9000010B586B00446142120
:102B20006846FDF7E8FC17492068884227D1164817
:102B3000016E41F480410166016E01F4804105910E
:102B4000C16C41F00101C164C06C694600F0010034
:102B500005904FF4C0600090022001900020029088
:102B60000390072004904FF09040FEF781FB002275
:102B700001212520FEF7D0FC2520FEF7BFFC06B082
:102B800010BD0000003801400010024010B4D0F821
:102B90008830202B1BD1B9B1B2B190F88030012B15
:102BA00015D0012380F880300023C366094C0368E8
:102BB000A34206D05C68240203D51C6844F08064FC
:102BC0001C6010BC01F014BC012010BC7047022036
:102BD000FBE70000008000400549064BC8798A7970
:102BE0001A54401CC8710122891D0348FFF7CEBF4B
:102BF0000800002073000020580200202DE9F8434F
:102C00000446D0F884001F4616460D46202851D1B0
:102C1000DDB1D6B194F8800001284BD0012084F8B2
:102C200080004FF00008C4F88C802120C4F8840094
:102C30001834FEF70BFCA6878146E68754F8100C83
:102C4000183CB0F5805F03D004E00120BDE8F883B4
:102C5000206920B12E46002584F8808010E00026EF
:102C6000FAE78021204601F02FFCB8B9C6B116F86A
:102C7000010B21688862B4F85600401EA4F8560083
:102C8000B4F856004B464FF0000200970028E8D1F8
:102C90004FF04001204601F017FC30B10320D5E78A
:102CA00035F8020BC0F30800E3E72020C4F88400E5
:102CB0000020CBE70220C9E77047FEE700B585B0EA
:102CC00014216846FDF717FCC020009001200190F8
:102CD00002900220039069460248FEF7C9FA05B047
:102CE00000BD00000004004870B50824002500F075
:102CF00023FE13E06806050E002000F005FE1420F8
:102D000001F0A9FC142001F0A6FC012000F0FCFD5C
:102D1000142001F0A0FC00F003FE0543641EE4B2A1
:102D2000E8D2002000F0F0FD142001F094FC00F047
:102D300025FE284670BD10B5002000F013FE1420BB
:102D400001F089FC142001F086FC012000F0DCFD7C
:102D5000142001F080FC002000F0D6FDBDE81040FA
:102D6000142001F078BC70B50446082516E000F088
:102D7000CBFD142001F06FFC04F0800000F0F2FDA8
:102D8000142001F068FC6006040E142001F063FCBE
:102D9000012000F0B9FD142001F05DFC6D1EEDB2C4
:102DA0004FF00000E3D200F0AFFDBDE8704014200A
:102DB00001F051BC10B5012000F0D4FD142001F049
:102DC0004AFC142001F047FC012000F09DFD142076
:102DD00001F041FC002000F097FDBDE810401420F8
:102DE00001F039BC10B5012000F0BCFD142001F049
:102DF00032FC012000F088FD142001F02CFC0020A2
:102E000000F0B0FD142001F026FC002000F07CFD55
:102E1000BDE81040142001F01EBC10B5002000F0E9
:102E200073FD142001F017FC002000F09BFD14201E
:102E300001F011FC012000F067FD142001F00BFCF3
:102E4000012000F08FFDBDE81040142001F003BC0C
:102E500010B5052400F070FD142001F0FCFB0120EA
:102E600000F052FD142001F0F6FB05E0641EA4B250
:102E7000142001F0F0FB6CB100F052FD0028F5D1F8
:102E800000F07CFD002000F03FFD142001F0E3FB8A
:102E9000002010BD00F072FDFFF7BFFF012010BD44
:102EA00000B585B014216846FDF725FB4FF6FF708D
:102EB000009000200321CDE90201019069460248FB
:102EC000FEF7D6F905B000BD0008004800B585B092
:102ED00014216846FDF70FFB4FF6FF7000900120AC
:102EE0000190032003900020029069460248FEF7FB
:102EF000BFF905B000BD00000008004870B500240F
:102F000006462146204600F003F900F041F94FF44F
:102F10009635304600F010F9641CAC42F9D370BD10
:102F200030B587B014216846FDF7E5FA1E48C16C3C
:102F300041F00401C164C16C01F004010591C16C50
:102F400041F00101C164C16C01F001010591C16C46
:102F500041F00201C164C06C012500F0020005903F
:102F60004FF44870CDE900050024039469460294AB
:102F70000E48FEF77DF9280203940090CDE9015434
:102F80004FF0904469462046FEF772F9FFF79EFF26
:102F9000A06940F48070A06104481830016841F4D1
:102FA0000871016007B030BD001002400004004805
:102FB000203AD2B2034B02EB420203EB021200F0C2
:102FC00019B80000524A0008F0B50E460746002521
:102FD00040F23F1407E021463846FFF7E9FF103C76
:102FE0006D1CA4B2761C3278002A01D0142DF2D3C5
:102FF000F0BD00002DE9F04791468A4600260446C0
:1030000000F086F8DFF84080012700BF00F0C0F82C
:103010005FF0000539F8160007FA05F1084240464E
:1030200001D1408800E0008800F086F86D1C102D6A
:10303000F0D3641CE4B25146204600F069F8761CD7
:10304000182EE3D3BDE8F0870000002010B5FFF78D
:1030500067FF002000F014F8084CA080A088A0F5BD
:103060000241303906D000F04DFB002000F008F896
:10307000A08010BD00F0BDFAF7E7000000000020BE
:1030800070B51D490A6842F400720A600A6842F489
:1030900080720A60184C103C226842F020022260C4
:1030A000164A1060086840F02000086000BF00BFAA
:1030B00000BF206840F020002060206840F480704D
:1030C0002060FFF7EDFE4FF09041886A40F4807079
:1030D000886200BF00BF00BF0848001F006885B2BB
:1030E000886940F480708861FFF7F0FE206840F442
:1030F00000702060284670BD28040048140800486D
:1031000001B5BDF800000149488008BD000000205D
:1031100010B50C460146202000F068F82146BDE8B5
:103120001040212000F062B801B5BDF8000001494F
:10313000088008BD00000020134A116841F40071A6
:103140001160114910390B6843F480730B600B68F0
:1031500043F020030B600D4B1860106840F0200016
:10316000106000BF00BF00BF086840F0200008608A
:10317000086840F48070086000BF00BF00BF0868A6
:1031800040F40070086070472804004814080048A4
:103190001449086840F400700860086840F48070C2
:1031A000086010481038026842F0200202600E4B9E
:1031B00022221A600A6842F020020A6000BF00BFA3
:1031C00000BF016841F020010160016841F4807195
:1031D000016000BF00BF00BF016841F400710160E1
:1031E000704700002804004814080048184B10B528
:1031F0001A6842F400721A601A6842F480721A6007
:10320000134A103A146844F020041460114C2060F2
:10321000186840F02000186000BF00BF00BF1068B1
:1032200040F020001060106840F480701060216051
:10323000186840F02000186000BF00BF00BF106891
:1032400040F020001060106840F48070106010BDE5
:10325000280400481408004800EB8100006E00F0CC
:10326000F84070478068C0F3C00070478068C0F3C2
:1032700080007047C06810F4406F01D00020704794
:1032800001207047042303EAD15310B51844436961
:10329000C1F3045107248C40A3438A401343436184
:1032A00010BD00EB8100016E21F000411143016669
:1032B0007047000030B589B020216846FDF71BF942
:1032C0001F481E49002401604902C0E90114042579
:1032D00085610121C460C0E904410477447702217B
:1032E000016280F82440C462046380F83840C463FB
:1032F00080F84040FDF7E6FC08B1FDF7CBFA114835
:10330000009006200190072002907F200594CDE9CF
:10331000030569460A48FDF7BFFA08B1FDF7BAFA96
:10332000094800900C20019069460548FDF7B4FA61
:10333000002801D0FDF7AEFA09B030BD0001005001
:10334000080100200080F03E1000C010F0B587B0EA
:1033500014216846FDF7CFF82D48C16C41F00401F7
:10336000C164C16C01F004010591C16C41F0200100
:10337000C164C16C01F020010591C16C41F00101F3
:10338000C164C16C01F001010591C16C41F0020101
:10339000C164C16C01F002010591C16C41F00801EA
:1033A000C164C06C1B4E00F008004FF47C540590C3
:1033B000002221463046FEF744F8174F0022042130
:1033C0003846FEF73EF80125CDE900450024029479
:1033D000694630460394FDF74BFFCDE9005469463A
:1033E0004FF090400294FDF743FF0720CDE9000421
:1033F00069460A480294FDF73BFF04200090CDE99E
:103400000154694638460394FDF732FF07B0F0BD1A
:103410000010024000080048000C0048000400486A
:103420000C4810B50A4901604F21416000214FF45A
:10343000FA72C0E902120161416180218161FEF7E7
:1034400000FE002803D0BDE81040FDF723BA10BDF0
:10345000004801400C02002010B58CB000240594F7
:10346000214804940694079408940A9409940094BB
:10347000019402944FF08041039401604F21C0E910
:103480000114611EC0E903148461FEF7DAFD08B17E
:10349000FDF700FA4FF48050049004A91248FEF79B
:1034A00073FE08B1FDF7F6F90F48FEF784FF08B187
:1034B000FDF7F0F9089408A90B480A94FEF772FD8D
:1034C00008B1FDF7E7F90120CDE9004002940022A0
:1034D000694605480394FEF7E7FE002801D0FDF792
:1034E000D9F90CB010BD00007401002010B58CB0EB
:1034F00000240594224804940694079408940A949E
:1035000009940094019402941C49039401604F2192
:10351000C0E9011442F20F71C0E9031480218161F6
:10352000FEF78FFD08B1FDF7B5F94FF48050049018
:1035300004A91348FEF728FE08B1FDF7ABF91048BF
:10354000FEF739FF08B1FDF7A5F9089408A90C4862
:103550000A94FEF727FD08B1FDF79CF90120CDE99B
:10356000004002940022694605480394FEF79CFE41
:10357000002801D0FDF78EF90CB010BD000400400A
:10358000C0010020184810B5164901604FF41651CB
:103590004160002181600C22C160C0E90412816198
:1035A000C161016241628162FFF780FA08B1FDF7F3
:1035B00071F900210C48FFF70EF908B1FDF76AF91F
:1035C00000210948FFF7E1F808B1FDF763F9064863
:1035D000FFF7BAF8002803D0BDE81040FDF75AB94C
:1035E00010BD00000038014058020020FEE7FEE751
:1035F000704730B501210020FFF7F8FD4FF47A70D5
:10360000FDF73AF900210120FFF7F0FD41F290713A
:103610001020FFF7EBFD4FF41C516020FFF7E6FD93
:1036200001216120FFF7E2FD02214620FFF7DEFDC8
:1036300048F210011320FFF7D9FD48F2FE011220D5
:10364000FFF7D4FD4FF4A0610220FFF7CFFD41F258
:1036500030010320FFF7CAFD40F203342146302039
:10366000FFF7C4FD21463120FFF7C0FD214632207F
:10367000FFF7BCFDE51E29463320FFF7B7FD032108
:103680003420FFF7B3FD21463520FFF7AFFD1421AD
:103690003620FFF7ABFD21463720FFF7A7FD214677
:1036A0003820FFF7A3FD21463920FFF79FFD29466B
:1036B0003A20FFF79BFD03213B20FFF797FD2146B2
:1036C0003C20FFF793FD4FF4A0513D20FFF78EFD06
:1036D0004FF400719220FFF789FD21469320FFF7F8
:1036E00085FD40F60D019020FFF780FD41F21801A5
:1036F0000320FFF77BFDBDE8304040F27311072047
:10370000FFF774BD10B543F20801E320FFF76EFD2B
:103710001221E720FFF76AFD41F23121EF20FFF788
:1037200065FD00210120FFF761FD4FF4E0610220FB
:10373000FFF75CFD41F230010320FFF757FD002148
:103740000420FFF753FD40F207210820FFF74EFD4C
:1037500000210920FFF74AFD00210A20FFF746FD5E
:1037600000210C20FFF742FD00210D20FFF73EFD58
:1037700000210F20FFF73AFD00211020FFF736FD52
:1037800007211120FFF732FD00211220FFF72EFD47
:1037900000211320FFF72AFDC820FDF757FD41F255
:1037A00090611020FFF722FD40F227211120FFF742
:1037B0001DFD3220FDF74AFD1D211220FFF716FDE9
:1037C0003220FDF743FD4FF400611320FFF70EFD9B
:1037D00014212920FFF70AFD0B212B20FFF706FDFE
:1037E0003220FDF733FD00212020FFF7FFFC0021F0
:1037F0002120FFF7FBFC07213020FFF7F7FC40F208
:1038000007713120FFF7F2FC06213220FFF7EEFCB2
:1038100040F204713520FFF7E9FC41F604713620CF
:10382000FFF7E4FC04213720FFF7E0FC00213820FB
:10383000FFF7DCFC40F206713920FFF7D7FC40F2BD
:1038400001713C20FFF7D2FC0F213D20FFF7CEFC99
:1038500000215020FFF7CAFCEF215120FFF7C6FCE2
:1038600000215220FFF7C2FC40F23F115320FFF726
:10387000BDFC4FF41C516020FFF7B8FC0121612012
:10388000FFF7B4FC00216A20FFF7B0FC0021802084
:10389000FFF7ACFC00218120FFF7A8FC002182206B
:1038A000FFF7A4FC00218320FFF7A0FC0021842067
:1038B000FFF79CFC00218520FFF798FC1021902049
:1038C000FFF794FC00219220FFF790FC0321932046
:1038D000FFF78CFC4FF488719520FFF787FC0021DF
:1038E0009720FFF783FC00219820FFF77FFC41F22F
:1038F00018010320FFF77AFCBDE8104040F2731175
:103900000720FFF773BC000008B1044801E003483A
:103910001030016841F04001016070471804004810
:1039200010B580210348FDF787FD012800D0002055
:1039300010BD00000004004800B585B014216846A1
:10394000FCF7D9FD8020009000200190012002901A
:103950000220039069460248FDF78AFC05B000BDCD
:103960000004004808B1044801E003481030016831
:1039700041F08001016070471804004800B585B02F
:1039800014216846FCF7B7FD8020009011200190BB
:10399000002002900220039069460248FDF768FC6F
:1039A00005B000BD000400487047FDF755BD10B5D7
:1039B000A4B038216846FCF79EFD14211FA8FCF72F
:1039C0009AFD44210EA8FCF796FD4FF40070FDF718
:1039D000D5FD0220C1010391402104910121CDE9CF
:1039E000080100900A21CDE90A1007900C900D9073
:1039F0006846FEF7B7F808B172B6FEE70F2000245C
:103A00001F900320CDE92004229402211FA82394B3
:103A1000FDF75EFF08B172B6FEE748F20100CDE99E
:103A20000E0440071D900EA8FDF70EFE002801D0E1
:103A300072B6FEE724B010BD0248016841F470017F
:103A40000160704788ED00E00148FEF77BBD000093
:103A50000C0200200148FEF775BD00007401002033
:103A60000148FEF76FBD0000C00100202DE9F043C2
:103A70000268234B234D244E244C4FF0804998423A
:103A800007D0484505D0A84203D0B04201D0A0429B
:103A900003D122F070074A683A431D4FDFF874C023
:103AA000DFF8748098420DD048450BD0A84209D069
:103AB000B04207D0A04205D0B84203D0604501D043
:103AC000404503D122F44075CA682A434D6922F06B
:103AD00080022A4302608A68C2620A68826298424F
:103AE00007D0A04205D0B84203D0604501D0404580
:103AF00001D10969016301214161BDE8F083000042
:103B0000002C014000040040000800400034014047
:103B100000400140004401400048014010B501F060
:103B20001F030121046A99408C430462016A9A4090
:103B30001143016210BD10B5846842EA032224F4E7
:103B40007F440A432243826010BD00008268034B19
:103B50001A400A4342F00701816070478FFFCFFF90
:103B600010B5036A046A24F001040462846924F035
:103B7000F00444EA021423F00A020A438461026258
:103B800010BD000070B5046A24F001040462846969
:103B9000056A124EB0420ED0B0F1804F0BD0104EDD
:103BA000B04208D00F4EB04205D00F4EB04202D006
:103BB0000E4EB04203D124F00304144301E044F05C
:103BC00001041A0724F0F00444EA126225F00A0303
:103BD00001F00A0119438261016270BD002C0140AD
:103BE0000004004000080040003401400040014053
:103BF00010B5036A23F0100303628369046A23F497
:103C0000704343EA023224F0A00343EA01118261C7
:103C1000016210BD30B5046A24F0100404628469A6
:103C2000056A24F4407444EA022222F470444FF6F8
:103C3000FF7202EA03322243A02425F0A00304EA23
:103C4000011119438261016230BD000030B5416E3F
:103C5000B9B1026891689268C1F342610B4B520F8F
:103C60009C5CE50003F10804A25CB5FBF2F2A0F84D
:103C70006A205A5C615CD200B2FBF1F1A0F86810D6
:103C800030BD0121A0F86A10F8E700003A5C000896
:103C900090F82810C90706D001684A68C36A22F460
:103CA00000321A434A6090F82810890706D5016847
:103CB0004A68036B22F480321A434A6090F8281055
:103CC000490706D501684A68436B22F480221A43EB
:103CD0004A6090F82810090706D501684A68836B86
:103CE00022F400421A434A6090F82810C90606D50B
:103CF00001688A68C36B22F480521A438A6090F884
:103D00002810890606D501688A68036C22F40052DF
:103D10001A438A6090F82810490611D501684A684C
:103D2000436C22F480121A434A60416CB1F5801F43
:103D300006D101684A68836C22F4C0021A434A60C3
:103D400090F82810090606D501684A68C06C22F46C
:103D5000002202434A607047F8B500260446C0F8C6
:103D60008C60FDF773FB0546206800686FF07E47A6
:103D7000000708D52B4600224FF40011204600977B
:103D800000F0A2FB60B92068006840070AD52B4606
:103D900000224FF480012046009700F095FB08B107
:103DA0000320F8BD2020C4F88400C4F8880044F83B
:103DB0006C6F00202675F8BD10B5806A0021A0F850
:103DC0005E10A0F85610FEF72EFD10BD01680A68BF
:103DD00022F490720A6001688A68094B1A408A606E
:103DE000C16E012904D101680A6822F010020A603C
:103DF0002021C0F888100021C166016770470000CB
:103E0000FEFFFFEF70B5B0F86010D0F888200446D0
:103E10000068222A04D0816941F00801816170BDE7
:103E2000406AA26D08401080A06D801CA065B4F8A7
:103E30005E00401EA4F85E00B4F85E000028EED1DB
:103E40002068016821F4907101602068816821F088
:103E5000010181602020C4F8880000252567E06EFC
:103E6000012804D02046FEF7B7FEE56670BD206845
:103E7000016821F010010160B4F85C102046FEF7E3
:103E800082FCF2E72DE9F0470446B0F86060006874
:103E9000C569D0F800A0D0F80880D4F8881022298D
:103EA00005D0816941F008018161BDE8F087B4F86F
:103EB00068704FF000095BE02068406AA16D3040F7
:103EC0000880A06D801CA065B4F85E00401EA4F8B8
:103ED0005E002068C569690730D0E9070AD05FEA4B
:103EE000CA5107D501210162D4F88C0040F00100CD
:103EF000C4F88C00A8070BD55FEAC87008D0216809
:103F000002200862D4F88C0040F00400C4F88C0051
:103F100068070BD55FEAC87008D0216804200862E2
:103F2000D4F88C0040F00200C4F88C00D4F88C0067
:103F300020B12046FEF777FCC4F88C90B4F85E0000
:103F4000B0B92068016821F480710160206881683F
:103F5000194A114081602020C4F88800C4F870908C
:103F6000E06E01281CD02046FEF736FEC4F86C90A7
:103F70000FB1A806A0D4B4F85E00002895D0B4F81C
:103F80006810814291D92068816821F08051816058
:103F90000A4820672068016841F02001016084E739
:103FA0002068016821F010010160B4F85C1020461F
:103FB000FEF7E9FBDAE70000FEFFFFEF053E000831
:103FC00070B5B0F86010D0F8882004460068222A46
:103FD00004D0816941F00801816170BD406A0840E8
:103FE000A16D0870A06D401CA065B4F85E00401E75
:103FF000A4F85E00B4F85E000028EED120680168E5
:1040000021F4907101602068816821F001018160D4
:104010002020C4F8880000252567E06E012804D020
:104020002046FEF7D9FDE56670BD2068016821F0E5
:1040300010010160B4F85C102046FEF7A4FBF2E723
:104040002DE9F0470446B0F860600068C569D0F813
:1040500000A0D0F80880D4F88810222905D0816902
:1040600041F008018161BDE8F087B4F868704FF055
:1040700000095BE02068406AA16D30400870A06DC7
:10408000401CA065B4F85E00401EA4F85E002068E5
:10409000C569690730D0E9070AD05FEACA5107D578
:1040A00001210162D4F88C0040F00100C4F88C00BA
:1040B000A8070BD55FEAC87008D021680220086203
:1040C000D4F88C0040F00400C4F88C0068070BD5CD
:1040D0005FEAC87008D0216804200862D4F88C0018
:1040E00040F00200C4F88C00D4F88C0020B12046C7
:1040F000FEF799FBC4F88C90B4F85E00B0B9206864
:10410000016821F48071016020688168194A1140BA
:1041100081602020C4F88800C4F87090E06E012807
:104120001CD02046FEF758FDC4F86C900FB1A806CD
:10413000A0D4B4F85E00002895D0B4F8681081428D
:1041400091D92068816821F0805181600A482067F8
:104150002068016841F02001016084E7206801685F
:1041600021F010010160B4F85C102046FEF70BFB53
:10417000DAE70000FEFFFFEFC13F00082DE9F04144
:104180000446016880682269E3691043626900257A
:104190001A431043DFF82CC20A688B4B1A400243C3
:1041A0000A6020684168E26821F44051114341608F
:1041B0002168A069614501D0226A10438A68834B57
:1041C0001A4002438A602068C16A626A21F00F01C6
:1041D0001143C1627E4923687E488B420DD1D0F8DD
:1041E000880010F0030006D0012855D0022842D0E4
:1041F00003283FD152E001203DE077498B420BD1AB
:10420000D0F8880010F00C0035D0042833D00828EE
:1042100040D00C282ED141E070498B420BD1D0F810
:10422000880010F0300026D0102835D0202831D05A
:1042300030281FD132E06A498B420BD1D0F8880078
:1042400010F0C00017D0402826D0802822D0C028E7
:1042500010D123E063450DD1D0F8880010F4406000
:1042600009D0B0F5806F17D0B0F5006F12D0B0F55F
:10427000406F13D010205B4A5B4F00264FF4004183
:10428000634539D160B102280DD004280DD008282B
:1042900031D10EE00220EEE70420ECE70820EAE747
:1042A000FDF704FC03E0114603E0FDF723FC0100E9
:1042B0007DD0606A37F810206768B1FBF2F007EB39
:1042C000470383426CD8B0EB073F69D80023084608
:1042D0001946FBF7F5FF090241EA1061020278086E
:1042E000101871413A460023FBF7EAFF3F4AA0F558
:1042F0004071914259D953E0E3694FF6EF788B4210
:104300002DD109284CD2DFE800F005080D4B274BD2
:104310004B4B0E00FDF7CAFB01E0FDF7D9FB010096
:1043200001D144E01146606A37F81000B1FBF0F0AB
:104330004100606801EB5001B1FBF0F080B2A0F1E8
:10434000100141452CD84FF6F0710140C0F34200F6
:1043500001432068C1602AE0FDF7CCFBDFE70928B4
:104360001ED2DFE800F005080D1D1F1D1D1D0E00EB
:10437000FDF79CFB01E0FDF7ABFB010001D116E06E
:104380001146606A37F81000B1FBF0F1606801EB8C
:104390005001B1FBF0F080B2A0F11001414504D909
:1043A000012504E0FDF7A6FBE7E72168C8600120CE
:1043B000A4F86A0024F8680F2846A660E660BDE805
:1043C000F081000000800040F369FFCFFFF4FF118F
:1043D0000038014000100240004400400048004006
:1043E000004C00400024F400225C0008FFFC0F0099
:1043F00070B58165A0F85C20A0F85E2000210167FF
:1044000083684FF48056FF24B34204D10369D3B9C3
:1044100040F2FF131DE07F259BB1B3F1805F15D003
:10442000A0F86010C0F88C102223C0F88830036810
:104430009C6844F001049C60436EB3F1005F0ED0B1
:1044400027E0036943B9A0F86040EBE703691BB1BB
:104450003F23A0F86030E5E7A0F86050E2E7B0F84D
:104460006830934215D88268B24201D1026972B1B4
:10447000114A026780F8801001680A6842F480726D
:104480000A600068816841F0805181600FE00B4A4A
:10449000EFE78268B24201D1026952B1084A02676D
:1044A00080F880100068016841F49071016000207C
:1044B00070BD044AF3E7000041400008853E000853
:1044C000C13F0008053E00082DE9F0479A4617460F
:1044D0000E4604464FF000094FF02008089D39E0D1
:1044E000681C37D0FCF7B2FFA0EB0A00A84222D824
:1044F0000DB32068016849072CD5C069C043000589
:1045000028D421684FF4006008622068016821F413
:10451000D07101602068816821F001018160C4F8D8
:104520008480C4F88880C4F88C8000BF84F88090B0
:104530000320BDE8F0872068016821F4D071016094
:104540002068816821F001018160C4F88480C4F88A
:104550008880EBE72068C06936EA000004D00020BC
:10456000B842BDD00020E4E70120F9E70148FEF79A
:104570005BB900005802002010B51D4801681D4CB1
:10458000A269891A322932D30068A06100F0D4F8F8
:10459000012810D000F0D0F802280FD000F0CCF89D
:1045A00003280ED000F0C8F804280DD000F0C4F89D
:1045B00005280CD019E0E2790FA10AE0E27910A1F8
:1045C00007E0E27910A104E0E27912A101E0E279CA
:1045D00013A11648FBF7ECFE1448FBF76DFF82B2FF
:1045E000322312491248FEF709FB0020E07110BD8A
:1045F0003800002008000020583A25640D0A000009
:10460000593A25640D0A00005041313A25640D0ADB
:10461000000000005041343A25640D0A00000000FB
:104620005041353A25640D0A000000005E0000206C
:1046300058020020FEE70907090E002804DB00F1FC
:10464000E02080F80014704700F00F0000F1E02037
:1046500080F8141D7047002100E0491C8142FCD302
:104660007047000010B50E48FCF7E6FC32210C48FC
:10467000FCF764FC0A48FCF721FB0A4C2080084840
:10468000FCF7DAFC32210648FCF758FC0448FCF73A
:1046900015FB6080BDE810400148FCF747BD0000F5
:1046A000080100202400002070B515460E4604467F
:1046B000FEF798FBA020FEF756FBFEF7C9FB30463D
:1046C000FEF751FBFEF7C4FBFEF78CFBA120FEF7C3
:1046D0004AFBFEF7BDFB09E0FEF706FB04F8010B01
:1046E00015B1FEF728FB01E0FEF764FB6D1EEDB28D
:1046F000F2D2BDE87040FEF790BB000070B51546E1
:104700000E460446FEF76EFBA020FEF72CFBFEF7DC
:104710009FFB304602E000BF14F8010BFEF723FBBD
:10472000FEF796FB6D1EEDB2F6D2FEF776FBBDE806
:1047300070400520FCF78ABD1748C27942B117487E
:10474000012A017806D0032A0FD0012A06D018E0EA
:1047500000207047582904D0592904D0232918D0A3
:104760000FE00120704702207047502909D141789D
:10477000412906D18078312805D0342805D0352844
:1047800005D007207047032070470420704705209C
:1047900070470620704700000800002073000020CA
:1047A00070B51C4D28681C4C2169401A322820D352
:1047B0002868206100F032F86070217930EA010247
:1047C00080EA0101A27021EA0001E170207101D0AC
:1047D0002868606128686269821A0020B2F57A7FD1
:1047E00008D9012904D0042903D1207A40F080009F
:1047F000207270BD012909D00229FAD00329F8D00E
:104800000429F6D1207A40F00800F1E72178491C0C
:104810002170EDE7380000200800002070B51C4C26
:1048200001212046FCF708FE4FF0904570B10221AF
:104830002046FCF701FE48B104212046FCF7FCFDB0
:1048400020B101212846FCF7F7FDB0B90A20FCF79A
:10485000FDFC01212046FCF7EFFD80B1022120463E
:10486000FCF7EAFD68B104212046FCF7E5FD50B1F4
:1048700001212846FCF7E0FD38B1002070BD012081
:1048800070BD022070BD032070BD042070BD00000B
:104890000004004810B5104C607948B10FA11048D1
:1048A000FBF786FD0E490020BDE81040FEF78CBBEB
:1048B0000CA10B48FBF77CFD09491820FEF784FB8F
:1048C0000748227848300CA1835C4838FBF770FD1C
:1048D00003493020E8E70000080000200000000045
:1048E00040000020202020206C6F63616C20506C01
:1048F00061742020200000002020256420202564F1
:10490000202020000148007A00F002B808000020B2
:1049100070B5124D044601224FF47F412846FCF742
:1049200090FD0F4E012204213046FCF78AFD002243
:1049300004213046FCF785FD210200222846FCF7C1
:1049400080FD012204213046FCF77BFD3046BDE8A6
:10495000704000220421FCF774BD000000080048EC
:10496000000C0048FCF780FDFFF721F8FEF7EEFC95
:10497000FEF7BCFDFEF754FDFEF704FEFEF76CFDEE
:10498000FEF798FCFEF79AF9FEF760FB0020FEF7B1
:10499000B7FB4FF6FF70FEF7C7FB0020FEF7AEFA3D
:1049A0000020FFF7B5FF012221492248FEF7EEF86B
:1049B00000212148FDF732FD1D48052200211A3053
:1049C000FFF772FE1A481A308178772905D1C1782D
:1049D0007A2902D1017964290BD0772181707A215B
:1049E000C170642101711248052200211A30FFF7BD
:1049F00085FE0F4C163411A122881248FBF7D8FC13
:104A00001049C020FEF7E0FA62880CA10D48FBF7C0
:104A1000CFFC0C49D820FEF7D7FAFFF723FEFFF7AB
:104A2000BFFEFFF737FFFFF76DFFFFF7A5FDE2E7DA
:104A30000E0000205802002074010020583A25641E
:104A40000D0A00005E0000204FF04070E1EE100AF9
:104A5000704700000000000000000000000000009F
:104A60000000000000000000000000000000000046
:104A70000000000000000000000000000000000036
:104A80000000000080018001800180018001800120
:104A9000800180018001800180018001800100008F
:104AA0000000800180010000000000000000000004
:104AB000000000000000CC00CC00CC00CC00CC00FA
:104AC000CC0000000000000000000000000000001A
:104AD00000000000000000000000000000000000D6
:104AE0000000000000000000000000000000600C5A
:104AF000600C600C30063006FE1FFE1F30063807C3
:104B00001803FE1FFE1F180318038C018C018C0173
:104B1000000000008000E003F80F9C0E8C1C8C1835
:104B20008C009800F801E007800E801C8C188C180F
:104B30009C18B80CF00FE00380008000000000001B
:104B400000000000000000000E181B0C110C1106E4
:104B50001106110311039B018E01C038C06C604423
:104B60006044304430441844186C0C380000000095
:104B700000000000E001F0033807180618063003B3
:104B8000F001F000F8009C310E33061E061C061CD6
:104B9000063FFC73F0210000000000000000000050
:104BA0000000000000000C000C000C000C000C00C9
:104BB0000C000000000000000000000000000000E9
:104BC00000000000000000000000000000000000E5
:104BD00000000000000200038001C000C00060006F
:104BE0006000300030003000300030003000300015
:104BF000300060006000C000C000800100030002BF
:104C00000000000020006000C0008001800100035F
:104C10000003000600060006000600060006000667
:104C200000060003000380018001C0006000200036
:104C30000000000000000000000000000000C000B4
:104C4000C000D806F807E001300338070000000074
:104C50000000000000000000000000000000000054
:104C600000000000000000000000000000008001C3
:104C70008001800180018001FC3FFC3F80018001B8
:104C800080018001800100000000000000000000A1
:104C90000000000000000000000000000000000014
:104CA0000000000000000000000000000000000004
:104CB0000000000080018001000100018000000070
:104CC00000000000000000000000000000000000E4
:104CD00000000000000000000000E007E007000006
:104CE00000000000000000000000000000000000C4
:104CF00000000000000000000000000000000000B4
:104D000000000000000000000000000000000000A3
:104D100000000000C000C000000000000000000013
:104D200000000000000C000C000600060006000356
:104D3000000300038003800180018001C000C000E7
:104D4000C0006000600000000000000000000000E3
:104D500000000000E003F007380E180C0C180C18C7
:104D60000C180C180C180C180C180C180C18180C23
:104D7000380EF007E0030000000000000000000013
:104D80000000000000018001C001F00198018801CD
:104D9000800180018001800180018001800180010B
:104DA0008001800180010000000000000000000080
:104DB00000000000E003F80F180C0C180C18001885
:104DC0000018000C000600038001C00060003000E5
:104DD0001800FC1FFC1F0000000000000000000085
:104DE00000000000E001F807180E0C0C0C0C000C81
:104DF0000006C003C007000C001800180C180C189F
:104E0000180CF807E003000000000000000000009C
:104E100000000000000C000E000F000F800DC00C01
:104E2000600C600C300C180C0C0CFC3FFC3F000CB0
:104E3000000C000C000C000000000000000000004E
:104E400000000000F80FF80F180018000C00EC0329
:104E5000FC071C0E001C0018001800180C181C0C75
:104E6000180EF807E003000000000000000000003A
:104E700000000000C007F00F381C181818000C00C4
:104E8000CC03EC0F3C0E1C1C0C180C180C18181C36
:104E9000380EF007E00300000000000000000000F2
:104EA00000000000FC1FFC1F000C000600060003B1
:104EB00080038001C001C000E0006000600070005D
:104EC0003000300030000000000000000000000052
:104ED00000000000E003F007380E180C180C180C46
:104EE0003806F007F007180C0C180C180C180C18E2
:104EF000380CF80FE0030000000000000000000084
:104F000000000000E003F007380E1C0C0C180C1811
:104F10000C181C1C381EF81BE0190018000C000CA3
:104F20001C0EF807F0010000000000000000000067
:104F300000000000000000000000000000008001F0
:104F400080010000000000000000000000000000E0
:104F5000000080018001000000000000000000004F
:104F600000000000000000000000000000008001C0
:104F700080010000000000000000000000000000B0
:104F8000000080018001000100018000000000009D
:104F90000000000000000000000000000000000011
:104FA00000000010001C800FE003F8001800F8005B
:104FB000E003800F001C0010000000000000000053
:104FC00000000000000000000000000000000000E1
:104FD0000000F81F000000000000F81F00000000A3
:104FE00000000000000000000000000000000000C1
:104FF00000000000000000000000000000000000B1
:10500000000008003800F001C007001F0018001F52
:10501000C007F00138000800000000000000000098
:1050200000000000E003F80F180C0C180C18001812
:10503000000C000600038001C000C000C00000009A
:105040000000C000C00000000000000000000000E0
:10505000000000000000E00718180420C229224ABE
:10506000114409440944094409221113E20C024085
:1050700004201818E00700000000000000000000F5
:105080000000000080038003C006C006C006600C5C
:10509000600C301830183018F83FF83F1C700C6066
:1050A0000C6006C006C00000000000000000000008
:1050B00000000000FC03FC0F0C0C0C180C180C1862
:1050C0000C0CFC07FC0F0C180C300C300C300C30A6
:1050D0000C18FC1FFC07000000000000000000008E
:1050E00000000000C007F01F38381C300C7006604C
:1050F00006000600060006000600060006600C70AA
:105100001C30F01FE007000000000000000000005D
:1051100000000000FE03FE0F060E061806180630FB
:1051200006300630063006300630063006180618FF
:10513000060EFE0FFE03000000000000000000004D
:1051400000000000FC3FFC3F0C000C000C000C00B9
:105150000C00FC1FFC1F0C000C000C000C000C00D1
:105160000C00FC3FFC3F00000000000000000000BD
:1051700000000000F83FF83F180018001800180061
:105180001800F81FF81F1800180018001800180061
:1051900018001800180000000000000000000000C7
:1051A00000000000E00FF83F3C780E6006E007C00A
:1051B0000300030003FE03FE03C007C006C00EC0C9
:1051C0003CF0F83FE00F000000000000000000008D
:1051D000000000000C300C300C300C300C300C3067
:1051E0000C30FC3FFC3F0C300C300C300C300C30E1
:1051F0000C300C300C3000000000000000000000FB
:105200000000000080018001800180018001800198
:105210008001800180018001800180018001800186
:1052200080018001800100000000000000000000FB
:10523000000000000006000600060006000600064A
:1052400000060006000600060006000618061806FE
:105250003807F003E001000000000000000000003B
:105260000000000006300618060C0606060386013C
:10527000C60066007600DE008E0106030606060CF8
:105280000618063006600000000000000000000064
:10529000000000001800180018001800180018007E
:1052A000180018001800180018001800180018003E
:1052B0001800F81FF81F00000000000000000000A8
:1052C000000000000EE01EF01EF01EF036D836D8AA
:1052D00036D836D866CC66CC66CCC6C6C6C6C6C678
:1052E000C6C686C386C300000000000000000000A0
:1052F000000000000C301C303C303C306C306C3016
:10530000CC30CC308C310C330C330C360C360C3C9E
:105310000C3C0C380C3000000000000000000000C5
:1053200000000000E007F81F1C380E70066003C084
:1053300003C003C003C003C003C003C006600E70F7
:105340001C38F81FE007000000000000000000000B
:1053500000000000FC0FFC1F0C380C300C300C302F
:105360000C300C18FC1FFC070C000C000C000C008F
:105370000C000C000C000000000000000000000009
:1053800000000000E007F81F1C380E70066003E004
:1053900003C003C003C003C003C007E006630E3FA1
:1053A0001C3CF83FE0F700C00000000000000000D7
:1053B00000000000FE0FFE1F0638063006300630E3
:1053C0000638FE1FFE0706030606060C061806181A
:1053D00006300630066000000000000000000000FB
:1053E00000000000E003F80F1C0C0C180C180C0057
:1053F0001C00F803E00F001E0038063006300E30A7
:105400001C1CF80FE0070000000000000000000076
:1054100000000000FE7FFE7F80018001800180018E
:105420008001800180018001800180018001800174
:1054300080018001800100000000000000000000E9
:10544000000000000C300C300C300C300C300C30F4
:105450000C300C300C300C300C300C300C300C306C
:105460001818F81FE007000000000000000000000E
:105470000000000003600630063006300C180C18DF
:105480000C18180C180C380E300630067007600324
:105490006003C001C0010000000000000000000027
:1054A000000000000360C361C361C36166336633FB
:1054B00066336633663366336C1B6C1B6C1B2C1AAD
:1054C0003C1E380E380E00000000000000000000F6
:1054D000000000000FE00C7018303018700C600EE7
:1054E000C00780038003C003E006700C301C18184E
:1054F0000C300E6007E0000000000000000000001B
:105500000000000003C006600C301C383818300C56
:105510006006E007C00380018001800180018001F6
:1055200080018001800100000000000000000000F8
:1055300000000000FC7FFC7F006000300018000CC1
:10554000000600038001C0006000300018000C005D
:105550000600FE7FFE7F000000000000000000004B
:1055600000000000E003E0036000600060006000F5
:10557000600060006000600060006000600060002B
:10558000600060006000600060006000E003E00315
:105590000000000030003000600060006000C000CB
:1055A000C000C000C0018001800180010003000331
:1055B00000030006000600000000000000000000DC
:1055C00000000000E003E003000300030003000309
:1055D00000030003000300030003000300030003B3
:1055E000000300030003000300030003E003E003E3
:1055F000000000000000C001C00160036003600300
:1056000030063006180C180C0000000000000000E6
:10561000000000000000000000000000000000008A
:10562000000000000000000000000000000000007A
:10563000000000000000000000000000000000006A
:1056400000000000FFFFFFFF00000000000000005E
:10565000000000000C000C000C000C000C000C0002
:10566000000000000000000000000000000000003A
:10567000000000000000000000000000000000002A
:105680000000000000000000000000000000F00327
:10569000F8071C0C0C0C000FF00FF80C0C0C0C0C89
:1056A0001C0FF80FF01800000000000000000000C0
:1056B0000000000018001800180018001800D80397
:1056C000F80F380C1818181818181818181818186F
:1056D000380CF80FD80300000000000000000000A4
:1056E0000000000000000000000000000000C003F7
:1056F000F007300E180C1800180018001800180CCD
:10570000300EF007C00300000000000000000000A1
:105710000000000000180018001800180018C01B36
:10572000F01F301C181818181818181818181818FE
:10573000301CF01FC01B0000000000000000000033
:105740000000000000000000000000000000C00396
:10575000F00F300C1818F81FF81F18001800381830
:10576000301CF00FC0070000000000000000000027
:1057700000000000800FC00FC000C000C000F00794
:10578000F007C000C000C000C000C000C000C000E2
:10579000C000C000C00000000000000000000000C9
:1057A0000000000000000000000000000000E00D0C
:1057B000F80F180E0C0C0C0C0C0C0C0C0C0C0C0C2C
:1057C000180EF80FE00D000C0C0C1C06F807F00189
:1057D0000000000018001800180018001800D80772
:1057E000F80F381C1818181818181818181818183E
:1057F0001818181818180000000000000000000019
:1058000000000000C000C000000000000000C00058
:10581000C000C000C000C000C000C000C000C00088
:10582000C000C000C0000000000000000000000038
:1058300000000000C000C000000000000000C00028
:10584000C000C000C000C000C000C000C000C00058
:10585000C000C000C000C000C000C000F800780058
:10586000000000000C000C000C000C000C000C0CE4
:105870000C060C038C01CC006C00FC009C018C031A
:105880000C030C060C0C00000000000000000000DF
:1058900000000000C000C000C000C000C000C00088
:1058A000C000C000C000C000C000C000C000C000F8
:1058B000C000C000C00000000000000000000000A8
:1058C00000000000000000000000000000007C3C20
:1058D000FF7EC7E383C183C183C183C183C183C109
:1058E00083C183C183C100000000000000000000EC
:1058F0000000000000000000000000000000980709
:10590000F80F381C1818181818181818181818181C
:1059100018181818181800000000000000000000F7
:105920000000000000000000000000000000C003B4
:10593000F00F300C1818181818181818181818180C
:10594000300CF00FC0030000000000000000000059
:105950000000000000000000000000000000D8036C
:10596000F80F380C181818181818181818181818CC
:10597000380CF80FD8031800180018001800180089
:105980000000000000000000000000000000C01B3C
:10599000F01F301C1818181818181818181818188C
:1059A000301CF01FC01B0018001800180018001849
:1059B0000000000000000000000000000000B00730
:1059C000F003700030003000300030003000300054
:1059D0003000300030000000000000000000000037
:1059E0000000000000000000000000000000E003D4
:1059F000F003380E180C3800F003C007000C180C28
:105A0000380EF007E0030000000000000000000076
:105A10000000000000008000C000C000C000F007CF
:105A2000F007C000C000C000C000C000C000C0003F
:105A3000C000C00780070000000000000000000058
:105A40000000000000000000000000000000181826
:105A500018181818181818181818181818181818C6
:105A6000381CF01FE01900000000000000000000DA
:105A700000000000000000000000000000000C1802
:105A8000180C180C180C3006300630066003600342
:105A90006003C001C0010000000000000000000021
:105AA0000000000000000000000000000000C141F4
:105AB000C141C3616363636363633636363636362A
:105AC0001C1C1C1C1C1C000000000000000000002E
:105AD00000000000000000000000000000001C3872
