:020000040800F2
:1000000090050020F10100089F280008DF22000869
:100010009D2800085908000821360008000000004B
:10002000000000000000000000000000B72B0008E6
:100030005B08000800000000A1280008B92B000898
:100040000B0200080B0200080B0200080B0200085C
:100050000B0200080B0200080B0200080B0200084C
:100060000B0200080B0200080B0200080B0200083C
:100070000B0200080B0200080B0200080B0200082C
:100080000B020008000000000B0200080B02000831
:100090000B0200080B0200080B0200080B0200080C
:1000A0000B0200080B0200080B0200080B020008FC
:1000B0000B0200080B0200080B0200080B020008EC
:1000C0000B0200080B0200080B0200080B020008DC
:1000D0000B020008793500080B0200080B0200082B
:1000E0000B0200080B0200080B0200080B020008BC
:1000F0000B0200080B0200080B02000800000000C1
:10010000000000000B020008000000000B020008C5
:100110000B020008000000000B0200080B020008A0
:100120000B0200080B0200080B0200080B0200087B
:100130000B02000800000000000000000B02000895
:100140000B0200080B020008000000000000000085
:10015000000000000000000000000000000000009F
:100160000000000000000000000000000B0200087A
:100170000B0200080000000000000000000000006A
:10018000000000000B02000800000000000000005A
:10019000000000000000000000000000000000005F
:1001A00000000000000000000B0200080B02000825
:1001B0000B0200080B0200080B0200080000000000
:1001C000000000000B02000800000000000000001A
:1001D0000B0200080B020008DFF810D000F0F0FA64
:1001E00000480047D1420008AFF30080900500208E
:1001F0000648804706480047FEE7FEE7FEE7FEE7C1
:10020000FEE7FEE7FEE7FEE7FEE7FEE7492C000813
:10021000D90100082DE9F05F0546002092469B4673
:1002200088460646814640241BE02846414647460C
:10023000224600F0BEF953465A46C01A914110D3E7
:1002400011461846224600F0A5F92D1A67EB010861
:100250004F4622460120002100F09CF917EB0009CF
:100260004E41201EA4F10104DFDC484631462A46F7
:100270004346BDE8F09FD2B201E000F8012B491ED1
:10028000FBD270470022F6E710B513460A46044633
:100290001946FFF7F0FF204610BD2DE9FE4F8046BE
:1002A00081EA0300C00F0C46009021F0004123F0CA
:1002B0000045B8EB0200A94105D2404621469046D0
:1002C0001C460B46024623F00040104347D0270D42
:1002D000C7F30A00C3F30A510290401A0190402864
:1002E0006BDAC3F3130040F4801B0098924620B1F0
:1002F0000023D2EB030A63EB0B0B01985946C0F1C4
:100300004002504600F046F906460D465046594612
:10031000019A00F05EF910EB08006141002487EAC1
:10032000115284EAE7731A4340D0009A62B3019AEB
:10033000012A4FEA075215DC001B61EB02014FF066
:10034000004202EA0752CDE90042001C41F580114B
:1003500032462B4600F05EF903B0BDE8F08F404610
:100360002146F9E7001B61EB0201001C41F58013F7
:1003700000185B412018A2F5001747EB030140EA83
:10038000D570B6196D4111E06D084FEA360645EAA1
:10039000C0754FEA0752001B61EB0201001C41F5DA
:1003A000801149084FEA30000019514132462B466E
:1003B00003B0BDE8F04F00F01EB9009801224000E4
:1003C0000023D0EB020263EBE073009821464FEA72
:1003D000E074B8EB000061EB0401E9E783F000434F
:1003E0005BE781F0004158E72DE9FE4F81EA030405
:1003F00004F0004421F0004100944FF0000B23F082
:10040000004350EA01045ED052EA03045BD0C3F318
:100410000A54C1F30A552C44A4F2F3340194A0FB0E
:100420000254C1F3130141F48011C3F3130343F4E5
:10043000801301FB024400FB034E840A970A44EA3E
:10044000815447EA8357A4FB076802958D0A05FB90
:1004500007854FEA932C04FB0C542705029D4FEAB5
:10046000065847EA1637B5EB08056EEB070C870E02
:10047000920E47EA811742EA8312A7FB0201B6EB0C
:100480000B0164EB00042B0D43EA0C335E1844EBC4
:100490001C50DA465146E7FB0201C5F313044FEA4C
:1004A0000B3343EA14534FEA0432019C43EA060338
:1004B000A4F10C040294009CCDE900B400F0AAF869
:1004C00003B0BDE8F08F00200146F9E70EB5C10F7B
:1004D00080EAE0700844CA07002140F233438DE807
:1004E0000E000A460B4600F095F803B000BD0EB5AD
:1004F00040F2334102910021CDE900110A460B463A
:1005000000F088F803B000BD30B5041E71F100049E
:1005100004DB4FF00044404264EB0101141E73F110
:10052000000405DB1C464FF00043524263EB04031A
:100530008B4208BF824230BD30B5041E71F1000409
:1005400004DB4FF00044404264EB0101141E73F1E0
:10055000000405DB1C464FF00043524263EB0403EA
:10056000994208BF904230BD30B50B46014600208D
:100570002022012409E021FA02F59D4205D303FA65
:1005800002F5491B04FA02F52844151EA2F10102E6
:10059000F1DC30BD202A04DB203A00FA02F1002011
:1005A00070479140C2F1200320FA03F319439040B1
:1005B0007047202A04DB203A21FA02F0002170471C
:1005C00021FA02F3D040C2F12002914008431946BB
:1005D0007047202A06DBCB17203A41FA02F043EAA3
:1005E000E07306E041FA02F3D040C2F120029140EC
:1005F00008431946704710B5141E73F1000408DA59
:10060000401C41F1000192185B411A4301D120F0D6
:10061000010010BD2DE9F04D92469B4611B1B1FA93
:1006200081F202E0B0FA80F220329046FFF7B2FF8A
:1006300004460F4640EA0A0041EA0B0153465A4677
:10064000084313D0114653EA010019D0C8F1400203
:100650005046FFF7AEFF05460E4650465946424605
:10066000FFF798FF084305D0012004E020463946F3
:10067000BDE8F08D0020054346EAE0762C43374381
:100680000A986305E40AA0EB08000022FD0A44EA88
:1006900047540A3002D500200146E9E70105101948
:1006A0006941DDE9084500196941BDE8F04DA2E75F
:1006B0002DE9F04D81EA030404F0004B21F00045E0
:1006C00014464FF0000A23F0004150EA050220D002
:1006D00054EA01021DD0C5F30A570246C5F31303BD
:1006E000C1F31300C1F30A5640F4801543F480139C
:1006F000A7EB0608101BD64608F2FD3873EB050081
:1007000002D308F1010801E092185B41B8F1000F33
:1007100003DA00200146BDE8F08D00204FF480117F
:10072000064684460EE0171B73EB050705D3121B24
:1007300063EB050306434CEA010C49084FEA30001D
:1007400092185B4150EA0107EDD152EA030012D042
:1007500082EA040083EA0501084305D0101BAB417F
:1007600006D20122002306E000224FF0004302E0FF
:100770006FF0010253101AEB06004CEB085110EB1E
:100780000A0041EB0B01BDE8F04DFFF734BFC1F3A8
:100790000A52C1F3130140F2FF3341F480119A422F
:1007A00002DA00200146704740F233439A42A2F237
:1007B000334202DC5242FFF7FCBEFFF7EBBE000003
:1007C000064C074D06E0E06840F0010394E807009E
:1007D00098471034AC42F6D3FFF702FD3C550008B1
:1007E0005C55000870B504460068816811F0010F7F
:1007F0002DD18168174A11421AD18168D543294009
:10080000491C816000F06AFD06461BE0816811F01A
:10081000010F03D181682940491C816000F05EFD11
:10082000801B02280ED920680068C043C00709D089
:10083000E06D40F01000E065206E40F001002066A1
:10084000012070BD20680168C943C907DED10020BE
:1008500070BD00003F000080FEE77047002240F6B8
:10086000B83306E00021491C89B29942FBD3521CDF
:1008700092B28242F6D3704772B6FEE72DE9F84F86
:1008800000270446009790F85800DFF8E0930D46E3
:10089000B846012811D0012684F85860206801F07C
:1008A00005FF60B1E06D40F02000E0655FF00107FA
:1008B00084F858803846BDE8F88F0220FBE7D5E978
:1008C00000210C23206803EA91131844036B01F004
:1008D0001F014FF01F0C0CFA01FCC2F3846223EAE3
:1008E0000C038A4013430363206801F0DFFE824655
:1008F000206801F0D7FE5AEA00003CD1AA682968B6
:100900002068B2F1004F37D001F0D4FE2068416971
:1009100021F00041416120686969C268C2F3C102E7
:10092000520091402A69042A31D000EB82002B68E2
:10093000026EDFF83CC303F0F84302EA0C020B43FB
:100940001A4342F00041016620682A69A96900EB58
:100950008200026E22F080720A430266297F2268BA
:100960002869012910D0002102EB8000026E22F0DC
:1009700000720A4302667DE0002201F09BFE2068BF
:10098000416941F00041C5E74FF00071ECE70021FB
:1009900001F082FE400320684FF0000172D001F0A8
:1009A0007BFE90FAA0F0B0FA80F1286842036ED086
:1009B00090FAA0F0B0FA80F0814204D100221146F2
:1009C000206801F086FE0121206801F065FE4003E9
:1009D00020684FF001015DD001F05EFE90FAA0F0BA
:1009E000B0FA80F12868420359D090FAA0F0B0FA2A
:1009F00080F0814204D100220121206801F069FECB
:100A00000221206801F048FE400320684FF00201F7
:100A100048D001F041FE90FAA0F0B0FA80F12868C9
:100A2000420344D090FAA0F0B0FA80F0814204D1A1
:100A300000220221206801F04CFE0321206801F011
:100A40002BFE400320684FF0030133D001F024FE59
:100A500090FAA0F0B0FA80F1286842032FD090FA03
:100A6000A0F0B0FA80F0814204D100220321206876
:100A700001F02FFE2068816811F0010F22D0ACE058
:100A800000E004E001F008FEC0F384618DE7C0F3EC
:100A9000846091E701F000FEC0F38461A2E7C0F337
:100AA0008460A6E701F0F8FDC0F38461B7E7C0F306
:100AB0008460BBE701F0F0FDC0F38461CCE7C0F3D4
:100AC0008460D0E72A7B296850F8B03FC1F3120C4C
:100AD00023EA0C0302F0180C664A22FA0CF20A40D0
:100AE00013430360E968494577D1286841031CD066
:100AF00090FAA0F1B1FA81F1491C01F01F01092916
:100B00004FEA403132D8002912D000BF90FAA0F14C
:100B1000B1FA81F101F1010101F01F0106FA01F6BC
:100B200009D100BFC0F3846109E0C0F38461E3E749
:100B3000C0F38461EEE790FAA0F1B1FA81F101F11E
:100B4000010101F01F0146EA816102D1C0F3846016
:100B500003E090FAA0F0B0FA80F000F1010000F09C
:100B60001F0000EB400041EA005132E000290ED0A6
:100B700090FAA0F1B1FA81F101F1010101F01F0138
:100B800006FA01F606D100BFC0F3846106E0C0F3A7
:100B90008461F1E790FAA0F1B1FA81F101F101016C
:100BA00001F01F0146EA816102D1C0F3846003E0D5
:100BB00090FAA0F0B0FA80F000F1010000F01F0000
:100BC0002D4A00EB400002EB005041EA000141F0E9
:100BD0000071AA68206801F06DFD28482A68024269
:100BE0003FF466AE26488168264B01F0E0719A42D8
:100BF00002D0254B9A421CD10B021AD42268B2F1C2
:100C0000A04F7FF455AE826841F4000122F0E072FB
:100C10000A4382601D481E490068B0FBF1F0401C89
:100C200000EB4000800000E0401E00900028FBD157
:100C30003EE6184D184BAA4207D1CD0105D42268D3
:100C40009A42F5D041F0807109E0144DAA42EFD1EB
:100C50004A02EDD422689A42EAD041F480018268C7
:100C600022F0E0720A43826022E6000000007F402A
:100C700000F0FF03FFFF0700000020FE00000880D7
:100C800000030050000021C31000C0905C00002051
:100C9000400D0300000052C700010050000084CB4B
:100CA0000068006C70470000F8B54FF000050400C4
:100CB0002E46009502D0E06D10B107E00120F8BD8E
:100CC000204600F0EFF8266684F8586020688168B6
:100CD000C1F3407119B181686A4A1140816020688E
:100CE0008168C1F3007189B98168674A114041F098
:100CF00080518160654866490068B0FBF1F04000B2
:100D0000801C00E0401E00900028FBD12068816814
:100D1000C1F3007141B9E16D41F01001E165216E4F
:100D200041F001012166012501F0C0FCE16DC90619
:100D300000D430B1E06D40F01000E0650125284698
:100D4000F8BDE06D20F4807040F00200E06520689E
:100D5000806810F0010F11D14FF0A04080684D491C
:100D600000F00100896801F00101084306D14A48FA
:100D70006168826822F47C120A438260E168E06B59
:100D8000627F0843A16841EA4231084394F8241085
:100D900040EA0140012904D1218D404A02EB414142
:100DA0000843E16A29B101F47871226B014342EAF8
:100DB00001002168CA683A4B1A400243CA602068A1
:100DC0000169626B21F0406111430161206801F00B
:100DD0006DFC0646206801F065FC30432ED1207F73
:100DE00094F83810800340EA41022068C16844F258
:100DF000020399431143C1602069002820680169FA
:100E00000AD041F480310161206850F8C01F226986
:100E10006FF30D01114307E021F480310161206877
:100E200050F8C01F6FF30D01016094F840000128D5
:100E30000CD02068016921F001010161606901287D
:100E40002068016B21F00F0111D013E0D4E91101EA
:100E50000843D4E913121143084321680A6940F298
:100E6000FC739A43104340F001000861E6E7226AF0
:100E7000521E11430163E06D20F0020040F00100BA
:100E8000E0655CE7C0FFFF5FC0FFFF7F5C00002004
:100E9000400D030000010050000300500000FEFF61
:100EA0000740F0FF10B586B0044614216846FFF7EE
:100EB000E9F91149206888421BD11048C16C41F4FE
:100EC0000051C164C16C01F400510591C16C41F045
:100ED0000201C164C06C694600F0020005904FF445
:100EE000004000900320019000200290044800F090
:100EF00007F906B010BD00000001005000100240CC
:100F0000000400482DE9F04104463848806800F0AC
:100F10001F05206801F0CAFB18B102210846BDE890
:100F2000F08194F8580001280CD0012084F8580072
:100F30002046FFF757FC01004FF0000304D084F86F
:100F40005830EBE70220EAE7E06D40F6016290439B
:100F500040F48070E065264A20684FF0A046904239
:100F600001D1374600E00746874200D01DB9E76D42
:100F700027F48017E765E76DFF0404D5276E27F097
:100F80000607276600E023661C27076084F85830B0
:100F90002068904201D1334600E00346834215D0D9
:100FA000A5B1052D12D0092D10D0E36D43F48013A7
:100FB000E365904200D13046C0688001AED5E06D57
:100FC00020F4005040F48050E065A7E7C268920129
:100FD00005D5E26D22F4005242F48052E265826847
:100FE000044B1A40121D826098E700000003005075
:100FF00000010050C0FFFF7F10B590F825300021A0
:101000000122022B03D00421C163012122E00368E5
:101010001C6824F00E041C60836C1C6824F480742B
:101020001C6003681C6824F001041C6090F84430C4
:10103000046C03F01F0302FA03F36360D0E9133476
:101040005C60436D33B11C6824F480741C60D0E98B
:1010500016345C6080F82520002280F824200846A1
:1010600010BD70B590F82520002401212346022AE6
:1010700007D00422C26380F8251080F824300124B0
:1010800029E00268156825F00E05156002681568EC
:1010900025F001051560826C156825F480751560D2
:1010A00090F84420056C02F01F0201FA02F26A6017
:1010B000D0E913255560426D32B1156825F480756D
:1010C0001560D0E91625556080F8251080F8243089
:1010D000816B01B18847204670BD000070B50446A1
:1010E00000F0FCF80546601C02D004484068044447
:1010F00000F0F4F8401BA042FAD370BD500000206D
:101100002DE9FC4FDFF8A0A1002301250AF1040B13
:1011100003244FF00F0C0BF1040EBDE005FA03F6AB
:1011200032406FD04F68012F05D0022F03D0112F0E
:1011300001D0122F17D1D0F808905F0004FA07F8F9
:1011400029EA08090097D1F80C8008FA07F848EA5C
:101150000908C0F808804768B7430E79C6F300163F
:101160009E403E434660C6684FEA430804FA08F7CB
:10117000BE4301978F6807FA08F73743C7604E6888
:10118000022E01D0122E13D1DE0800EB8606009647
:10119000366A5F07FF0E0CFA07F926EA0906D1F84E
:1011A000109009FA07F949EA0609009EC6F820904E
:1011B0000668019FBE430F7907F0030707FA08F797
:1011C000374307604E68F60065D5384E376E47F0F6
:1011D00001073766366E23F0030706F00106009616
:1011E000334E3E44B146B6689F074FEA17780CFA73
:1011F00008F7BE43B0F1904F05D02E4FB84204D14E
:10120000012717E047E0002714E02B4FB84201D137
:1012100002270FE0294FB84201D103270AE0284FE7
:10122000B84201D1042705E0264FB84201D1052775
:1012300000E0062707FA08F73743C9F80870DAF81C
:1012400000605746D1F8048096435FEAC83800D55D
:1012500016433E60DBF800605F46D1F80480964399
:101260005FEA883800D516433E60DEF800607746B6
:10127000D1F8048096435FEAC82800D516433E6043
:10128000094F0C373E68D1F8048096435FEA8828FE
:1012900000D516433E605B1C0A6832FA03F67FF401
:1012A0003DAFBDE8FC8F000000040140001002408B
:1012B000000001400004004800080048000C0048FD
:1012C00000100048001400480069084000D00120C8
:1012D00070470AB181617047816270470148806838
:1012E00070470000500000200248816842681144A5
:1012F000816070475000002010B50024032000F0EA
:1013000073F8002000F008F808B1012401E000F0B3
:1013100025F8204610BD000070B50E4E054600248D
:10132000706898B14FF47A71B1FBF0F00A4909681E
:10133000B1FBF0F000F064FD40B9102D06D20022A0
:101340002946501E00F030F8356000E001242046A8
:1013500070BD0000500000205C0000200A4882B0F0
:10136000016E41F001010166016E01F00101009181
:10137000816D41F080518165806D00F0805000905A
:1013800002B000F0A1B8000000100240002809DB04
:1013900000F01F02012191404009800000F1E0208F
:1013A000C0F8001170470000F0B40E4B1B680C46EB
:1013B000C3F30223C3F10705042D00D90425191D29
:1013C000072901D2002300E0DB1E012606FA05F101
:1013D000491E214099409E40761E16403143F0BC84
:1013E00002F034B90CED00E0064900F0070208688D
:1013F0004FF6FF03184040EA0220034A10430860FA
:10140000704700000CED00E00000FA052B492C4B62
:101410000A6832214A432B4940B1B0F5007F086881
:1014200029D020F4C06040F480602CE00868C0F34C
:101430004120022804D051F8800F20F4807022E06F
:10144000D1F8800020F48070C1F88000086820F492
:10145000C06040F400700860B2FBF3F0401C00E094
:10146000401E4A69520501D50028F9D14869400556
:101470000AD503207047C0F34120022806D051F856
:10148000800F40F48070086000207047D1F8800021
:1014900040F48070C1F88000086820F4C06040F417
:1014A00000700860B2FBF3F0401C00E0401E4A6987
:1014B0005205DBD50028F9D1D8E700005C000020F8
:1014C00040420F00007000400248816841F48041B2
:1014D00081607047007000402DE9F84304460068C1
:1014E00000269D4D00035ED5A86D0027C00008D4DE
:1014F000A86D40F08050A865A86D012700F08050CD
:101500000090DFF85892D9F8001041F48071C9F8C2
:101510000010FFF7E3FE804606E000BFFFF7DEFEA7
:10152000A0EB080002282BD8D9F80000C005F5D59B
:10153000D5F8900010F4407014D0216C814211D085
:10154000D5F89000D5F8901020F4407041F4803127
:10155000C5F89010D5F8901021F48031C5F890109E
:10156000C5F89000C00711D0FFF7B8FE804641F2E1
:10157000883907E0FFF7B2FEA0EB0801494501D921
:1015800003260BE0D5F890008007F3D5D5F890003E
:10159000216C20F440700843C5F890001FB1A86D7D
:1015A00020F08050A8652078C00707D0D5F88800C3
:1015B000616820F003000843C5F8880020788007A0
:1015C00007D5D5F88800A16820F00C000843C5F8BD
:1015D00088002078400707D5D5F88800E16820F01A
:1015E00030000843C5F888002078000707D5D5F8F3
:1015F0008800216920F0C0000843C5F888002078E1
:10160000800607D5D5F88800616920F4406008435A
:10161000C5F888002078400607D5D5F88800A1696C
:1016200020F440500843C5F888002078000607D50C
:10163000D5F88800E16920F440400843C5F88800E7
:101640002088C00507D5D5F88800216A20F44030ED
:101650000843C5F888002088800507D5D5F888009C
:10166000616A20F440200843C5F8880020884005BE
:101670000FD5D5F88800A16A20F440100843C5F8BA
:101680008800A06AB0F5801F03D1E86840F480109C
:10169000E860208800050FD5D5F88800E16A20F4BD
:1016A00040000843C5F88800E06AB0F5800F03D118
:1016B000E86840F48010E8602088C0040FD5D5F8B1
:1016C0008800216B20F040700843C5F88800206B2B
:1016D000B0F1807F03D1E86840F48010E860208892
:1016E0004FF0006180040ED5D5F88800626B20F0C1
:1016F00040601043C5F88800606B884203D1E868F9
:1017000040F48010E860208840040ED5D5F88800A9
:10171000A26B20F040601043C5F88800A06B88429F
:1017200003D1E86840F48010E860208800040FD5F9
:10173000D5F88800E16B20F040500843C5F88800D8
:10174000E06BB0F1805F03D1E86840F48030E8607E
:101750003046BDE8F88300000010024000700040F1
:101760002DE9F0470E4605004FF0000725D0DFF8C1
:10177000AC81D8F8000000F00F00B0420CD2D8F8CD
:10178000001021F00F013143C8F80010D8F8000014
:1017900000F00F00B04210D12968614CC80741F237
:1017A000883A5AD06868DFF87C91032808D002286C
:1017B00020682DD0400500282CDB0120BDE8F087F3
:1017C00020688001F9D5E06800F00302E068C0F30A
:1017D0000310401C032A19D0534A00BFB2FBF0F09B
:1017E000E268C2F306225043E268C2F34162521C2F
:1017F0005200B0FBF2F0484517D9A06810F0F00F86
:101800000CD0880711D5A86840B10EE0474AE5E73B
:101810008003D0E700F0B6F8484506D9A06820F06C
:10182000F00040F08000A0608027A068696820F088
:1018300003000843A060FFF751FD814606E000BFAA
:10184000FFF74CFDA0EB090151453AD8A068696843
:1018500000F00C00B0EB810FF2D12868810714D59D
:10186000400703D5A06840F4E060A0602878000736
:1018700005D5A06820F4605040F4E060A060A06846
:10188000A96820F0F000084304E0802F03D1A0688D
:1018900020F0F000A060D8F80010404601F00F01E1
:1018A000B14216D9016821F00F0131430160FFF701
:1018B00015FD074607E000BFFFF710FDC11B5145AE
:1018C00001D903207AE7D8F8000000F00F00B042F9
:1018D000F2D12878400705D5A068E96820F4E060D7
:1018E0000843A0602878000706D5A068296920F47D
:1018F000605040EAC100A06000F044F8A1680C4AC2
:10190000C1F30311515C01F01F01C840094908608F
:1019100009480068BDE8F047FFF7FEBC0020024020
:101920000010024000B4C4040024F40000366E012C
:10193000245500085C00002050000020054806499E
:1019400000688968054AC1F30221515C01F01F015A
:10195000C84070475C000020001002403455000869
:101960000548064900688968054AC1F3C221515CEF
:1019700001F01F01C84070475C00002000100240C9
:1019800034550008184910B58868C0F3810217481B
:10199000012A0BD08A68164BC2F38102022A06D0B4
:1019A0008A68C2F38102032A03D0002010BD1846C2
:1019B00010BDCA6802F00304CA68C2F30312521CC5
:1019C000032C02D0B0FBF2F001E0B3FBF2F0CA68E6
:1019D000C968C2F306225043C1F34161491C490062
:1019E000B0FBF1F010BD0000001002400024F40034
:1019F00000366E012DE9F84304007AD02078FA4DC4
:101A0000C00747D0A868E96800F00C0001F00301A6
:101A10000C2802D0082817D001E0032914D06068F0
:101A2000B0F5803F17D0B0F5A02F286817D020F46C
:101A300080302860286820F4802028606068E0B149
:101A4000FFF74CFC064614E02868800322D5606846
:101A50000028D2D01EE0286840F48030EDE740F442
:101A600080202860F7E700BFFFF738FC801B642860
:101A700070D828688003F7D50CE0FFF72FFC0646E6
:101A800005E000BFFFF72AFC801B6428F0D8286817
:101A90008003F7D4207880074CD5A868E96800F067
:101AA0000C0001F003010C2802D004280DD001E045
:101AB00002290AD0E068002828682BD040F4807002
:101AC0002860FFF70BFC064619E02868400502D5A0
:101AD000E068002891D06868217C20F0FE4040EA50
:101AE00001606860C1480068FFF716FC002800D15B
:101AF00020E076E1FFF7F2FB801B0228B8D82868C7
:101B00004005F7D56868217C20F0FE4040EA01607E
:101B100068600FE020F480702860FFF7DFFB064666
:101B200005E000BFFFF7DAFB801B0228A0D8286879
:101B30004005F7D42078000729D560690028D5F83A
:101B4000940013D040F00100C5F89400FFF7C6FBE5
:101B5000064606E090E000BFFFF7C0FB801B0228AE
:101B600086D8D5F894008007F6D510E020F0010063
:101B7000C5F89400FFF7B2FB064604E0FFF7AEFBA2
:101B8000801B022878D8D5F894008007F6D42078F6
:101B9000400761D5A86D0026C00008D4A86D40F0AC
:101BA0008050A865A86D012600F0805000909048F4
:101BB0000168C90511D40168804641F48071016053
:101BC000FFF78CFB074604E0FFF788FBC01B0228E9
:101BD00052D8D8F80000C005F6D5A068012815D065
:101BE0000528D5F8900016D020F00100C5F8900027
:101BF000D5F8900020F00400C5F89000A06841F2EC
:101C00008838B8B1FFF76AFB07460EE0D5F89000B8
:101C100040F00100F0E740F00400C5F89000F5E75F
:101C2000FFF75CFBC11B414526D8D5F89000800723
:101C3000F6D50CE0FFF752FB074604E0FFF74EFB3A
:101C4000C11B414518D8D5F890008007F6D41EB1C5
:101C5000A86D20F08050A8652078800629D5A0695D
:101C60000028D5F8980013D040F00100C5F898007E
:101C7000FFF734FB064606E077E000BFFFF72EFBD8
:101C8000801B022877D8D5F898008007F6D510E099
:101C900020F00100C5F89800FFF720FB064604E09D
:101CA000FFF71CFB801B022865D8D5F89800800739
:101CB000F6D4E069F0B3A968C1F38101032961D0CA
:101CC0000228286820F0807028600BD0E86820F097
:101CD0000300E860E86847490840E860FFF7FEFA5B
:101CE00004464BE0FFF7FAFA064604E0FFF7F6FA7F
:101CF000801B02283FD828688001F7D4F4E9080146
:101D00006FF00F0202EB01110843218A52044908C7
:101D100002EB4151A26841EA02210843217D4FF0C4
:101D20007E42490802EB41610843217B40EAC160E1
:101D3000E96800E062E0304A11400843E860286842
:101D400040F080702860E86840F08070E860FFF73D
:101D5000C5FA044605E000BFFFF7C0FA001B0228E1
:101D600009D828688001F7D548E004E0FFF7B6FA03
:101D7000001B022802D90320BDE8F88328688001EF
:101D8000F4D43BE00128F7D0E868226A00F00301B0
:101D9000914226D1616A00F0F002090110399142A6
:101DA0001FD1A26A00F4FE41B1EB022F19D194F8C1
:101DB0002C2000F07841B1EBC26F12D1218E00F4DB
:101DC000C00249084905A1F50011914209D194F8D2
:101DD000341000F0C06049084906A1F10071814249
:101DE0000CD00120C8E70000001002405000002085
:101DF00000700040FFFFEEFE0C809F010020BBE75B
:101E000010B5401EB0F1807F01D3012010BD4FF00E
:101E1000E02460610F21601701F018FC0020A06130
:101E200007202061002010BD90F88010012918D0F3
:101E3000012180F880102421C0F8841050F8641B20
:101E40000A680B6823F001030B6022F000510022A6
:101E5000026050F8643C196020210162027710464C
:101E60007047022070477047704770B5044690F87D
:101E7000800001281DD0012084F880002420C4F8AF
:101E8000840020680568026822F001020260206870
:101E9000826822F060620A438260204600F0DCFE25
:101EA000206805602020C4F88400002084F88000A9
:101EB00070BD022070BD70B5044690F88000012806
:101EC0001DD0012084F880002420C4F884002068FC
:101ED0000568026822F0010202602068826822F030
:101EE00060420A438260204600F0B6FE206805602A
:101EF0002020C4F88400002084F8800070BD0220F7
:101F000070BD7047704770472DE9F0410368044683
:101F1000D86919689A6840F60F0528424FF0000505
:101F200009D186067ED501F0200602F080573E4397
:101F300078D0216FFFE0924E924F16400F4037430A
:101F400070D0C70709D0CF0507D501271F62D4F885
:101F50008C3043F00103C4F88C3083070AD5D307D3
:101F600008D0276802233B62D4F88C3043F0040386
:101F7000C4F88C3043070AD5D30708D02768042358
:101F80003B62D4F88C3043F00203C4F88C30030772
:101F90000CD501F02003334308D0266808233362B0
:101FA000D4F88C3043F00803C4F88C3003050BD50B
:101FB0004B0109D526684FF400633362D4F88C30A6
:101FC00043F02003C4F88C30D4F88C30002B34D08C
:101FD000800609D501F0200002F08051084303D0AB
:101FE000216F09B120468847D4F88C0021688968A0
:101FF000490602D410F0280F21D0204600F0ECFE54
:1020000020688168490615D5816821F0400181600A
:10201000E06F78B15C498163E06FFFF722F8002838
:102020000BD000E011E0E06F816B00E02046BDE8DE
:10203000F04108472046FFF766FFBDE8F0812046E3
:10204000FFF761FFC4F88C50F7E7E76E2026012FF9
:102050005CD1C7065AD5CF0658D510201862206823
:10206000816849062FD5E26F116849680904090C97
:10207000E3D0B4F85C308B42DFD9A4F85E1011686D
:102080000968890618D4016821F48071016020680C
:10209000816821F0010181602068816821F04001A0
:1020A0008160C4F88860E5662068016821F010014D
:1020B0000160E06FFEF7A0FFB4F85C00B4F85E10BA
:1020C000401A81B21EE0B4F85C10B4F85E20891AA0
:1020D000B4F85E2089B2002AAFD00029ADD00268E2
:1020E00022F49072026020688268254BDB431A401C
:1020F0008260C4F88860E56625672068026822F07F
:10210000100202602046FFF7AEFE96E7C70209D52F
:10211000570207D54FF4801018622046BDE8F04101
:10212000FFF7F0BE07060AD501F0800702F40002AF
:10213000174304D0616F00297FF478AF7DE7420632
:102140000CD54A060AD51968204621F040011960CD
:10215000C4F88460656700F0C1F86EE7020206D536
:102160004A0004D52046BDE8F041FFF7CABEC001D1
:10217000CBD50029C9DA2046BDE8F041FFF774BE8F
:102180000100001020010004C52D000810B5040056
:1021900003D0D4F8840010B107E0012010BD002066
:1021A00084F88000204600F027F82420C4F884003A
:1021B0002068016821F001010160204600F0E4FF81
:1021C0000128EBD0A06A10B1204600F067FD20681E
:1021D000416821F4904141602068816821F02A0122
:1021E00081602068016841F0010101602046BDE87E
:1021F000104000F0B7BD000010B586B004461421B1
:102200006846FEF73FF817492068884227D11648EC
:10221000016E41F480410166016E01F48041059137
:10222000C16C41F00101C164C06C694600F001005D
:1022300005904FF4C06000900220019000200290B1
:102240000390072004904FF09040FEF759FF0022C2
:1022500011462520FFF7A8F82520FFF797F806B0CC
:1022600010BD0000003801400010024010B4D0F84A
:102270008830202B1BD1B9B1B2B190F88030012B3E
:1022800015D0012380F880300023C366094C036811
:10229000A34206D05C68240203D51C6844F0806425
:1022A0001C6010BC01F0AAB8012010BC70470220CD
:1022B000FBE70000008000400549064B087ACA7918
:1022C0001A54401C08720122C91D0348FFF7CEBFF3
:1022D000000000207E000020000100207047FEE783
:1022E00000B585B014216846FDF7CCFF4FF6FF70AE
:1022F000009000200321CDE90201019069460248C7
:10230000FEF7FEFE05B000BD0008004800B585B030
:1023100014216846FDF7B6FF4FF6FF7000900120CC
:102320000190032003900020029069460248FEF7C6
:10233000E7FE05B000BD00000008004870B50024AD
:1023400006462146204600F003F900F041F94FF41B
:102350009635304600F010F9641CAC42F9D370BDDC
:1023600030B587B014216846FDF78CFF1E48C16C5C
:1023700041F00401C164C16C01F004010591C16C1C
:1023800041F00101C164C16C01F001010591C16C12
:1023900041F00201C164C06C012500F0020005900B
:1023A0004FF44870CDE90005002403946946029477
:1023B0000E48FEF7A5FE280203940090CDE90154D3
:1023C0004FF0904469462046FEF79AFEFFF79EFFC5
:1023D000A06940F48070A06104481830016841F49D
:1023E0000871016007B030BD0010024000040048D1
:1023F000203AD2B2034B02EB420203EB021200F08E
:1024000019B800002C430008F0B50E460746002519
:1024100040F23F1407E021463846FFF7E9FF103C41
:102420006D1CA4B2761C3278002A01D0142DF2D390
:10243000F0BD00002DE9F04791468A46002604468B
:1024400000F086F8DFF84080012700BF00F0C0F8F8
:102450005FF0000539F8160007FA05F1084240461A
:1024600001D1408800E0008800F086F86D1C102D36
:10247000F0D3641CE4B25146204600F069F8761CA3
:10248000182EE3D3BDE8F0874800002010B5FFF711
:1024900067FF002000F014F8084CA080A088A0F589
:1024A0000241303906D000F085FA002000F008F82B
:1024B000A08010BD00F0F5F9F7E70000480000200B
:1024C00070B51D490A6842F400720A600A6842F455
:1024D00080720A60184C103C226842F02002226090
:1024E000164A1060086840F02000086000BF00BF76
:1024F00000BF206840F020002060206840F4807019
:102500002060FFF7EDFE4FF09041886A40F4807044
:10251000886200BF00BF00BF0848001F006885B286
:10252000886940F480708861FFF7F0FE206840F40D
:1025300000702060284670BD280400481408004838
:1025400001B5BDF800000149488008BD48000020E1
:1025500010B50C460146202000F068F82146BDE881
:102560001040212000F062B801B5BDF8000001491B
:10257000088008BD48000020134A116841F400712A
:102580001160114910390B6843F480730B600B68BC
:1025900043F020030B600D4B1860106840F02000E2
:1025A000106000BF00BF00BF086840F02000086056
:1025B000086840F48070086000BF00BF00BF086872
:1025C00040F4007008607047280400481408004870
:1025D0001449086840F400700860086840F480708E
:1025E000086010481038026842F0200202600E4B6A
:1025F00022221A600A6842F020020A6000BF00BF6F
:1026000000BF016841F020010160016841F4807160
:10261000016000BF00BF00BF016841F400710160AC
:10262000704700002804004814080048184B10B5F3
:102630001A6842F400721A601A6842F480721A60D2
:10264000134A103A146844F020041460114C2060BE
:10265000186840F02000186000BF00BF00BF10687D
:1026600040F020001060106840F48070106021601D
:10267000186840F02000186000BF00BF00BF10685D
:1026800040F020001060106840F48070106010BDB1
:10269000280400481408004800EB8100006E00F098
:1026A000F84070478068C0F3C00070478068C0F38E
:1026B00080007047042303EAD15310B518444369DE
:1026C000C1F3045107248C40A3438A401343436160
:1026D00010BD00EB8100016E21F000411143016645
:1026E0007047000030B589B020216846FDF7CAFD6B
:1026F00019481849002401604902C0E90114C46066
:1027000004250461C0E9054504774477012101628D
:1027100080F82440C462046380F83840C46380F8C1
:102720004040FEF7C1FA08B1FEF7A6F80B4800904A
:102730000620CDE901047F200594CDE90305694613
:102740000548FEF79BF8002801D0FEF795F809B080
:1027500030BD000000010050940000200080F03ED9
:10276000F0B587B014216846FDF78CFD2D48C16C8B
:1027700041F00401C164C16C01F004010591C16C18
:1027800041F02001C164C16C01F020010591C16CD0
:1027900041F00101C164C16C01F001010591C16CFE
:1027A00041F00201C164C16C01F002010591C16CEC
:1027B00041F00801C164C06C1B4E00F008004FF4EA
:1027C0007F440590002221463046FEF782FD174FD8
:1027D000002204213846FEF77CFD0125CDE90045A5
:1027E00000240294694630460394FEF789FCCDE943
:1027F000005469464FF090400294FEF781FC072098
:10280000CDE9000469460A480294FEF779FC0420E9
:102810000090CDE90154694638460394FEF770FCF8
:1028200007B0F0BD0010024000080048000C00484E
:1028300000040048184810B5164901604FF41651BD
:102840004160002181600C22C160C0E904128161F5
:10285000C161016241628162FFF798FC08B1FEF735
:102860000BF800210C48FFF726FB08B1FEF704F82F
:1028700000210948FFF7F9FA08B1FDF7FDFF064806
:10288000FFF7D2FA002803D0BDE81040FDF7F4BFEF
:1028900010BD00000038014000010020FEE7FEE707
:1028A000704730B501210020FFF7C0FE4FF47A7069
:1028B000FDF7D4FF00210120FFF7B8FE41F290712F
:1028C0001020FFF7B3FE4FF41C516020FFF7AEFE5F
:1028D00001216120FFF7AAFE02214620FFF7A6FE94
:1028E00048F210011320FFF7A1FE48F2FE0112206A
:1028F000FFF79CFE4FF4A0610220FFF797FE41F224
:1029000030010320FFF792FE40F2033421463020CD
:10291000FFF78CFE21463120FFF788FE214632204A
:10292000FFF784FEE51E29463320FFF77FFE0321D3
:102930003420FFF77BFE21463520FFF777FE142178
:102940003620FFF773FE21463720FFF76FFE214642
:102950003820FFF76BFE21463920FFF767FE294636
:102960003A20FFF763FE03213B20FFF75FFE21467D
:102970003C20FFF75BFE4FF4A0513D20FFF756FED1
:102980004FF400719220FFF751FE21469320FFF78C
:102990004DFE40F60D019020FFF748FE41F2180170
:1029A0000320FFF743FEBDE8304040F273110720DB
:1029B000FFF73CBE10B543F20801E320FFF736FEF7
:1029C0001221E720FFF732FE41F23121EF20FFF71D
:1029D0002DFE00210120FFF729FE4FF4E0610220C7
:1029E000FFF724FE41F230010320FFF71FFE002114
:1029F0000420FFF71BFE40F207210820FFF716FE18
:102A000000210920FFF712FE00210A20FFF70EFE29
:102A100000210C20FFF70AFE00210D20FFF706FE23
:102A200000210F20FFF702FE00211020FFF7FEFD1E
:102A300007211120FFF7FAFD00211220FFF7F6FD14
:102A400000211320FFF7F2FDC820FEF747FB41F2FB
:102A500090611020FFF7EAFD40F227211120FFF7D7
:102A6000E5FD3220FEF73AFB1D211220FFF7DEFDC7
:102A70003220FEF733FB4FF400611320FFF7D6FD41
:102A800014212920FFF7D2FD0B212B20FFF7CEFDCB
:102A90003220FEF723FB00212020FFF7C7FD002195
:102AA0002120FFF7C3FD07213020FFF7BFFD40F2D3
:102AB00007713120FFF7BAFD06213220FFF7B6FD7E
:102AC00040F204713520FFF7B1FD41F60471362064
:102AD000FFF7ACFD04213720FFF7A8FD00213820C7
:102AE000FFF7A4FD40F206713920FFF79FFD40F289
:102AF00001713C20FFF79AFD0F213D20FFF796FD65
:102B000000215020FFF792FDEF215120FFF78EFDAD
:102B100000215220FFF78AFD40F23F115320FFF7BA
:102B200085FD4FF41C516020FFF780FD01216120DD
:102B3000FFF77CFD00216A20FFF778FD002180204F
:102B4000FFF774FD00218120FFF770FD0021822036
:102B5000FFF76CFD00218320FFF768FD0021842032
:102B6000FFF764FD00218520FFF760FD1021902014
:102B7000FFF75CFD00219220FFF758FD0321932011
:102B8000FFF754FD4FF488719520FFF74FFD0021AA
:102B90009720FFF74BFD00219820FFF747FD41F2FA
:102BA00018010320FFF742FDBDE8104040F2731109
:102BB0000720FFF73BBD7047FEF796BB10B5A4B0EA
:102BC00038216846FDF75EFB14211FA8FDF75AFB6C
:102BD00044210EA8FDF756FB4FF40070FEF716FCDB
:102BE0000220C1010391402104910121CDE9080196
:102BF00000900A21CDE90A1007900C900D906846CC
:102C0000FEF7F8FE08B172B6FEE70F2000241F9011
:102C10000320CDE92004229402211FA82394FEF76B
:102C20009FFD08B172B6FEE748F20100CDE90E043F
:102C300040071D900EA8FEF74FFC002801D072B689
:102C4000FEE724B010BD00000248016841F47001A5
:102C50000160704788ED00E030B5416EB9B102689F
:102C600091689268C1F342610B4B520F9C5CE50086
:102C700003F10804A25CB5FBF2F2A0F86A205A5CEA
:102C8000615CD200B2FBF1F1A0F8681030BD012107
:102C9000A0F86A10F8E700001455000890F8281012
:102CA000C90706D001684A68C36A22F400321A4391
:102CB0004A6090F82810890706D501684A68036BB6
:102CC00022F480321A434A6090F82810490706D54A
:102CD00001684A68436B22F480221A434A6090F8E4
:102CE0002810090706D501684A68836B22F4004260
:102CF0001A434A6090F82810C90606D501688A6808
:102D0000C36B22F480521A438A6090F82810890617
:102D100006D501688A68036C22F400521A438A605F
:102D200090F82810490611D501684A68436C22F4CE
:102D300080121A434A60416CB1F5801F06D10168C8
:102D40004A68836C22F4C0021A434A6090F8281043
:102D5000090606D501684A68C06C22F400220243C5
:102D60004A607047F8B500260446C0F88C60FEF74C
:102D7000B5FA0546206800686FF07E47000708D561
:102D80002B4600224FF400112046009700F0A2FBD2
:102D900060B92068006840070AD52B4600224FF42E
:102DA00080012046009700F095FB08B10320F8BD94
:102DB0002020C4F88400C4F8880044F86C6F002018
:102DC0002675F8BD10B5806A0021A0F85E10A0F845
:102DD0005610FFF798F810BD01680A6822F4907247
:102DE0000A6001688A68094B1A408A60C16E01292D
:102DF00004D101680A6822F010020A602021C0F89C
:102E000088100021C166016770470000FEFFFFEFD8
:102E100070B5B0F86010D0F8882004460068222A07
:102E200004D0816941F00801816170BD406AA26DE2
:102E300008401080A06D801CA065B4F85E00401EA4
:102E4000A4F85E00B4F85E000028EED120680168A6
:102E500021F4907101602068816821F00101816096
:102E60002020C4F8880000252567E06E012804D0E2
:102E70002046FFF721FAE56670BD2068016821F061
:102E800010010160B4F85C102046FEF7ECFFF2E799
:102E90002DE9F0470446B0F860600068C569D0F8D5
:102EA00000A0D0F80880D4F88810222905D08169C4
:102EB00041F008018161BDE8F087B4F868704FF017
:102EC00000095BE02068406AA16D30400880A06D79
:102ED000801CA065B4F85E00401EA4F85E00206867
:102EE000C569690730D0E9070AD05FEACA5107D53A
:102EF00001210162D4F88C0040F00100C4F88C007C
:102F0000A8070BD55FEAC87008D0216802200862C4
:102F1000D4F88C0040F00400C4F88C0068070BD58E
:102F20005FEAC87008D0216804200862D4F88C00D9
:102F300040F00200C4F88C00D4F88C0020B1204688
:102F4000FEF7E1FFC4F88C90B4F85E00B0B92068D9
:102F5000016821F48071016020688168194A11407C
:102F600081602020C4F88800C4F87090E06E0128C9
:102F70001CD02046FFF7A0F9C4F86C900FB1A8064A
:102F8000A0D4B4F85E00002895D0B4F8681081424F
:102F900091D92068816821F0805181600A482067BA
:102FA0002068016841F02001016084E72068016821
:102FB00021F010010160B4F85C102046FEF753FFC9
:102FC000DAE70000FEFFFFEF112E000870B5B0F841
:102FD0006010D0F8882004460068222A04D0816955
:102FE00041F00801816170BD406A0840A16D087020
:102FF000A06D401CA065B4F85E00401EA4F85E0001
:10300000B4F85E000028EED12068016821F49071C8
:1030100001602068816821F0010181602020C4F8EE
:10302000880000252567E06E012804D02046FFF7C0
:1030300043F9E56670BD2068016821F01001016068
:10304000B4F85C102046FEF70EFFF2E72DE9F047DA
:103050000446B0F860600068C569D0F800A0D0F8F8
:103060000880D4F88810222905D0816941F0080130
:103070008161BDE8F087B4F868704FF000095BE04B
:103080002068406AA16D30400870A06D401CA065AA
:10309000B4F85E00401EA4F85E002068C5696907A8
:1030A00030D0E9070AD05FEACA5107D50121016291
:1030B000D4F88C0040F00100C4F88C00A8070BD5B0
:1030C0005FEAC87008D0216802200862D4F88C003A
:1030D00040F00400C4F88C0068070BD55FEAC870A4
:1030E00008D0216804200862D4F88C0040F0020067
:1030F000C4F88C00D4F88C0020B12046FEF703FF02
:10310000C4F88C90B4F85E00B0B92068016821F46E
:103110008071016020688168194A11408160202017
:10312000C4F88800C4F87090E06E01281CD02046D6
:10313000FFF7C2F8C4F86C900FB1A806A0D4B4F899
:103140005E00002895D0B4F86810814291D92068BB
:10315000816821F0805181600A48206720680168F9
:1031600041F02001016084E72068016821F010012E
:103170000160B4F85C102046FEF775FEDAE7000047
:10318000FEFFFFEFCD2F00082DE9F0410446016856
:1031900080682269E3691043626900251A4310437D
:1031A000DFF82CC20A688B4B1A4002430A60206881
:1031B0004168E26821F44051114341602168A069EF
:1031C000614501D0226A10438A68834B1A4002434A
:1031D0008A602068C16A626A21F00F011143C162EE
:1031E0007E4923687E488B420DD1D0F8880010F0CC
:1031F000030006D0012855D0022842D003283FD131
:1032000052E001203DE077498B420BD1D0F8880095
:1032100010F00C0035D0042833D0082840D00C28FA
:103220002ED141E070498B420BD1D0F8880010F0CC
:10323000300026D0102835D0202831D030281FD19A
:1032400032E06A498B420BD1D0F8880010F0C00000
:1032500017D0402826D0802822D0C02810D123E0C3
:1032600063450DD1D0F8880010F4406009D0B0F566
:10327000806F17D0B0F5006F12D0B0F5406F13D04B
:1032800010205B4A5B4F00264FF40041634539D163
:1032900060B102280DD004280DD0082831D10EE0ED
:1032A0000220EEE70420ECE70820EAE7FEF746FB01
:1032B00003E0114603E0FEF765FB01007DD0606A84
:1032C00037F810206768B1FBF2F007EB4703834241
:1032D0006CD8B0EB073F69D8002308461946FCF7C5
:1032E00099FF090241EA1061020278081018714141
:1032F0003A460023FCF78EFF3F4AA0F54071914209
:1033000059D953E0E3694FF6EF788B422DD1092864
:103310004CD2DFE800F005080D4B274B4B4B0E005D
:10332000FEF70CFB01E0FEF71BFB010001D144E0BE
:103330001146606A37F81000B1FBF0F04100606898
:1033400001EB5001B1FBF0F080B2A0F1100141455A
:103350002CD84FF6F0710140C0F3420001432068C1
:10336000C1602AE0FEF70EFBDFE709281ED2DFE886
:1033700000F005080D1D1F1D1D1D0E00FEF7DEFAD5
:1033800001E0FEF7EDFA010001D116E01146606A96
:1033900037F81000B1FBF0F1606801EB5001B1FBB0
:1033A000F0F080B2A0F11001414504D9012504E0FC
:1033B000FEF7E8FAE7E72168C8600120A4F86A0090
:1033C00024F8680F2846A660E660BDE8F08100009A
:1033D00000800040F369FFCFFFF4FF110038014087
:1033E000001002400044004000480040004C0040F3
:1033F0000024F400FC540008FFFC0F0070B5816548
:10340000A0F85C20A0F85E200021016783684FF4DB
:103410008056FF24B34204D10369D3B940F2FF13AD
:103420001DE07F259BB1B3F1805F15D0A0F860103F
:10343000C0F88C102223C0F8883003689C6844F0E0
:1034400001049C60436EB3F1005F0ED027E0036976
:1034500043B9A0F86040EBE703691BB13F23A0F834
:103460006030E5E7A0F86050E2E7B0F868309342DA
:1034700015D88268B24201D1026972B1114A02675D
:1034800080F8801001680A6842F480720A6000685F
:10349000816841F0805181600FE00B4AEFE782685C
:1034A000B24201D1026952B1084A026780F8801025
:1034B0000068016841F490710160002070BD044A09
:1034C000F3E700004D300008912E0008CD2F0008D2
:1034D000112E00082DE9F0479A4617460E4604467D
:1034E0004FF000094FF02008089D39E0681C37D0E4
:1034F000FDF7F4FEA0EB0A00A84222D80DB3206825
:10350000016849072CD5C069C043000528D421684B
:103510004FF4006008622068016821F4D0710160F6
:103520002068816821F001018160C4F88480C4F8BA
:103530008880C4F88C8000BF84F880900320BDE8A8
:10354000F0872068016821F4D071016020688168EB
:1035500021F001018160C4F88480C4F88880EBE721
:103560002068C06936EA000004D00020B842BDD00F
:103570000020E4E70120F9E70148FEF7C5BC0000A0
:103580000001002070B521482DED048B0168204C0E
:103590006269891A322909D30068606100F002FD6E
:1035A0000026012805D0012060712672BDEC048B35
:1035B00070BD184D6671A8783038FCF787FF9FED15
:1035C000169B53EC192BFCF70FFF41EC180B2878D6
:1035D0003038FCF77BFF53EC182BFCF75EFEC4E998
:1035E0000801A8793038FCF771FF53EC192BFCF770
:1035F000FBFE41EC180B28793038FCF767FF53ECE1
:10360000182BFCF74AFEC4E90A01CEE75800002057
:10361000000000207E0000209A9999999999B93F5D
:10362000FEE700000FB4084B10B504A902AA0398E6
:1036300000F0EEF8044602A9002000F06CFC2046E1
:1036400010BC5DF814FB0000173F00080907090EC5
:10365000002804DB00F1E02080F80014704700F03F
:103660000F0000F1E02080F8141D704702E008C848
:10367000121F08C1002AFAD170477047002001E0EC
:1036800001C1121F002AFBD1704700002DE9FF5F26
:1036900082B00021DDE90430020DDDF840B00343C3
:1036A00018D044F61050A2F2FF324243151411987C
:1036B00001281FD0A5EB0B00401C5FEA000A4FF069
:1036C00000064E4FDFF83891B046504615D5CAF186
:1036D000000413E0119801244AA3012801D16FEAE4
:1036E0000B010298119AC0E90031C0E9024206B00C
:1036F000BDE8F09FCBF10000DFE704460021404A1F
:10370000491842EB0450CDE9001012E0E00707D061
:1037100032463B4640464946FCF766FE80468946AF
:1037200032463B4610461946FCF75EFE06460F46FB
:103730006410002CEAD1DDE90401DDE90023BAF1CF
:10374000000F06DAFCF750FE42464B46FCF74CFEF3
:1037500005E0FCF7ADFF42464B46FCF7A9FF0446E7
:103760000E460022284BFCF7E7FE03D84FF0FF304F
:10377000014607E00022254B20463146FCF78DFD2F
:10378000FDF705F8102409E0002C0ADB0A220023CB
:10379000FCF740FD039B30321A55641E50EA0102CB
:1037A000F2D1641C039AC4F111031444119A012A42
:1037B00003D0012208430DD10AE0084304D00020C1
:1037C0004FF0110B119072E7A3EB0B056D1E0DE08E
:1037D0005B4504DD4FF0000205F1010504E003DA6A
:1037E0004FF00002A5F10105002AECD002981199D2
:1037F000C0E90231C0E9004579E70000000014404B
:103800000000F03F300000000000F0430000E03F07
:103810002DE9FF4F95B09A46884606460025EEE111
:10382000252877D100242746F94A0121039400E096
:10383000044316F8013F203B01FA03F01042F7D190
:1038400030782A2811D06FF02F033078A0F13002A1
:10385000092A16D8039A44F0020402EB820203EB11
:1038600042021044761C0390EFE758F8042B0392B1
:10387000002A03DA504244F40054039044F0020456
:10388000761C30782E2816D116F8010F44F0040467
:103890002A280DD06FF02F023078A0F13003092BC9
:1038A00009D807EB870302EB4303C718761CF3E73D
:1038B00058F8047B761C30786C280FD006DC4C2836
:1038C00017D068280DD06A2814D104E0742810D0CD
:1038D0007A280FD10DE044F400140AE044F4801477
:1038E00001E044F440147278824202D104F580145D
:1038F000761C761C307866280BD013DC582877D0DD
:1039000009DC002875D04528F6D04628F4D0472891
:103910001AD193E118E0632835D0642879D065285E
:1039200012D18BE1702873D008DC6728F1D06928A8
:103930006FD06E280DD06F2806D1ACE073282CD044
:10394000752874D0782853D05246179990476D1C2B
:1039500054E1C4F30250022809D003280DD0D8F84E
:10396000001004280DD00D6008F1040846E1D8F8D5
:103970000010EA17C1E90052F6E7D8F800100D80F0
:10398000F2E70D70F0E718F8041B8DF80010002026
:103990008DF80100EB46012003E058F804BB4FF01E
:1039A000FF3061074FF0000102D40DE009F1010181
:1039B0008946B9420FDA8145F8DB1BF80910002966
:1039C000F4D108E009F1010189468142FADB1BF8D4
:1039D00009100029F6D103985346A0EB09072146A8
:1039E0003846179A00F080FA284400EB090507E0F2
:1039F00044E008E10DE01BF8010B5246179990478F
:103A0000B9F10109F7D2534621463846179AF2E038
:103A100039E00A21C4F302524FF0000B0091022A50
:103A200006D058F8040BC117032A09D00AE023E096
:103A300008F1070020F00702F2E80201904605E0D5
:103A400000B2C117042A01D140B2C117002906DA19
:103A50000A460021404261EB02012D2202E02205CC
:103A600004D52B228DF80420012203E0E20701D0C7
:103A70002022F7E7914657E00A2100E010214FF09D
:103A8000000B00910BE010214FF0000B44F00404F8
:103A90000827009103E008204FF0000B0090C4F3CA
:103AA0000252022A05D058F8040B0021032A08D03C
:103AB00008E008F1070020F00702F2E80201904652
:103AC00003E080B2042A00D1C0B24FF000092207FF
:103AD0002AD53278702A07D0DDF800C08CF0100C9F
:103AE0005CEA0B0C05D00EE040228DF80420012288
:103AF00008E050EA010306D030238DF804308DF839
:103B0000052002229146009B83F0080353EA0B0331
:103B10000AD150EA010201D1620705D530228DF8A1
:103B200004204FF001097F1E3278582A04D039A2B0
:103B30000C920CAA02920BE03BA2F9E75B46009ABA
:103B4000FCF768FB0C9B9B5C029A521E029213705E
:103B500050EA0102F2D1029804A9081A00F1200BE0
:103B6000600702D524F4803400E001275F4502DDC0
:103B7000A7EB0B0000E0002000EB0B010090039886
:103B80004944401A0390E00306D453462146179A4D
:103B9000039800F0A9F90544002706E001A8524661
:103BA000C05D179990476D1C7F1C4F45F6DBE00305
:103BB0000CD553462146179A039800F095F9054411
:103BC00004E030205246179990476D1C0099481E1A
:103BD00000900029F5DC08E002980299524600782E
:103BE000491C0291179990476D1CBBF10001ABF184
:103BF000010BF1DC5BE100F065F90544761C3078DF
:103C000000287FF40DAE19B02846BDE8F08F000003
:103C100009280100303132333435363738396162A2
:103C20006364656600000000303132333435363766
:103C3000383941424344454600000000600700D443
:103C4000062708F1070020F00700F0E8022380466D
:103C500003F0004C5FEA0C0001D097A009E02005BA
:103C600001D596A005E0E00701D095A001E0AFF2F4
:103C70004C001390307823F0004365280CD006DC0C
:103C8000452809D046281DD047287FD13BE066282B
:103C900018D067287AD136E00021112F01DB1120DE
:103CA00000E0781CCDE9000104A90CA8FFF7EEFCA8
:103CB000DDE90D010C9A4FF0000B07F1010910929C
:103CC00000914EE04FF000400097CDE9011004A9AB
:103CD0000CA8FFF7DBFCDDE90D020C9B0F994FF000
:103CE000000B91461093009211B9791C00EB010969
:103CF000B7EB090003D4C0F1FF3B07F10109A9EBC1
:103D00000700019042E0012F00DA01270021112F66
:103D100001DD112000E03846CDE9000104A90CA81E
:103D2000FFF7B4FCDDE90D010C9A00914FF0000B98
:103D3000B946109221070FD4009A4A4503DA9146FA
:103D400001E0A9F10109B9F1010F05DD109AA9F10E
:103D50000101515C3029F4D0B84202DA10F1040FAD
:103D600003DA0121CDE9011010E0002803DC8344CF
:103D7000A9EB000102E0411C494500DD8946A0EBAA
:103D80000B00401C01904FF000400290200705D42A
:103D90000198484502DB4FF0FF30019000208DF87C
:103DA0004B0002980DF14B07B0F1004F25D00220D7
:103DB0000C902B200D90029800280CDA40420290C3
:103DC0002D200D9007E00A210298FCF7CDFB303141
:103DD000029007F8011D0C99481E0C900029F2DC96
:103DE00002980028EFD1791E0D980870307800F005
:103DF000200040F0450007F8020D11A8C01BC01DAF
:103E000002901398007800B1012000EB090101989D
:103E100001EBE071029801440398401A401E0390A0
:103E2000E00306D453462146179A039800F05CF845
:103E300005441398007818B15246179990476D1CA5
:103E4000E00323D553462146179A039800F04CF817
:103E500005441BE0BBF1000F07DB0098584504DD6B
:103E60001098179910F80B0001E01799302052466E
:103E7000904701980BF1010B401E05F101050190DF
:103E800004D12E205246179990476D1CB9F10001BC
:103E9000A9F10109DEDC05E017F8010B524617997C
:103EA00090476D1C0299481E02900029F4DC53468D
:103EB0002146179A03989EE62D0000002B00000073
:103EC000200000002DE9F041044600251E4617465B
:103ED000880404D405E039462020B0476D1C641ED8
:103EE000F9D52846BDE8F0812DE9F04104460025CA
:103EF0001E469046C80301D5302700E020278804DD
:103F000004D505E041463846B0476D1C641EF9D51E
:103F10002846BDE8F0810A68531C0B60107070479A
:103F200070B5194D194C1A48FCF7ECFF1848FCF70E
:103F3000B7FE80B2FCF7DBFA9FED161B53EC112B9A
:103F4000FCF752FA9FED151B53EC112BFCF74CFAC2
:103F500041EC100B84ED0C0B94ED0A1B53EC112B70
:103F6000FCF7D2FA01D22868A06194ED080B53EC5B
:103F7000102B94ED0C0B51EC100BFCF7DDFA01D279
:103F80002868A06170BD00005800002000000020DB
:103F9000940000206666666666660A4000000000BF
:103FA0000000303F0848007A072809D107484178C7
:103FB0002E2905D1C1782C2902D140792E2801D093
:103FC0000020704701207047000000207E00002084
:103FD00070B53B4D2DED028B28683A4CE168401AD4
:103FE000322869D32868E06000F07EF8607021799B
:103FF00030EA010280EA0101A27021EA0001E170C9
:10400000207101D028682061012924D000250126D3
:104010009FED2D1B9FED2E8B022926D003294BD11E
:10402000A079002848D094ED0A0B53EC112B84EDB5
:10403000100B51EC100BFCF730F941EC100B9FED1D
:10404000261B84ED0A0B53EC112BFCF775FA26D2D4
:1040500084ED0A8B23E0A079C043A0710020BDEC61
:10406000028BBDE87040FEF769B9A079002823D023
:1040700094ED080B53EC112B84ED0E0B51EC100B4F
:10408000FCF70BF941EC100B9FED151B84ED080BB1
:1040900053EC112BFCF750FA01D284ED088B2670FB
:1040A00094ED080B53EC102B94ED0A0B51EC100B14
:1040B000FCF742FA00D82570BDEC028B70BD000001
:1040C00058000020000000209A9999999999B93FC9
:1040D00000000000000000007EC2886666660A409C
:1040E00055FFBD6766660A4070B51C4C012120462D
:1040F000FDF7EAF84FF0904570B102212046FDF738
:10410000E3F848B104212046FDF7DEF820B1012193
:104110002846FDF7D9F8B0B90A20FCF7DFFF0121E6
:104120002046FDF7D1F880B102212046FDF7CCF8FA
:1041300068B104212046FDF7C7F850B10121284697
:10414000FDF7C2F838B1002070BD012070BD02201B
:1041500070BD032070BD042070BD00000004004845
:1041600010B5234CA07908B322A12548FFF75AFACD
:1041700023490020FEF748F994ED080B21A153ECE8
:10418000102B1F48FFF74EFA1D493020FEF73CF96F
:1041900094ED0A0B1FA153EC102B1948FFF742FABC
:1041A000BDE8104016494820FEF72EB91DA114485D
:1041B000FFF738FA12490020FEF726F994ED0C0BB0
:1041C0001BA153EC102B0E48FFF72CFA0C493020A2
:1041D000FEF71AF919480068A169401A4FF47A717C
:1041E000B0FBF1F216A10648FFF71CFAD8E7000071
:1041F000000000202020202020205061726100005B
:104200006000002020566D61783A252E316C66568C
:104210000000000020566D696E3A252E316C6656FE
:104220000000000020202020202044617461000054
:1042300020563A252E326C665600000058000020A9
:1042400020543A25647300000B4801460278497AED
:104250004AB121F00201417241790029417A05D029
:1042600041F0040104E041F00201F4E721F004010F
:104270004172C8B200F002B80000002070B5124DC3
:10428000044601224FF47F412846FDF722F80F4EE5
:10429000012204213046FDF71CF80022042130469B
:1042A000FDF717F8210200222846FDF712F8012237
:1042B00004213046FDF70DF83046BDE8704000227D
:1042C0000421FDF706B8000000080048000C004873
:1042D000FDF712F8FEF772FCFEF742FAFEF702FA5B
:1042E000FEF7A8FAFEF7D2F80020FEF729F94FF6FC
:1042F000FF70FEF739F90020FEF720F80020FFF7E5
:10430000BDFF012207490848FDF7B0FFFFF708FE8F
:10431000FFF75EFEFFF724FFFFF796FFFFF732F986
:10432000F4E700000700002000010020000000006A
:10433000000000000000000000000000000000007D
:10434000000000000000000000000000000000006D
:1043500000000000000000000000000000008001DC
:104360008001800180018001800180018001800145
:104370008001800180018001000000008001800137
:10438000000000000000000000000000000000002D
:10439000CC00CC00CC00CC00CC00CC000000000055
:1043A000000000000000000000000000000000000D
:1043B00000000000000000000000000000000000FD
:1043C0000000000000000000600C600C600C300673
:1043D0003006FE1FFE1F300638071803FE1FFE1FA3
:1043E000180318038C018C018C0100000000800070
:1043F000E003F80F9C0E8C1C8C188C009800F801C0
:10440000E007800E801C8C188C189C18B80CF00FDC
:10441000E0038000800000000000000000000000B9
:1044200000000E181B0C110C1106110611031103CC
:104430009B018E01C038C06C6044604430443044FD
:104440001844186C0C380000000000000000E00167
:10445000F0033807180618063003F001F000F800E2
:104460009C310E33061E061C061C063FFC73F02111
:10447000000000000000000000000000000000003C
:104480000C000C000C000C000C000C0000000000E4
:10449000000000000000000000000000000000001C
:1044A000000000000000000000000000000000020A
:1044B00000038001C000C0006000600030003000D8
:1044C000300030003000300030003000600060000C
:1044D000C000C000800100030002000000002000B6
:1044E0006000C00080018001000300030006000698
:1044F0000006000600060006000600060003000392
:1045000080018001C0006000200000000000000069
:104510000000000000000000C000C000D806F8073E
:10452000E001300338070000000000000000000038
:10453000000000000000000000000000000000007B
:104540000000000000000000800180018001800167
:104550008001FC3FFC3F80018001800180018001DF
:10456000000000000000000000000000000000004B
:10457000000000000000000000000000000000003B
:1045800000000000000000000000000000008001AA
:104590008001000100018000000000000000000018
:1045A000000000000000000000000000000000000B
:1045B00000000000E007E00700000000000000002D
:1045C00000000000000000000000000000000000EB
:1045D00000000000000000000000000000000000DB
:1045E0000000000000000000000000000000C0000B
:1045F000C000000000000000000000000000000CEF
:10460000000C000600060006000300030003800300
:10461000800180018001C000C000C0006000600017
:104620000000000000000000000000000000E003A7
:10463000F007380E180C0C180C180C180C180C1865
:104640000C180C180C180C18180C380EF007E00396
:104650000000000000000000000000000000000159
:104660008001C001F0019801880180018001800172
:104670008001800180018001800180018001800132
:104680000000000000000000000000000000E00347
:10469000F80F180C0C180C1800180018000C000665
:1046A00000038001C000600030001800FC1FFC1FE8
:1046B0000000000000000000000000000000E00119
:1046C000F807180E0C0C0C0C000C0006C003C007F9
:1046D000000C001800180C180C18180CF807E00350
:1046E0000000000000000000000000000000000CBE
:1046F000000E000F000F800DC00C600C600C300C21
:10470000180C0C0CFC3FFC3F000C000C000C000CC7
:104710000000000000000000000000000000F80F92
:10472000F80F180018000C00EC03FC071C0E001C0E
:104730000018001800180C181C0C180EF807E003DD
:104740000000000000000000000000000000C007A2
:10475000F00F381C181818000C00CC03EC0F3C0E9E
:104760001C1C0C180C180C18181C380EF007E00351
:104770000000000000000000000000000000FC1F1E
:10478000FC1F000C00060006000380038001C0012E
:10479000C000E000600060007000300030003000B9
:1047A0000000000000000000000000000000E00326
:1047B000F007380E180C180C180C3806F007F00724
:1047C000180C0C180C180C180C18380CF80FE00307
:1047D0000000000000000000000000000000E003F6
:1047E000F007380E1C0C0C180C180C181C1C381E6A
:1047F000F81BE0190018000C000C1C0EF807F00163
:1048000000000000000000000000000000000000A8
:104810000000000000000000800180010000000096
:104820000000000000000000000000008001800186
:104830000000000000000000000000000000000078
:104840000000000000000000800180010000000066
:104850000000000000000000000000008001800156
:1048600000010001800000000000000000000000C6
:104870000000000000000000000000000010001C0C
:10488000800FE003F8001800F800E003800F001C20
:104890000010000000000000000000000000000008
:1048A000000000000000000000000000F81F0000F1
:1048B00000000000F81F00000000000000000000E1
:1048C00000000000000000000000000000000000E8
:1048D0000000000000000000000000000800380098
:1048E000F001C007001F0018001FC007F0013800CA
:1048F0000800000000000000000000000000E003CD
:10490000F80F180C0C180C180018000C0006000307
:104910008001C000C000C00000000000C000C00056
:104920000000000000000000000000000000000087
:10493000E00718180420C229224A114409440944F6
:10494000094409221113E20C024004201818E00760
:1049500000000000000000000000000000008003D4
:104960008003C006C006C006600C600C301830180A
:104970003018F83FF83F1C700C600C6006C006C091
:104980000000000000000000000000000000FC0328
:10499000FC0F0C0C0C180C180C180C0CFC07FC0F62
:1049A0000C180C300C300C300C300C18FC1FFC07B1
:1049B0000000000000000000000000000000C00730
:1049C000F01F38381C300C70066006000600060028
:1049D00006000600060006600C701C30F01FE007A1
:1049E0000000000000000000000000000000FE03C6
:1049F000FE0F060E06180618063006300630063082
:104A000006300630063006180618060EFE0FFE03A6
:104A10000000000000000000000000000000FC3F5B
:104A2000FC3F0C000C000C000C000C00FC1FFC1FD9
:104A30000C000C000C000C000C000C00FC3FFC3FB8
:104A40000000000000000000000000000000F83F2F
:104A5000F83F18001800180018001800F81FF81F79
:104A60001800180018001800180018001800180086
:104A70000000000000000000000000000000E00F47
:104A8000F83F3C780E6006E007C00300030003FE19
:104A900003FE03C007C006C00EC03CF0F83FE00FA5
:104AA00000000000000000000000000000000C30CA
:104AB0000C300C300C300C300C300C30FC3FFC3F18
:104AC0000C300C300C300C300C300C300C300C3006
:104AD0000000000000000000000000000000800155
:104AE00080018001800180018001800180018001BE
:104AF00080018001800180018001800180018001AE
:104B0000000000000000000000000000000000069F
:104B10000006000600060006000600060006000665
:104B2000000600060006180618063807F003E00124
:104B3000000000000000000000000000000006303F
:104B40000618060C060606038601C60066007600F7
:104B5000DE008E0106030606060C06180630066007
:104B6000000000000000000000000000000018002D
:104B70001800180018001800180018001800180075
:104B8000180018001800180018001800F81FF81F67
:104B900000000000000000000000000000000EE027
:104BA0001EF01EF01EF036D836D836D836D866CC71
:104BB00066CC66CCC6C6C6C6C6C6C6C686C386C3CF
:104BC00000000000000000000000000000000C30A9
:104BD0001C303C303C306C306C30CC30CC308C31C4
:104BE0000C330C330C360C360C3C0C3C0C380C30B3
:104BF0000000000000000000000000000000E007CE
:104C0000F81F1C380E70066003C003C003C003C049
:104C100003C003C003C006600E701C38F81FE00715
:104C20000000000000000000000000000000FC0F79
:104C3000FC1F0C380C300C300C300C300C18FC1FE6
:104C4000FC070C000C000C000C000C000C000C000D
:104C50000000000000000000000000000000E0076D
:104C6000F81F1C380E70066003E003C003C003C0C9
:104C700003C003C007E006630E3F1C3CF83FE0F7AB
:104C800000C0000000000000000000000000FE0F57
:104C9000FE1F06380630063006300638FE1FFE07B7
:104CA00006030606060C06180618063006300660CF
:104CB0000000000000000000000000000000E00311
:104CC000F80F1C0C0C180C180C001C00F803E00F5B
:104CD000001E0038063006300E301C1CF80FE007AE
:104CE0000000000000000000000000000000FE7F47
:104CF000FE7F8001800180018001800180018001B0
:104D0000800180018001800180018001800180019B
:104D100000000000000000000000000000000C3057
:104D20000C300C300C300C300C300C300C300C30A3
:104D30000C300C300C300C300C301818F81FE00719
:104D40000000000000000000000000000000036000
:104D50000630063006300C180C180C18180C180CFD
:104D6000380E30063006700760036003C001C001D2
:104D700000000000000000000000000000000360D0
:104D8000C361C361C36166336633663366336633BA
:104D900066336C1B6C1B6C1B2C1A3C1E380E380EB9
:104DA00000000000000000000000000000000FE014
:104DB0000C7018303018700C600EC0078003800330
:104DC000C003E006700C301C18180C300E6007E0B1
:104DD000000000000000000000000000000003C010
:104DE00006600C301C383818300C6006E007C00331
:104DF00080018001800180018001800180018001AB
:104E00000000000000000000000000000000FC7F27
:104E1000FC7F006000300018000C000600038001D9
:104E2000C0006000300018000C000600FE7FFE7F0E
:104E30000000000000000000000000000000E0038F
:104E4000E0036000600060006000600060006000DF
:104E50006000600060006000600060006000600052
:104E6000600060006000E003E0030000000030002C
:104E70003000600060006000C000C000C000C001E1
:104E8000800180018001000300030003000600068A
:104E90000000000000000000000000000000E0032F
:104EA000E00300030003000300030003000300030A
:104EB00000030003000300030003000300030003DA
:104EC000000300030003E003E00300000000000013
:104ED000C001C00160036003600330063006180C97
:104EE000180C00000000000000000000000000009E
:104EF00000000000000000000000000000000000B2
:104F000000000000000000000000000000000000A1
:104F10000000000000000000000000000000FFFF93
:104F2000FFFF0000000000000000000000000C0077
:104F30000C000C000C000C000C0000000000000035
:104F40000000000000000000000000000000000061
:104F50000000000000000000000000000000000051
:104F60000000000000000000F003F8071C0C0C0C0F
:104F7000000FF00FF80C0C0C0C0C1C0FF80FF018B5
:104F80000000000000000000000000000000180009
:104F90001800180018001800D803F80F380C18185B
:104FA00018181818181818181818380CF80FD803EB
:104FB00000000000000000000000000000000000F1
:104FC0000000000000000000C003F007300E180CC5
:104FD0001800180018001800180C300EF007C00355
:104FE00000000000000000000000000000000018A9
:104FF0000018001800180018C01BF01F301C1818EB
:1050000018181818181818181818301CF01FC01B7A
:105010000000000000000000000000000000000090
:105020000000000000000000C003F00F300C181852
:10503000F81FF81F180018003818301CF00FC007B0
:105040000000000000000000000000000000800FD1
:10505000C00FC000C000C000F007F007C000C000D3
:10506000C000C000C000C000C000C000C000C00040
:105070000000000000000000000000000000000030
:105080000000000000000000E00DF80F180E0C0CEE
:105090000C0C0C0C0C0C0C0C0C0C180EF80FE00D7E
:1050A000000C0C0C1C06F807F001000000001800B2
:1050B0001800180018001800D807F80F381C181826
:1050C0001818181818181818181818181818181860
:1050D0000000000000000000000000000000C00010
:1050E000C000000000000000C000C000C000C00000
:1050F000C000C000C000C000C000C000C000C000B0
:105100000000000000000000000000000000C000DF
:10511000C000000000000000C000C000C000C000CF
:10512000C000C000C000C000C000C000C000C0007F
:10513000C000C000C000F8007800000000000C00B3
:105140000C000C000C000C000C0C0C060C038C0169
:10515000CC006C00FC009C018C030C030C060C0CB6
:105160000000000000000000000000000000C0007F
:10517000C000C000C000C000C000C000C000C0002F
:10518000C000C000C000C000C000C000C000C0001F
:10519000000000000000000000000000000000000F
:1051A00000000000000000007C3CFF7EC7E383C1DC
:1051B00083C183C183C183C183C183C183C183C1CF
:1051C00000000000000000000000000000000000DF
:1051D00000000000000000009807F80F381C1818A5
:1051E000181818181818181818181818181818183F
:1051F00000000000000000000000000000000000AF
:105200000000000000000000C003F00F300C181870
:1052100018181818181818181818300CF00FC003A0
:10522000000000000000000000000000000000007E
:105230000000000000000000D803F80F380C181818
:1052400018181818181818181818380CF80FD80348
:1052500018001800180018001800000000000000D6
:105260000000000000000000C01BF01F301C1818D8
:1052700018181818181818181818301CF01FC01B08
:1052800000180018001800180018000000000000A6
:105290000000000000000000B007F00370003000C4
:1052A000300030003000300030003000300030007E
:1052B00000000000000000000000000000000000EE
:1052C0000000000000000000E003F003380E180C9E
:1052D0003800F003C007000C180C380EF007E0038C
:1052E00000000000000000000000000000000000BE
:1052F0008000C000C000C000F007F007C000C00080
:10530000C000C000C000C000C000C000C0078007CF
:10531000000000000000000000000000000000008D
:1053200000000000000000001818181818181818BD
:1053300018181818181818181818381CF01FE01921
:10534000000000000000000000000000000000005D
:1053500000000000000000000C18180C180C180CBD
:10536000300630063006600360036003C001C001F0
:10537000000000000000000000000000000000002D
:105380000000000000000000C141C141C36163632F
:10539000636363633636363636361C1C1C1C1C1C95
:1053A00000000000000000000000000000000000FD
:1053B00000000000000000001C38381C300C6006A3
:1053C00060036003600360036006300C381C1C3807
:1053D00000000000000000000000000000000000CD
:1053E000000000000000000018303018301870185D
:1053F000600C600CE00CC006C006800380038003D4
:1054000080018001C001F000700000000000000079
:105410000000000000000000FC1FFC1F000C000644
:1054200000038001C000600030001800FC1FFC1F5A
:105430000000000000000000000000000000000369
:105440008001C000C000C000C000C000C0006000FB
:105450006000300060004000C000C000C000C0001C
:10546000C000C000800100030000000000008001B7
:105470008001800180018001800180018001800124
:105480008001800180018001800180018001800114
:105490008001800180018001800100000000600027
:1054A000C000C001800180018001800180010003F3
:1054B00000030006000300018001800180018001DB
:1054C00080018001C00060000000000000000000BA
:1054D000000000000000000000000000F010F81FB5
:1054E000080F0000000000000000000000000000A5
:1054F00000000000000000000000000001000200A9
:105500000400060008000A000C0010002000400003
:1055100080000001010101030701000008040204EA
:105520000801010100000000000000000102030466
:105530000607080900000000010203045C5500088A
:1055400000000020600000006C360008BC55000818
:1055500060000020300500007C36000801000000DB
:10556000000000000000000000000000000000003B
:10557000000000000000000000000000000000002B
:1055800000000840000000000000F03F00000000A4
:10559000000000000000000000000000000000000B
:1055A000000000000000FFFF0000000010000000ED
:0C55B00001000000000000000024F400D6
:04000005080001D915
:00000001FF
