:020000040800F2
:100000002808002099020008CB3900084B3200086C
:10001000C9390008CB150008BD4B000800000000DE
:10002000000000000000000000000000853D000806
:10003000CD15000800000000CD390008873D0008FC
:10004000B3020008B3020008B3020008B3020008BC
:10005000B3020008B3020008B3020008B3020008AC
:10006000B3020008B3020008B3020008B30200089C
:10007000B3020008B3020008B3020008B30200088C
:10008000B302000800000000B3020008B302000839
:10009000B3020008B3020008B3020008B30200086C
:1000A000B3020008B3020008B3020008B30200085C
:1000B000B3020008B30200081D3E0008B3020008A6
:1000C000B3020008B3020008B3020008B30200083C
:1000D000B3020008B14B0008B3020008B3020008E5
:1000E000B3020008B3020008B3020008B30200081C
:1000F000B3020008B3020008B302000800000000C9
:1001000000000000B302000800000000B302000875
:10011000B302000800000000B3020008B3020008A8
:10012000B3020008B3020008B3020008B3020008DB
:10013000B30200080000000000000000B302000845
:10014000B3020008B3020008000000000000000035
:10015000000000000000000000000000000000009F
:10016000000000000000000000000000B3020008D2
:10017000B3020008000000000000000000000000C2
:1001800000000000B30200080000000000000000B2
:10019000000000000000000000000000000000005F
:1001A0000000000000000000B3020008B3020008D5
:1001B000B3020008B3020008B30200080000000008
:1001C00000000000B3020008000000000000000072
:1001D000B3020008B302000800F002F800F04CF887
:1001E0000AA090E8000C82448344AAF10107DA4592
:1001F00001D100F041F8AFF2090EBAE80F0013F098
:10020000010F18BFFB1A43F001031847E86700000D
:1002100008680000103A24BF78C878C1FAD852079D
:1002200024BF30C830C144BF04680C607047000070
:100230000023002400250026103A28BF78C1FBD8EF
:10024000520728BF30C148BF0B607047662905F0D0
:100250007482642900F0F480002070471FB505F017
:1002600067FA00F075FC04000020002104F0A6FFEE
:10027000E0601FBD10B510BD00F06AFD1146FFF72C
:10028000EDFF04F0F7FE00F088FD03B4FFF7F2FF86
:1002900003BC00F0CBFD0000094880470948004737
:1002A000FEE7FEE7FEE7FEE7FEE7FEE7FEE7FEE726
:1002B000FEE7FEE704480549054A064B7047000083
:1002C0000D3E0008D901000828020020280800205F
:1002D000280400202804002053EA020C00F0698062
:1002E0002DE9F04B4FF00006002B1FBFB3FA83F54A
:1002F00003FA05F424FA05F65E4012BF1643B2FA7B
:1003000082F502FA05F4C5F120051EBF22FA05FCAC
:1003100044EA0C04203556EA044C4FEA144418BF52
:10032000641C4FF000084FF00009904271EB030C81
:1003300039D3002919BFB1FA81F701FA07F6B0FAEB
:1003400080F700FA07F6C7F120071EBF20FA07FC66
:1003500046EA0C062037B6FBF4FCA7EB0507103F76
:1003600007F01F0BCBF120060CFA0BFB2CFA06F65C
:1003700044BFB3460026202FA4BF5E464FF0000BBB
:100380005BEA060C08BF4FF0010B19EB0B09ABFB46
:10039000027C48EB0608C01B06FB02CC0BFB03CC1F
:1003A00071EB0C01C1E70B46024641464846BDE8E9
:1003B000F08B13B54FF000004FF00001AFF3008059
:1003C000BDE81C40704700000FB41CB5074B06AADF
:1003D0007B4469460090059800F0A1FB0020694627
:1003E00000F0B0FB1CBC5DF814FB000071070000BE
:1003F00070B5044685690068C10601D5302600E065
:100400002026C00707D070BDD4E9012130469047AF
:10041000206A401C20626D1EF6D570BD70B5044682
:1004200085690078C00707D170BDD4E9012120207B
:100430009047206A401C20626D1EF6D570BD0000FA
:100440002DE9F0410646002410687529314616A5AD
:1004500010D0AFF30080002802DA404213A507E075
:1004600031688A0701D512A502E0490704D511A514
:10047000012401E0AFF3008000210A2206F12407E5
:1004800009E0B0FBF2FCB0FBF2F302FB1C003030E1
:1004900078541846491C0028F3D123462A46304692
:1004A000BDE8F04100F0CEB8000000002D000000D3
:1004B0002B000000200000002DE9F05F8946044673
:1004C0004FF0000ADFF824B1FB44C0F820A020461A
:1004D000E168884700287DD0252806D0D4E901218D
:1004E0009047206A401C2062F1E700255F462046C5
:1004F000E16888472028064607DB312E05D2B81967
:1005000010F8200C08B10543F1E7A80701D525F044
:100510000405C4F81CA00027C4F818A02A2E09D08E
:10052000304604F074FB38B304EB8708303EC8F85B
:10053000186019E059F8041B204604EB870291610A
:10054000E1688847012F064618D1E069002820DAC3
:1005500025F020051DE0D8F8180000EB800006EB20
:1005600040003038C8F818002046E1688847064641
:1005700004F04DFB0028EED1012F0AD02E2E08D119
:100580002046E16888477F1C0646022F45F020057B
:10059000C4DBA069002803DA404245F00105A061F0
:1005A000E80701D025F01005A6B1A6F141001928F1
:1005B00002D8203645F400654A463146204625607B
:1005C0004D46FFF743FE60B1012807D0ED1D25F031
:1005D000070000E007E000F1080978E705F10409E9
:1005E00075E730467AE7206ABDE8F09F8264000034
:1005F0004FF0000200B5134694469646203922BFBC
:10060000A0E80C50A0E80C50B1F12001BFF4F7AF06
:10061000090728BFA0E80C5048BF0CC05DF804EBE8
:10062000890028BF40F8042B08BF704748BF20F856
:10063000022B11F0804F18BF00F8012B7047704754
:10064000704770472DE9F0470D469946924604469B
:1006500000F124080168880604D5E06921F0100142
:10066000216000E00120A84201DD471B00E00027D7
:10067000A1697A1902EB0900081AA0612078C00666
:1006800002D42046FFF7B4FE002608E0D4E9012199
:100690001AF806009047206A401C761C20624E45DE
:1006A000F4DB2078C0060AD52046FFF7A1FE06E05D
:1006B000D4E9012130209047206A401C2062381E76
:1006C000A7F10107F4DC07E0D4E9012118F80500DF
:1006D0009047206A401C2062281EA5F10105F3DC2A
:1006E0002046FFF79BFE2078000602D50220BDE8D9
:1006F000F0870120FBE770472DE9FF4F0C461E46AF
:100700004FF0FF378BB0D2E90001DDF860800A902E
:100710008A46C1F30A5505B93D46002108464FF007
:100720000000BAF1000F00F4400005DA00EB800091
:100730004FF4400101EA50004FEA9059B9F1010F1E
:1007400000DDB9460A9850EA4A000ED044F610502F
:10075000A5F2FF3545432F14B8F1000F1ED07542A6
:10076000291E1EDDC9F100021CE0B8F1010F4FF097
:10077000000001D0302103E0F24305E02154401C89
:10078000B042FBDB30460022002121540B99C1F816
:100790000880C1E900200FB0BDE8F08FBD1B6D1CC3
:1007A000DEE74A4600DA694206A800F05BFA06ABCB
:1007B00093E8070003AB83E8070050460A9900F06E
:1007C0003CFB8DE80700A0F500501F38009003980F
:1007D000002D0ADD42F21F014A460844002303A906
:1007E0000390684600F0A5FD09E0A0F500504A46D8
:1007F0001F38002303A90390684600F0AFFD8DE881
:1008000007000004000C03D04FF0FF30410800E067
:100810001046B8F1000F03D00022009215461EE0EA
:10082000751E05D400F098F9303262556D1EF9D569
:10083000B3460122084302D000227F1C04E0207846
:10084000302801D100227F1E002A099784D01DE0A4
:10085000112D07DA00F080F9303262556D1C50EA34
:100860000102F5D1084302D00098C8B10EE0002182
:10087000681E05E0235C625C63542254401E491CE0
:100880008142F7DBAB46A81B401E0990002004F80C
:100890000B000B98099AC0F80880C0E9002B7AE792
:1008A00011264FF0000857E72DE9F04F884604461F
:1008B000D21D22F0070191B0D1E90001CDE90A0172
:1008C00004F07DF902460B98C00F01D02D2007E0FF
:1008D0002068810701D52B2002E0202101EAC00019
:1008E000032A099001D0072A05DB0346414620462A
:1008F00000F078F90BE12078800601D5E06900E08E
:100900000620B8F1650F814606D0B8F1660F18D001
:10091000B8F1670F70D131E00020B9F1110F0090EC
:1009200001DB112301E009F101030AAA01A90CA8C6
:10093000FFF7E2FEDDE90C70002609F101058346B0
:1009400047E001204B4600904FF000470AAA01A95A
:100950000CA8FFF7D1FEDDE90DB00C995D4600262D
:1009600010B909F101000D18B9EB050003D4C0F16D
:10097000FF3609F10105A5EB09002BE0B9F1010FE4
:1009800001DA4FF001090020B9F1110F009048463B
:1009900001DD112300E003460AAA01A90CA8FFF714
:1009A000ABFEDDE90C704D4600268346207800073B
:1009B0000AD4AB4500DA5D4601A8012D04DD4119DA
:1009C00011F8011C302907D04F4502DA17F1040F46
:1009D00004DA012082460FE06D1EEEE7002F02DCF4
:1009E000ED1B3E4403E0781CA84200DD7D1CB81BD3
:1009F00000F1010A4FF000472078000703D4AA4510
:100A000001DB4FF0FF3A0021B7F1004F0DF1430831
:100A10008DF8431024D002202B23002F01DA7F42CF
:100A20002D230A21021EA0F1010000DC5FB197FB1B
:100A3000F1FC97FBF1F201FB1C7C17460CF1300C2A
:100A400008F801CDEEE7A8F101000370218809053F
:100A500001D5452100E06521A0F1010800F8011C45
:100A600009980FA9A1EB0807FF1D00B1012041194A
:100A700001EBEA70A1693844081A401EA061207891
:100A8000C00602D42046FFF7B3FC099828B1D4E988
:100A900001219047206A401C20622078C00622D5A0
:100AA0002046FFF7A5FC1EE0002E04DBB34502DD67
:100AB00001A8805D00E03020D4E901219047206A40
:100AC000401C2062761CAAF101005FEA000A0AD1EC
:100AD00000F03EF8C0680168405CD4E9012190470D
:100AE000206A401C2062281EA5F10105DCDC07E01D
:100AF000D4E9012118F8010B9047206A401C2062BC
:100B0000381EA7F10107F3DC2046FFF787FC03201E
:100B100011B041E601694A1C02610878704700B5CE
:100B20008FB0CDE901310021059105497944CDE926
:100B3000031011466846FFF7BFFC0FB000BD000070
:100B4000E5FFFFFF0A6802F8010B0A60704700002A
:100B500000487047E801002030B5B0F10A024FEAC2
:100B6000900E71F100034EEA817EB0EB0E0061EB56
:100B700091014FEA101E4EEA017E10EB0E0041EB90
:100B800011114FEA102E4EEA016E10EB0E0041EBF0
:100B900011214FEA104E4EEA014E10EB0E0041EBD0
:100BA0001141401841F100014FEAD00040EA417084
:100BB0004FEAD10110EB80054FEA810444EA9074BA
:100BC00044EB01046D1944EB0404521BA3414FF0A4
:100BD000000348BF0A3200D530BD401C41F100017E
:100BE00030BD00002DE9F0411F4604460326016890
:100BF000072A01F4006004DB08B116A505E016A57C
:100C000003E008B115A500E015A521F01000206053
:100C1000A069C01EA0610FB1401EA0612046FFF771
:100C2000E7FB4FB1D4E9012138469047206A401CC8
:100C30002062C01C206206E0206AFAE7D4E90121A4
:100C400015F8010B9047761EF8D22046FFF7E6FB19
:100C5000BDE8F0814E414E006E616E00494E460087
:100C6000696E66002DE9F047814616468AB0354820
:100C700078440DC88DE80D0032487844801C03ACE0
:100C80000DC884E80D0041F69B300844372190FBE5
:100C9000F1F290FBF1F5A5F1800501FB12041B3C7C
:100CA00002D56442012000E00020DFF898A08046D1
:100CB0000027FA44AAF1BE0A0EE0E0070AD0324645
:100CC000684607EB470101230AEB810100F046FB70
:100CD0008DE8070064107F1C002CEED1194F7F4473
:100CE000AE3F19E0E80715D007EB04100DF1180A24
:100CF00090E80E008AE80E00C068F04201D1981911
:100D000008903246012306A903A800F027FB03AB95
:100D100083E807006D10641C002DE3D14FF0010340
:100D200032466946B8F1000F03A802D000F001FB7B
:100D300001E000F013FBC9E90001C9F808200AB07E
:100D4000BDE8F087685D000000487047C8010020DA
:100D50007546FFF7F9FFAE4605006946534620F099
:100D60000700854618B020B5FFF7A4FABDE820407B
:100D70004FF000064FF000074FF000084FF0000B57
:100D800021F00701AC46ACE8C009ACE8C009ACE80A
:100D9000C009ACE8C0098D46704710B50446AFF3F2
:100DA00000802046BDE81040FFF76FBA4FF0013CCD
:100DB00050F8042B51F8043B9A4221D1A2EB0C03CA
:100DC000934313EACC1317D150F8042B51F8043B8A
:100DD0009A4215D1A2EB0C03934313EACC130BD127
:100DE00050F8042B51F8043B9A4209D1A2EB0C03B2
:100DF000934313EACC13DBD04FF00000704700BFE1
:100E0000D01A01BAB1FA81F101F0180122FA01F009
:100E1000CB40C1F12001DBB2C0B2C01A2CFA01F301
:100E2000D11A914311EAC311E6D170470149182044
:100E3000ABBEFEE72600020070475FEA400C08BF29
:100E400091F0000F4FEA8C234FEAC12243EA51513F
:100E50004FEA1C5018BF00F5F0404FEA300018BFB1
:100E600041F000415FEA6C5C00F02980BCF1FF3F7B
:100E700008BF40F080407047130C06BF12044FF0CB
:100E8000100C4FF0000C130E04BF12020CF1080CF2
:100E9000130F04BF12010CF1040C930F04BF920056
:100EA0000CF1020CD30F04BF52000CF1010C1146DF
:100EB0004FF00002A0F11F00A0EB0C00704711F0F2
:100EC000004F08BF704731F000413FF4D5AF0B0C25
:100ED00006BF09044FF0100C4FF0000C0B0E04BFBE
:100EE00009020CF1080C0B0F04BF09010CF1040CF2
:100EF0008B0F04BF89000CF1020CCB0F04BF49001B
:100F00000CF1010CCCF12003A0EB0C0022FA03F34E
:100F100002FA0CF241EA030100F10100704720F0EF
:100F20007F4C80EA030023F07F47ACEB070303F517
:100F30007C5300F0004003F1FF032DE980494FEAA4
:100F4000154B09B44FEA144325EA0B4E24EA034833
:100F50000FF2042606EB132749083E785FEA3202B7
:100F600003FB0667C7F5000707FB06F64FEA543791
:100F70004FEAD64606F1020607FB066CCCF1005C90
:100F80004FEA1C472CEA074C07FB06F40CFB06F55E
:100F900004EB15464FEA961634BF00204FF0004090
:100FA0004FEAD13706FB07FC4FEA1C4C0CFB0BF752
:100FB000D21B03FB0CF761EB07010CFB0EF7B0EB48
:100FC000074072EB17420CFB08F734BFA2EB074255
:100FD000B2EB074261EB17414FEA0C444FEA91072D
:100FE00006FB07FC4FEA1C4C0CFB0BF7B0EBC740B1
:100FF00072EB573203FB0CF734BFA2EBC742B2EBE4
:10100000C74261EB57310CFB0EF7B0EBC70072EB38
:1010100057720CFB08F734BFA2EBC702B2EBC70252
:1010200061EB5771039F4FEA816141EA921104EB32
:10103000CC044FEAD1374FEA826206FB07FC42EA52
:1010400090124FEA80604FEA1C4C0CFB0BF7D21B4E
:1010500003FB0CF761EB07010CFB0EF7B0EB07404D
:1010600072EB17420CFB08F734BFA2EB0742B2EB5E
:10107000074261EB17414FEA8C554FEA910704EBA9
:101080009C2406FB07FC4FEA1C4C0CFB0BF7B0EB57
:10109000C74072EB573203FB0CF734BFA2EBC742D9
:1010A000B2EBC74261EB57310CFB0EF7B0EBC70058
:1010B00072EB57720CFB08F734BFA2EBC702B2EB1E
:1010C000C70261EB577115EB4C254FEA816141EA8C
:1010D00092114FEA82624FEAD13742EA901206FB40
:1010E00007FC44F100044FEA80604FEA1C4C0CFB03
:1010F0000BF7D21B03FB0CF761EB07010CFB0EF7A0
:10110000B0EB074072EB17420CFB08F734BFA2EBC1
:101110000742B2EB074261EB174115EB1C154FEA92
:10112000813141EA92414FEA823242EA90424FEAEB
:1011300080304FEA0C7644F1000448EA03434EEA5B
:101140000B484FF0000EB2EB080C71EB030724BF05
:10115000624639464EEB0E0E4FF0000B001852411E
:1011600049414BEB0B0BB2EB080C71EB03077BF126
:10117000000B24BF624639464EEB0E0E4FF0000BBB
:101180000018524149414BEB0B0BB2EB080C71EBD1
:1011900003077BF1000B24BF624639464EEB0E0E6F
:1011A00051EA020718BF46F0010616EB0E7655F11C
:1011B000000254F1000103D5BDE88901BDE80088B3
:1011C000BDE88901BDE80048B619524141EB010173
:1011D000A3F10103704780807F7E7D7C7B7A7978E4
:1011E000777676757473727171706F6E6E6D6C6CEC
:1011F0006B6A6A696868676666656464636362618E
:101200006160605F5F5E5E5D5D5C5C5B5B5A5A590E
:10121000595858575756565555555454535352527A
:101220005251515050504F4F4F4E4E4D4D4D4C4CD2
:101230004C4B4B4B4A4A4A4949494848484747471B
:101240004746464645454544444444434343434258
:10125000424242414141002B9C4630D477002BD082
:101260001CB54FEA370703B44FF010004FF01001E0
:10127000BAF1000F06D0BCF1000FDCBF40F008004F
:1012800040F008014FF000000FBCBDE810400BF12A
:10129000010BBBF1010F08BF5FEA170722BF12F174
:1012A000010211F101014FF0004143F1000300F090
:1012B000004043EA00007047F9D35708D0E746EAF8
:1012C000064613F1400F4FEA16461FDD13F1200FBB
:1012D000DFBF16430A46002120335B42BED0C3F174
:1012E000200746EA064602FA07F74FEA164646EA9C
:1012F0000706C3F1200722FA03F201FA07F721FAE1
:1013000003F14FF0000342EA0702A7E746EA0206AC
:1013100046EA06464FEA164646EA0106BCBF46EADA
:101320000646360C4FF000034FF000024FF000016C
:1013300094E72DE9804C9A46934670B491E83800C2
:1013400007C831EA400C48BF34EA430C03D5FFF725
:10135000E6FDFFF780FFF0BCBDE8008C2DE9804C76
:101360009A46934670B491E8380007C810F0804F51
:1013700008BF13F0804F03D100F005F8FFF76BFFB3
:10138000F0BCBDE8008C20F07F4780EA030023F02A
:101390007F4C07EB0C03A3F57C5300F00040A3F156
:1013A000FE0392F0000F00F0B38095F0000F00F004
:1013B00077802DE901494FEA11404FEA144621EAAE
:1013C000004800FB06FC24EA064708FB06F607FB7C
:1013D00008F800FB07F718EB06484CEB164C4FEAF1
:1013E000124B18EB07484FEA15464CEB174022EA20
:1013F0000B4E0BFB06FC25EA06470EFB06F607FB29
:101400000EFE0BFB07F71EEB064E4CEB164C4FF097
:1014100000061EEB074E4CEB174B18EB0B0840F188
:10142000000018EB0E0B58EB000840F100008F1A7B
:101430004FF000013CBFC943661B14BFB5EB040C61
:1014400000213CBFC943F61B4FEA17444EEA8E0EFB
:1014500027EA04454FEA1C4704FB07622CEA074CC5
:1014600005FB07F70CFB05F604FB0CFC16EB074627
:1014700042EB174216EB0C4642EB1C421BEB0606F6
:1014800058EB0202414146EA9E0601D5BDE80189BA
:10149000B619524141EB0101A3F10103BDE80189F5
:1014A0004FEA14454FEA114724EA054621EA074C62
:1014B00005FB07F406FB07F70CFB06F105FB0CFC2C
:1014C00011EB074144EB17444FEA124711EB0C4173
:1014D00044EB1C4422EA074C05FB07F206FB07F726
:1014E0000CFB06F605FB0CFC16EB074642EB17421D
:1014F00016EB0C4642EB1C456A1854F1000148BF3C
:101500007047B619524141EB0101A3F10103704745
:1015100095F0000F37D04FEA11424FEA144721EA05
:10152000024624EA074C02FB07F106FB07F70CFB17
:1015300006F402FB0CFC14EB074441EB17414FEAA5
:10154000154714EB0C4441EB1C4125EA074C02FB08
:1015500007F506FB07F70CFB06F602FB0CFC16EB87
:10156000074645EB174516EB0C4645EB1C42121996
:1015700051F1000148BF7047B619524141EB0101DA
:10158000A3F1010370474FEA14454FEA114724EADB
:10159000054621EA074C05FB07F106FB07F70CFBA4
:1015A00006F24FF0000605FB0CFC12EB074241EB84
:1015B000174112EB0C4251EB1C4148BF7047921887
:1015C00041EB0101A3F101037047FEE770470022E0
:1015D00040F6B83306E00021491C89B29942FBD39A
:1015E000521C92B28242F6D3704772B6FEE710B533
:1015F00090F8253000210122022B03D00421C16381
:10160000012122E003681C6824F00E041C60836C36
:101610001C6824F480741C6003681C6824F00104B6
:101620001C6090F84430046C03F01F0302FA03F3CB
:101630006360D0E913345C60436D33B11C6824F4FB
:1016400080741C60D0E916345C6080F8252000228C
:1016500080F82420084610BD70B590F8252000249D
:1016600001212346022A07D00422C26380F82510F4
:1016700080F82430012429E00268156825F00E0561
:1016800015600268156825F001051560826C156803
:1016900025F48075156090F84420056C02F01F0257
:1016A00001FA02F26A60D0E913255560426D32B149
:1016B000156825F480751560D0E91625556080F809
:1016C000251080F82430816B01B18847204670BD19
:1016D00070B5044600F0FCF80546601C02D00448D2
:1016E0004068044400F0F4F8401BA042FAD370BDF7
:1016F0001C0000202DE9FC4FDFF8A0A100230125EC
:101700000AF1040B03244FF00F0C0BF1040EBDE0A3
:1017100005FA03F632406FD04F68012F05D0022F33
:1017200003D0112F01D0122F17D1D0F808905F00ED
:1017300004FA07F829EA08090097D1F80C8008FA9A
:1017400007F848EA0908C0F808804768B7430E79E7
:10175000C6F300169E403E434660C6684FEA430803
:1017600004FA08F7BE4301978F6807FA08F7374372
:10177000C7604E68022E01D0122E13D1DE0800EB96
:1017800086060096366A5F07FF0E0CFA07F926EA0E
:101790000906D1F8109009FA07F949EA0609009EEE
:1017A000C6F820900668019FBE430F7907F0030733
:1017B00007FA08F7374307604E68F60065D5384EDC
:1017C000376E47F001073766366E23F0030706F0E1
:1017D00001060096334E3E44B146B6689F074FEA75
:1017E00017780CFA08F7BE43B0F1904F05D02E4F92
:1017F000B84204D1012717E047E0002714E02B4F3F
:10180000B84201D102270FE0294FB84201D1032786
:101810000AE0284FB84201D1042705E0264FB8421C
:1018200001D1052700E0062707FA08F73743C9F872
:101830000870DAF800605746D1F8048096435FEAF2
:10184000C83800D516433E60DBF800605F46D1F82B
:10185000048096435FEA883800D516433E60DEF880
:1018600000607746D1F8048096435FEAC82800D527
:1018700016433E60094F0C373E68D1F8048096430A
:101880005FEA882800D516433E605B1C0A6832FA7E
:1018900003F67FF43DAFBDE8FC8F0000000401407B
:1018A0000010024000000140000400480008004809
:1018B000000C00480010004800140048006908406F
:1018C00000D0012070470AB1816170478162704782
:1018D00001488068704700001C00002002488168B1
:1018E00042681144816070471C00002010B500243C
:1018F000032000F077F8002000F008F808B1012478
:1019000001E000F025F8204610BD000070B50E4E35
:1019100005460024706898B14FF47A71B1FBF0F07D
:101920000A490968B1FBF0F000F068FD40B9102DDC
:1019300006D200222946501E00F034F8356000E03F
:101940000124204670BD00001C000020280000205B
:101950000C4808B5016E41F001010166016E01F00D
:1019600001010091816D41F080518165806D00F031
:1019700080500090052000F035F8BDE8084000F0E8
:10198000A1B8000000100240002809DB00F01F028F
:10199000012191404009800000F1E020C0F80011D1
:1019A00070470000F0B40E4B1B680C46C3F30223D3
:1019B000C3F10705042D00D90425191D072901D2FB
:1019C000002300E0DB1E012606FA05F1491E214036
:1019D00099409E40761E16403143F0BC03F007B993
:1019E0000CED00E0064900F0070208684FF6FF031F
:1019F000184040EA0220034A104308607047000084
:101A00000CED00E00000FA052B492C4B0A6832214E
:101A10004A432B4940B1B0F5007F086829D020F433
:101A2000C06040F480602CE00868C0F341200228C8
:101A300004D051F8800F20F4807022E0D1F88000AB
:101A400020F48070C1F88000086820F4C06040F481
:101A500000700860B2FBF3F0401C00E0401E4A69D1
:101A6000520501D50028F9D1486940050AD503205F
:101A70007047C0F34120022806D051F8800F40F48F
:101A80008070086000207047D1F8800040F48070BA
:101A9000C1F88000086820F4C06040F4007008605D
:101AA000B2FBF3F0401C00E0401E4A695205DBD552
:101AB0000028F9D1D8E700002800002040420F009C
:101AC000007000400248816841F4804181607047A5
:101AD000007000402DE9F8430446006800269D4D43
:101AE00000035ED5A86D0027C00008D4A86D40F0A3
:101AF0008050A865A86D012700F080500090DFF8A5
:101B00005892D9F8001041F48071C9F80010FFF71D
:101B1000DFFE804606E000BFFFF7DAFEA0EB08001C
:101B200002282BD8D9F80000C005F5D5D5F89000CB
:101B300010F4407014D0216C814211D0D5F890007F
:101B4000D5F8901020F4407041F48031C5F8901021
:101B5000D5F8901021F48031C5F89010C5F89000A8
:101B6000C00711D0FFF7B4FE804641F2883907E084
:101B7000FFF7AEFEA0EB0801494501D903260BE0B3
:101B8000D5F890008007F3D5D5F89000216C20F4AB
:101B900040700843C5F890001FB1A86D20F0805038
:101BA000A8652078C00707D0D5F88800616820F0C4
:101BB00003000843C5F888002078800707D5D5F8CA
:101BC0008800A16820F00C000843C5F88800207840
:101BD000400707D5D5F88800E16820F030000843B9
:101BE000C5F888002078000707D5D5F88800216956
:101BF00020F0C0000843C5F888002078800607D58B
:101C0000D5F88800616920F440600843C5F8880071
:101C10002078400607D5D5F88800A16920F4405007
:101C20000843C5F888002078000607D5D5F8880055
:101C3000E16920F440400843C5F888002088C005C9
:101C400007D5D5F88800216A20F440300843C5F84C
:101C500088002088800507D5D5F88800616A20F4BF
:101C600040200843C5F88800208840050FD5D5F8E6
:101C70008800A16A20F440100843C5F88800A06AD3
:101C8000B0F5801F03D1E86840F48010E860208838
:101C900000050FD5D5F88800E16A20F4400008431C
:101CA000C5F88800E06AB0F5800F03D1E86840F419
:101CB0008010E8602088C0040FD5D5F88800216B1B
:101CC00020F040700843C5F88800206BB0F1807F99
:101CD00003D1E86840F48010E86020884FF000618C
:101CE00080040ED5D5F88800626B20F04060104368
:101CF000C5F88800606B884203D1E86840F4801022
:101D0000E860208840040ED5D5F88800A26B20F04A
:101D100040601043C5F88800A06B884203D1E86892
:101D200040F48010E860208800040FD5D5F88800C2
:101D3000E16B20F040500843C5F88800E06BB0F13B
:101D4000805F03D1E86840F48030E8603046BDE849
:101D5000F883000000100240007000402DE9F047B9
:101D60000E4605004FF0000725D0DFF8AC81D8F80B
:101D7000000000F00F00B0420CD2D8F8001021F0A3
:101D80000F013143C8F80010D8F8000000F00F0030
:101D9000B04210D12968614CC80741F2883A5AD044
:101DA0006868DFF87C91032808D0022820682DD0CD
:101DB000400500282CDB0120BDE8F0872068800169
:101DC000F9D5E06800F00302E068C0F30310401C9E
:101DD000032A19D0534A00BFB2FBF0F0E268C2F305
:101DE00006225043E268C2F34162521C5200B0FB2B
:101DF000F2F0484517D9A06810F0F00F0CD0880712
:101E000011D5A86840B10EE0474AE5E78003D0E766
:101E100000F0B6F8484506D9A06820F0F00040F080
:101E20008000A0608027A068696820F00300084354
:101E3000A060FFF74DFD814606E000BFFFF748FDBB
:101E4000A0EB090151453AD8A068696800F00C0080
:101E5000B0EB810FF2D12868810714D5400703D574
:101E6000A06840F4E060A0602878000705D5A0686D
:101E700020F4605040F4E060A060A068A96820F001
:101E8000F000084304E0802F03D1A06820F0F000A8
:101E9000A060D8F80010404601F00F01B14216D9F9
:101EA000016821F00F0131430160FFF711FD074682
:101EB00007E000BFFFF70CFDC11B514501D903200E
:101EC0007AE7D8F8000000F00F00B042F2D128788D
:101ED000400705D5A068E96820F4E0600843A060E9
:101EE0002878000706D5A068296920F4605040EAE8
:101EF000C100A06000F044F8A1680C4AC1F30311CE
:101F0000515C01F01F01C840094908600948006898
:101F1000BDE8F047FFF7FABC002002400010024085
:101F200000B4C4040024F40000366E0136690008D1
:101F3000280000201C000020054806490068896828
:101F4000054AC1F30221515C01F01F01C8407047EE
:101F50002800002000100240466900080548064994
:101F600000688968054AC1F3C221515C01F01F0174
:101F7000C840704728000020001002404669000851
:101F8000184910B58868C0F381021748012A0BD0A0
:101F90008A68164BC2F38102022A06D08A68C2F30D
:101FA0008102032A03D0002010BD184610BDCA6864
:101FB00002F00304CA68C2F30312521C032C02D0BD
:101FC000B0FBF2F001E0B3FBF2F0CA68C968C2F3FB
:101FD00006225043C1F34161491C4900B0FBF1F0B6
:101FE00010BD0000001002400024F40000366E0115
:101FF0002DE9F84304007AD02078FA4DC00747D085
:10200000A868E96800F00C0001F003010C2802D078
:10201000082817D001E0032914D06068B0F5803F8C
:1020200017D0B0F5A02F286817D020F48030286092
:10203000286820F4802028606068E0B1FFF748FC41
:10204000064614E02868800322D560680028D2D0B4
:102050001EE0286840F48030EDE740F480202860DE
:10206000F7E700BFFFF734FC801B642870D82868AE
:102070008003F7D50CE0FFF72BFC064605E000BF18
:10208000FFF726FC801B6428F0D828688003F7D46B
:10209000207880074CD5A868E96800F00C0001F0B2
:1020A00003010C2802D004280DD001E002290AD037
:1020B000E068002828682BD040F480702860FFF783
:1020C00007FC064619E02868400502D5E0680028AC
:1020D00091D06868217C20F0FE4040EA0160686091
:1020E000C1480068FFF712FC002800D120E076E12B
:1020F000FFF7EEFB801B0228B8D828684005F7D50B
:102100006868217C20F0FE4040EA016068600FE0D2
:1021100020F480702860FFF7DBFB064605E000BF77
:10212000FFF7D6FB801B0228A0D828684005F7D40B
:102130002078000729D560690028D5F8940013D0CD
:1021400040F00100C5F89400FFF7C2FB064606E028
:1021500090E000BFFFF7BCFB801B022886D8D5F8B3
:1021600094008007F6D510E020F00100C5F8940037
:10217000FFF7AEFB064604E0FFF7AAFB801B022830
:1021800078D8D5F894008007F6D42078400761D538
:10219000A86D0026C00008D4A86D40F08050A86546
:1021A000A86D012600F08050009090480168C90594
:1021B00011D40168804641F480710160FFF788FB0B
:1021C000074604E0FFF784FBC01B022852D8D8F86A
:1021D0000000C005F6D5A068012815D00528D5F85F
:1021E000900016D020F00100C5F89000D5F89000BE
:1021F00020F00400C5F89000A06841F28838B8B11A
:10220000FFF766FB07460EE0D5F8900040F00100AE
:10221000F0E740F00400C5F89000F5E7FFF758FB41
:10222000C11B414526D8D5F890008007F6D50CE0B3
:10223000FFF74EFB074604E0FFF74AFBC11B414591
:1022400018D8D5F890008007F6D41EB1A86D20F0FC
:102250008050A8652078800629D5A0690028D5F887
:10226000980013D040F00100C5F89800FFF730FB4C
:10227000064606E077E000BFFFF72AFB801B022836
:1022800077D8D5F898008007F6D510E020F0010047
:10229000C5F89800FFF71CFB064604E0FFF718FBA3
:1022A000801B022865D8D5F898008007F6D4E0692D
:1022B000F0B3A968C1F38101032961D0022828681D
:1022C00020F0807028600BD0E86820F00300E86000
:1022D000E86847490840E860FFF7FAFA04464BE02F
:1022E000FFF7F6FA064604E0FFF7F2FA801B022831
:1022F0003FD828688001F7D4F4E908016FF00F0295
:1023000002EB01110843218A5204490802EB4151B2
:10231000A26841EA02210843217D4FF07E4249082C
:1023200002EB41610843217B40EAC160E96800E0BB
:1023300062E0304A11400843E860286840F080704D
:102340002860E86840F08070E860FFF7C1FA044652
:1023500005E000BFFFF7BCFA001B022809D8286877
:102360008001F7D548E004E0FFF7B2FA001B02282D
:1023700002D90320BDE8F88328688001F4D43BE04B
:102380000128F7D0E868226A00F00301914226D1C3
:10239000616A00F0F0020901103991421FD1A26A6E
:1023A00000F4FE41B1EB022F19D194F82C2000F07B
:1023B0007841B1EBC26F12D1218E00F4C0024908FE
:1023C0004905A1F50011914209D194F8341000F0AB
:1023D000C06049084906A1F1007181420CD001207A
:1023E000C8E70000001002401C0000200070004000
:1023F000FFFFEEFE0C809F010020BBE710B5401EE2
:10240000B0F1807F01D3012010BD4FF0E024606166
:102410000F21601702F0EBFB0020A0610720206174
:10242000002010BD70477047704770477047704775
:10243000F0B590F83C20012A3AD0012580F83C50B4
:10244000022280F83D2003685A689C68194E1A4F92
:10245000B34201D0BB4204D122F4700C4A6842EA74
:102460000C02DFF858C002EA0C02D1F800C04CEAB6
:10247000020CC3F804C00268B2420DD0B2F1804F22
:102480000AD00F4B9A4207D00E4B9A4204D0BA4260
:1024900002D00D4B9A4204D1896824F0800319437D
:1024A000916080F83D50002180F83C100846F0BD56
:1024B0000220F0BD002C0140003401408FFFFFFDE1
:1024C000000400400008004000400140704710B583
:1024D000040003D094F83D0010B107E0012010BDC6
:1024E000002084F83C00204600F022F8022084F806
:1024F0003D00211D206801F097FC012084F8480070
:1025000084F83E0084F83F0084F8400084F84100DD
:1025100084F8420084F8430084F8440084F84500BD
:1025200084F8460084F8470084F83D00002010BD80
:1025300008B501681048B1F1804F14D00F4A91429C
:1025400019D1816D41F004018165806D002200F098
:102550000400009011461E20FFF724FABDE8084051
:102560001E20FFF711BA816D41F001018165806D78
:1025700000F00100009008BD00100240000800407B
:1025800090F83D10012901D001207047022180F808
:102590003D100168CA6842F00102CA600068104933
:1025A00088420ED0B0F1804F0BD00E49884208D03F
:1025B0000D49884205D00D49884202D00C49884215
:1025C00007D181680B4A1140062906D0B1F5803F3A
:1025D00003D0016841F00101016000207047000054
:1025E000002C01400004004000080040003401407D
:1025F000004001400700010070B5044690F83C001F
:10260000012814D0012584F83C50022084F83D00B4
:1026100022689068344B184020F47F40906008682E
:10262000702827D010DC10F00F0F03D04AE04FF0D5
:10263000020070BD4FEA2012072A43D2DFE802F001
:102640005050505048313900284BC21A984247D058
:1026500009DCB0F5805F35D0B0F5005F15D0B0F182
:10266000101F2FD13CE0102A3AD0202A38D0502A0F
:1026700028D135E0CB68D1E90121206801F039FC8F
:102680002068816841F0770109E0CB68D1E9012138
:10269000206801F02EFC2068816841F4804181604F
:1026A00010E0CA684968206801F0CEFD502120681A
:1026B00006E0CA684968206801F0D7FD60212068FB
:1026C00001F022FC84F83D50002084F83C0070BDED
:1026D000CA684968206801F0B7FD40212068EFE72B
:1026E000226801461046EBE788FFCEFF200010006D
:1026F000704770B50446006801694FF00005C94392
:10270000890715D4C168C943890711D4E91E01613D
:1027100001202077206880698007204602D0FFF7DB
:10272000E7FF04E000F00AF9204600F0C9F9257738
:1027300020680169C943490717D4C168C9434907DB
:1027400013D46FF0040101610220207720688069B2
:1027500010F4407F204602D0FFF7CAFF04E000F0EB
:10276000EDF8204600F0ACF9257720680169C943EF
:10277000090716D4C168C943090712D46FF00801CC
:102780000161042020772068C0698007204602D0BC
:10279000FFF7AEFF04E000F0D1F8204600F090F91A
:1027A000257720680169C943C90617D4C168C943A0
:1027B000C90613D46FF0100101610820207720684A
:1027C000C06910F4407F204602D0FFF791FF04E07B
:1027D00000F0B4F8204600F073F92577206801690D
:1027E000C943C90708D1C168C943C90704D1891EB3
:1027F0000161204600F0F8F920680169C943090623
:1028000009D4C168C943090605D46FF0800101618C
:102810002046FFF708FE20680169C943C90509D4AD
:10282000C168C943090605D46FF48071016120466F
:10283000FFF7F8FD20680169C943490609D4C1685A
:10284000C943490605D46FF040010161204600F0FC
:10285000EFF920680169C943890609D4C168C943F1
:10286000890605D46FF0200101612046FFF7DCFDE9
:1028700020680169C943C90209D4C168C943C902B2
:1028800005D46FF4801101612046FFF7CFFD206869
:102890000169C943890209D4C168C943890205D4C1
:1028A0006FF4001101612046FFF7BFFD2068016948
:1028B000C943490209D4C168C943490205D46FF428
:1028C000800101612046FFF7B2FD20680169C9431C
:1028D00009020BD4C168C943090207D46FF400018F
:1028E00001612046BDE87040FFF7F0BD70BD0000FB
:1028F00010B586B0044614216846FDF779FE2068BD
:10290000B0F1804F15D10C48C16C41F00101C16498
:10291000C06C694600F00100059002200090019013
:10292000002002900390012004904FF09040FEF7A9
:10293000E1FE06B010BD000000100240704770B507
:10294000044690F83C000D4601280BD0012084F885
:102950003C000C2A45D007DC5AB1042A1BD0082AB7
:1029600078D12CE0022070BD102A4ED0142A71D1EB
:102970005DE0206801F0D2FA2068816941F0080129
:1029800081612068816921F0040181612068816989
:102990002A69114311E0206801F00EFB206881696B
:1029A00041F4006181612068816921F48061816165
:1029B000206881692A6941EA022181614AE0206830
:1029C00001F042FB2068C16941F00801C161206843
:1029D000C16921F00401C1612068C1692A691143FC
:1029E00011E0206801F078FB2068C16941F40061C2
:1029F000C1612068C16921F48061C1612068C16939
:102A00002A6941EA0221C16124E0206801F0ACFB9F
:102A10002068016D41F0080101652068016D21F019
:102A2000040101652068016D2A69114311E02068E5
:102A300001F0D2FB2068016D41F40061016520685E
:102A4000016D21F4806101652068016D2A6941EA08
:102A500002210165002084F83C0070BD10B504001F
:102A600003D094F83D0010B107E0012010BD002014
:102A700084F83C00204600F022F8022084F83D0053
:102A8000211D206801F0D0F9012084F8480084F865
:102A90003E0084F83F0084F8400084F8410084F848
:102AA000420084F8430084F8440084F8450084F828
:102AB000460084F8470084F83D00002010BD7047B0
:102AC0007047000030B50446022269B1042916D0CF
:102AD000082920D00C2929D010292ED094F84300A1
:102AE000012831D0012030BD94F83E000128F9D1F1
:102AF00084F83E202068C26842F0020209E094F89F
:102B00003F000128EED184F83F202068C26842F0DF
:102B10000402C2601CE094F840000128E2D184F86D
:102B200040202068C26842F00802F2E794F84100B1
:102B30000128D7D184F8412008E094F84200012808
:102B4000D0D184F8422003E084F843200C2935D00A
:102B50000122206801F0C0F91B4920681B4A1C4B68
:102B6000884209D0904207D0984205D0194DA8421A
:102B700002D0194DA84203D1456C45F40045456487
:102B8000206888420CD0B0F1804F09D013498842A8
:102B900006D01349884203D0904201D0984207D111
:102BA0008168104A1140062906D0B1F5803F03D054
:102BB000016841F001010160002030BD2068C26859
:102BC00042F01002A5E70000002C01400034014053
:102BD0000040014000440140004801400004004022
:102BE00000080040070001000F4988421BD10F4830
:102BF0000021427A012A09D14278521CD2B2427095
:102C00000A2A03D18278D24382704170827A002AE4
:102C100009D18289521C92B28281B2F5FA7F02D127
:102C20008181012181727047EC00002006000020A4
:102C3000704790F88010012918D0012180F8801089
:102C40002421C0F8841050F8641B0A680B6823F034
:102C500001030B6022F000510022026050F8643C36
:102C600019602021016202771046704702207047E8
:102C70007047704770B5044690F8800001281DD059
:102C8000012084F880002420C4F8840020680568AE
:102C9000026822F0010202602068826822F060620D
:102CA0000A438260204601F0F3FA20680560202084
:102CB000C4F88400002084F8800070BD022070BD3C
:102CC00070B5044690F8800001281DD0012084F8DA
:102CD00080002420C4F8840020680568026822F07F
:102CE000010202602068826822F060420A4382602A
:102CF000204601F0CDFA206805602020C4F8840049
:102D0000002084F8800070BD022070BD70477047BD
:102D1000704700002DE9F04103680446D86919683E
:102D20009A6840F60F0528424FF0000509D1860643
:102D30007ED501F0200602F080573E4378D0216F07
:102D4000FFE0924E924F16400F40374370D0C707B6
:102D500009D0CF0507D501271F62D4F88C3043F086
:102D60000103C4F88C3083070AD5D30708D027683D
:102D700002233B62D4F88C3043F00403C4F88C3057
:102D800043070AD5D30708D0276804233B62D4F849
:102D90008C3043F00203C4F88C3003070CD501F0EB
:102DA0002003334308D0266808233362D4F88C30DC
:102DB00043F00803C4F88C3003050BD54B0109D54B
:102DC00026684FF400633362D4F88C3043F020035C
:102DD000C4F88C30D4F88C30002B34D0800609D560
:102DE00001F0200002F08051084303D0216F09B1A7
:102DF00020468847D4F88C0021688968490602D4A7
:102E000010F0280F21D0204601F002FB20688168D5
:102E1000490615D5816821F040018160E06F78B1E5
:102E20005C498163E06FFEF717FC00280BD000E0DF
:102E300011E0E06F816B00E02046BDE8F0410847FB
:102E40002046FFF765FFBDE8F0812046FFF760FFF1
:102E5000C4F88C50F7E7E76E2026012F5CD1C70637
:102E60005AD5CF0658D510201862206881684906C7
:102E70002FD5E26F116849680904090CE3D0B4F852
:102E80005C308B42DFD9A4F85E10116809688906AE
:102E900018D4016821F4807101602068816821F0F4
:102EA000010181602068816821F040018160C4F8DF
:102EB0008860E5662068016821F010010160E06F1C
:102EC000FEF795FBB4F85C00B4F85E10401A81B2CE
:102ED0001EE0B4F85C10B4F85E20891AB4F85E20E5
:102EE00089B2002AAFD00029ADD0026822F49072D6
:102EF000026020688268254BDB431A408260C4F878
:102F00008860E56625672068026822F0100202608A
:102F10002046FFF7ADFE96E7C70209D5570207D551
:102F20004FF4801018622046BDE8F041FFF7EFBE75
:102F300007060AD501F0800702F40002174304D007
:102F4000616F00297FF478AF7DE742060CD54A0611
:102F50000AD51968204621F040011960C4F8846040
:102F6000656700F071F96EE7020206D54A0004D5E4
:102F70002046BDE8F041FFF7C9BEC001CBD500290E
:102F8000C9DA2046BDE8F041FFF773BE010000102A
:102F900020010004FD43000810B5040003D0D4F85C
:102FA000840010B107E0012010BD002084F88000EB
:102FB000204600F027F82420C4F884002068016827
:102FC00021F001010160204601F0FAFB0128EBD05D
:102FD000A06A10B1204601F07DF92068416821F413
:102FE000904141602068816821F02A018160206859
:102FF000016841F0010101602046BDE8104001F088
:10300000CDB9000010B586B0044614216846FDF71E
:10301000EFFA17492068884227D11648016E41F41B
:1030200080410166016E01F480410591C16C41F05F
:103030000101C164C06C694600F0010005904FF4C5
:10304000C0600090022001900020029003900720B1
:1030500004904FF09040FEF74DFB002211462520D2
:10306000FEF7A0FC2520FEF78FFC06B010BD000087
:10307000003801400010024010B4D0F88830202BF6
:103080001BD1B9B1B2B190F88030012B15D001231A
:1030900080F880300023C366094C0368A34206D041
:1030A0005C68240203D51C6844F080641C6010BC7A
:1030B00001F0C0BC012010BC70470220FBE70000FB
:1030C0000080004030B522492DED028B83B088424C
:1030D0000FD1204800783F2815D01E481EA13E3051
:1030E000FDF772F91B49322315223E31184800F0D2
:1030F0004DF803B00122BDEC028B1649BDE830400B
:103100001348FFF7B9BF1948407802F015F99FED51
:10311000188B53EC182B02F023F9044613480D4684
:10312000C01E407802F008F953EC182B02F018F991
:1031300041EC100B074853EC102B0FA11430CDE9D4
:103140000045FDF741F90349322315221431CDE73B
:10315000380100204A000020517565727920666FA1
:10316000726D6174206572726F720A001700002020
:103170009A9999999999B93F583A25332E31662CE5
:10318000593A25332E31660A000000002DE9F84334
:103190000446D0F884001F4616460D46202851D11B
:1031A000DDB1D6B194F8800001284BD0012084F81D
:1031B00080004FF00008C4F88C802120C4F88400FF
:1031C0001834FEF785FBA6878146E68754F8100C75
:1031D000183CB0F5805F03D004E00120BDE8F8831F
:1031E000206920B12E46002584F8808010E000265A
:1031F000FAE78021204601F089FCB8B9C6B116F87B
:10320000010B21688862B4F85600401EA4F85600ED
:10321000B4F856004B464FF0000200970028E8D162
:103220004FF04001204601F071FC30B10320D5E79A
:1032300035F8020BC0F30800E3E72020C4F884004F
:103240000020CBE70220C9E77047FEE700B585B054
:1032500014216846FDF7CCF9C020009001200190B0
:1032600002900220039069460248FEF743FA05B037
:1032700000BD00000004004870B50824002500F0DF
:1032800049FD13E06806050E002000F02BFD142018
:1032900001F0C4FC142001F0C1FC012000F022FD6B
:1032A000142001F0BBFC00F029FD0543641EE4B2CC
:1032B000E8D2002000F016FD142001F0AFFC00F071
:1032C0004BFD284670BD70B50446082516E000F099
:1032D00009FD142001F0A2FC04F0800000F030FD94
:1032E000142001F09BFC6006040E142001F096FCF3
:1032F000012000F0F7FC142001F090FC6D1EEDB2EF
:103300004FF00000E3D200F0EDFCBDE87040142067
:1033100001F084BC10B5012000F012FD142001F072
:103320007DFC012000F0DEFC142001F077FC002081
:1033300000F006FD142001F071FC002000F0D2FC2A
:10334000BDE81040142001F069BC10B5002000F069
:10335000C9FC142001F062FC002000F0F1FC1420F4
:1033600001F05CFC012000F0BDFC142001F056FCD3
:10337000012000F0E5FCBDE81040142001F04EBC37
:1033800010B5052400F0C6FC142001F047FC012014
:1033900000F0A8FC142001F041FC05E0641EA4B27A
:1033A000142001F03BFC6CB100F0A8FC0028F5D122
:1033B00000F0D2FC002000F095FC142001F02EFC5F
:1033C000002010BD00F0C8FCFFF7BFFF012010BDBA
:1033D00000B585B014216846FDF70AF94FF6FF7075
:1033E000009000200321CDE90201019069460248C6
:1033F000FEF780F905B000BD0008004800B585B0B3
:1034000014216846FDF7F4F84FF6FF700090012094
:103410000190032003900020029069460248FEF7C5
:1034200069F905B000BD00000008004870B500242F
:1034300006462146204600F003F900F041F94FF41A
:103440009635304600F010F9641CAC42F9D370BDDB
:1034500030B587B014216846FDF7CAF81E48C16C24
:1034600041F00401C164C16C01F004010591C16C1B
:1034700041F00101C164C16C01F001010591C16C11
:1034800041F00201C164C06C012500F0020005900A
:103490004FF44870CDE90005002403946946029476
:1034A0000E48FEF727F9280203940090CDE9015455
:1034B0004FF0904469462046FEF71CF9FFF79EFF47
:1034C000A06940F48070A06104481830016841F49C
:1034D0000871016007B030BD0010024000040048D0
:1034E000203AD2B2034B02EB420203EB021200F08D
:1034F00019B800003E570008F0B50E4607460025F3
:1035000040F23F1407E021463846FFF7E9FF103C40
:103510006D1CA4B2761C3278002A01D0142DF2D38F
:10352000F0BD00002DE9F04791468A46002604468A
:1035300000F086F8DFF84080012700BF00F0C0F8F7
:103540005FF0000539F8160007FA05F10842404619
:1035500001D1408800E0008800F086F86D1C102D35
:10356000F0D3641CE4B25146204600F069F8761CA2
:10357000182EE3D3BDE8F0870000002010B5FFF758
:1035800067FF002000F014F8084CA080A088A0F588
:103590000241303906D000F0A3FA002000F008F80C
:1035A000A08010BD00F013FAF7E700000000002033
:1035B00070B51D490A6842F400720A600A6842F454
:1035C00080720A60184C103C226842F0200222608F
:1035D000164A1060086840F02000086000BF00BF75
:1035E00000BF206840F020002060206840F4807018
:1035F0002060FFF7EDFE4FF09041886A40F4807044
:10360000886200BF00BF00BF0848001F006885B285
:10361000886940F480708861FFF7F0FE206840F40C
:1036200000702060284670BD280400481408004837
:1036300001B5BDF800000149488008BD0000002028
:1036400010B50C460146202000F068F82146BDE880
:103650001040212000F062B801B5BDF8000001491A
:10366000088008BD00000020134A116841F4007171
:103670001160114910390B6843F480730B600B68BB
:1036800043F020030B600D4B1860106840F02000E1
:10369000106000BF00BF00BF086840F02000086055
:1036A000086840F48070086000BF00BF00BF086871
:1036B00040F400700860704728040048140800486F
:1036C0001449086840F400700860086840F480708D
:1036D000086010481038026842F0200202600E4B69
:1036E00022221A600A6842F020020A6000BF00BF6E
:1036F00000BF016841F020010160016841F4807160
:10370000016000BF00BF00BF016841F400710160AB
:10371000704700002804004814080048184B10B5F2
:103720001A6842F400721A601A6842F480721A60D1
:10373000134A103A146844F020041460114C2060BD
:10374000186840F02000186000BF00BF00BF10687C
:1037500040F020001060106840F48070106021601C
:10376000186840F02000186000BF00BF00BF10685C
:1037700040F020001060106840F48070106010BDB0
:103780002804004814080048F0B587B014216846A2
:10379000FCF72EFF2D48C16C41F00401C164C16CDF
:1037A00001F004010591C16C41F02001C164C16CBC
:1037B00001F020010591C16C41F00101C164C16CAF
:1037C00001F001010591C16C41F00201C164C16CBD
:1037D00001F002010591C16C41F00801C164C06CA7
:1037E0001B4E00F008004FF47F4405900022214654
:1037F0003046FEF768F8174F002204213846FEF7DE
:1038000062F80125CDE9004500240294694630465E
:103810000394FDF76FFFCDE9005469464FF09040E7
:103820000294FDF767FF0720CDE9000469460A48C6
:103830000294FDF75FFF04200090CDE90154694632
:1038400038460394FDF756FF07B0F0BD0010024064
:1038500000080048000C00480004004810B58EB075
:1038600000240794089409940A940B940C941C2146
:1038700068460D94FCF7BCFE1E484FF08041016085
:103880004F21C0E9011440F2F311C0E90314802173
:103890008161FEF71CFE08B1FDF7A7FE4FF48050D2
:1038A000079007A91348FEF7A7FE08B1FDF79DFE94
:1038B0001048FFF7D3F808B1FDF797FE0B940BA95A
:1038C0000C480D94FEF7B4FD08B1FDF78EFE6020A4
:1038D00000901920CDE901040422694605480494AA
:1038E000FFF72DF808B1FDF780FE0248FFF700F85A
:1038F0000EB010BDA000002010B588B000241748FD
:10390000009401940294039404940594124906943B
:1039100001604F21C0E9011442F21071C0E90314A3
:103920008461FEF7D4FD08B1FDF75FFE4FF48050CF
:10393000009069460948FEF75FFE08B1FDF755FEA5
:10394000049404A905480694FEF772FD002801D0EE
:10395000FDF74BFE08B010BD00080040EC00002051
:10396000184810B5164901604FF416514160002106
:1039700081600C22C160C0E904128161C1610162F1
:1039800041628162FFF708FB08B1FDF72EFE0021BE
:103990000C48FFF795F908B1FDF727FE002109480B
:1039A000FFF768F908B1FDF720FE0648FFF741F977
:1039B000002803D0BDE81040FDF717BE10BD000081
:1039C0000038014038010020FEE7FEE7704730B5BF
:1039D00001210020FFF7A2FE4FF47A70FDF7F7FDFA
:1039E00000210120FFF79AFE41F290711020FFF7AD
:1039F00095FE4FF41C516020FFF790FE01216120DD
:103A0000FFF78CFE02214620FFF788FE48F21001E6
:103A10001320FFF783FE48F2FE011220FFF77EFE1F
:103A20004FF4A0610220FFF779FE41F2300103203C
:103A3000FFF774FE40F2033421463020FFF76EFE9C
:103A400021463120FFF76AFE21463220FFF766FE4D
:103A5000E51E29463320FFF761FE03213420FFF7DE
:103A60005DFE21463520FFF759FE14213620FFF771
:103A700055FE21463720FFF751FE21463820FFF73B
:103A80004DFE21463920FFF749FE29463A20FFF72F
:103A900045FE03213B20FFF741FE21463C20FFF776
:103AA0003DFE4FF4A0513D20FFF738FE4FF400716A
:103AB0009220FFF733FE21469320FFF72FFE40F6BA
:103AC0000D019020FFF72AFE41F218010320FFF7B5
:103AD00025FEBDE8304040F273110720FFF71EBEFF
:103AE00010B543F20801E320FFF718FE1221E7208A
:103AF000FFF714FE41F23121EF20FFF70FFE002106
:103B00000120FFF70BFE4FF4E0610220FFF706FEF5
:103B100041F230010320FFF701FE00210420FFF7EE
:103B2000FDFD40F207210820FFF7F8FD00210920E4
:103B3000FFF7F4FD00210A20FFF7F0FD00210C2023
:103B4000FFF7ECFD00210D20FFF7E8FD00210F201D
:103B5000FFF7E4FD00211020FFF7E0FD0721112011
:103B6000FFF7DCFD00211220FFF7D8FD0021132014
:103B7000FFF7D4FDC820FDF7ABFD41F290611020A6
:103B8000FFF7CCFD40F227211120FFF7C7FD3220BF
:103B9000FDF79EFD1D211220FFF7C0FD3220FDF72D
:103BA00097FD4FF400611320FFF7B8FD1421292081
:103BB000FFF7B4FD0B212B20FFF7B0FD3220FDF7FE
:103BC00087FD00212020FFF7A9FD00212120FFF71C
:103BD000A5FD07213020FFF7A1FD40F2077131203C
:103BE000FFF79CFD06213220FFF798FD40F204719B
:103BF0003520FFF793FD41F604713620FFF78EFD67
:103C000004213720FFF78AFD00213820FFF786FDC9
:103C100040F206713920FFF781FD40F201713C202E
:103C2000FFF77CFD0F213D20FFF778FD002150209C
:103C3000FFF774FDEF215120FFF770FD00215220A6
:103C4000FFF76CFD40F23F115320FFF767FD4FF483
:103C50001C516020FFF762FD01216120FFF75EFD2E
:103C600000216A20FFF75AFD00218020FFF756FD52
:103C700000218120FFF752FD00218220FFF74EFD39
:103C800000218320FFF74AFD00218420FFF746FD35
:103C900000218520FFF742FD10219020FFF73EFD17
:103CA00000219220FFF73AFD03219320FFF736FD14
:103CB0004FF488719520FFF731FD00219720FFF721
:103CC0002DFD00219820FFF729FD41F21801032066
:103CD000FFF724FDBDE8104040F273110720FFF705
:103CE0001DBD000008B1044801E003481030016820
:103CF00041F04001016070471804004810B5802170
:103D00000348FDF7DBFD012800D0002010BD0000B6
:103D10000004004800B585B014216846FCF768FC33
:103D2000802000900020019001200290022003904A
:103D300069460248FDF7DEFC05B000BD00040048FE
:103D400008B1044801E003481030016841F08001E7
:103D5000016070471804004800B585B0142168461A
:103D6000FCF746FC8020009011200190002002907A
:103D70000220039069460248FDF7BCFC05B000BD77
:103D8000000400487047FDF7A9BD30B5A5B0382143
:103D90006846FCF72DFC14211FA8FCF729FC4421E0
:103DA0000EA8FCF725FC4FF40070FDF72DFE022055
:103DB000C101039140210491012500900A21CDE920
:103DC0000805CDE90A1007900C900D906846FEF7A3
:103DD0000FF908B172B6FEE70F2000241F900320F0
:103DE000CDE92004229402211FA82394FDF7B6FFF9
:103DF00008B172B6FEE7CDE90E540EA8FDF76AFED3
:103E0000002801D072B6FEE725B030BD0248016837
:103E100041F470010160704788ED00E00148FEF751
:103E200068BC0000EC0000202DE9F0430268234B41
:103E3000234D244E244C4FF08049984207D04845EA
:103E400005D0A84203D0B04201D0A04203D122F055
:103E500070074A683A431D4FDFF874C0DFF874807A
:103E600098420DD048450BD0A84209D0B04207D0A7
:103E7000A04205D0B84203D0604501D0404503D1EF
:103E800022F44075CA682A434D6922F080022A4311
:103E900002608A68C2620A688262984207D0A042C1
:103EA00005D0B84203D0604501D0404501D1096931
:103EB000016301214161BDE8F0830000002C014055
:103EC0000004004000080040003401400040014070
:103ED000004401400048014010B501F01F030121DA
:103EE000046A99408C430462016A9A40114301625A
:103EF00010BD10B5846842EA032224F47F440A43CB
:103F00002243826010BD00008268034B1A400A43BE
:103F100042F00701816070478FFFCFFF2DE9F0432A
:103F2000026A22F001020262056A436882691C4C3F
:103F300025F0020522400C6822F0030214438A682F
:103F4000194E2A43174D194FDFF864C0DFF864900B
:103F5000A84207D0B04205D0B84203D0604501D096
:103F6000484506D122F00808CA6842EA080222F051
:103F70000402A84207D0B04205D0B84203D0604541
:103F800001D0484505D14D6923F440731D438B6929
:103F90002B4343608461496841630262BDE8F0835A
:103FA0008FFFFEFF002C0140003401400040014023
:103FB0000044014000480140F0B5026A22F01002BE
:103FC0000262056A42688369194C1B4E23400C68E3
:103FD00023F4407343EA042425F020038D6843EA68
:103FE0000513144DA84201D0B04206D1CF6823F08A
:103FF000800343EA071323F04003A8420AD0B042EB
:1040000008D00E4DA84205D00D4DA84202D00D4D4E
:10401000A84207D14D6922F4406242EA85028D69C7
:1040200042EA850242608461496881630362F0BDAF
:10403000FF8FFFFE002C0140003401400040014092
:104040000044014000480140F0B5026A22F4807249
:104050000262056A4368C269194C1B4E22400C6813
:1040600022F00302144325F400728D6842EA05220F
:10407000144DA84201D0B04206D1CF6822F40062AC
:1040800042EA072222F48062A8420AD0B04208D055
:104090000E4DA84205D00E4DA84202D00D4DA842AB
:1040A00007D14D6923F4405343EA05138D6943EA70
:1040B00005134360C4614968C1630262F0BD00003A
:1040C0008FFFFEFF002C0140003401400040014002
:1040D0000044014000480140F0B5026A22F48052D9
:1040E0000262056A4268C369194C1B4E23400C6882
:1040F00023F4407343EA042425F400538D6843EA13
:104100000533144DA84201D0B04206D1CF6823F444
:10411000004343EA073323F48043A8420AD0B04265
:1041200008D00E4DA84205D00D4DA84202D00D4D2D
:10413000A84207D14D6922F4404242EA85128D69B6
:1041400042EA85124260C461496801640362F0BDBD
:10415000FF8FFFFE002C0140003401400040014071
:10416000004401400048014030B5026A22F4803228
:104170000262046A4268036D114D2B400D681D43B5
:1041800024F400330C8943EA04430E4CA0420BD0C4
:104190000D4CA04208D00D4CA04205D00C4CA042C2
:1041A00002D00C4CA04204D14C6922F4803242EA85
:1041B00004224260056549688164036230BD0000E5
:1041C0008FFFFEFF002C0140003401400040014001
:1041D000004401400048014030B5026A22F48012D8
:1041E0000262046A4268036D114D24F400142B40EE
:1041F0000D6843EA05230D8944EA05540D4DA84294
:104200000BD00D4DA84208D00C4DA84205D00C4D46
:10421000A84202D00B4DA84204D14D6922F480225D
:1042200042EA8522426003654968C164046230BD88
:10423000FF8FFFFE002C0140003401400040014090
:10424000004401400048014010B5036A046A24F0AC
:1042500001040462846924F0F00444EA021423F0A7
:104260000A020A438461026210BD10B5036A23F09A
:10427000100303628369046A23F4704343EA023241
:1042800024F0A00343EA01118261016210BD000025
:1042900030B5416EB9B1026891689268C1F342616C
:1042A0000B4B520F9C5CE50003F10804A25CB5FBCC
:1042B000F2F2A0F86A205A5C615CD200B2FBF1F124
:1042C000A0F8681030BD0121A0F86A10F8E70000DE
:1042D0002669000890F82810C90706D001684A68C6
:1042E000C36A22F400321A434A6090F82810890702
:1042F00006D501684A68036B22F480321A434A608B
:1043000090F82810490706D501684A68436B22F4E3
:1043100080221A434A6090F82810090706D50168E0
:104320004A68836B22F400421A434A6090F82810CE
:10433000C90606D501688A68C36B22F480521A4305
:104340008A6090F82810890606D501688A68036C8F
:1043500022F400521A438A6090F82810490611D5B9
:1043600001684A68436C22F480121A434A60416C27
:10437000B1F5801F06D101684A68836C22F4C0023F
:104380001A434A6090F82810090606D501684A6861
:10439000C06C22F4002202434A607047F8B5002640
:1043A0000446C0F88C60FDF793FA05462068006863
:1043B0006FF07E47000708D52B4600224FF400110E
:1043C0002046009700F0A2FB60B920680068400713
:1043D0000AD52B4600224FF480012046009700F0BA
:1043E00095FB08B10320F8BD2020C4F88400C4F870
:1043F000880044F86C6F00202675F8BD10B5806AFF
:104400000021A0F85E10A0F85610FEF781FC10BD48
:1044100001680A6822F490720A6001688A68094B90
:104420001A408A60C16E012904D101680A6822F02D
:1044300010020A602021C0F888100021C1660167BF
:1044400070470000FEFFFFEF70B5B0F86010D0F8C5
:10445000882004460068222A04D0816941F00801BE
:10446000816170BD406AA26D08401080A06D801C03
:10447000A065B4F85E00401EA4F85E00B4F85E00CB
:104480000028EED12068016821F490710160206855
:10449000816821F0010181602020C4F88800002596
:1044A0002567E06E012804D02046FEF70BFEE56686
:1044B00070BD2068016821F010010160B4F85C1043
:1044C0002046FEF7D5FBF2E72DE9F0470446B0F8A9
:1044D00060600068C569D0F800A0D0F80880D4F802
:1044E0008810222905D0816941F008018161BDE869
:1044F000F087B4F868704FF000095BE02068406A0C
:10450000A16D30400880A06D801CA065B4F85E00ED
:10451000401EA4F85E002068C569690730D0E9072D
:104520000AD05FEACA5107D501210162D4F88C0094
:1045300040F00100C4F88C00A8070BD55FEAC870F2
:1045400008D0216802200862D4F88C0040F00400F2
:10455000C4F88C0068070BD55FEAC87008D02168E2
:1045600004200862D4F88C0040F00200C4F88C00EB
:10457000D4F88C0020B12046FEF7CAFBC4F88C901A
:10458000B4F85E00B0B92068016821F48071016060
:1045900020688168194A114081602020C4F8880091
:1045A000C4F87090E06E01281CD02046FEF78AFD0A
:1045B000C4F86C900FB1A806A0D4B4F85E0000282F
:1045C00095D0B4F86810814291D92068816821F0B3
:1045D000805181600A4820672068016841F020010D
:1045E000016084E72068016821F010010160B4F8DF
:1045F0005C102046FEF73CFBDAE70000FEFFFFEF11
:104600004944000870B5B0F86010D0F8882004461E
:104610000068222A04D0816941F00801816170BDDF
:10462000406A0840A16D0870A06D401CA065B4F8F8
:104630005E00401EA4F85E00B4F85E000028EED1D3
:104640002068016821F4907101602068816821F080
:10465000010181602020C4F8880000252567E06EF4
:10466000012804D02046FEF72DFDE56670BD2068C8
:10467000016821F010010160B4F85C102046FEF7DB
:10468000F7FAF2E72DE9F0470446B0F860600068F9
:10469000C569D0F800A0D0F80880D4F88810222985
:1046A00005D0816941F008018161BDE8F087B4F867
:1046B00068704FF000095BE02068406AA16D3040EF
:1046C0000870A06D401CA065B4F85E00401EA4F800
:1046D0005E002068C569690730D0E9070AD05FEA43
:1046E000CA5107D501210162D4F88C0040F00100C5
:1046F000C4F88C00A8070BD55FEAC87008D0216801
:1047000002200862D4F88C0040F00400C4F88C0049
:1047100068070BD55FEAC87008D0216804200862DA
:10472000D4F88C0040F00200C4F88C00D4F88C005F
:1047300020B12046FEF7ECFAC4F88C90B4F85E0085
:10474000B0B92068016821F4807101602068816837
:10475000194A114081602020C4F88800C4F8709084
:10476000E06E01281CD02046FEF7ACFCC4F86C902B
:104770000FB1A806A0D4B4F85E00002895D0B4F814
:104780006810814291D92068816821F08051816050
:104790000A4820672068016841F02001016084E731
:1047A0002068016821F010010160B4F85C10204617
:1047B000FEF75EFADAE70000FEFFFFEF05460008AD
:1047C0002DE9F0410446016880682269E3691043DD
:1047D000626900251A431043DFF82CC20A688B4B2C
:1047E0001A4002430A6020684168E26821F440519F
:1047F000114341602168A069614501D0226A1043DC
:104800008A68834B1A4002438A602068C16A626AE0
:1048100021F00F011143C1627E4923687E488B421B
:104820000DD1D0F8880010F0030006D0012855D033
:10483000022842D003283FD152E001203DE07749D1
:104840008B420BD1D0F8880010F00C0035D0042832
:1048500033D0082840D00C282ED141E070498B423B
:104860000BD1D0F8880010F0300026D0102835D0B9
:10487000202831D030281FD132E06A498B420BD139
:10488000D0F8880010F0C00017D0402826D080282B
:1048900022D0C02810D123E063450DD1D0F8880084
:1048A00010F4406009D0B0F5806F17D0B0F5006FFC
:1048B00012D0B0F5406F13D010205B4A5B4F00263A
:1048C0004FF40041634539D160B102280DD004286E
:1048D0000DD0082831D10EE00220EEE70420ECE7ED
:1048E0000820EAE7FDF728FB03E0114603E0FDF7A7
:1048F00047FB01007DD0606A37F810206768B1FB84
:10490000F2F007EB470383426CD8B0EB073F69D85E
:10491000002308461946FBF7DFFC090241EA106153
:1049200002027808101871413A460023FBF7D4FCC4
:104930003F4AA0F54071914259D953E0E3694FF6DF
:10494000EF788B422DD109284CD2DFE800F0050822
:104950000D4B274B4B4B0E00FDF7EEFA01E0FDF738
:10496000FDFA010001D144E01146606A37F81000F9
:10497000B1FBF0F04100606801EB5001B1FBF0F0D9
:1049800080B2A0F1100141452CD84FF6F0710140E2
:10499000C0F3420001432068C1602AE0FDF7F0FA4D
:1049A000DFE709281ED2DFE800F005080D1D1F1DF6
:1049B0001D1D0E00FDF7C0FA01E0FDF7CFFA010062
:1049C00001D116E01146606A37F81000B1FBF0F132
:1049D000606801EB5001B1FBF0F080B2A0F1100172
:1049E000414504D9012504E0FDF7CAFAE7E721684B
:1049F000C8600120A4F86A0024F8680F2846A66061
:104A0000E660BDE8F081000000800040F369FFCF60
:104A1000FFF4FF1100380140001002400044004044
:104A200000480040004C00400024F4000E690008DB
:104A3000FFFC0F0070B58165A0F85C20A0F85E2037
:104A40000021016783684FF48056FF24B34204D1EC
:104A50000369D3B940F2FF131DE07F259BB1B3F189
:104A6000805F15D0A0F86010C0F88C102223C0F829
:104A7000883003689C6844F001049C60436EB3F185
:104A8000005F0ED027E0036943B9A0F86040EBE770
:104A900003691BB13F23A0F86030E5E7A0F8605040
:104AA000E2E7B0F86830934215D88268B24201D18B
:104AB000026972B1114A026780F8801001680A68C1
:104AC00042F480720A600068816841F08051816020
:104AD0000FE00B4AEFE78268B24201D1026952B19E
:104AE000084A026780F880100068016841F49071FC
:104AF0000160002070BD044AF3E70000854600080D
:104B0000C944000805460008494400082DE9F0475B
:104B10009A4617460E4604464FF000094FF020080B
:104B2000089D39E0681C37D0FCF7D2FEA0EB0A00E4
:104B3000A84222D80DB32068016849072CD5C06966
:104B4000C043000528D421684FF400600862206843
:104B5000016821F4D07101602068816821F00101B1
:104B60008160C4F88480C4F88880C4F88C8000BF59
:104B700084F880900320BDE8F0872068016821F464
:104B8000D07101602068816821F001018160C4F862
:104B90008480C4F88880EBE72068C06936EA0000AA
:104BA00004D00020B842BDD00020E4E70120F9E79E
:104BB0000148FEF7AFB8000038010020FEE703B45B
:104BC00001984100009850EAC12018BF04204A0D06
:104BD00018BF40F0010040F2FF72B2EB515F08BF16
:104BE00040F00200012808BF052002B07047090705
:104BF000090E002804DB00F1E02080F80014704763
:104C000000F00F0000F1E02080F8141D70473038EC
:104C10000A2801D20120704700207047002100E0DF
:104C2000491C8142FCD370472DE9F0412DED068BE4
:104C300082B000F0DBF86349C8708A7920EA020389
:104C40000B7180EA020383434B7100228871012BB0
:104C500063D00A2501F10E04022B6DD0E01C032B5A
:104C600076D0042B54D12378A5781E46EB1AA37076
:104C70008378057807465B1B837001230B728A7269
:104C80009046407800F058FB41EC180B284600F0A5
:104C900053FB9FED4DAB53EC1A2B00F061FB53EC33
:104CA000182B00F05DFB41EC180B607800F044FB22
:104CB00041EC190B304600F03FFB53EC1A2B00F08F
:104CC0004FFB53EC192B00F04BFB53EC182B00F06F
:104CD0008BFACDE900012B4632463DA14148FBF756
:104CE00073FB322315223F493F48FEF74FFA2078E5
:104CF00018B1A178022000F045FA38783D4618B185
:104D0000A978042000F03EFA85F8008084F800803D
:104D100002B0BDEC068BBDE8F0810878401CC0B243
:104D20000870022800D90A7002B00020BDEC068B82
:104D3000BDE8F041FEF77ABB087850B1012811D0E8
:104D40000228E5D1A078401CC1B2A17002201EE06B
:104D500012E02078401CC0B22070A1788842D7D9D8
:104D60002270D5E76078401CC0B26070142800D96A
:104D70006570617801200AE0097879B1012916D0BF
:104D80000229C5D18178491CC9B28170042002B0C2
:104D9000BDEC068BBDE8F04100F0F4B90178491C88
:104DA000C9B2017083789942B2D90270B0E74178F4
:104DB000491CC9B24170142900D9457041780320BB
:104DC000E5E70000060000209A9999999999B93F62
:104DD000583A25642C593A25642C5A3A25302E31FC
:104DE000660A0000730000203801002070B51C4CDA
:104DF00001212046FCF762FD4FF0904570B1022181
:104E00002046FCF75BFD48B104212046FCF756FD27
:104E100020B101212846FCF751FDB0B90A20FCF76A
:104E200057FC01212046FCF749FD80B102212046B4
:104E3000FCF744FD68B104212046FCF73FFD50B16A
:104E400001212846FCF73AFD38B1002070BD012051
:104E500070BD022070BD032070BD042070BD000035
:104E60000004004870B53648354C2DED028B0E34E9
:104E70000078E51C08B3012832D002285DD131A1A9
:104E80003348FBF7A1FA32493020FEF735FBA27810
:104E900030A12F48FBF798FA2D496020FEF72CFB34
:104EA000AA7830A12A48FBF78FFABDEC028B782054
:104EB000BDE870402649FEF71FBB2EA12448FBF732
:104EC00083FA23493020FEF717FB227821A12048DE
:104ED000FBF77AFA1E496020FEF70EFB2A78E0E71E
:104EE00028A11B48FBF770FA19493020FEF704FB94
:104EF000607800F021FA9FED278B53EC182B00F01F
:104F00002FFA41EC100B25A153EC102B1048FBF7A6
:104F10005BFA0F496020FEF7EFFA687800F00CFAB0
:104F200053EC182B00F01CFA41EC100B1FA153ECB2
:104F3000102B0748FBF748FAB7E7BDEC028B70BDB2
:104F40000600002020202020202020205245500054
:104F50002C0000202020202020583A2564202020EA
:104F6000000000002020202020593A256420202025
:104F700000000000202020202020202053484F50F7
:104F800000000000202020202020202050524943F3
:104F9000450000009A9999999999B93F20202020BD
:104FA00020583A252E316620202000002020202085
:104FB00020593A252E316620202000001648017A1B
:104FC00001290CD1017851B91449837A0A68014644
:104FD000C9794BB121F00101C171192191630E49C9
:104FE0000E31897829B10CE041F00101C17196219F
:104FF000F4E709491131897819B9012141728178A1
:1050000019B1C17921F0020102E0C17941F0020138
:10501000C171C8B200F004B806000020A000002052
:1050200070B5124D044601224FF47F412846FCF72B
:105030004AFC0F4E012204213046FCF744FC0022BA
:1050400004213046FCF73FFC210200222846FCF7F1
:105050003AFC012204213046FCF735FC3046BDE81D
:10506000704000220421FCF72EBC0000000800481C
:10507000000C0048FCF73AFCFEF787FEFEF784FBC5
:10508000FEF7ECFBFEF76CFCFEF736FCFEF7DEF8F5
:10509000FEF774FA0020FEF7C9F90020FFF7C0FF01
:1050A0000020FEF7C5FA4FF6FF70FEF7D5FA21484B
:1050B000FDF766FA012220492048FDF7DDFF0421B3
:1050C0001F48FDF7FFFC002000F03EF81D4C282192
:1050D000E072002000F056F8E07A04F10E05113479
:1050E000282816D06978012000F04CF8A978022011
:1050F00000F048F86178032000F044F8A17804201B
:1051000000F040F8FFF790FDFFF7ACFEFFF756FF09
:10511000F8E7012000F018F86870022000F014F899
:10512000A870032000F010F86070042000F00CF864
:10513000A070E7E7EC0000204A00002038010020C2
:10514000A00000200600002010B50446FEF7E2F89B
:10515000A020FEF7B8F8FEF713F92046FEF7B3F8E3
:10516000FEF70EF9FEF7D6F8A120FEF7ACF8FEF731
:1051700007F9FEF781F80446FEF702F9FEF7E5F8B5
:10518000204610BD70B50D460446FEF7C3F8A020BA
:10519000FEF799F8FEF7F4F82046FEF794F8FEF7CC
:1051A000EFF82846FEF78FF8FEF7EAF8FEF7CDF89D
:1051B000BDE870400520FCF78BBA000010B500294F
:1051C0000AD00878002807D005487844FBF7EEFDA0
:1051D000002801D0002010BD0248784410BD000016
:1051E0004A1800004218000010B591EA030F48BFAA
:1051F00083F0004300F1BA81841A71EB030C05D2ED
:10520000121943EB0C03001B61EB0C01DFF824E1E6
:105210004FEA1154A4EB135C1EEA430F18BF9EEA39
:10522000445F73D023EA0E03DCF1200E21EA04511F
:1052300043F4801332D322FA0CFE10EB0E0023FA53
:105240000CFE41EB0E01CCF1200E03FA0EFE10EB2A
:105250000E0051F10001B1F5801FCCF1200E32D2C9
:1052600001EB045112FA0EF2BDE8104058BF70472E
:10527000401C38BF5FEA420218BF7047002814BFC5
:1052800020F0010041F100014FEA410313F5001F36
:1052900038BF7047A1F1C04100F05AB9012A43EB71
:1052A0000302ACF1200CDCF11F0E32BF4FF0000EF8
:1052B00023FA0CF310EB030041EB0451B4EB115F44
:1052C000D0D0A1EB045101F5801149085FEA30000C
:1052D00001EB04510ED350F1000038BF12FA0EFE5C
:1052E00008D1BDE81040C9E7401C38BF5FEA420260
:1052F000CAD1C3E7BDE810404FEA410313F5001FD0
:1053000038BF7047A1F1C04100F022B99EEA445F66
:1053100008D011EA5E0FBDE8104004BF01F0004163
:1053200000207047BDE8104070B500F0C3F800BF22
:1053300064FBBE3E0000E0FFB0FA80F310FA03F118
:105340000AD0C3F11D0303F580634FEA41504FEAD1
:10535000035202EBD12170474FF00000704700006C
:10536000DFF848C170B51CEA111E1EBF1CEA1315F8
:105370009EEA0C0F95EA0C0F00F06F8081EA03049F
:1053800023EA4C134EEAD47E21EA4C1141F48011F9
:1053900043F48013AE44A1FB024CA0FB0365AEF1C5
:1053A0007F7E361955EB0C05A1FB034C4CF1000335
:1053B000A0FB021C16EB0C06654153F100030942E9
:1053C00018BF46F0010613F4007F0BD14FEA0331FA
:1053D0004FEA0530340341EA155140EA16506FF0A8
:1053E00003020AE04FEAC3214FEAC520F40241EA72
:1053F000555140EA56506FF0020202EB2E4201EB8B
:10540000025585EACE710AD05FEA440C18BF24F039
:10541000004450F1000041F1000120EAD47040F254
:10542000FE7C624500D270BDA84214BF4FF080449C
:105430004FF04044002E08BF0024BEF1806FA8BF8B
:10544000A1F1C041BDE8704080F282804FF00000C1
:1054500001F1C04101F0004170479EEA0C0F0CEAD7
:10546000131518BF95EA0C0F06D04FF0000081EA23
:10547000030E0EF0004170BD00F01CF88900013EE3
:1054800000F007B800F009B84FEA430C5FEA5C5C33
:1054900008D081EA030100F05BB84FEA410C5FEAF3
:1054A0005C5CF6D14FF00000014970470000FF0737
:1054B0000000F87F0EF1020E2EF0030E5EF8046B72
:1054C000364205D4012A43EB030515F5001F12D817
:1054D000012841EB010C1CF5001F0CD80ED14FEA3E
:1054E000D17C15F5001F0CEB4C0C0CF1020C08BF25
:1054F0004CEBD37C04E04FF0080C01E04FEAD37C86
:105500000CEB4C0526FA05F606F00706B6F1040C7E
:1055100006D20EEB860CBDE870404CF0010C6047E3
:10552000DFE80CF0090B02024FF000414FF00000E1
:10553000A1F5002170BD19461046012851EB010468
:1055400018BFD4F5001484BF002001F0004170BDE5
:105550000808A0F500114FEA3101704710B591EA33
:10556000030F48BF83F000433FF546AE841A71EB4A
:10557000030C07D212198CF0004C43EB0C03001BF8
:1055800061EB0C01DFF8A4E14FEA1154A4EB135CCA
:105590001EEA430F18BF9EEA445F00F0B08023EA82
:1055A0006E03524221EA0451C3EB6E0338BF5B1E07
:1055B000DCF1200E25D322FA0CFE10EB0E0043FA8C
:1055C0000CFE41EB0E01CCF1200E03FA0EFE10EBA7
:1055D0000E0051F10001CCF1200E29D412FA0EF286
:1055E00001EB0451BDE8104058BF7047401C1CBF80
:1055F000B2F1004F704700280CBF491C20F0010099
:10560000704712EB020E43EB030218BF4FF0010E7E
:105610004EEA4202ACF1200CDCF11E0E54D943FAE2
:105620000CFE10EB0E0051F1FF31CCF11E0ED5D562
:105630000EF1010E12FA0EFE404141EB010101EBA9
:10564000445C5FEA5C5C10D910EBDE7001EB045146
:1056500038BFBEF1004FBDE8104018BF70470028AA
:105660000CBF491C20F00100704730D24FEAD42C07
:1056700011F5001124F400641BD0B1FA81F20B3A49
:10568000A41AA41ED2F12003914030FA03F3194367
:10569000904001EBCC71002C01EB0451BDE81040AF
:1056A000A8BF704701F1C0414FF0000001F0004178
:1056B0007047B0FA80F310FA03F100D110BDE41A7C
:1056C000173C4805C90AE4E701EB045110BD491035
:1056D00001EB0451BDE810404FEA300002E04FF00A
:1056E000000170474A0008BF0042F8D0B2F5001F21
:1056F00028BF704701F000414FF0000070479EEA5C
:10570000445F07D011EA5E0FBDE8104004BF0021DE
:1057100000207047BDE8104070B5FFF7CBFE00BF1A
:1057200040DFF63E83F00041104670470000E0FF86
:105730004FF04070E1EE100A7047FBF7B5B800007B
:105740000000000000000000000000000000000059
:105750000000000000000000000000000000000049
:105760000000000000000000000000000000000039
:105770008001800180018001800180018001800121
:105780008001800180018001800100000000800113
:105790008001000000000000000000000000000088
:1057A0000000CC00CC00CC00CC00CC00CC00000031
:1057B00000000000000000000000000000000000E9
:1057C00000000000000000000000000000000000D9
:1057D00000000000000000000000600C600C600C85
:1057E00030063006FE1FFE1F300638071803FE1F66
:1057F000FE1F180318038C018C018C0100000000AF
:105800008000E003F80F9C0E8C1C8C188C00980014
:10581000F801E007800E801C8C188C189C18B80CBE
:10582000F00FE00380008000000000000000000096
:10583000000000000E181B0C110C110611061103BC
:1058400011039B018E01C038C06C60446044304439
:1058500030441844186C0C380000000000000000B0
:10586000E001F0033807180618063003F001F000D5
:10587000F8009C310E33061E061C061C063FFC7306
:10588000F021000000000000000000000000000007
:1058900000000C000C000C000C000C000C000000C0
:1058A00000000000000000000000000000000000F8
:1058B00000000000000000000000000000000000E8
:1058C000000200038001C000C000600060003000E2
:1058D0003000300030003000300030003000600018
:1058E0006000C000C0008001000300020000000052
:1058F00020006000C000800180010003000300065A
:10590000000600060006000600060006000600036A
:10591000000380018001C000600020000000000042
:1059200000000000000000000000C000C000D80619
:10593000F807E00130033807000000000000000015
:105940000000000000000000000000000000000057
:1059500000000000000000000000800180018001C4
:1059600080018001FC3FFC3F8001800180018001BB
:1059700080010000000000000000000000000000A6
:105980000000000000000000000000000000000017
:105990000000000000000000000000000000000007
:1059A0008001800100010001800000000000000073
:1059B00000000000000000000000000000000000E7
:1059C000000000000000E007E00700000000000009
:1059D00000000000000000000000000000000000C7
:1059E00000000000000000000000000000000000B7
:1059F00000000000000000000000000000000000A7
:105A0000C000C00000000000000000000000000016
:105A1000000C000C00060006000600030003000353
:105A20008003800180018001C000C000C0006000D0
:105A30006000000000000000000000000000000006
:105A4000E003F007380E180C0C180C180C180C1882
:105A50000C180C180C180C180C18180C380EF00731
:105A6000E003000000000000000000000000000053
:105A700000018001C001F0019801880180018001CE
:105A8000800180018001800180018001800180010E
:105A90008001000000000000000000000000000085
:105AA000E003F80F180C0C180C1800180018000C64
:105AB000000600038001C000600030001800FC1FD9
:105AC000FC1F0000000000000000000000000000BB
:105AD000E001F807180E0C0C0C0C000C0006C003BB
